:100000005A12040000000000000000000000000080
:1000100000000000000000000000000000000000E0
:100020000000000000000000E811000000000000D7
:1000300000000000000000000000000000000000C0
:1000400000000000000000000000000000000000B0
:1000500000000000000000000000000000000000A0
:100060000000000000000000000000000000000090
:1000700000000000461100002011000000000000F8
:100080000000000000000000000000000000000070
:100090000000000000000000000000000E12000040
:1000A0000000000000000000000000000000000050
:1000B0000000000000000000000000000000000040
:1000C0000000000000000000000000000000000030
:1000D0000000000000000000000000000000000020
:1000E0000000000000000000000000000000000010
:1000F0000000000000000000000000009413000059
:1001000034120000000000000000000000000000A9
:1001100000000000000000000000000000000000DF
:1001200000000000000000000000000000000000CF
:1001300000000000000000000000000000000000BF
:1001400000000000000000000000000000000000AF
:1024B4002F102100F0FF270020A0B70010202000DB
:1024C40032A0B700400020004420B700BA13020035
:1024D400000000008A1F78008B1F78008C1F780092
:1024E4008D1F780054FE070061FE07001EFE0700E2
:1024F40040FE070033FF070049FF07001420EF00E8
:1025040091FB07001DC0B3001820EF00FBC1B3000E
:102514006A0C210016FC07001DC0B3001CC0B300E8
:102524001620EF000A09210011FC07001DC0B300AA
:102534002CC0B3001620EF004A0E21000CFC07004B
:102544001DC0B3003CC0B3001620EF004A0D2100AB
:1025540007FC07001DC0B3004CC0B3001620EF00F9
:10256400BA04210002FC07001C0021000B0021001A
:102574006A00210051FE07000000E20067003200FB
:10258400600021001085FB00FDFE07001000210003
:102594001004E00061003200000021001004E0009B
:1025A4005E003A00480037001420EF0066FB070085
:1025B4005A0037001DC0B3001820EF00CBC3B3008E
:1025C400DA062100EAFB07004FFC07001420EF00A5
:1025D4005DFB0700510037001DC0B3001820EF0059
:1025E400CBC3B3006A062100E1FB0700880020008A
:1025F40047122A000E20ED00FEFF3A001020ED00E5
:10260400FCFF3A001420EF004FFB07001DC0B3008D
:102614001820EF00CBC3B3009A052100D4FB0700B8
:1026240091FD07001420EF0047FB07003B00370033
:102634001420EF0044FB07001DC0B3001820EF0076
:10264400CBC3B3008A082100C9FB0700CFFC0700F5
:10265400332EAE0040A7A900332EAF0040A7A80038
:102664001DC0B3001820EF00CBC3B3004A072100FC
:10267400BFFB07001420EF0033FB070027003700DF
:102684001420EF0030FB07001DC0B3001820EF003A
:10269400CBC3B300FA072100B5FB0700E802200012
:1026A400A76D2C000E20ED00FEFF3A001020ED0077
:1026B400FCFF3A00000000000000000000000000E1
:1026C40000000000150037006000210090407800F1
:1026D40010C7B300000CE100B3FF3200600021001A
:1026E4009040780070C7B300000CE100B1FF3200E5
:1026F400600021009040780050C6B300000CE10057
:10270400B5FF3200600021009040780020C7B3007C
:10271400000CE100C6FF3200D9FF370079FF370013
:04272400FFFF37007C
:101E3C001E2EEF002E2EEF003E2EEF004E2EEF004A
:101E4C006E2EEF00F0FF2F0010AEB700300EA80082
:101E5C00316EA800314EA800312EA800402EEF00A4
:081E6C00602EEF0000000600EB
:101E74008A1F78008C1F78008D1F780081FD070071
:101E84007DC0B3005CC0B3000A802800102020008D
:101E94008005780000022000801F7800A6FD07005E
:101EA4002F00B1001420EF0027FD0700CF067800B3
:0C1EB4004F0678004F0578000000060083
:101488000000FA008A1F7800D10221000020EF0036
:10149800804878000020EF0000888800408EA9006E
:1014A800306EA900302EA900304EA900406EA90068
:1014B800404EA900448EA900402EA900400EA90064
:1014C800502EA900500EA90030EEA90030CEA90078
:1014D80030AEA900308EA900342EA900344EA900E0
:1014E800446EA900444EA800448EA800C8FB07001B
:1014F800FAC3B300CCFB0700F6FB07000ACCB30025
:10150800C9FB0700F3FB0700446EA800444EA9007E
:10151800FAC3B300C4FB0700EEFB07000ACCB30014
:10152800C1FB0700EBFB07004F0578000080FA00BD
:0415380000000600A9
:1004180000000000000000000000000000000000D4
:080428000000000000000600C6
:100430000000FA0014E0AE00422EA90014E0AF0064
:10044000422EA8000000000014C0AE00420EA90019
:1004500014C0AF00420EA8000000000014A0AE00BF
:10046000522EA90014A0AF00522EA80000000000D8
:100470001480AE00520EA9001480AF00520EA800E6
:10048000000000001460AE0032EEA9001460AF005E
:1004900032EEA800000000001440AE0032CEA900E9
:1004A0001440AF0032CEA800000000001420AE00BF
:1004B00032AEA9001420AF0032AEA8000000000048
:1004C0001400AE00328EA9001400AF00328EA800D6
:0C04D000000000000080FA0000000600A0
:1004DC000000FA00C7FF0700346EA800C5FF070034
:0C04EC00346EA9000080FA000000060039
:10040000A70020000E20ED00FEFF3A0000000000D3
:080410000000000000000600DE
:10153C000000FA004EB89700EA878800FB87880005
:10154C00D0878800900F21000C487800800F210074
:10155C000D487800D102210010C0B30080487800FB
:08156C000080FA0000000600F7
:10134C000000FA00446EA900444EA8000420EF00EF
:10135C006710E1000D003E008A1F780002457800FE
:10136C00A1FC07004F0578000220EF00F0032000DD
:10137C000008E10003003E00BEFC07000220EC0068
:10138C00FAFF37000420EC00F1FF3700444EA900AF
:10139C00446EA8000420EF006710E1000D003E0031
:1013AC008A1F7800024578008FFC07004F057800F3
:1013BC000220EF00F00320000008E10003003E00D3
:1013CC00ACFC07000220EC00FAFF37000420EC0014
:0C13DC00F1FF37000080FA00000006005E
:1005F4000000FA008A1F7800342EA900344EA900A6
:100604008A80FB00800B2000008070000045780089
:1006140086FF0700B0FF07004F0578000080FA004E
:0406240000000600CC
:100680000000FA00346EA900342EA800344EA900F0
:1006900067FF070091FF07000080FA0000000600D6
:0006A0005A
:101D6C002004200090407800F0C1B30080C06000D7
:101D7C002004200001487800C1E8A900C3E8A800AD
:101D8C004460A9002008A8002288A80023A8A80065
:101D9C0026A8A80026C8A8000008A90003A8A90026
:101DAC0003A8A90006A8A90006C8A9000020EF00F6
:101DBC00E08088000020EF00F08088000020EF0019
:101DCC00008188000020EF00108188000020EF00C7
:101DDC0020818800C208A900C228A900C248A90015
:0C1DEC00C268A900C288A900000006001F
:101DF800180EA800396EA800394EA800392EA80080
:101E0800380EA8001A0EA8003B6EA8003B4EA8008A
:101E18003B2EA8003A0EA80041428000000027008F
:101E28000080700048A8B7000268A9002268A800CE
:041E380000000600A0
:1021C8008A1F78000A402800102020008005780027
:1021D8000CFD07008800200047122A000E20ED00A1
:1021E800FEFF3A001020ED00FCFF3A000A0028002C
:1021F800102020008005780002FD070088002000DC
:1022080047122A000E20ED00FEFF3A001020ED00D4
:0C221800FCFF3A004F05780000000600B3
:10160C000400FA008C1F78000A0798001B0798004A
:10161C000620EF006718E10036003E008A9FBE00EE
:10162C001420EF001BFC070003457800EEFB0700BD
:10163C001420EF00F9FB07004F05BE000820EF0057
:10164C00F00320000020E1000E003E000E00900090
:10165C009E009000A10188008A9FBE001045780072
:10166C0004FC0700600047001B0020000C00200059
:10167C000005780059FC07004F05BE000820EC005F
:10168C00EFFF37008A9FBE000AC4B30001FC0700BD
:10169C0003457800D4FB07000AC4B300DFFB070046
:1016AC004F05BE0004042000F00720000020E100DC
:1016BC000E003E000E0090009E009000A1018800DC
:1016CC008A9FBE0010457800EAFB070060004700C7
:1016DC001B0020000C002000000578003FFC0700D8
:1016EC004F05BE000820EC00EFFF37000620EC0091
:1016FC00C8FF37004F0678000080FA000000060093
:00170C00DD
:1006A0000000FA008A80FB00F00720000080600054
:1006B0000045780000C0AE0003003700446EA8007B
:1006C000444EA90002003700446EA900444EA80021
:0806D0000080FA0000000600A2
:100628000000FA008A1F78008A80FB00F00720008B
:100638000080600000457800342EA900344EA900DF
:100648008080FB00F00B20000080600000457800EF
:100658008080FB00000420000080700000457800C6
:100668000045780070FF07009AFF07004F057800E3
:080678000080FA0000000600FA
:1007E8000000FA000A017800620045001040780015
:1007F8000000AF0002003700610041001074A10042
:10080800E2004100114078000080FB004100DE005A
:10081800804878001299450012114E00E20041000C
:10082800114078000080FB004100DD00804878001E
:10083800610041001040780000E0AE00020037007F
:10084800620041001004A000610041001074A00083
:080858000080FA000000060018
:102224000000FA00508EA80050AEA8000020EF0075
:0C223400A08788000080FA00000006006F
:101574000000FA000420EF00D0022100104078009F
:101584006004E1000C003A00910F210050C0B30048
:1015940080487800810F210070C0B3008048780033
:1015A40000802800E087880010202000F087880051
:1015B40000022000D0878800020045001004E000EB
:1015C4000F00320002004500821F78008A9FBE008F
:1015D40010457800E1FC07004F05BE004F0178007C
:1015E400900F21001080FB00E10040000B80FB0005
:1015F40001004000804578000420EC00EEFF370035
:081604000080FA00000006005E
:100960000200FA008A1F78006764E1000100360087
:10097000640037008A80FB00A00F210090805000A7
:10098000900F21001080FB000008B80000037800E1
:100990000B45780024FF07000C45780015FF070081
:1009A0000A20EF00900F21001080FB000028E100DA
:1009B00039003100F0C7B300005CE10001003600EF
:1009C000500037008A1F78000B45780034FF07007D
:1009D0000C45780007FF07000B45780012FF070061
:1009E0004F057800C4FE070000479800C2FE0700CC
:1009F000004798008A1F78000B45780028FF070001
:100A00000C457800FBFE07000B45780006FF070049
:100A10004F057800860178004F9ADE00C20F210052
:100A200032804100A2004A00A101880010407800F5
:100A3000004178000C20EC0000E0EE0008003700D8
:100A4000004798000C003700024798000A00370062
:100A5000E0004700600047001148690006003700C9
:100A6000606CE100F6FF3200616CE100F6FF3200DD
:100A7000626CE100F6FF32008A1F78000E4590009C
:100A8000FFFE07004F05780061C0450080457800F3
:100A90000A20EC00C3FF37008A1F78000B4578005E
:100AA000FFFE07000C457800D2FE07000B457800DA
:100AB000DDFE07004F057800F0CFB3000220EF0005
:100AC0000C003700004798008A1F78000045780026
:100AD000EBFE07004F0578000A0037000147980039
:100AE0008A1F780001457800E5FE07004F05780071
:100AF00004003700606CE100F2FF3200616CE1003D
:100B0000F6FF32004F0578000080FA000000060072
:000B1000E5
:1004F8000200FA00402EA800400EA800502EA800C6
:10050800500EA80030EEA80030CEA80030AEA800EB
:10051800308EA800BEFF0700BDFF0700342EA800DC
:10052800346EA900344EA800346EA800B2FF07004C
:10053800600047001070A000422EAE001070A100AD
:10054800600047001060A000420EAE001060A100DD
:10055800600047001050A000522EAE001050A100BD
:10056800600047001040A000520EAE001040A100ED
:10057800600047001030A00032EEAE001030A1003D
:10058800600047001020A00032CEAE001020A1006D
:10059800600047001010A00032AEAE001010A1009D
:1005A800600047001000A000328EAE001000A100CD
:1005B800346EA900344EA90095FF070094FF070088
:1005C800402EA900400EA900502EA900500EA900E7
:1005D80030EEA90030CEA90030AEA900308EA900B7
:0C05E8000E4090000080FA0000000600A9
:101EC0000800FA00100020002007980010002000F1
:101ED000300798000020EF00100798000020EF0066
:101EE000B0878800F9FC07000000E20002003A0019
:101EF0000020EF00A1003700600047008A1F780033
:101F000000057800B5FC07004F057800010F2000A0
:101F1000600047001008E1000C003A000020EF00CC
:101F200030079800E9FC07000000E20001003A00D9
:101F3000FCFF3700600047008A1F7800000578002A
:101F4000A6FC07004F05780037003700010E20007F
:101F5000600047001008E1001B003A00DBFC0700AE
:101F60000000E20001003A00FCFF3700600047007B
:101F70008A1F78000005780098FC07004F0578005C
:101F8000010F2000600047001008E1000B003A003C
:101F90000020EF0030079800CCFC07000000E200B2
:101FA00001003A00FCFF3700600047008A1F7800FC
:101FB0000005780089FC07004F057800100020001C
:101FC000B0878800180037007107200060004700C4
:101FD0001008E1000E003A001000200020079800D1
:101FE000660047001000E00008003200400F2100AA
:101FF0001010A70003003700400F21001010A000B0
:1020000002003700400F21001010A1000600370029
:10201000110E2000600047001008E10002003A00A5
:10202000000E200010079800600F21001000E00053
:102030000B0032000E0090007200E10002003A0036
:10204000F00D200010079800C10720006000470035
:102050001008E10002003A00F00D2000100798007F
:102060000E0090007200E100050032009105200092
:10207000600047001008E100010032000A0037004C
:102080001000200020079800660047001000E000C4
:1020900003003200400F21001050A0000200370062
:1020A000400F21001050A100400F21001010A70088
:1020B0000600370031072000600047001008E100EB
:1020C00002003A000020EF002C0037001E009000B4
:1020D0006000E10007003A000020EF0020079800B0
:1020E0008A1F78000E059000D2FA07004F0578008D
:1020F00010079800110E2000620047001008E10050
:102100000D003A00100020002007980066004700EC
:102110001000E00008003200400F21001020A7004E
:1021200003003700400F21001020A00002003700FC
:10213000400F21001020A100810C20006200470008
:102140001008E10006003100100020002007980070
:10215000820C2000E20047006200470011081100D5
:102160002E409000004D78004E409000804D780049
:102170006E409000004E7800100020000080FA00B1
:042180000000060055
:1012CC000400FA000020EF00100798003FFD070013
:1012DC008AFD07000000E20002003A001E009000A8
:1012EC00150037000020EF000007980001082000CF
:1012FC00600047001008E1000A003600528EAF0073
:10130C000400370052AEAF0002003700100020007E
:10131C00090037008E009000600047006188400093
:10132C00F2FF3700620047001000E00001003A00B5
:10133C00F4FD07001E0090000080FA00000006007B
:00134C00A1
:1007D8000000FA0050AEA8000080FA0000000600F1
:0007E80011
:100908000200FA00100020000007980001082000EB
:10091800600047001008E1000A00360052AEAE0041
:1009280004003700010820006000470010887000AC
:1009380003003700110020006000470010884000C5
:10094800F2FF3700600047001070A1000E00900011
:080958000080FA000000060017
:100B10000000FA0050AEA90052AEA9000080FA0011
:040B200000000600CB
:1011DC000000FA000C20EF00150020000820EF00A2
:1011EC000620EF00B101210010C0B3008048780048
:1011FC00B00121001004E0001600320046FE07008A
:10120C000000E20012003200528EAE0006003700E1
:10121C00B00121001080FB000000730061816A00A6
:10122C008002780002003700050178008602780001
:10123C00B00121001080FB00C100DD00B0012100D5
:10124C00014878000503780082027800000037001E
:10125C00E7FF370030FE07000000E2000500320017
:10126C000020EF00528EAF000020EC00000278004E
:10127C000000370028FE07000000E20004003200E6
:10128C000020EF00528EAF000020EC000100370070
:10129C00030078001BFE07000428E10004003A005C
:1012AC006000E10002003200060078000100370007
:1012BC000020EF00000D78000080FA00000006000E
:0012CC0022
:100B24000400FA000220EF00F00F200010079800E4
:100B3400620047001000E00011003200600047002E
:100B44000008EB0052AEAF001008E8000200E2001B
:100B540005003200600047001000E00002003A0087
:100B640010002000070037000E0190009E00900046
:100B7400620047006188500082007800ECFF370073
:0C0B84000020EF000080FA0000000600D6
:100C34000000FA000220EF006050E10002003A00D8
:100C4400010078004B003700400F21001010A6006F
:100C540013003700800620000050E1001000360029
:100C6400E00720000050E1000D0031007007200073
:100C74000050E1000A003200900620008000550078
:100C840020E12800810040001020200034A0B7009B
:100C9400114078008080FB000100780035003700A7
:100CA4006100550000057800400F21001050A60097
:100CB4001800370010B428008A00400010202000DB
:100CC40034A0B700114078008080FB00400F210061
:100CD4001020A60009003700000420000008E100ED
:100CE40008003600B00520000008E10008003100CB
:100CF400000220000080400001003700010078005D
:100D040001003700010078008000780000003700FF
:100D14001700370040BC28008A0040001020200043
:100D240034A0B700114078008080FB00400F210000
:100D34001020A60009003700000620000008E1008A
:100D440008003600B00720000008E1000800310068
:100D540000022000008050000100370001007800EC
:100D6400010037000100780080007800000037009F
:0C0D7400010078000080FA00000006007A
:102184008B1F78008C1F78008D1F78001DC0B30052
:102194007CC0B3001620EF00F5FC07008800200087
:1021A40047122A000E20ED00FEFF3A001020ED0039
:1021B400FCFF3A00CF0678004F067800CF05780080
:0421C4000000060011
:10170C008A1F78008B1F78008C1F78008D1F780043
:10171C000020EF00708188000020EF00808188009D
:10172C000020EF00908188000020EF00A08188004D
:10173C001420EF0002FF07001DC0B3001820EF00BB
:10174C001620EF006A02210087FF07000801200025
:10175C00872424000E20ED00FEFF3A001020ED003F
:10176C00FCFF3A0000000000000000000000000038
:10177C00000000001DC0B3001CC0B3001620EF0019
:10178C006A03210078FF0700110021000020EF0000
:10179C0080487800010021000020EF00804878008C
:1017AC00708180006100E1000D003A007A01210097
:1017BC00710207000A002800102020008005780024
:1017CC008FFF07008800200047122A000E20ED0032
:1017DC00FEFF3A001020ED00FCFF3A0043003700FA
:1017EC00808180006100E1000D003A002A00210098
:1017FC00610207000A4028001020200080057800B4
:10180C007FFF07008800200047122A000E20ED0001
:10181C00FEFF3A001020ED00FCFF3A0033003700C9
:10182C00908180006100E10017003A003A0121002C
:10183C00510207002D0120002C0120008B012000FB
:10184C00CA03200010DC2800801F78001020200024
:10185C00801F780020012000801F780020012000CC
:10186C00801F780043FD07004F00B1008800200066
:10187C0047122A000E20ED00FEFF3A001020ED006A
:10188C00FCFF3A0019003700A08180006100E100E4
:10189C0016003A00FA002100370207008D022000E2
:1018AC00FC0120000B012000DA02200060AA2800B5
:1018BC00801F780010202000801F780080022000FC
:1018CC00801F7800F0012000801F780029FD0700A0
:1018DC004F00B1008800200047122A000E20ED00B6
:1018EC00FEFF3A001020ED00FCFF3A001C00210026
:1018FC000B0021006A0021006E010700600021002E
:10190C009040780020C2B300000CE10011003200BE
:10191C0010002100104078000040E2000260EF004F
:10192C0001003A000260EC00000021001040780039
:10193C000040E2000060EF0001003A000060EC00A3
:10194C008180FB000080FB00008060000100320001
:10195C0088FF3700CF0678004F067800CF05780057
:08196C004F05780000000600A1
:100D80001600FA004EB8970040BF9F003EB997008A
:100D90001EB89700AEB8970010BF9F0021BF9F00FC
:100DA0001EB89700AEB89700100F9800210F98005A
:100DB0000020EF00500798000020EF006007980027
:100DC0000C004500E1005000F00720000008E100A1
:100DD00003003600000820000A00500000067800DA
:100DE0000D804500E1005000F00320000008E10004
:100DF00003003600000420000B005000800678003D
:100E00004358DE00004798008D8045006180500007
:100E10004300DE0010479800678065002047980077
:100E200067806000304798000D10E1000300360035
:100E30001E409000404798000400370002804500A3
:100E40000020ED004300DE0040479800670061008D
:100E50006000E10005003A00C311DE0068015700A0
:100E60001218B800000F9800050037004310DE008C
:100E7000E1014000680157001218B800000F980007
:100E8000600047001080FB003007980061004700B9
:100E90009080FB00660047001008E100CD0039009B
:100EA0000020EF00700798000020EF004007980036
:100EB000680047001060E100B70036006800470096
:100EC000100045008A1F780000457800F4FD0700F7
:100ED0006E459000C7FD07004F057800CE009000DA
:100EE000680057001008E10040003100640047002E
:100EF0009080FB00660047001008E1003B003900CD
:100F0000600047009080FB00660047001008E10089
:100F100002003A000620EF00150037001EB89700C7
:100F2000AEB89700100F9800210F9800FE009000B7
:100F30006C00470090804000720047008C1F7800D2
:100F40008A9FBE00810578000006EB00000578004E
:100F500025FE07004F05BE004F0678001E089000D2
:100F6000AE089000A1018800104078008041780010
:100F7000DE009000700047001008E1000200390018
:100F80000020EF00160037001EB89700AEB897009B
:100F9000100F9800210F9800FE0090006A00470093
:100FA00090804000720047008C1F78008A9FBE002E
:100FB000810578000006EB00000578000AFE0700B6
:100FC0004F05BE004F0678001E089000AE08900046
:100FD000A10188001040780080407800014078002E
:100FE0000341780080417800020037000620EF00BE
:100FF0000420EF00834078002E4090006004E10060
:101000000B003600620047001080FB00E800100073
:101010000280FB000101DE008380FB0062004700CC
:101020001080FB000008DD008041710001003700E6
:1010300081417800600047009080FB006600470017
:101040001008E1001C003A002E4090006004E1000E
:101050001A00360068004700100045008A1F78001B
:101060000045780070FD07004F05780022FD07005D
:1010700021FD0700E20047009180FB00688110001D
:10108000F10F20000209DE008080FB000280FB00DF
:1010900000816000F10F2000620047001080FB001B
:1010A0008008DD000380FB0001006000024070004A
:1010B00080417800000037000000370061004700E1
:1010C0009080FB00660047001008E1001C003A0019
:1010D0003E4090006004E1001B00360068004700BD
:1010E000100045008A1F7800004578004EFD07007B
:1010F0004F05780000FD0700FFFC0700F20F2000FD
:10110000E30047009180FB008110DD000080FB00C0
:1011100001016000630047001080FB00E800100040
:10112000F00F20000100DE008380FB000080FB0048
:10113000008060000240700000417800010037002C
:10114000034178000100370003417800CE00900091
:10115000680057001008E10003003100FE00900015
:101160006E0047006188400068004700100045009D
:101170008A1F7800004578002BFD070002457800A3
:101180003FFD07004F057800CE0090006800470043
:101190006188400046FF3700640047009080FB00F4
:1011A000660047001008E100060036005E0090006F
:1011B000600798005E019000E80057006A00470051
:1011C00011084100BE0090006600470061884000A1
:0C11D0002EFF37000080FA00000006002F
:101C6C008A1F78008B1F78008C1F78008D1F7800DE
:101C7C00110021000020EF008048780001002100B5
:101C8C000020EF00804878004087AE000800370045
:101C9C001DC0B3001CC0B3001620EF00EA032100E6
:101CAC0031FE07004087A90042AEA800140037009F
:101CBC0040E7AE00090037001DC0B3002CC0B300D4
:101CCC001620EF006A04210027FE070040E7A90058
:101CDC004007A90042EEA800090037004007AE00FB
:101CEC00070037001DC0B3003CC0B3001620EF0046
:101CFC002A0421001CFE07004007A90062CEA800A0
:101D0C001C0021000B0021006A0021006900070063
:101D1C00600021009040780020C2B300000CE1006C
:101D2C0007003200100021001004E00004003A000B
:101D3C00000021001004E00001003A00CCFF370045
:101D4C0044CEA90044EEA90064CEA900CF067800C9
:101D5C004F067800CF0578004F057800000006008C
:001D6C0077
:101990008A1F78008B1F78008C1F78008D1F7800BD
:1019A0000DC4B300FCC7B3008BC0B3001420EF001C
:1019B0000020EF00801F78008BFE07002F00B10091
:1019C0003D0120005C0120004B0120005A01200055
:1019D00050CC2800801F780010202000801F780045
:1019E00030012000801F780050012000801F780007
:1019F000E3FC07004F00B10058002000273E2900FB
:101A00000E20ED00FEFF3A001020ED00FCFF3A0032
:101A1000000000000DC4B300FCC7B3008BC0B300CE
:101A20001420EF000020EF00801F78006EFE0700FA
:101A30002F00B1003D0120005C0120004B0120007F
:101A40005A01200060C82800801F78001020200064
:101A5000801F780030012000801F78005001200096
:101A6000801F7800C6FC07004F00B100580020001E
:101A7000273E29000E20ED00FEFF3A001020ED0069
:101A8000FCFF3A00000000000DC4B300FCC7B30027
:101A90008BC0B3001420EF000020EF00801F7800FF
:101AA00051FE07002F00B1003D0120005C01200025
:101AB0004B0120005A01200040D02800801F7800F0
:101AC00010202000801F780030012000801F780047
:101AD00050012000801F7800A9FC07004F00B100D2
:101AE00058002000273E29000E20ED00FEFF3A009E
:101AF0001020ED00FCFF3A00000000000DC4B30010
:101B0000FCC7B3008BC0B3001420EF000020EF002F
:101B1000801F780034FE07002F00B1003D01200037
:101B20005C0120004B0120005A01200020D8280031
:101B3000801F780010202000801F780030012000D6
:101B4000801F780050012000801F78008CFC070067
:101B50004F00B10058002000273E29000E20ED0064
:101B6000FEFF3A001020ED00FCFF3A0000000000EC
:101B70000DC4B300FCC7B3008BC0B3001420EF004A
:101B80000020EF00801F780017FE07002F00B10033
:101B90003D0120005C0120004B0120005A01200083
:101BA00030D42800801F780010202000801F78008B
:101BB00030012000801F780050012000801F780035
:101BC0006FFC07004F00B10058002000273E29009D
:101BD0000E20ED00FEFF3A001020ED00FCFF3A0061
:101BE000000000000DC4B300FCC7B3008BC0B300FD
:101BF0001420EF000020EF00801F7800FAFD07009E
:101C00002F00B1003D0120005C0120004B012000AD
:101C10005A01200070C42800801F78001020200086
:101C2000801F780030012000801F780050012000C4
:101C3000801F780052FC07004F00B10058002000C0
:101C4000273E29000E20ED00FEFF3A001020ED0097
:101C5000FCFF3A0000000000CF0678004F06780035
:0C1C6000CF0578004F057800000006005A
:1013E8000000FA008A1F78008B1F78008D1F780094
:1013F8008EF997008C9FBE008A9FBE008C1F7800D4
:10140800834678000B467800CF057800DEFD07009C
:101418004F05BE004F06BE008C9FBE008A9FBE00CF
:101428008C4578000D46780083467800D6FD070085
:101438004F05BE004F06BE008C9FBE008B1F780074
:101448000A4678000B4578008D4578008346780079
:1014580001FD0700CF0578004F06BE000B45780058
:101468008D45780083467800FBFC0700CF0678009E
:10147800CF0578004F0578000080FA0000000600CC
:0014880064
:100B90000000FA006064E10004003900F0C3B30013
:100BA0000064E10001003E00010037001F00370033
:100BB0006054E100010031001420EF00F0C7B300E1
:100BC0000054E10001003600FAC7B300605CE100A8
:100BD000010031001620EF00F0C7B300005CE10017
:100BE00001003600FBC7B3000B54E10003003600E0
:100BF0000A80FB000B457800804578000B54E1002B
:100C00000A003E008C1F78008A9FBE008C45780049
:100C10000D467800B0FE07004F05BE004F06780075
:100C20006140450000457800F4FF37000080FA007D
:040C300000000600BA
:1006D8000000FA008A1F78006054E1000900390020
:1006E800F0C7B3000054E10006003E00605CE10082
:1006F80004003900F0C3B300005CE10001003E00D3
:10070800010037002F0037008A1F7800E2FF07003A
:100718000B80FB004300DE0000457800B3FF0700B4
:100728004F0578008A1F7800BDFF07004F05780045
:1007380031FF07006EFF07002FFF07006CFF07005F
:10074800004178002CFF07000B80FB004300DE000F
:100758008A1F780000457800A4FF07004F0578003D
:10076800AFFF07000B80FB00670060008080FB0084
:10077800100020000100DD008040780000E0EE005D
:100788000700370080406100014078000B00370007
:100798000140710009003700014069000700370077
:1007A8006064E100F7FF32006164E100F8FF3200A5
:1007B8006264E100F8FF32000240780000457800EA
:1007C800ADFF07004F0578000080FA000000060022
:0007D80021
:100860000000FA006064E10004003900F0C7B30042
:100870000064E10001003E00010037002000370065
:100880006054E100010031001420EF00F0C3B30018
:100890000054E10001003600FAC3B300605CE100DF
:1008A000010031001620EF00F0C3B300005CE1004E
:1008B00001003600FBC3B3000B54E1000300360017
:1008C0000A80FB000B457800804578000B54E1005E
:1008D0000B003E008C1F78008A9FBE008A4578007E
:1008E0000C4578000D4678007BFF07004F05BE00E1
:1008F0004F0678006140450000457800F3FF37005F
:080900000080FA00000006006F
:102774000100210070DF28001A000900B058780019
:10278400C101210080E2280007000900B018780088
:10279400B0587800E1022100009E28006200090080
:0827A400B018780000000600E7
:102468003400F8003200F8003600F800801F7800C9
:10247800200020000C000900B01F78008A1F780097
:102488004A00200039FD07004F057800A001200010
:102498000C0009004F1078004F0078003600F90052
:0C24A8003200F9003400F900004006008A
:10197400C150DD00C0012100810040001100780049
:0C1984000020EC00800878000000060045
:102728003400F8003200F8003600F800801F780006
:10273800200020000C000900B01F78008A1F7800D4
:102748003A00200089FC07004F057800A00120000E
:102758000C0009004F1078004F0078003600F9008F
:0C2768003200F9003400F90000400600C7
:10241C003400F8003200F8003600F800801F780015
:10242C00200020000C000900B01F78008A1F7800E3
:10243C002A0020004CFD07004F057800A001200069
:10244C000C0009004F1078004F0078003600F9009E
:0C245C003200F9003400F90000400600D6
:102240003400F8003200F8003600F800801F7800F3
:10225000200020000C000900B01F78008A1F7800C1
:102260001A002000C3FD07004F057800A0012000E0
:102270000C0009004F1078004F0078003600F9007C
:0C2280003200F9003400F90000400600B4
:10228C003400F8003200F8003600F800801F7800A7
:10229C00200020000C000900B01F78008A1F780075
:1022AC000268A900120EAE00150037007A0021005A
:1022BC00B1FF070008012000872424000E20ED0048
:1022CC00FEFF3A001020ED00FCFF3A000000000079
:1022DC0000000000000000000000000010002000C2
:1022EC00708188000020EF00808188000020EF00C2
:1022FC00908188000020EF00A08188002600370024
:10230C00320EAE000B0037000A0A21009AFF0700BC
:10231C000020EF0070818800100020008081880070
:10232C000020EF00908188000020EF00A081880041
:10233C0019003700336EAE000B003700EA0B21009A
:10234C008DFF07000020EF00708188000020EF0057
:10235C008081880010002000908188000020EF0010
:10236C00A08188000C003700334EAE000A00370005
:10237C006A0B210080FF07000020EF0070818800AD
:10238C000020EF00808188000020EF009081880001
:10239C0010002000A08188008A0A210076FF070027
:1023AC004F057800A00120000C0009004F107800A8
:1023BC004F0078003600F9003200F9003400F900C3
:0423CC0000400600C7
:1023D0003400F8003200F8003600F800801F780062
:1023E000200020000C000900B01F78008A1F780030
:1023F0001420EF005FFD07004F057800A0012000CA
:102400000C0009004F1078004F0078003600F900EA
:0C2410003200F9003400F9000040060022
:020000040001F9
:1000000000000000000000000000000000000000F0
:1000100000000000000000000000000000000000E0
:1000200000000000000000000000000000000000D0
:1000300000000000000000000000000000000000C0
:1000400000000000000000000000000000000000B0
:1000500000000000000000000000000000000000A0
:100060000000000000000000000000000000000090
:100070000000000000000000000000000000000080
:100080000000000000000000000000000000000070
:100090000000000000000000000000000000000060
:1000A0000000000080800000000000000000000050
:1000B0000000000000000000000000000000000040
:1000C0000000000000000000000000000000000030
:1000D0000000000000000000000000000000000020
:1000E0000000000000000000000000000000000010
:1000F0000000000000000000000000000000000000
:1001000000000000000000000000000000000000EF
:1001100000000000000000000000000000000000DF
:10012000000000000000000000000000008000004F
:100130004020000020100000101000000804000003
:10014000347A0000DE8000000000000000000000A3
:10015000000000000000000000000000000000009F
:10016000000000000000000000000000000000008F
:10017000000000000000000000000000000000007F
:10018000000000000000000000000000000000006F
:1001900000000000000000000080000040E00000BF
:1001A00038070000000000003F700000E0C00000C1
:1001B00080000000000000000000000000000000BF
:1001C000000000000000000000000000000000002F
:1001D00000000000004400000C98000038F8000007
:1001E00070E00000C00000000000000000000000FF
:1001F00000000000000000000000000000000000FF
:1002000000000000000000000000000000000000EE
:1002100000000000000000000000000000000000DE
:100220000000000000000000804000007C1B000077
:10023000000000000010000020380000FCF6000064
:10024000E2FE0000FFFF0000FEC00000C0C0000092
:10025000C0C00000C0C0000080800000800000001E
:10026000000000000000000000000000000000008E
:10027000000000000000000000000000000000007E
:10028000000000000000000000000000000000006E
:1002900000000000003C0000D3800000800000004F
:1002A0000030000040C00000A8F800008CFF0000F3
:1002B000FFFE0000F8C0000080800000C040000089
:1002C0002020000010100000108800008888000026
:1002D000888800009674000058B700005EBF0000D8
:1002E0007D3A0000053F0000F8C00000000000005B
:1002F00000000000000000000000000000000000FE
:1003000000000000000000000000000000000000ED
:100310000000000000000000E0FE0000F880000087
:100320000000000000000000070A0000101000009C
:10033000F4F00000F0F80000F8FE0000FFDF00001D
:100340008F87000083C30000E3E70000DF8F000019
:100350004F3D0000F830000031610000C1C30000D3
:10036000E3620000FE3C00001CF80000B0600000EA
:10037000000000000000000000000000000000007D
:10038000000000000000000000000000000000006D
:1003900000000000000000000F11000028E0000035
:1003A000E0E80000E0F80000F7FF0000FF7F000039
:1003B0007F7F00007F7F00003F1F00000FFF0000D5
:1003C0007F7700002727000027430000C383000039
:1003D000030100003B7F00007DF00000E0F0000022
:1003E000F8F40000E01E000003010000000000001F
:1003F00000000000000000000000000000000000FD
:1004000000000000000000000000000000000000EC
:1004100000000000000000001F670000831F0000B4
:100420003C780000F0F00000E0E00000C0C00000F8
:10043000C16700003F1F000038100000302100009D
:10044000212100002121000031930000FFFF000066
:100450007A7900007D7E0000F8F00000E080000066
:10046000010200000403000002010000000000007F
:10047000000000000000000000000000000000007C
:10048000000000000000000000000000000000006C
:100490000080000060100000888800008486000052
:1004A000CFFF00003F1F00001F1D0000186000006C
:1004B000800000000000000008140000275A00001F
:1004C0008A05000001030000030F00001F3F000029
:1004D000FFFE0000F8F00000F8E8000084030000D0
:1004E000C03000000D00000000000000000000000F
:1004F00000000000000000000000000000000000FC
:1005000000000000000000000000000000000000EB
:1005100000000000000000000000000001020000D8
:1005200004080000103300003F7F00007FFF000040
:10053000F0C00000C0C00000F0F80000FDFE0000A8
:10054000FEFE0000FEFE00007F7300004180000000
:100550008080000080800000C0E00000F3FF000009
:10056000FEF80000E00000000000000000000000B5
:10057000000000000000000000000000000000007B
:100580000000000000000000000000000018000053
:10059000262F0000121700001C08000007030000AF
:1005A000010000000000000000000000000E00003C
:1005B0003141000042C40000E4FC0000F8F80000F3
:1005C000F0F10000E3E40000E42800002C1E00002D
:1005D000171300000B0900000504000002010000D1
:1005E000000000000000000000000000000000000B
:1005F00000000000000000000000000000000000FB
:1006000000000000000000000000000000000000EA
:1006100000000000000000000000000000000000DA
:1006200000000000000000000000000000040000C6
:100630000A0F000017170000170F0000171700001F
:100640001F07000003000000000000000000000081
:1006500008150000171F00002F2F00002F1F00009B
:100660002F270000170F0000060000000000000008
:10067000000000000000000000000000000000007A
:10068000000000000000000000000000000000006A
:10069000000000000000000000000000000000005A
:1006A000000000000000000000000000000000004A
:1006B000000000000000000000000000030D00002A
:1006C000140C0000110F00000403000000000000E3
:1006D000000000000000000000000000000000001A
:1006E000000000000000000000000000000000000A
:1006F00000000000000000000000000000000000FA
:1007000000000000000000000000000000000000E9
:10092000000000000000000000C0000020100000D7
:100930000008000008080000080000001010000077
:10094000A0C0000000000000000000000000000047
:100950000000000000000000000000000000000097
:100960000000000000000000000000000000000087
:100970000000000000000000000000000000000077
:100980000000000000000000000000000000000067
:1009900000000000000000000000000000800000D7
:1009A0008040000040400000404000008080000087
:1009B0000000000000000000000000000000000037
:1009C0000000000000000000000000000000000027
:1009D0000000000000000000000000000000000017
:1009E0000000000000000000000000000000000007
:1009F00000000000000000000000000000000000F7
:100A000000000000000000000000000000000000E6
:100A100000000000000000000000000000000000D6
:100A20000000000000000000DF3E00003810000061
:100A300000000000001000001CAE00007FFC000061
:100A4000FCFF0000FFF0000080000000000000003C
:100A500000000000000000000008000070E000003E
:100A6000C0000000000000000000000000000000C6
:100A70000000000000000000000000000000000076
:100A80000000000000000000000000000000000066
:100A90000000000000000000788600000100000057
:100AA00000000000000000001C2400007C78000012
:100AB000310600001860000080000000F0380000DF
:100AC000D408000014180000F000000000800000AE
:100AD00000C00000B00000000000000000000000A6
:100AE0000000000000000000000000000000000006
:100AF00000000000000000000000000000000000F6
:100B000000000000000000000000000000000000E5
:100B100000000000000000000000000000000000D5
:100B200000000000000000000102000004080000B6
:100B300008880000C83C00001A1D00008E4F00000D
:100B4000371B0000030700008FFE0000F870000054
:100B50004080000000000000000000000083000052
:100B6000FFFF0000FCF0000000000000000000009B
:100B70000000000000000000000000000000000075
:100B80000000000000000000000000000000000065
:100B90000070000098080000684900000F30000055
:100BA00040C00000808000005040000020980000FD
:100BB00097480000300C0000010600000100000012
:100BC00000C00000700E000001000000010A0000DB
:100BD000150B0000976F00009E0000000000000051
:100BE0000000000000000000000000000000000005
:100BF00000000000000000000000000000000000F5
:100C000000000000000000000000000000000000E4
:100C100000000000000000000000000000000000D4
:100C20000000000000000000001C0000322900004D
:100C3000211000001F600000800E00001914000049
:100C400018080000043E00008701000000000000BA
:100C50000000000083FC0000FCFE00007F3F00005D
:100C60001F0F000003000000000000000000000053
:100C70000000000000000000000000000000000074
:100C80000000000000000000000000000000000064
:100C9000000000000001000001020000020200004C
:100CA00007870000F70F00000101000001000000AD
:100CB0000000000000000000804000000000000074
:100CC000010300001C7000009010000088880000E4
:100CD000C4E20000F93E00000F0000000000000028
:100CE0000000000000000000000000000000000004
:100CF00000000000000000000000000000000000F4
:100D000000000000000000000000000000000000E3
:100D100000000000000000000000000000000000D3
:100D200000000000000000000000000000000000C3
:100D30000080000040200000201100000A8C00000C
:100D40009CF80000F8E8000008050000067C0000A0
:100D5000840600008F1D000038F00000E0C0000095
:100D60008000000000000000000000000000000003
:100D70000000000000000000000000000000000073
:100D80000000000000000000000000000000000063
:100D9000000000000000000000000000804E000085
:100DA0005120000020430000CCF80000F0F00000CB
:100DB00060200000203E000039700000E0E00000EC
:100DC00040400000406000005F8700000703000013
:100DD000030100000000000000000000000000000F
:100DE0000000000000000000000000000000000003
:100DF00000000000000000000000000000000000F3
:100E000000000000000000000000000000000000E2
:100E100000000000000000000000000000000000D2
:100E200000000000000000000000000000000000C2
:100E300000010000020300000202000003020000A3
:100E4000030100000100000000000000000000009D
:100E5000010200000203000002030000030300007F
:100E60000100000000000000000000000000000081
:100E70000000000000000000000000000000000072
:100E80000000000000000000000000000000000062
:100E90000000000000000000000000000001000051
:100EA000010100000101000001010000010000003B
:100EB000000000000000000000000000010200002F
:100EC0000202000002020000020100000000000017
:100ED0000000000000000000000000000000000012
:100EE0000000000000000000000000000000000002
:100EF00000000000000000000000000000000000F2
:100F000000000000000000000000000000000000E1
:100F100000000000000000000000000000000000D1
:100F200000000000000000000000000000000000C1
:100F300000000000000000000000000000000000B1
:100F400000000000000000000000000000000000A1
:100F50000000000000000000000000000000000091
:100F60000000000000000000000000000000000081
:100F70000000000000000000000000000000000071
:100F80000000000000000000000000000000000061
:100F90000000000000000000000000000000000051
:100FA0000000000000000000000000000000000041
:100FB0000000000000000000000000000000000031
:100FC0000000000000000000000000000000000021
:100FD0000000000000000000000000000000000011
:100FE0000000000000000000000000000000000001
:100FF00000000000000000000000000000000000F1
:10100000000000000000000000000000005F000081
:1010100000000000000700000007000000140000AE
:101020007F1400007F140000242A00007F2A0000A3
:10103000122300001308000064620000364900001B
:1010400055220000500000000503000000000000D1
:10105000001C0000224100000000000041220000AE
:101060001C000000082A00001C2A000008080000DC
:10107000083E00000808000000500000300000009A
:101080000008000008080000080800000030000008
:1010900030000000002000001008000004020000E2
:1010A0003E510000494500003E000000427F000024
:1010B000400000004261000051490000462100004C
:1010C000414500004B31000018140000127F000061
:1010D0001027000045450000453900003C4A00004B
:1010E00049490000300100007109000005030000BB
:1010F0003649000049490000360600004949000011
:10110000291E00000036000036000000000000002C
:101110005636000000000000000800001422000005
:1011200041140000141400001414000041220000B7
:101130001408000000020000015100000906000030
:1011400032490000794100003E7E0000111100008C
:10115000117E00007F49000049490000363E000032
:1011600041410000412200007F4100004122000077
:101170001C7F000049490000494100007F09000030
:1011800009010000013E0000414100005132000011
:101190007F080000080800007F000000417F000079
:1011A0004100000020400000413F0000017F00009E
:1011B00008140000224100007F4000004040000071
:1011C000407F000002040000027F00007F04000056
:1011D000081000007F3E000041410000413E000039
:1011E0007F09000009090000063E0000415100008F
:1011F000215E00007F09000019290000464600001A
:101200004949000049310000010100007F01000050
:10121000013F000040400000403F00001F20000050
:10122000402000001F7F000020180000207F0000E9
:101230006314000008140000630300000478000039
:101240000403000061510000494500004300000014
:10125000007F00004141000002040000081000006F
:1012600020410000417F0000000000000402000057
:101270000102000004400000404000004040000027
:10128000000100000204000000200000545400008F
:10129000547800007F4800004444000038380000C3
:1012A000444400004420000038440000444800004A
:1012B0007F3800005454000054180000087E0000DD
:1012C000090100000208000014540000543C000012
:1012D0007F0800000404000078000000447D000046
:1012E0004000000020400000443D000000000000DD
:1012F0007F10000028440000004100007F400000F3
:10130000007C000004180000047800007C08000045
:101310000404000078380000444400004438000011
:101320007C140000141400000808000014140000CD
:10133000187C00007C08000004040000084800003D
:101340005454000054200000043F000044400000BA
:10135000203C000040400000207C00001C200000D9
:10136000402000001C3C000040300000403C0000D9
:101370004428000010280000440C000050500000D9
:10138000503C000044640000544C00004400000045
:101390000836000041000000000000007F0000004F
:1013A00000000000413600000800000008080000AE
:1013B0002A1C0000080800001C2A00000808000081
:1013C000000000000000000000000000000000001D
:1013D000646F000020430000415300004F000000F4
:0813E000574400005400000016
:0813E800504F0000520000000C
:1013F0004D4300004C52000000270000342700003D
:101400002070000061720000612000005420000084
:1014100020200000005500006C740000696D000081
:101420006F2000005265000073650000740000002A
:1014300043610000736F000020450000004300007E
:0C144000617300006F20000057000000E6
:10144C005744000054200000414300005449000060
:10145C00564F000000450000727200006F6E0000D5
:08146C00656F00002000000084
:1014740043610000736F0000205200002000000050
:101484002731000027200000706100007261000015
:1014940020430000617300006F2000005100000031
:1014A400494E000054200000434E0000310000006B
:1014B400736100006C690000646100002063000037
:0C14C4006E5F0000696E00007400000004
:1014D000494E000054200000434E0000330000003D
:1014E000494E000054200000434E0000320000002E
:1014F0004C610000626F000072610000746F0000B8
:0C150000726900006F2000003100000044
:10150C00273300002720000070610000726100008A
:10151C0020430000617300006F20000052000000A7
:10152C00273200002720000070610000726100006B
:10153C0020430000617300006F2000005700000082
:10154C00E0F80000FCFE0000FE1F00000707000092
:10155C00FEFE00000E07000067FE0000FE670000A4
:10156C00070E0000FEFE0000070700001F3E0000F3
:10157C003C7C00007C3E00001E00000000010000CE
:10158C00070F00000F0000000000000088010000A1
:10159C00410B000022870000CBCB0000872200000B
:1015AC000B4100000188000000800000C0C000005A
:1015BC00E0F00000F0F80000FC00000000800000EB
:1015CC00C0E00000F0F80000FCFF0000FFFF00008E
:1015DC00FFFF0000FFFF0000FFFF0000FFFF000007
:1015EC00FFFF0000FFFF0000FF3F00001F0F000087
:1015FC000703000081F0000000FE0000FFFF000068
:10160C00FF6F000003FF0000FFFF0000FFFF000062
:10161C00FFFF0000FFFF0000FFFF0000FFFF0000C6
:10162C00FFFF0000FF0000000000000000080000A9
:10163C00060300000100000001030000030300008A
:10164C000000000007FF0000FFFF0000FFFF00008C
:10165C00FFFF0000FFFF0000FFFF0000FFFF000086
:10166C00FF07000000000000000000000000000068
:10167C000000000000D1000000CD0000CBC900002C
:10168C00CAD4000000D20000D0CE0000CCEB000089
:10169C007E00000000DE0000DD000000DC510000D8
:1016AC0021000000000000005A53000041570000C8
:1016BC0040DB0000004300005844000045240000BB
:1016CC0023DB0000002000005646000054520000AE
:1016DC0025000000004E0000424800004759000061
:1016EC005E000000000000004D4A0000552600007E
:1016FC002A000000003C00004B4900004F2900006C
:10170C0028000000003E00003F4C00003A50000052
:10171C005F00000000000000220000007B2B000096
:10172C0000000000E1DD0000D57D0000007C000021
:10173C00000000000000000000000000000000009D
:10174C00D800000000E2000000E60000E30000000A
:10175C0000000000D9DA0000E9350000E7E80000DD
:10176C00EAE50000D32B0000D72D00002AD600009C
:0C177C00E40000000000000000CF0000AE
:10178800D1000000CDCB0000C9CA0000D4D30000AE
:10179800D2D00000CECC0000EB60000000000000BA
:1017A800DEDD000000DC00007131000000000000F8
:1017B800007A00007361000077320000DB0000004F
:1017C800637800006465000034330000DB0000002B
:1017D80020760000667400007235000000000000EA
:1017E8006E620000686700007936000000000000A3
:1017F800006D00006A750000373800000000000026
:101808002C6B0000696F00003039000000000000F8
:101818002E2F00006C3B0000702D0000000000001F
:1018280000270000005B00003D00000000E1000010
:10183800DDD500005D0000005C0000000000000035
:10184800000000000000000000D8000000000000B8
:10185800E2000000E6E300000000000000D90000FC
:10186800DAE9000035E70000E8EA0000E5D3000007
:101878002BD700002D2A0000D6E40000000000004D
:1018880000000000CF00000000F000003C0E000047
:1018980006030000010100000101000001810000B1
:1018A8000B360000E61C0000F000000000000000FD
:1018B800F0B800000F38000060C00000C0C0000091
:1018C8008080000084800000C1C00000C0E00000EB
:1018D800F2FF0000E27E00003C0100000307000068
:1018E80006070000070700000300000000000000D2
:1018F80000000000010100000101000000000000DC
:0419080000000000DB
:10190C000000000000800000E03800000C04000023
:10191C000602000002D20000E202000016E4000001
:10192C000C380000E0800000000000001E3F0000AA
:10193C0021E00000E0C000008080000000000000FA
:10194C00008100004044000041C00000E0A1000004
:10195C00311E000000000000000000000307000022
:10196C00070600000703000003070000060600003E
:10197C0006060000060700000300000000800000BF
:10198C0040600000203800000C060000020300003C
:10199C0001290000F10100002BF20000060C0000F0
:1019AC003020000060C000000304000008080000A4
:1019BC0018F00000E0C00000C0C00000C0E0000053
:1019CC0098840000C2E20000E27C00003C040000AD
:1019DC0003000000000000000000000001030000F4
:1019EC0007070000070700000301000001010000C9
:0C19FC00010000000000000000000000DE
:101A080000800000E0300000180800000C0400000E
:101A18000404000004540000E404000054E800003A
:101A280008300000E0800000000000001F300000C7
:101A380068D00000A0A00000E030000020200000D6
:101A48002021000040C40000C1C000006038000030
:101A58001F0000000000000000000000000000005F
:101A68000103000003030000030300000303000058
:101A7800030100000000000000000000000000005A
:101A880000000000E03800000C040000060200001E
:101A9800020200000202000016E6000014EC00003A
:101AA80078E000000000000000000000C0FF000017
:101AB8003020000020400000C0800000809000001E
:101AC8008084000081C40000C1B00000EF00000065
:101AD80000000000000100000303000007070000E9
:101AE80007070000070300000303000003030000CA
:0C1AF800030100000100000000000000DD
:101B040000000000C0F00000180C000004060000F3
:101B14000202000002520000E206000054EC000041
:101B240018700000C000000000000000000F00005A
:101B3400F8E00000A0200000303000003044000035
:101B4400C0C1000080C4000081E00000381F000014
:101B5400000000000000000000000000010300007D
:101B6400030300000303000003030000010100005D
:101B7400010100000000000000000000000000005F
:101B84000080000040200000F0F00000D8E80000D1
:101B9400E8E80000E8E80000F8000000E8E80000D9
:101BA400000000000F1E00003D7E0000FFF3000057
:101BB400E3E10000E3F00000F8F90000FF0000009A
:101BC400FFFF000000000000000000000000000013
:101BD40000000000010100000101000001010000FB
:0C1BE400010000000101000000000000F2
:0C1BF000006300006E31000000000000E7
:101BFC00494E000054200000434E0000300000000D
:081C0C00636E000033000000CC
:081C1400636E000032000000C5
:081C1C00636E000030000000BF
:101C240031000000343700000000000000300000E4
:101C34002E3200003536000038000000000000009D
:0C1C44002B3300002D2A000039000000A6
:101C50000000000000000000000000000000000084
:041C60000000000080
:101C640043610000736F0000203200000000000098
:0200000401F009
:1C0008000300000087000000A70000007E0000003F000000D70000000300000014
:00000001FF
