:10000000BC07040000000000000000000000000029
:1000100000000000000000000000000000000000E0
:1000200000000000000000000000000000000000D0
:1000300000000000000000000000000000000000C0
:1000400000000000000000000000000000000000B0
:100F7800CF002100F0FF270020A0B700102020009C
:100F880032A0B700400020004420B7008A1F780034
:100F98008B1F78008C1F78008D1F780082FE070059
:100FA80057FE0700C8FE0700C9FE07004D012000D4
:100FB800EC0120000B022000FA032000001E28008C
:100FC800801F780010202000801F7800400120003A
:100FD800801F7800E0012000801F7800D1FE070004
:100FE8004F00B1008800200047122A000E20ED00B3
:100FF800FEFF3A001020ED00FCFF3A004D012000F2
:10100800EC0120000B022000FA032000D02F28005A
:10101800801F780010202000801F780040012000E9
:10102800801F7800E0012000801F7800BDFE0700C7
:101038004F00B1008800200047122A000E20ED0062
:10104800FEFF3A001020ED00FCFF3A004D012000A1
:10105800EC0120000B022000FA032000802B28005E
:10106800801F780010202000801F78004001200099
:10107800801F7800E0012000801F7800A9FE07008B
:101088004F00B1008800200047122A000E20ED0012
:10109800FEFF3A001020ED00FCFF3A004D01200051
:1010A800EC0120000B022000FA032000E0222800B7
:1010B800801F780010202000801F78004001200049
:1010C800801F7800E0012000801F780095FE07004F
:1010D8004F00B1008800200047122A000E20ED00C2
:1010E800FEFF3A001020ED00FCFF3A004D01200001
:1010F800EC0120000B022000FA0320003027280012
:10110800801F780010202000801F780040012000F8
:10111800801F7800E0012000801F780081FE070012
:101128004F00B1008800200047122A000E20ED0071
:10113800FEFF3A001020ED00FCFF3A009BFF37004D
:10114800CF0678004F067800CF0578004F05780065
:04115800FFFF37005E
:1009B0002004200090407800F0C1B30080C06000A7
:1009C0002004200001487800C1E8A900C3E8A8007D
:1009D0004460A9002008A8002288A80023A8A80035
:1009E00026A8A80026C8A8000008A90003A8A900F6
:1009F00003A8A90006A8A90006C8A90050C0B30012
:100A0000804078000084200090C06800E7C060004B
:100A10000084200090C06800008420000148780015
:100A200040C0B30080407800A084200090C06800DF
:100A3000E7C06000A084200090C06800A08420006F
:100A40000148780000C3B30080407800E0842000B3
:100A500090C0680000C7B30080C06000E084200040
:100A600090C06800E08420000148780000C2B30014
:100A700080407800A085200090C0680000C7B300C7
:100A800080C06000A085200090C06800A085200084
:100A9000014878000010200080007800A085200028
:100AA000908068000070200080806000A085200099
:100AB00090806800D1428800C208A900C228A9001D
:100AC000C248A900C268A900C288A90000000600A7
:000AD00026
:100908002E2EEF003E2EEF004E2EEF0000F02200BC
:1009180080007800006A20009080680000F02700BE
:1009280080806000006A200090806800013588009F
:10093800E0C2B30080407800206A200090C06800C0
:10094800F0C7B30080C06000206A200090C0680033
:10095800206A20000148780000D02200800078003A
:10096800206A20009080680000F0270080806000E6
:10097800206A20009080680011358800C0C2B3004A
:1009880080407800406A200090C06800F0C7B3003B
:1009980080C06000406A200090C06800406A200063
:0809A800014878000000060080
:080AD000102EEF0000000600EB
:100AD8008A1F78008B1F78008C1F78008D1F780084
:100AE8001BFF0700102020007DC0B3005CC0B300CE
:100AF8000A0028008005780000022000801F780086
:100B080005FF07002F00B1001420EF00A3FE070027
:100B1800CF0678004F067800CF0578004F0578009B
:040B280000000600C3
:100758000000FA008A1F7800A10021000020EF00A5
:10076800804878000020EF0040808800408EA90073
:10077800306EA900302EA900304EA900406EA900A5
:10078800404EA900448EA900402EA900400EA900A1
:10079800502EA900500EA90030EEA90030CEA900B5
:1007A80030AEA900308EA900342EA900344EA9001D
:1007B800446EA900444EA800448EA80014FF070008
:1007C800FAC3B3002CFF070024FF07000ACCB300CC
:1007D80029FF070021FF0700446EA800444EA90026
:1007E800FAC3B30024FF07001CFF07000ACCB300BC
:1007F80021FF070019FF07004F0578000080FA0065
:0408080000000600E6
:1004180000000000000000000000000000000000D4
:080428000000000000000600C6
:100480000000FA0014E0AE00422EA90014E0AF0014
:10049000422EA8000000000014C0AE00420EA900C9
:1004A00014C0AF00420EA8000000000014A0AE006F
:1004B000522EA90014A0AF00522EA8000000000088
:1004C0001480AE00520EA9001480AF00520EA80096
:1004D000000000001460AE0032EEA9001460AF000E
:1004E00032EEA800000000001440AE0032CEA90099
:1004F0001440AF0032CEA800000000001420AE006F
:1005000032AEA9001420AF0032AEA80000000000F7
:100510001400AE00328EA9001400AF00328EA80085
:0C052000000000000080FA00000006004F
:100464000000FA00E5FF0700346EA800E3FF070070
:0C047400346EA9000080FA0000000600B1
:10040000A70020000E20ED00FEFF3A0000000000D3
:080410000000000000000600DE
:100720000000FA004EB897002A8088003B808800BD
:1007300010808800000021000C4878001000210083
:100740000D487800A100210010C0B3008048780057
:080750000080FA000000060021
:1005A4000000FA00446EA900444EA8000420EF00A5
:1005B4006710E1000D003E008A1F780002457800B4
:1005C4009AFF07004F0578000220EF00F003200097
:1005D4000008E10003003E00D3FF07000220EC0006
:1005E400FAFF37000420EC00F1FF3700444EA90065
:1005F400446EA8000420EF006710E1000D003E00E7
:100604008A1F78000245780088FF07004F057800AC
:100614000220EF00F00320000008E10003003E0088
:10062400C1FF07000220EC00FAFF37000420EC00B1
:0C063400F1FF37000080FA000000060013
:100430000000FA008A1F7800342EA900344EA9006B
:100440008A80FB00800B200000807000004578004F
:100450000B000700030007004F0578000080FA003A
:040460000000060092
:10052C000000FA00346EA900342EA800344EA90045
:10053C00D0FF0700C8FF07000080FA00000006008B
:00054C00AF
:100B2C001600FA004EB8970040BF9F003EB89700E1
:100B3C0030BF9F001EB89700AEB8970010BF9F0043
:100B4C0021BF9F001EB89700AEB89700100F9800F9
:100B5C00210F98000020EF00400798000020EF00C4
:100B6C00500798000C004500E1005000F0072000F1
:100B7C000008E10003003600000820000A005000C5
:100B8C00000678000D804500E1005000F0032000C5
:100B9C000008E10003003600000420000B005000A8
:100BAC00800678004358DE00004278008D804500B6
:100BBC00618050004300DE00804378006780650050
:100BCC000044780067806000104798006A00570066
:100BDC001068E1000200310027479800050037003B
:100BEC006A005700108045000020ED004300DE0035
:100BFC00204798003EB89700670060006000E10055
:100C0C0006003A003EB89700C301DE0068015700A9
:100C1C001218B80070079800060037003EB897000D
:100C2C004300DE00E1014000680157001218B800D3
:100C3C00700798000480FB0020079800044178009E
:100C4C008780FB00640047001008E100C5003900F4
:100C5C000020EF00600798000020EF00300798009C
:100C6C00084378008742780002427800660047000B
:100C7C001060E100A9003600660047001000450036
:100C8C008A1F7800004578006AFE07004E459000E8
:100C9C00E4FD07004F057800BE0090006800570087
:100CAC001008E1003C003100620047009080FB001E
:100CBC00640047001008E100370039008480FB0015
:100CCC00640047001008E10003003A000420EF0024
:100CDC0082437800140037001EB89700AEB8970016
:100CEC00100F9800210F9800EE0090006A0047004A
:100CFC0090804000720047008C1F78008A9FBE00D5
:100D0C00810578000006EB000005780057FE07000F
:100D1C004F05BE004F0678001E089000104078006A
:100D2C000041780082437800CE0090006E004700AE
:100D3C001008E100030039000020EF000057980074
:100D4C00130037001EB89700AEB89700100F98002C
:100D5C00210F9800EE009000680047009080400042
:100D6C00720047008C1F78008A9FBE0081057800B6
:100D7C000006EB00000578003CFE07004F05BE00A6
:100D8C004F0678001E08900010407800005798001D
:100D9C0007417800030037000020EF00005798004F
:100DAC000420EF000E509000004798006034E100E2
:100DBC000A0036000680FB00E80010000280FB00F1
:100DCC000101DE00700047009080FB000680FB00F4
:100DDC008008DD0060004700014871008480FB0042
:100DEC00640047001008E10019003A006034E1008B
:100DFC001700360066004700100045008A1F780077
:100E0C0000457800CEFD07004F0578007CFE0700FA
:100E1C007BFE07008680FB0068811000F10F20002C
:100E2C000209DE008080FB000280FB000081600074
:100E3C00F10F20000680FB008008DD0060004700F9
:100E4C001080FB00810060006000470002C8700049
:100E5C008580FB00640047001008E1001C003A008C
:100E6C001E4090006004E100190036006600470047
:100E7C00100045008A1F780000457800B0FD07007F
:100E8C004F0578005EFE07005DFE0700F20F2000A4
:100E9C00E10047009180FB008110DD000080FB0029
:100EAC0081016000610047001080FB00E800100029
:100EBC00F00F20000101DE00600047009080FB0075
:100ECC000280FB00808060006000470003C8700057
:100EDC00BE009000680057001008E10003003100CC
:100EEC00EE0090006C0047006188400066004700EF
:100EFC00100045008A1F78000045780090FD07001F
:100F0C000E45900086FD07004F057800BE0090004E
:100F1C00660047006188400054FF370062004700BC
:100F2C009080FB00640047001008E10006003600CA
:100F3C004E009000500798004E019000E8005700BA
:100F4C006800470011084100AE00900064004700A3
:100F5C00618840000441780085437800064478009D
:0C0F6C0037FF37000080FA00000006008C
:100640000000FA008A80FB00F007200000806000B4
:100650000045780000C0AE0003003700446EA800DB
:10066000444EA90002003700446EA900444EA80081
:080670000080FA000000060002
:100678000000FA0000002800010020000058E100F6
:1006880001E0E100070031003A804500AA004E0071
:100698000001BE0001E0AE0002003700028DBE007E
:1006A8001B0037000A0178006200450010407800FE
:1006B8000000AF0002003700610041001074A10083
:1006C800E2004100114078000080FB004100DE009C
:1006D800804878001299450012114E00E20041004E
:1006E800114078000080FB004100DD008048780060
:1006F800610041001040780000E0AE0002003700C1
:10070800620041001004A000610041001074A000C4
:080718000080FA000000060059
:10054C000000FA008A1F78008A80FB00F007200068
:10055C000080600000457800342EA900344EA900BC
:10056C008080FB00F00B20000080600000457800CC
:10057C008080FB00000420000080700000457800A3
:10058C0000457800BBFF0700B3FF07004F0578005C
:08059C000080FA0000000600D7
:10080C000200FA00402EA800400EA800502EA800AE
:10081C00500EA80030EEA80030CEA80030AEA800D4
:10082C00308EA800F9FE0700F8FE0700342EA80051
:10083C00346EA900344EA800346EA800EDFE0700FB
:10084C00600047001070A000422EAE001070A10096
:10085C00600047001060A000420EAE001060A100C6
:10086C00600047001050A000522EAE001050A100A6
:10087C00600047001040A000520EAE001040A100D6
:10088C00600047001030A00032EEAE001030A10026
:10089C00600047001020A00032CEAE001020A10056
:1008AC00600047001010A00032AEAE001010A10086
:1008BC00600047001000A000328EAE001000A100B6
:1008CC00346EA900344EA900D0FE0700CFFE0700FD
:1008DC00402EA900400EA900502EA900500EA900D0
:1008EC0030EEA90030CEA90030AEA900308EA900A0
:0C08FC000E4090000080FA000000060092
:020000040001F9
:10000000000000000000000000000000005F000091
:1000100000000000000700000007000000140000BE
:100020007F1400007F140000242A00007F2A0000B3
:10003000122300001308000064620000364900002B
:1000400055220000500000000503000000000000E1
:10005000001C0000224100000000000041220000BE
:100060001C000000082A00001C2A000008080000EC
:10007000083E0000080800000050000030000000AA
:100080000008000008080000080800000030000018
:1000900030000000002000001008000004020000F2
:1000A0003E510000494500003E000000427F000034
:1000B000400000004261000051490000462100005C
:1000C000414500004B31000018140000127F000071
:1000D0001027000045450000453900003C4A00005B
:1000E00049490000300100007109000005030000CB
:1000F0003649000049490000360600004949000021
:10010000291E00000036000036000000000000003C
:100110005636000000000000000800001422000015
:1001200041140000141400001414000041220000C7
:100130001408000000020000015100000906000040
:1001400032490000794100003E7E0000111100009C
:10015000117E00007F49000049490000363E000042
:1001600041410000412200007F4100004122000087
:100170001C7F000049490000494100007F09000040
:1001800009010000013E0000414100005132000021
:100190007F080000080800007F000000417F000089
:1001A0004100000020400000413F0000017F0000AE
:1001B00008140000224100007F4000004040000081
:1001C000407F000002040000027F00007F04000066
:1001D000081000007F3E000041410000413E000049
:1001E0007F09000009090000063E0000415100009F
:1001F000215E00007F09000019290000464600002A
:100200004949000049310000010100007F01000060
:10021000013F000040400000403F00001F20000060
:10022000402000001F7F000020180000207F0000F9
:100230006314000008140000630300000478000049
:100240000403000061510000494500004300000024
:10025000007F00004141000002040000081000007F
:1002600020410000417F0000000000000402000067
:100270000102000004400000404000004040000037
:10028000000100000204000000200000545400009F
:10029000547800007F4800004444000038380000D3
:1002A000444400004420000038440000444800005A
:1002B0007F3800005454000054180000087E0000ED
:1002C000090100000208000014540000543C000022
:1002D0007F0800000404000078000000447D000056
:1002E0004000000020400000443D000000000000ED
:1002F0007F10000028440000004100007F40000003
:10030000007C000004180000047800007C08000055
:100310000404000078380000444400004438000021
:100320007C140000141400000808000014140000DD
:10033000187C00007C08000004040000084800004D
:100340005454000054200000043F000044400000CA
:10035000203C000040400000207C00001C200000E9
:10036000402000001C3C000040300000403C0000E9
:100370004428000010280000440C000050500000E9
:10038000503C000044640000544C00004400000055
:100390000836000041000000000000007F0000005F
:1003A00000000000413600000800000008080000BE
:1003B0002A1C0000080800001C2A00000808000091
:1003C000000000008040000060200000380C0000A9
:1003D000060200000301000029F10000012B0000CB
:1003E000F20600000C30000020600000C000000099
:1003F00000000000000000000304000008080000E6
:1004000018F00000E0C00000C0C00000C0E0000024
:1004100098840000C2E20000E27C00003C0400007E
:1004200003000000000000000000000000000000C9
:1004300000000000000100000307000007070000A3
:10044000070300000101000001010000000000009E
:0C045000000000000000000000000000A0
:10045C000000000000F000003C0E0000060300004D
:10046C000101000001010000018100000B360000B9
:10047C00E61C0000F000000000000000000000007E
:10048C00F0B800000F38000060C00000C0C00000D1
:10049C008080000084800000C1C00000C0E000002B
:1004AC00F2FF0000E27E00003C00000000010000B2
:1004BC000307000006070000070700000300000008
:1004CC00000000000000000001010000010100001C
:1004DC0000000000000000000000000000C0000050
:1004EC00701800000C04000006020000020200005C
:1004FC000202000016E6000014EC000078E0000098
:10050C00000000000000000000FC00008F0800004C
:10051C0030600000C09000001010000000040000CB
:10052C000080000081840000413000007F4000000A
:10053C008000000000000000030700000606000019
:10054C00070300000101000001010000010300008D
:10055C00070700000707000006060000070300005D
:04056C00000000008B
:1005700000000000C06000003010000018080000FB
:100580000808000008A80000C8080000A8D0000063
:1005900010600000C000000000000000000000002B
:1005A0003F610000D0A0000040400000C06000009B
:1005B000404000004043000080880000838000002D
:1005C000C07100003F0000000000000000000000BB
:1005D0000000000001010000030700000606000003
:1005E00006060000060600000703000001000000E8
:1005F00000000000000000000000000000000000FB
:1006000080E00000380C0000040600000202000038
:10061000D2E2000002160000E40C000038E0000006
:100620008000000000000000001E00003F210000CC
:10063000E0E00000C080000080000000000000003A
:100640008140000044410000C0E00000A1310000F2
:100650001E00000000000000000000000003000079
:10066000070700000607000003030000070600005C
:100670000606000006060000070300000000000058
:040680000000000076
:10068400FFFF00002F0000002E0000002D000000DE
:040694002C00000036
:0200000401F009
:1C0008000300000087000000A70000007F0000003F000000D70000000300000013
:00000001FF
