:100000005404040000000000000000000000000094
:1000100000000000000000000000000000000000E0
:1000200000000000000000000000000000000000D0
:1000300000000000000000000000000000000000C0
:1000400000000000000000000000000000000000B0
:1008A800CF002100F0FF270020A0B7001020200073
:1008B80032A0B700400020004420B7008A1F78000B
:1008C8008B1F78008C1F78008D1F780044FF07006D
:1008D80097FF070069FF0700102020007DC0B300C4
:1008E8005CC0B3000A0028008005780000022000E0
:1008F800801F780053FF07002F00B1001420EF007D
:1009080010FF070014AEEE00FEFF3700CF06780098
:100918004F067800CF0578004F057800FFFF3700B5
:00092800CF
:1005E8002004200090407800F0C1B30080C0600073
:1005F8002004200001487800C1E8A900C3E8A80049
:100608004460A9002008A8002288A80023A8A80000
:1006180026A8A80026C8A800C208A900C228A900C0
:10062800C248A900C268A900C288A9000008A90098
:1006380003A8A90003A8A90006A8A90006C8A9003C
:0406480000000600A8
:100738002E2EEF003E2EEF004E2EEF0000F022008E
:1007480080007800006A20009080680000F0270090
:1007580080806000006A2000908068000135880071
:10076800E0C2B30080407800206A200090C0680092
:10077800F0C7B30080C06000206A200090C0680005
:10078800206A20000148780000D02200800078000C
:10079800206A20009080680000F0270080806000B8
:1007A800206A20009080680011358800C0C2B3001C
:1007B80080407800406A200090C06800F0C7B3000D
:1007C80080C06000406A200090C06800406A200035
:1007D8000148780010C0B3008040780000842000F1
:1007E80090C06800E7C060000084200090C06800E6
:1007F800008420000148780020C0B30080407800C1
:10080800A084200090C06800E7C06000A084200099
:1008180090C06800A08420000148780000C3B3009D
:1008280080407800E084200090C0680000C7B300D2
:1008380080C06000E084200090C06800E084200050
:100848000148780000C4B30080407800A0852000EB
:1008580090C0680000C7B30080C06000A085200079
:1008680090C06800A0852000014878000050200052
:1008780080007800A085200090806800007020002B
:1008880080806000A085200090806800D1428800A8
:10089800142EEF001E2EEF00102EEF0000000600B1
:0008A80050
:100684000000FA008A1F7800A10021000020EF007A
:10069400804878000020EF0040808800408EA90048
:1006A400306EA900302EA900304EA900406EA9007A
:1006B400404EA900448EA900402EA900400EA90076
:1006C400502EA900500EA90030EEA90030CEA9008A
:1006D40030AEA900308EA900342EA900344EA900F2
:1006E400446EA900444EA800448EA80090FF070061
:1006F400FAC3B3004EFF070046FF07000ACCB3005D
:100704004BFF070043FF0700446EA800444EA900B6
:10071400FAC3B30046FF07003EFF07000ACCB3004C
:1007240043FF07003BFF07004F0578000080FA00F5
:0407340000000600BB
:1005340000000000000000000000000000000000B7
:080544000000000000000600A9
:100434000000FA0014E0AE00422EA90014E0AF0060
:10044400422EA8000000000014C0AE00420EA90015
:1004540014C0AF00420EA8000000000014A0AE00BB
:10046400522EA90014A0AF00522EA80000000000D4
:100474001480AE00520EA9001480AF00520EA800E2
:10048400000000001460AE0032EEA9001460AF005A
:1004940032EEA800000000001440AE0032CEA900E5
:1004A4001440AF0032CEA800000000001420AE00BB
:1004B40032AEA9001420AF0032AEA8000000000044
:1004C4001400AE00328EA9001400AF00328EA800D2
:0C04D400000000000080FA00000006009C
:100418000000FA00F8FF0700346EA800F6FF070096
:0C042800346EA9000080FA0000000600FD
:10040000A70020000E20ED00FEFF3A0000000000D3
:080410000000000000000600DE
:10064C000000FA004EB897002A8088003B80880092
:10065C0000808800200021000C4878003000210028
:10066C000D487800A100210010C0B300804878002C
:08067C000080FA0000000600F6
:10054C000000FA00446EA900444EA8000420EF00FD
:10055C006710E1000D003E008A1F7800024578000C
:10056C00DCFF07004F0578000220EF00F0032000AD
:10057C000008E10003003E00E3FF07000220EC004E
:10058C00FAFF37000420EC00F1FF3700444EA900BD
:10059C00446EA8000420EF006710E1000D003E003F
:1005AC008A1F780002457800CAFF07004F057800C3
:1005BC000220EF00F00320000008E10003003E00E1
:1005CC00D1FF07000220EC00FAFF37000420EC00FA
:0C05DC00F1FF37000080FA00000006006C
:1004E0000000FA008A1F7800342EA900344EA900BB
:1004F0008A80FB00800B200000807000004578009F
:10050000CCFF0700C4FF07004F0578000080FA0009
:0405100000000600E1
:100514000000FA00346EA900342EA800344EA9005D
:10052400C3FF0700BBFF07000080FA0000000600BD
:00053400C7
:020000040001F9
:10000000000000000000000000000000005F000091
:1000100000000000000700000007000000140000BE
:100020007F1400007F140000242A00007F2A0000B3
:10003000122300001308000064620000364900002B
:1000400055220000500000000503000000000000E1
:10005000001C0000224100000000000041220000BE
:100060001C000000082A00001C2A000008080000EC
:10007000083E0000080800000050000030000000AA
:100080000008000008080000080800000030000018
:1000900030000000002000001008000004020000F2
:1000A0003E510000494500003E000000427F000034
:1000B000400000004261000051490000462100005C
:1000C000414500004B31000018140000127F000071
:1000D0001027000045450000453900003C4A00005B
:1000E00049490000300100007109000005030000CB
:1000F0003649000049490000360600004949000021
:10010000291E00000036000036000000000000003C
:100110005636000000000000000800001422000015
:1001200041140000141400001414000041220000C7
:100130001408000000020000015100000906000040
:1001400032490000794100003E7E0000111100009C
:10015000117E00007F49000049490000363E000042
:1001600041410000412200007F4100004122000087
:100170001C7F000049490000494100007F09000040
:1001800009010000013E0000414100005132000021
:100190007F080000080800007F000000417F000089
:1001A0004100000020400000413F0000017F0000AE
:1001B00008140000224100007F4000004040000081
:1001C000407F000002040000027F00007F04000066
:1001D000081000007F3E000041410000413E000049
:1001E0007F09000009090000063E0000415100009F
:1001F000215E00007F09000019290000464600002A
:100200004949000049310000010100007F01000060
:10021000013F000040400000403F00001F20000060
:10022000402000001F7F000020180000207F0000F9
:100230006314000008140000630300000478000049
:100240000403000061510000494500004300000024
:10025000007F00004141000002040000081000007F
:1002600020410000417F0000000000000402000067
:100270000102000004400000404000004040000037
:10028000000100000204000000200000545400009F
:10029000547800007F4800004444000038380000D3
:1002A000444400004420000038440000444800005A
:1002B0007F3800005454000054180000087E0000ED
:1002C000090100000208000014540000543C000022
:1002D0007F0800000404000078000000447D000056
:1002E0004000000020400000443D000000000000ED
:1002F0007F10000028440000004100007F40000003
:10030000007C000004180000047800007C08000055
:100310000404000078380000444400004438000021
:100320007C140000141400000808000014140000DD
:10033000187C00007C08000004040000084800004D
:100340005454000054200000043F000044400000CA
:10035000203C000040400000207C00001C200000E9
:10036000402000001C3C000040300000403C0000E9
:100370004428000010280000440C000050500000E9
:10038000503C000044640000544C00004400000055
:100390000836000041000000000000007F0000005F
:1003A00000000000413600000800000008080000BE
:1003B0002A1C0000080800001C2A00000808000091
:0200000401F009
:1C0008000300000087000000A70000007F0000003F000000D70000000300000013
:00000001FF
