:1000000018170400000000000000000000000000BD
:1000100000000000000000000000000000000000E0
:100020000000000000000000CC16000000000000EE
:1000300000000000000000000000000000000000C0
:1000400000000000000000000000000000000000B0
:1000500000000000000000000000000000000000A0
:100060000000000000000000000000000000000090
:100070000000000000000000A616000000000000C4
:100080000000000000000000000000000000000070
:1000900000000000801600000000000000000000CA
:1000A0000000000000000000000000000000000050
:1000B0000000000000000000000000000000000040
:1000C0000000000000000000000000000000000030
:1000D0000000000000000000000000000000000020
:1000E0000000000000000000000000000000000010
:1000F0000000000000000000000000000000000000
:10010000F2160000F21800000000000000000000DD
:1001100000000000000000000000000000000000DF
:1001200000000000000000000000000000000000CF
:1001300000000000000000000000000000000000BF
:1001400000000000000000000000000000000000AF
:102E30004F0F2100F0FF270020A0B70000A0B7002F
:102E400010202000400020004420B7001819020084
:102E5000000000008A1F78008B1F78008C1F78000C
:102E60007AFE07008D1F780082FE070057FE0700DC
:102E70005DFE07001DC0B3001820EF00FBC1B300CA
:102E80006A032100A1FA0700A76D2C00E8022000C8
:102E90000E20ED00FEFF3A001020ED00FCFF3A008E
:102EA0000000000000000000000000000000000022
:102EB0001DC0B3001820EF00FBC1B3006A0221005F
:102EC00092FA07000A0028001020200080057800F0
:102ED00083FC0700E8022000A76D2C00FFFF3A00EA
:102EE0000E00ED001020ED00FCFF3A000000000095
:102EF0000000000000000000000000001420EF00AF
:102F000050FC07001DC0B3001CC0B3001620EF002A
:102F10000A0021007DFA07002DC0B3001CC0B300D9
:102F20001620EF004A05210078FA07001DC0B30003
:102F300030C0B300DA0621001620EF0073FA070054
:102F40001DC0B3004CC0B3001620EF000A0C2100D6
:102F50006EFA0700E8022000A76D2C000E20ED009D
:102F6000FEFF3A001020ED00FCFF3A0000000000D8
:102F7000000000000000000000000000210220000E
:102F8000400321001008E10090003200DB04210022
:102F90003C0521002A0521004BFE07000000E2004D
:102FA000890032001420EF0026FC07007100370072
:102FB0001DC0B3001820EF00CBC3B30053FA0700C5
:102FC000EA08210008012000872424000E20ED00DB
:102FD000FEFF3A001020ED0000000000000000009D
:102FE000FAFF3A0000000000000000002005210068
:102FF0001080FB00A081880040FF070072003700AE
:103000001DC0B3001820EF00CBC3B3005A09210044
:103010003EFA070008012000872424000E20ED005E
:10302000FEFF3A001020ED00FCFF3A000000000017
:10303000000000000000000000000000200521004A
:103040001080FB00A08188005F0037001820EF008F
:1030500010C0B300CBC3B3006A0821002BFA0700ED
:103060000801200087242400FFFF3A000E00ED0035
:103070001020ED00FCFF3A000000000000000000FE
:103080000000000000000000CEFE07002005210027
:103090001080FB00A08188004B0037001DC0B300EA
:1030A000C0C3B3001820EF009A0D210017FA0700E3
:1030B00008012000872424000E20ED001000ED0000
:1030C000FDFF3A00FCFF3A00000000000000000095
:1030D0000000000000000000200521001080FB001F
:1030E000A0818800380037001DC0B3001820EF0011
:1030F000CBC3B3000A0B210004FA0700080120002B
:10310000872424000E20ED00FEFF3A001020ED0081
:10311000FCFF3A000000000000000000000000007A
:1031200000000000200521001080FB00A081880025
:103130002500370010C0B300C0C3B3001820EF0053
:10314000DA092100F1F90700080120008724240092
:103150000E00ED001000ED00FDFF3A00FCFF3A000C
:10316000000000000000000000000000000000005F
:10317000150037000008E10040032100110620007F
:103180008BFF320021062000400321001008E100DF
:103190009BFF320040032100310620001008E100AF
:1031A000AAFF320041062000400321001008E10080
:1031B000BAFF320021022000400321001008E10084
:1031C000C9FF3200DBFF37006CFF370038FF3700E4
:1031D000CF0678004F067800CF0578004F057800BD
:0431E000FFFF3700B6
:10284C001E2EEF002E2EEF003E2EEF004E2EEF0030
:10285C00102EEF00400EA9006E2EEF0040EEA900E6
:08286C0060CEA9000000060087
:102874008A1F78008B1F78008C1F78008D1F7800CA
:1028840052FE0700102020007DC0B3005CC0B300DE
:102894000A8028008005780079FE0700801F7800F0
:1028A400000220002F00B1001420EF00E4FD070017
:1028B4004F067800CF067800CF0578004F057800E2
:0428C400000006000A
:1021D0000000FA008A1F7800010F21000020EF00A4
:1021E000804878000020EF0090878800400EA9000A
:1021F000306EA900302EA900304EA900400EA90073
:10220000404EA900448EA900402EA900400EA9000E
:10221000500EA900500EA90030EEA90030CEA90042
:10222000300EA900308EA900342EA900344EA9002A
:10223000440EA900444EA800448EA80076F807007A
:102240007BF80700F0C3B300A4F807000ACCB30082
:1022500077F80700A1F80700446EA800444EA900D3
:1022600073F80700F0C3B3009CF807000ACCB30072
:102270006FF8070099F807004F0578000080FA0012
:042280000000060054
:1004180000000000000000000000000000000000D4
:080428000000000000000600C6
:100430000000FA0014E0AE00422EA90014E0AF0064
:10044000422EA8001400AE0000000000420EA900D9
:1004500014C0AF00420EA8000000000052AEA90078
:100460001420AE0014A0AF00522EA800000000001F
:100470001480AE001400AF00528EA900520EA800E6
:10048000000000001460AE0032EEA900326EA80039
:1004900014E0AF00000000001440AE0032CEA9000E
:1004A0001440AF00320EA800000000001420AE007F
:1004B00032AEA9001420AF0032AEA8000000000048
:1004C0001400AE00328EA9001400AF00328EA800D6
:0C04D000000000000080FA0000000600A0
:1004DC000000FA00C7FF0700340EA800C5FF070094
:0C04EC00346EA9000080FA000000060039
:10040000A70020000E20ED00FEFF3A0000000000D3
:080410000000000000000600DE
:102284000000FA000E0090001A8788002B8788004F
:1022940030878800100E21000C487800100F2100B0
:1022A4000D487800010F210010C0B3008048780069
:0822B4000080FA0000000600A2
:102044000000FA00446EA900440EA8000420EF002A
:102054006710E1000D003E008A1F780002457800F9
:102064007EFA07004F0578000220EF00F0032000FD
:102074000008E10003003E000DFA07000220EC0016
:10208400FAFF37000420EC00F1FF3700444EA900AA
:10209400446EA8000420EF006010E1000D003E0033
:1020A4008A1F7800024578006CFA07004F05780013
:1020B4000220EF00F00320000008E10003003E00CE
:1020C400FBF907000220EC00FAFF37000400EC00E3
:0C20D400F1FF37000080FA000000060059
:100A60000000FA008A1F7800340EA900340EA90095
:100A70008A80FB00800B2000008070000045780019
:100A80006BFE070095FE07004F0578000080FA0016
:040A9000000006005C
:1008B4000000FA00340EA900340EA800344EA9003A
:1008C400DAFE070004FF07000080FA0000000600BB
:0008D40024
:1027CC000000FA00500EA800500EA8000020EF00E8
:0C27DC00408788000080FA000000060022
:1027E8008A1F78008B1F78001020200000007800D6
:1027F8000A00280038FE07008800200047122A0037
:102808000E20ED001000ED00FDFF3A00FCFF3A003D
:10281800102020000A402800800578002EFE0700BE
:1028280047122A00880020000E20ED00FEFF3A0023
:102838001020ED00FCFF3A00CF0578004F05780026
:042848000000060086
:1020E0000400FA008C1F78000A0798001B0798006C
:1020F0000820EF006720E10032003E00F5F90700FC
:102100001420EF008A9FBE000445780054FA0700AF
:10211000FEF907001420EF004F05BE000A20EF0073
:102120000028E100F00320000C003E000E009000AB
:102130008A9FBE0000407800DEF90700600047007B
:102140001B0020000C0020000005780015FE070091
:102150004F05BE000A20EC00F1FF370000C4B300B9
:102160008A9FBE00DBF90700044578003CFA0700AF
:1021700000C4B300E5F907004F05BE0005042000C8
:10218000F00720000028E1000C003E000E00900047
:10219000004078008A9FBE00C6F907006000470033
:1021A0001B0020000C00200000007800FDFD07004F
:1021B0004F05BE000A20EC00F1FF37000800EC00DC
:1021C000CCFF37004F0678000080FA0000000600C0
:0021D0000F
:1008D4000000FA008A80FB00F00720000040780046
:1008E4000085600000C0AE0003003700446EA8001D
:1008F400440EA90002003700446EA900444EA8002B
:080904000080FA00000006006B
:10090C000000FA008A1F78008A80FB0000806000DB
:10091C00F007200000457800342EA900344EA900C1
:10092C0000806000F00B20008080FB000045780008
:10093C008080FB00000420000080700000407800E4
:10094C0000457800B7FE0700E1FE07004F05780070
:08095C000080FA000000060013
:1019A4000000FA0000002800010020000058E100B7
:1019B4000800310000E0E1003A804500AA004E0032
:1019C4000001BE000000AE0002003700028DBE0020
:1019D4001B0037000A0178006200450010407800BF
:1019E4000000AF0002003700610041001074A10044
:1019F400E2004100114078004100DE000080FB005D
:101A0400804878001299450012114E0081407900F7
:101A1400600041000080FB004100DD008048780048
:101A24006000410000C0780000E0AE000200370012
:101A3400620041001004A000600041001074A00086
:081A44000080FA00000006001A
:10190C000000FA000420EF00000F210010407800C6
:10191C006004E1000C003A00110E210050C0B3002D
:10192C0080487800110F210070C0B300004078008F
:10193C000080280010878800102020002087880055
:10194C000002200030878800020045001004E000EF
:10195C000F00320002004500004078008A9FBE0054
:10196C00821F7800F1FD07004F05BE004F01780083
:10197C00100E21000080FB00600040000B80FB007B
:10198C0001004000804578000420EC00EEFF370099
:08199C000080FA0000000600C3
:101138000200FA008A1F7800020036006064E100AD
:10114800630037008A80FB00600E21009080500009
:101158000080FB00100E21000008B8000003780092
:101168000B457800E7FD07000C4578003AFE0700BC
:101178000A20EF00100E21001080FB000028E1007B
:1011880038003100F0C7B300005CE1000100360010
:101198004F0037008A1F78000B457800CBFD070009
:1011A8000C4578002CFE07000B457800D5FD07009C
:1011B8004F057800E9FD070000479800E7FD0700A4
:1011C800004798008A1F78000B407800BFFD070091
:1011D8000C45780020FE07000B407800C9FD070089
:1011E8004F057800860178004F98DE0000804100A6
:1011F800220E2100A2004A00104078000041780029
:101208000C00EC0000E0EE000800370000409800F9
:101218000C003700024798000A003700E00047003A
:10122800600047001148690006003700606CE10063
:10123800F6FF3200616CE100F6FF3200626CE100FB
:10124800F6FF32008A1F78000E45900097FD0700D0
:101258004F05780000C07800E0C545000A20EC0082
:10126800C4FF37000B4078008A1F780097FD0700FD
:101278000C457800F8FD07000B457800A1FD070034
:101288004F057800F0CFB3000220EF000C003700C4
:1012980000479800004078008A1F780083FD070007
:1012A8004F0578000A003700014098008A1F78002F
:1012B800014578007DFD0700050037004F057800DF
:1012C800606CE100F2FF3200F7FF3200606CE10071
:0C12D8004F0578000080FA0000000600BE
:100964000200FA00400EA800400EA800502EA80075
:10097400500EA800300EA80030CEA80030AEA8005B
:10098400308EA800A3FE0700A2FE0700342EA800A4
:10099400346EA900340EA800346EA80097FE070038
:1009A4006000470042EEAE000010A0001070A100ED
:1009B400600047001060A000420EAE000000A100DD
:1009C400600047001050A000522EAE001050A1004D
:1009D400640047000000A000520EAE001040A100C9
:1009E400600047001030A000326EAE000070A1001D
:1009F400600047001020A00032CEAE001020A100FD
:100A04000000A0006100470032AEAE001010A1004B
:100A1400600047001000A0000040A100320EAE00AC
:100A2400346EA900344EA9007AFE070079FE07004F
:100A3400402EA900400EA900500EA900500EA90096
:100A440030EEA90030CEA90030AEA900300EA900C6
:0C0A54000E4090000080FA000000060038
:1028C8000800FA0010002000000098001000200006
:1028D800300798000020EF00100798000020EF0054
:1028E800708788005FFF07000000E20002003A00DE
:1028F8000020EF00A10037008A1F78006000470021
:102908000005780073FF07004F057800010F2000CD
:10291800600047000008E1000C003A000020EF00CA
:10292800300798004FFF07000000E20001003A005E
:10293800FCFF3700600047008A1F7800000078001D
:1029480064FF07004F05780037003700010E2000AC
:10295800600047001C003A000008E10041FF070042
:102968000000E20001003A00FCFF37006000470069
:102978008A1F78000005780056FF0700010F200025
:102988004F057800600047001008E1000B003A008E
:102998000020EF000000980032FF07000000E2006E
:1029A80001003A00FCFF37008A1F780060004700EA
:1029B8000005780047FF07004F05780070878800FA
:1029C8001000200018003700710720006000470041
:1029D8001008E1000E003A001000200020079800BF
:1029E800660047001000E000080032000010A70051
:1029F800800E210003003700800E21001010A00077
:102A080002003700800E21000000A10006003700F8
:102A1800110E2000600047001008E10002003A0093
:102A2800000E200010079800E00E21000C00320074
:102A38000000E0000E0090007200E10002003A0081
:102A480000009800F00D2000C1072000600047003A
:102A58001008E10002003A00F00D2000100798006D
:102A68000E0090007200E100050032009105200080
:102A7800600047001008E100010032000A0037003A
:102A88001000200020079800660047001000E000B2
:102A9800030032000000A000800E21000200370071
:102AA800800E21001050A1000010A700800E210008
:102AB8000600370031072000600047001008E100D9
:102AC80002003A000020EF002C0037001E009000A2
:102AD8006000E10007003A000020EF00200798009E
:102AE8008A1F78000E059000F2FD0700000098008C
:102AF8004F057800110E2000620047001008E10021
:102B08000D003A00100020002007980066004700DA
:102B18001000E000080032000020A700800E21000D
:102B280003003700800E21001020A00002003700AB
:102B3800800E21000000A100810C200062004700E7
:102B48001008E1000600310010002000200798005E
:102B5800820C2000E20047006200470000001100DC
:102B68002E409000004D78004E40900000407800C4
:102B78006E409000004E7800100020000080FA009F
:042B88000000060043
:10266C000000FA000420EF00F5FC070025FD070030
:10267C000000E20002003A0002007800120037006D
:10268C000020EF0002007800000078000008200015
:10269C000010E10008003100528EAF00040037003A
:1026AC0052AEAF00020037000700370010002000C8
:1026BC000420EC00F5FF37000200E20001003A00B4
:1026CC00E3FC0700010078000080FA00000006001F
:0026DC00FE
:101A4C000000FA0050AEA800000006000080FA006A
:001A5C008A
:101B10000200FA00100020000007980001082000D1
:101B2000600047001008E1000A00360052AEAE0027
:101B30000108200003003700600047001088700093
:101B400003003700110020006000470000804000C3
:101B5000F2FF3700600047001070A1000E009000F7
:081B60000080FA0000000600FD
:101A5C000000FA0050AEA900520EA9000080FA0056
:041A6C000000060070
:1026DC000000FA000C20EF00150020000820EF008D
:1026EC000620EF00A10E210010C0B30000407800BE
:1026FC000004E000A00E21001600320008FB0700C9
:10270C000000E20012003200520EAE00060037004C
:10271C00A00E21001080FB000000730060806A0096
:10272C0080027800020037000500780086027800ED
:10273C00A00E21004100DD000080FB00A00E210056
:10274C00014878000503780002007800000037008B
:10275C00E7FF3700F2FA07000000E2000500320044
:10276C000020EF000000EC00522EAF0000027800B9
:10277C0000003700EAFA07000000E2000400320013
:10278C000020EF000000EC00522EAF0001003700DB
:10279C0003007800AEFC07000428E10004003A00B6
:1027AC00030032006000E1000600780001003700F1
:1027BC000020EF00000D7800000006000080FA00F9
:0027CC000D
:10132C000000FA000420EF00F00F20000000E200A3
:10133C000C003200520EAF000220EF000220EC0035
:10134C000400E200040032000200E20002003A0055
:10135C001000200004003700010078000020ED0090
:10136C00F2FF37000020EF000080FA0000000600BA
:00137C0071
:1022BC000000FA000220EF006050E10002003A003A
:1022CC000100780045003700800E21001010A60098
:1022DC0011003700800620000050E1000E0036008F
:1022EC000050E100E00720000B00310070072000D7
:1022FC000050E1000800320000005500900620005C
:10230C00400B290081004000114078008080FB00C8
:10231C00010078003100370060005500000578009E
:10232C00800E21001050A60016003700E0F42800A3
:10233C0000004000114078008080FB00800E2100DE
:10234C000020A60000042000080037000008E1006F
:10235C0008003600B00520000008E100080031003C
:10236C0000022000008040000100370001007800CE
:10237C0001003700010078000000780000003700F1
:10238C001500370010FD28000000400011407800B7
:10239C008080FB00800E21000020A600000620009B
:1023AC00080037000008E10008003600B0072000E4
:1023BC000008E100080031000002200000805000FD
:1023CC00010037000100780001003700010078009F
:1023DC000000780000003700010078000080FA004F
:0423EC0000000600E7
:042CFC0000000600CE
:102BC4008A1F78008B1F78008C1F78008D1F780077
:102BD4001DC0B3001820EF00CBC3B3004AFB0700AD
:102BE4009A0121004087AE000E0037001DC0B300DB
:102BF4001620EF0010C0B3004A04210042FB070076
:102C0400FAFD0700880020000E00ED0047122A009C
:102C1400FEFF3A001020ED00FCFF3A004087A900B7
:102C2400230037004007AE0012003700FACFB3008C
:102C340003FD07001A20EF0020C0B3008A0421001E
:102C44001620EF0030FB070084FC070088002000FA
:102C540047122A000E00ED00FEFF3A001020ED009E
:102C6400FCFF3A0040E7A9001420EF00F4FC070041
:102C74000F0037004007AE000D0037001DC0B30041
:102C84003CC0B30020FB0700EA0421001620EF003B
:102C9400D3FB07008800200047122A00FFFF3A00F8
:102CA4000E00ED001020ED00FCFF3A004007A900E3
:102CB4003C052100DB0421002A05210001FF070057
:102CC4000000E20001003200F9FF37002102200079
:102CD400400321001008E100C2FF3A003006200042
:102CE400A08188004F067800CF067800CF057800D1
:082CF4004F0578000000060006
:1023F0008A1F78008B1F780000C4B3008D1F7800FF
:102400008C1F7800FCC7B3008BC0B3001420EF0012
:102410000020EF00801F7800D8FB07002000B100EB
:102420008D022000FC0120000B012000DA022000B8
:1024300030EB2800801F780010202000801F7800DB
:1024400080022000801F7800F0012000801F7800AB
:10245000F2FB07004F00B100E80320004792200084
:102460000E00ED001000ED00FDFF3A00FCFF3A0009
:1024700000000000000000000DC4B300FCC7B30062
:1024800080C0B3000020EF001420EF00801F780010
:10249000BAFB07002F00B1008D022000FC012000D4
:1024A0000B012000801F780080E12800DA02200064
:1024B00010202000801F780080022000801F7800FC
:1024C000F0012000801F7800D4FB07004000B1001D
:1024D000E8032000479220000E20ED00FEFF3A00A6
:1024E0001020ED00FCFF3A0000000000000000009A
:1024F00000C4B300FCC7B3008BC0B3001420EF00CE
:102500000020EF00801F78009CFB07002000B10036
:102510008D022000FC0120000B012000DA022000C7
:10252000D0D72800801F780010202000801F78005E
:1025300080022000801F7800B8FB0700801F780011
:10254000F00120004F00B100E80320004792200076
:102550000E20ED001000ED00FDFF3A00FCFF3A00F8
:1025600000000000000000000DC4B300FCC7B30071
:102570008BC0B300801F78000020EF001420EF0014
:102580007EFB07002F00B1008D022000FC0120001F
:102590000B012000DA02200010202000801F7800AC
:1025A00030EB2800801F780080022000801F780018
:1025B000F0012000801F780098FB07004F00B10059
:1025C00047922000E80320000E20ED00FEFF3A00B5
:1025D0001020ED00FCFF3A000000000000000000A9
:1025E000FDC7B3000CC4B3008BC0B3001420EF00D0
:1025F0000020EF00801F780060FB07002000B10082
:102600008D022000FC0120000B012000DA022000D6
:1026100080E12800801F780010202000801F7800B3
:1026200080022000801F7800F00120007BFB070063
:10263000801F78004F00B100E8032000479220007F
:102640000E20ED00FEFF3A00FDFF3A001000ED0005
:102650000000000000000000CF0678004F06780060
:0C266000CF0578004F0578000000060050
:10137C000000FA008A1F78008B1F78008D1F780000
:10138C000E4090008C9FBE008A9FBE008C1F780080
:10139C00834678000B467800CF057800A0FE070046
:1013AC004F05BE004F06BE008C9FBE008A9FBE003C
:1013BC008C4578000D4678000340780098FE0700B5
:1013CC004F05BE004F06BE008C9FBE008B1F7800E1
:1013DC000A4678000B4078008D45780083467800EB
:1013EC0004FF07004F06BE00CF0578000B457800C0
:1013FC008D45780083467800FEFE0700CF06780006
:10140C00CF0578004F0578000080FA000000060038
:00141C00D0
:100E2C000000FA006064E10004003900F0C3B30074
:100E3C000064E10001003E00010037001F00370094
:100E4C006054E100010031001420EF00F0C7B30042
:100E5C00020036000054E100FAC7B300605CE10008
:100E6C00010031001620EF00F0C7B300005CE10078
:100E7C0001003600F0C7B3000B54E100030036004C
:100E8C000A80FB000B407800804578000B003E0088
:100E9C000054E1008C1F78008A9FBE008C457800BE
:100EAC000D467800F8FE07004F05BE004F0678008F
:100EBC006140450000457800F4FF37000080FA00DF
:040ECC00000006001C
:100A94000000FA008A1F78006054E1000900390060
:100AA400F0C7B3000054E10006003E00605CE100C2
:100AB40004003900F0C3B300005CE10001003E0013
:100AC400010037002F0037008A1F780080FF0700DD
:100AD4000B80FB004300DE0000407800DFFF0700CE
:100AE4004F0578008A1F780087FF07004F057800BC
:100AF40042FE07009AFF070040FE070098FF070028
:100B0400004178003DFE07000B80FB004300DE003F
:100B1400004078008A1F7800D0FF07004F05780056
:100B240079FF0700600060000B80FB008080FB0001
:100B3400100020000100DD008040780000C0EE00BD
:100B44000700370080406100014078000B00370047
:100B540000407100090037000040690007003700B9
:100B64006064E100F7FF32006164E100F8FF3200E5
:100B74006264E100F8FF320002407800004578002A
:100B84004BFF07004F0578000080FA0000000600C4
:000B940061
:101000000000FA006064E10004003900F0C7B3009A
:101010000064E10001003E000100370020003700BD
:101020006054E100010031001420EF00F0C3B30070
:10103000020036000054E100FAC3B300605CE10036
:10104000010031001620EF00F0C3B300005CE100A6
:1010500001003600F0C3B3000B54E100030036007A
:101060000A80FB000B407800804578000C003E00B1
:101070000054E1008C1F78008A9FBE008A457800EA
:101080000C4578000D40780082FE07004F05BE0039
:101090004F0678006140450000407800F3FF3700BC
:0810A0000080FA0000000600C8
:10141C001600FA004EB8970040BF9F00EE0D9000EA
:10142C00800598001EB89700AEB8970010BF9F00BB
:10143C0021BF9F00AEB897001EB89700100F980000
:10144C00210F98000020EF00400798000020EF00CB
:10145C00000098000C004500E1005000F00720004F
:10146C000008E100030036000000500000082000D6
:10147C00000678000D804500E1005000F0032000CC
:10148C00040036000008E100000420000B005000AE
:10149C00800678004358DE00004278008D804500BD
:1014AC00618050004300DE000040780067806500DA
:1014BC00004478006E806000804398006A005700FA
:1014CC001068E10002003100274798000500370042
:1014DC006A005700108045000020ED004300DE003C
:1014EC00204798000E009000670060006000E1004B
:1014FC0006003A003E009000C305DE00680157006C
:10150C001218B80070079800060037000E00900003
:10151C00C305DE00E1014000680157001218B80055
:10152C0070079800000098000480FB0004417800CC
:10153C00600047008780FB001008E100C5003900FF
:10154C000020EF0060079800000098000020EF00DA
:10155C000843780087427800024078006600470014
:10156C001060E100A9003600600047001000450043
:10157C008A1F780000457800D3FC070035FD070072
:10158C000E4090004F057800BE0090006800570098
:10159C001008E1003C003100620047009080FB0025
:1015AC00640047001008E100370039008480FB001C
:1015BC00640047001008E10003003A000420EF002B
:1015CC0002407800140037001EB89700AEB89700A0
:1015DC00100F980001009800EE0090006A00470080
:1015EC0090804000720047008C1F78008A9FBE00DC
:1015FC00010078000006EB0000057800E60007000B
:10160C004F05BE004F0678000E0090001040780089
:10161C000041780002407800CE0090006E00470038
:10162C001008E100030039000020EF00005798007B
:10163C00130037001EB89700AEB89700110F980032
:10164C00200F9800EE00900068004700908040004A
:10165C0072004700010078008A9FBE008C1F780042
:08166C000006EB000005780008
:001E600082
:001BE40001
:003230009E
:002DE400EF
:002B8C0049
:001B68007D
:0018680080
:000FAC0045
:000ED00022
:000D3C00B7
:000BA8004D
:000D1400DF
:0004F80004
:000B940061
:0005DC001F
:000D2800CB
:0012E4000A
:001A700076
:0010A80048
:0031E400EB
:002D0000D3
:002D4C0087
:002D98003B
:020000040001F9
:1000000000000000000000000000000000000000F0
:1000100000000000000000000000000000000000E0
:1000200000000000000000000000000000000000D0
:1000300000000000000000000000000000000000C0
:1000400000000000000000000000000000000000B0
:1000500000000000000000000000000000000000A0
:100060000000000000000000000000000000000090
:100070000000000000000000000000000000000080
:100080000000000000000000000000000000000070
:100090000000000000000000000000000000000060
:1000A0000000000000000000000000000000000050
:1000B0000000000000000000000000000000000040
:1000C0000000000000000000000000000000000030
:1000D0000000000000000000000000000000000020
:1000E0000000000000000000000000000000000010
:1000F0000000000000000000000000000000000000
:1001000000000000000000000000000000000000EF
:1001100000000000000000000000000000000000DF
:10012000000000000000000000C0000020100000DF
:10013000000800000808000008000000101000007F
:10014000A0C000000000000000000000000000004F
:10015000000000000000000000000000000000009F
:10016000000000000000000000000000000000008F
:10017000000000000000000000000000000000007F
:10018000000000000000000000000000000000006F
:1001900000000000000000000000000000800000DF
:1001A000804000004040000040400000808000008F
:1001B000000000000000000000000000000000003F
:1001C000000000000000000000000000000000002F
:1001D000000000000000000000000000000000001F
:1001E000000000000000000000000000000000000F
:1001F00000000000000000000000000000000000FF
:1002000000000000000000000000000000000000EE
:1002100000000000000000000000000000000000DE
:100220000000000000000000DF3E00003810000069
:1002300000000000001000001CAE00007FFC000069
:10024000FCFF0000FFF00000800000000000000044
:1002500000000000000000000008000070E0000046
:10026000C0000000000000000000000000000000CE
:10027000000000000000000000000000000000007E
:10028000000000000000000000000000000000006E
:10029000000000000000000078860000010000005F
:1002A00000000000000000001C2400007C7800001A
:1002B000310600001860000080000000F0380000E7
:1002C000D408000014180000F000000000800000B6
:1002D00000C00000B00000000000000000000000AE
:1002E000000000000000000000000000000000000E
:1002F00000000000000000000000000000000000FE
:1003000000000000000000000000000000000000ED
:1003100000000000000000000000000000000000DD
:1003200000000000000000000102000004080000BE
:1003300008880000C83C00001A1D00008E4F000015
:10034000371B0000030700008FFE0000F87000005C
:10035000408000000000000000000000008300005A
:10036000FFFF0000FCF000000000000000000000A3
:10037000000000000000000000000000000000007D
:10038000000000000000000000000000000000006D
:100390000070000098080000684900000F3000005D
:1003A00040C0000080800000504000002098000005
:1003B00097480000300C000001060000010000001A
:1003C00000C00000700E000001000000010A0000E3
:1003D000150B0000976F00009E0000000000000059
:1003E000000000000000000000000000000000000D
:1003F00000000000000000000000000000000000FD
:1004000000000000000000000000000000000000EC
:1004100000000000000000000000000000000000DC
:100420000000000000000000001C00003229000055
:10043000211000001F600000800E00001914000051
:1004400018080000043E00008701000000000000C2
:100450000000000083FC0000FCFE00007F3F000065
:100460001F0F00000300000000000000000000005B
:10047000000000000000000000000000000000007C
:10048000000000000000000000000000000000006C
:100490000000000000010000010200000202000054
:1004A00007870000F70F00000101000001000000B5
:1004B000000000000000000080400000000000007C
:1004C000010300001C7000009010000088880000EC
:1004D000C4E20000F93E00000F0000000000000030
:1004E000000000000000000000000000000000000C
:1004F00000000000000000000000000000000000FC
:1005000000000000000000000000000000000000EB
:1005100000000000000000000000000000000000DB
:1005200000000000000000000000000000000000CB
:100530000080000040200000201100000A8C000014
:100540009CF80000F8E8000008050000067C0000A8
:10055000840600008F1D000038F00000E0C000009D
:10056000800000000000000000000000000000000B
:10057000000000000000000000000000000000007B
:10058000000000000000000000000000000000006B
:10059000000000000000000000000000804E00008D
:1005A0005120000020430000CCF80000F0F00000D3
:1005B00060200000203E000039700000E0E00000F4
:1005C00040400000406000005F870000070300001B
:1005D0000301000000000000000000000000000017
:1005E000000000000000000000000000000000000B
:1005F00000000000000000000000000000000000FB
:1006000000000000000000000000000000000000EA
:1006100000000000000000000000000000000000DA
:1006200000000000000000000000000000000000CA
:1006300000010000020300000202000003020000AB
:1006400003010000010000000000000000000000A5
:100650000102000002030000020300000303000087
:100660000100000000000000000000000000000089
:10067000000000000000000000000000000000007A
:10068000000000000000000000000000000000006A
:100690000000000000000000000000000001000059
:1006A0000101000001010000010100000100000043
:1006B0000000000000000000000000000102000037
:1006C000020200000202000002010000000000001F
:1006D000000000000000000000000000000000001A
:1006E000000000000000000000000000000000000A
:1006F00000000000000000000000000000000000FA
:1007000000000000000000000000000000000000E9
:1007100000000000000000000000000000000000D9
:1007200000000000000000000000000000000000C9
:1007300000000000000000000000000000000000B9
:1007400000000000000000000000000000000000A9
:100750000000000000000000000000000000000099
:100760000000000000000000000000000000000089
:100770000000000000000000000000000000000079
:100780000000000000000000000000000000000069
:100790000000000000000000000000000000000059
:1007A0000000000000000000000000000000000049
:1007B0000000000000000000000000000000000039
:1007C0000000000000000000000000000000000029
:1007D0000000000000000000000000000000000019
:1007E0000000000000000000000000000000000009
:1007F00000000000000000000000000000000000F9
:1008000000000000000000000000000000000000E8
:1008100000000000000000000000000000000000D8
:1008200000000000000000000000000000000000C8
:1008300000000000000000000000000000000000B8
:1008400000000000000000000000000000000000A8
:100850000000000000000000000000000000000098
:100860000000000000000000000000000000000088
:100870000000000000000000000000000000000078
:100880000000000000000000000000000000000068
:100890000000000000000000000000000000000058
:1008A0000000000080800000000000000000000048
:1008B0000000000000000000000000000000000038
:1008C0000000000000000000000000000000000028
:1008D0000000000000000000000000000000000018
:1008E0000000000000000000000000000000000008
:1008F00000000000000000000000000000000000F8
:1009000000000000000000000000000000000000E7
:1009100000000000000000000000000000000000D7
:100920000000000000000000000000000080000047
:1009300040200000201000001010000008040000FB
:10094000347A0000DE80000000000000000000009B
:100950000000000000000000000000000000000097
:100960000000000000000000000000000000000087
:100970000000000000000000000000000000000077
:100980000000000000000000000000000000000067
:1009900000000000000000000080000040E00000B7
:1009A00038070000000000003F700000E0C00000B9
:1009B00080000000000000000000000000000000B7
:1009C0000000000000000000000000000000000027
:1009D00000000000004400000C98000038F80000FF
:1009E00070E00000C00000000000000000000000F7
:1009F00000000000000000000000000000000000F7
:100A000000000000000000000000000000000000E6
:100A100000000000000000000000000000000000D6
:100A20000000000000000000804000007C1B00006F
:100A3000000000000010000020380000FCF600005C
:100A4000E2FE0000FFFF0000FEC00000C0C000008A
:100A5000C0C00000C0C00000808000008000000016
:100A60000000000000000000000000000000000086
:100A70000000000000000000000000000000000076
:100A80000000000000000000000000000000000066
:100A900000000000003C0000D38000008000000047
:100AA0000030000040C00000A8F800008CFF0000EB
:100AB000FFFE0000F8C0000080800000C040000081
:100AC000202000001010000010880000888800001E
:100AD000888800009674000058B700005EBF0000D0
:100AE0007D3A0000053F0000F8C000000000000053
:100AF00000000000000000000000000000000000F6
:100B000000000000000000000000000000000000E5
:100B10000000000000000000E0FE0000F88000007F
:100B20000000000000000000070A00001010000094
:100B3000F4F00000F0F80000F8FE0000FFDF000015
:100B40008F87000083C30000E3E70000DF8F000011
:100B50004F3D0000F830000031610000C1C30000CB
:100B6000E3620000FE3C00001CF80000B0600000E2
:100B70000000000000000000000000000000000075
:100B80000000000000000000000000000000000065
:100B900000000000000000000F11000028E000002D
:100BA000E0E80000E0F80000F7FF0000FF7F000031
:100BB0007F7F00007F7F00003F1F00000FFF0000CD
:100BC0007F7700002727000027430000C383000031
:100BD000030100003B7F00007DF00000E0F000001A
:100BE000F8F40000E01E0000030100000000000017
:100BF00000000000000000000000000000000000F5
:100C000000000000000000000000000000000000E4
:100C100000000000000000001F670000831F0000AC
:100C20003C780000F0F00000E0E00000C0C00000F0
:100C3000C16700003F1F0000381000003021000095
:100C4000212100002121000031930000FFFF00005E
:100C50007A7900007D7E0000F8F00000E08000005E
:100C60000102000004030000020100000000000077
:100C70000000000000000000000000000000000074
:100C80000000000000000000000000000000000064
:100C9000008000006010000088880000848600004A
:100CA000CFFF00003F1F00001F1D00001860000064
:100CB000800000000000000008140000275A000017
:100CC0008A05000001030000030F00001F3F000021
:100CD000FFFE0000F8F00000F8E8000084030000C8
:100CE000C03000000D000000000000000000000007
:100CF00000000000000000000000000000000000F4
:100D000000000000000000000000000000000000E3
:100D100000000000000000000000000001020000D0
:100D200004080000103300003F7F00007FFF000038
:100D3000F0C00000C0C00000F0F80000FDFE0000A0
:100D4000FEFE0000FEFE00007F73000041800000F8
:100D50008080000080800000C0E00000F3FF000001
:100D6000FEF80000E00000000000000000000000AD
:100D70000000000000000000000000000000000073
:100D8000000000000000000000000000001800004B
:100D9000262F0000121700001C08000007030000A7
:100DA000010000000000000000000000000E000034
:100DB0003141000042C40000E4FC0000F8F80000EB
:100DC000F0F10000E3E40000E42800002C1E000025
:100DD000171300000B0900000504000002010000C9
:100DE0000000000000000000000000000000000003
:100DF00000000000000000000000000000000000F3
:100E000000000000000000000000000000000000E2
:100E100000000000000000000000000000000000D2
:100E200000000000000000000000000000040000BE
:100E30000A0F000017170000170F00001717000017
:100E40001F07000003000000000000000000000079
:100E500008150000171F00002F2F00002F1F000093
:100E60002F270000170F0000060000000000000000
:100E70000000000000000000000000000000000072
:100E80000000000000000000000000000000000062
:100E90000000000000000000000000000000000052
:100EA0000000000000000000000000000000000042
:100EB000000000000000000000000000030D000022
:100EC000140C0000110F00000403000000000000DB
:100ED0000000000000000000000000000000000012
:100EE0000000000000000000000000000000000002
:100EF00000000000000000000000000000000000F2
:100F000000000000000000000000000000000000E1
:100F100000000000000000000000000000000000D1
:100F200000000000000000000000000000000000C1
:100F300000000000000000000000000000000000B1
:100F400000000000000000000000000000000000A1
:100F50000000000000000000000000000000000091
:100F60000000000000000000000000000000000081
:100F70000000000000000000000000000000000071
:100F80000000000000000000000000000000000061
:100F90000000000000000000000000000000000051
:100FA0000000000000000000000000000000000041
:100FB0000000000000000000000000000000000031
:100FC0000000000000000000000000000000000021
:100FD0000000000000000000000000000000000011
:100FE0000000000000000000000000000000000001
:100FF00000000000000000000000000000000000F1
:10100000000000000000000000000000005F000081
:1010100000000000000700000007000000140000AE
:101020007F1400007F140000242A00007F2A0000A3
:10103000122300001308000064620000364900001B
:1010400055220000500000000503000000000000D1
:10105000001C0000224100000000000041220000AE
:101060001C000000082A00001C2A000008080000DC
:10107000083E00000808000000500000300000009A
:101080000008000008080000080800000030000008
:1010900030000000002000001008000004020000E2
:1010A0003E510000494500003E000000427F000024
:1010B000400000004261000051490000462100004C
:1010C000414500004B31000018140000127F000061
:1010D0001027000045450000453900003C4A00004B
:1010E00049490000300100007109000005030000BB
:1010F0003649000049490000360600004949000011
:10110000291E00000036000036000000000000002C
:101110005636000000000000000800001422000005
:1011200041140000141400001414000041220000B7
:101130001408000000020000015100000906000030
:1011400032490000794100003E7E0000111100008C
:10115000117E00007F49000049490000363E000032
:1011600041410000412200007F4100004122000077
:101170001C7F000049490000494100007F09000030
:1011800009010000013E0000414100005132000011
:101190007F080000080800007F000000417F000079
:1011A0004100000020400000413F0000017F00009E
:1011B00008140000224100007F4000004040000071
:1011C000407F000002040000027F00007F04000056
:1011D000081000007F3E000041410000413E000039
:1011E0007F09000009090000063E0000415100008F
:1011F000215E00007F09000019290000464600001A
:101200004949000049310000010100007F01000050
:10121000013F000040400000403F00001F20000050
:10122000402000001F7F000020180000207F0000E9
:101230006314000008140000630300000478000039
:101240000403000061510000494500004300000014
:10125000007F00004141000002040000081000006F
:1012600020410000417F0000000000000402000057
:101270000102000004400000404000004040000027
:10128000000100000204000000200000545400008F
:10129000547800007F4800004444000038380000C3
:1012A000444400004420000038440000444800004A
:1012B0007F3800005454000054180000087E0000DD
:1012C000090100000208000014540000543C000012
:1012D0007F0800000404000078000000447D000046
:1012E0004000000020400000443D000000000000DD
:1012F0007F10000028440000004100007F400000F3
:10130000007C000004180000047800007C08000045
:101310000404000078380000444400004438000011
:101320007C140000141400000808000014140000CD
:10133000187C00007C08000004040000084800003D
:101340005454000054200000043F000044400000BA
:10135000203C000040400000207C00001C200000D9
:10136000402000001C3C000040300000403C0000D9
:101370004428000010280000440C000050500000D9
:10138000503C000044640000544C00004400000045
:101390000836000041000000000000007F0000004F
:1013A00000000000413600000800000008080000AE
:1013B0002A1C0000080800001C2A00000808000081
:1013C0005072000065730000696F00006E650000D8
:1013D00020270000412700002070000061720000FB
:1013E0006120000043610000736F000020310000A5
:1013F000005500006C740000696D00006F20000053
:0C140000526500007365000074000000DD
:10140C004C610000626F000072610000746F00009C
:0C141C00726900006F2000003100000029
:0414280000000000C0
:10142C004C610000626F000072610000746F00007C
:0C143C00726900006F2000003100000009
:081448005744000054000000AD
:0C1450004D4300004C5200000000000062
:08145C00504F00005200000097
:041464000000000084
:101468005072000065730000696F00006E6500002F
:101478002027000042270000207000006172000051
:101488006120000043610000736F000020320000FB
:101498000050000072650000736900006F6E000064
:1014A800652000002743000027200000706100002D
:1014B8007261000020430000617300006F2000008B
:0414C80033000000ED
:1014CC0043610000736F0000204300002000000007
:1014DC0043610000736F00002041000000430000D6
:1014EC00617300006F2000004220000000450000E6
:1014FC00727200006F6E0000656F0000200000002B
:10150C0000000000000000000000000000000000CF
:04151C0000000000CB
:101520004D6500006E7500002050000072690000DB
:101530006E63000069700000616C00002000000014
:101540005072000065730000696F00006E65000056
:101550002027000044270000207000006172000076
:1015600061200000574400005420000020200000AB
:1015700000430000617300006F2000004420000061
:1015800000FF0000FFFF0000FFFF0000FFFF000062
:10159000FFFF0000FFFF0000FFFF0000FFFF000053
:1015A000FFFF0000FFFF0000FFFF0000FFFF000043
:1015B000FFFF0000FFFF0000FFFF0000FFFF000033
:1015C000FFFF0000FFFF0000FFFF0000FFFF000023
:1015D000FFFF0000FFFF0000FFFF0000BF9F0000B3
:1015E0008F07000003010000000000000000000061
:1015F00001030000078F00009FBF0000FFFF0000F5
:10160000FFFF0000FFFF0000FFFF0000FFFF0000E2
:10161000FFFF0000FFFF0000FFFF0000FFFF0000D2
:10162000FFE30000C181000000310000C1010000A3
:10163000F3F3000001C100003100000081C100008F
:10164000E3FF0000FFFF0000FFFF0000FFFF0000BE
:10165000FFFF0000FFFF0000FFFF0000FFFF000092
:10166000FFFF0000FFFF0000FFFF0000FFFF000082
:10167000FFFF0000FFFF0000FFFF0000FFFF000072
:10168000FFFF0000FFFF0000FFFF0000FFFF000062
:10169000FFFF0000FFFF0000FF0300000303000046
:1016A0000303000003030000030300000303000022
:1016B0000303000003030000030300000303000012
:1016C0000303000003030000030300000303000002
:1016D00003030000030300000303000003030000F2
:1016E000FFFF0000FFFF0000FFFF0000FFFF000002
:1016F000FFFF0000FFFF0000FF7F00003F1F000012
:101700000F0F00000F0F00001F3F00007FFF0000C1
:10171000FFFF0000FFFF0000FFFF0000FFFF0000D1
:10172000FFFF0000FFFF0000FFFF0000FFFF0000C1
:10173000FFFF0000FFFF0000FFFB0000F9F80000C2
:1017400040A00000A0600000E0E0000060A00000F9
:10175000A0400000F8F90000FBFF0000FFFF0000C0
:10176000FFFF0000FFFF0000FFFF0000FFFF000081
:10177000FFFF0000FFFF0000FFFF0000FFFF000071
:10178000FFFF000001020000F101000002E3000081
:10179000E302000001F1000002010000FFFF000071
:1017A000FFFF0000FFFF0000FFFF0000FFFF000041
:1017B000FFFF0000FFFF0000FFFF0000FFFF000031
:1017C000FFFF0000FFFF0000FFFF0000F8FF000028
:1017D000FCF00000FFFF0000F0FC0000FFF800003C
:1017E000FFFF0000FFFF0000FFFF0000FFFF000001
:1017F000FFFF0000FFFF00000303000003030000E1
:1018000003030000030300000303000003030000C0
:1018100003030000030300000303000003030000B0
:1018200003030000030300000303000003030000A0
:1018300003030000030300000303000003FF000094
:10184000FFFF0000FFFF0000FFFF0000FFFF0000A0
:10185000FFFF0000FFFF0000FFFF00007F3F0000D0
:101860003F3F00003F7F0000FFFF0000FFFF000040
:10187000FFFF0000FFFF0000FFFF0000FFFF000070
:10188000FFFF0000FFFF0000FFFF0000FFFF000060
:10189000FFFF0000FFFF0000EFE70000E301000092
:1018A0008080000080800000808000008080000038
:1018B00001E30000E7EF0000FFFF0000FFFF000072
:1018C000FFFF0000FFFF0000FFFF0000FFFF000020
:1018D000FFFF0000FFFF0000FFFF0000FFFF000010
:1018E000FF07000009C60000060900008F8F0000F6
:1018F00009060000C609000007FF0000FFFF000006
:10190000FFFF0000FFFF0000FFFF0000FFFF0000DF
:10191000FFFF0000FFFF0000FFFF0000FFFF0000CF
:10192000FFFF0000FFFF0000FCE00000FFF00000F0
:10193000C0FF0000FFC00000F0FF0000E0FC00005E
:10194000FFFF0000FFFF0000FFFF0000FFFF00009F
:10195000FFFF0000FF03000003030000030300007B
:10196000030300000303000003030000030300005F
:10197000030300000303000003030000030300004F
:10198000030300000303000003030000030300003F
:0C19900003030000030300000303000039
:10199C00FFFF0000FFFF0000FFFF0000FFFF000043
:1019AC00FFFF0000FFFF0000FFFF0000FFFF000033
:1019BC00FFFF0000FFFF0000FFFF0000FFFF000023
:1019CC00FFFF0000FFFF0000FFFF0000FFFF000013
:1019DC00FFFF0000FFFF0000FFFF0000FFFF000003
:1019EC00FFFF0000FFFF0000FFFF00007F3F000033
:1019FC001F0F000007030000030300000307000093
:101A0C000F1F00003F7F0000FFFF0000FFFF0000E2
:101A1C00FFFF0000FFFF0000FFFF0000FFFF0000C2
:101A2C00FFFF0000FFFF0000FFFF0000FFFF0000B2
:101A3C008E06000006000000C404000004CC000068
:101A4C00CC04000004C4000000060000068E000058
:101A5C00FFFF0000FFFF0000FFFF0000FFFF000082
:101A6C00FFFF0000FFFF0000FFFF0000FFFF000072
:101A7C00FFFF0000FFFF0000FFFE0000FCFC000069
:101A8C00FFFC0000FFFF0000FCFF0000FCFC00005E
:101A9C00FEFF0000FFFF0000FFFF0000FFFF000043
:101AAC00FFFF0000FFFF0000030300000303000022
:101ABC000303000003030000030300000303000002
:101ACC0003030000030300000303000003030000F2
:101ADC0003030000030300000303000003030000E2
:101AEC0003030000030300000303000003000000D5
:101AFC00E0F80000FCFE0000FE1F00000E1E0000BF
:101B0C00FCF80000389C00001CF80000F81C0000D9
:101B1C009C380000F8FC00001E0E00001F3E000068
:101B2C003C7C00007C3E00001E0000000001000018
:101B3C00070F00008FC00000C0000000200700004D
:101B4C00072C0000881D00002F2F00001D880000AE
:101B5C002C0700000720000000C00000C08000001F
:101B6C0000000000000000000000000000FC00006D
:101B7C00FFFF0000FFFF0000F9FA0000E4E50000A1
:101B8C00C4DC0000C2C10000C1FA0000FCFC000073
:101B9C00FDFC0000FEF90000FFFF0000FFFF00004D
:101BAC00FCE0000000000000000000000007000046
:101BBC000F1F00001FFF0000FFFF0000FFFF0000D1
:101BCC00FFFF0000FFFF0000FFFF0000FFFF000011
:101BDC00FFFF0000FF1F00003F3F00003F1F000001
:101BEC0007000000000000000000000000000000E2
:101BFC000000000007FF0000FFFF0000FFFF0000D7
:101C0C00FFFF0000FFFF0000FFFF0000FFFF0000D0
:101C1C00FF070000000000000000000000000000B2
:041C2C0000000000B4
:101C3000E0F80000FCFE0000FE1F000007070000A7
:101C4000FEFE00000E27000047FE0000FE470000D9
:101C5000270E0000FEFE0000070700001F3E0000E8
:101C60003C7C00007C3E00001E00000000010000E3
:101C7000070F00008FC00000C04000008801000076
:101C8000410B0000228700004B4B00008722000020
:101C90000B4100000188000040C00000C08000002F
:101CA00000000000000000000000000000FC000038
:101CB000FFFF0000FFFF0000FCFE0000F5E1000058
:101CC000E5CF0000C4C00000C0E40000FFFD00003C
:101CD000FDFD0000FEFC0000FFFF0000FFFF000014
:101CE000FCE0000000000000000000000007000011
:101CF0000F1F00001FFF0000FFFF0000FFFF00009C
:101D0000FFFF0000FFFF0000FFFF0000FFFF0000DB
:101D1000FFFF0000FF1F00003F3F00003F1F0000CB
:101D200007000000000000000000000000000000AC
:101D30000000000007FF0000FFFF0000FFFF0000A1
:101D4000FFFF0000FFFF0000FFFF0000FFFF00009B
:101D5000FF0700000000000000000000000000007D
:101D60000000000000E00000F8FC0000FEFE0000A3
:101D70001F07000007FE0000FE0E000007670000BE
:101D8000FEFE0000670700000EFE0000FE070000D8
:101D9000071F00003E3C00007C7C00003E1E00004F
:101DA00000000000010700000F0F0000000000000D
:101DB00000880000014100000B22000087CB0000DA
:101DC000CB870000220B00004101000088000000CA
:101DD00080C00000C0E00000F0F00000F8FC00004F
:101DE0000000000080C00000E0F00000F8FC0000EF
:101DF000FFFF0000FFFF0000FFFF0000FFFF0000EB
:101E0000FFFF0000FFFF0000FFFF0000FFFF0000DA
:101E10003F1F00000F07000003810000F0000000DA
:101E2000FEFF0000FFFF00006F030000FFFF000047
:101E3000FFFF0000FFFF0000FFFF0000FFFF0000AA
:101E4000FFFF0000FFFF0000FFFF00000000000098
:101E5000000000000806000003010000000100006F
:101E6000030300000300000000070000FFFF000064
:101E7000FFFF0000FFFF0000FFFF0000FFFF00006A
:101E8000FFFF0000FFFF000007000000000000004F
:0C1E900000000000000000000000000046
:101E9C00D1000000CDCB0000C9CA0000D400000066
:101EAC00D2D00000CECC0000EB7E00000000000081
:101EBC00DEDD000000DC000051210000000000000D
:101ECC00005A00005341000057400000DB000000A6
:101EDC00435800004445000024230000DB000000B0
:101EEC00205600004654000052250000000000005F
:101EFC004E42000048470000595E00000000000000
:101F0C00004D00004A550000262A00000000000089
:101F1C003C4B0000494F0000292800000000000045
:101F2C003E3F00004C3A0000505F000000000000F3
:101F3C0000220000007B00002B00000000E10000EC
:101F4C00DDD500007D0000007C00000000000000DA
:101F5C00000000000000000000D80000000000009D
:101F6C00E2000000E6E300000000000000D90000E1
:101F7C00DAE9000035E70000E8EA0000E5D30000EC
:101F8C002BD700002D2A0000D6E400000000000032
:101F9C0000000000CFD1000000CD0000CBC9000034
:101FAC00CAD40000D3D20000D0CE0000CCEB00008D
:101FBC006000000000DE0000DD000000DC710000AD
:101FCC0031000000000000007A730000617700000F
:101FDC0032DB000000630000786400006534000010
:101FEC0033DB0000002000007666000074720000F5
:101FFC0035000000006E0000626800006779000088
:10200C0036000000000000006D6A0000753700000B
:10201C0038000000002C00006B6900006F300000DD
:10202C0039000000002E00002F6C00003B700000F7
:10203C002D00000000000000270000005B3D0000A8
:10204C0000000000E1DD0000D55D0000005C000038
:10205C000000000000000000000000000000000074
:10206C00D800000000E2000000E60000E3000000E1
:10207C0000000000D9DA0000E9350000E7E80000B4
:10208C00EAE50000D32B0000D72D00002AD6000073
:0C209C00E40000000000000000CF000085
:1020A80000800000F0F80000FCFC0000EEC6000014
:1020B800C6EE0000FCFC0000F8F000008000000004
:1020C800001F00001F1F00001F3F00003F7F00008F
:1020D8007F3F00003F1F00001F1F00001F0000007F
:1020E80000B00000B83C00007EFE0000FEFF0000CB
:1020F800FFE70000C6CE0000FCF80000C0000000AA
:102108000E1F00001D0F0000000F00001F3F000001
:102118003F1F00001F0F00000F0F00000F000000FE
:1021280000C00000F8FC0000CEC60000E7FF000079
:10213800FFFE0000FE7E00003CB80000B00000007A
:10214800000F00000F0F00000F1F00001F3F0000CE
:102158003F1F00000F0000000F1D00001F0E0000B1
:10216800310000003437000000000000003000009B
:102178002E32000035360000380000000000000054
:0C2188002B3300002D2A0000390000005D
:102194000000000001000000020000000300000035
:0421A4000400000033
:0200000401F009
:1C0008000300000087000000A70000007F0000003F000000D70000000300000013
:00000001FF
