:1000000028130400000000000000000000000000B1
:1000100000000000000000000000000000000000E0
:100020000000000000000000961200000000000028
:1000300000000000000000000000000000000000C0
:1000400000000000000000000000000000000000B0
:1000500000000000000000000000000000000000A0
:100060000000000000000000000000000000000090
:1000700000000000BC120000701200000000000030
:100080000000000000000000000000000000000070
:10009000000000000213000000000000000000004B
:1000A0000000000000000000000000000000000050
:1000B0000000000000000000000000000000000040
:1000C0000000000000000000000000000000000030
:1000D0000000000000000000000000000000000020
:1000E0000000000000000000000000000000000010
:1000F0000000000000000000000000000000000000
:100100009A140000C014000000000000000000006D
:1001100000000000000000000000000000000000DF
:1001200000000000000000000000000000000000CF
:1001300000000000000000000000000000000000BF
:1001400000000000000000000000000000000000AF
:1026500000A0B700F0FF2700CF0D210010202000C0
:1026600032A0B700400020004420B700E61402006A
:10267000000000008B1F78008A1F78008C1F7800F4
:102680008D1F78001E2EEF002E2EEF003E2EEF0045
:102690004E2EEF00100020006E2EEF0010AEB7009F
:1026A000402EEF00602EEF00DBFD07005FFF07000C
:1026B000C8FD0700F4FD070087242400080120005E
:1026C0000E20ED00FEFF3A001020ED00FCFF3A0066
:1026D00000000000000000000000000000000000FA
:1026E0001420EF0094FD07001DC0B3001820EF0078
:1026F000FBC1B30054FF07002A0321001DC0B30033
:102700001CC0B3001620EF001A0621004EFF070080
:1027100010C0B3002CC0B3001620EF00AA072100A0
:1027200049FF07001CC0B3003DC0B3001620EF00F6
:102730008A04210044FF07001DC0B3004CC0B30051
:1027400041FF07002A0A21001620EF001C0021008B
:102750000B0021002A00210032FE07000000E200E9
:102760006E003200100021001004E0006B00320007
:10277000000021001004E00068003A005200370019
:102780001DC0B3001820EF00C0C3B3002EFF070028
:102790003A09210008012000872424000E20ED00C2
:1027A000FEFF3A001000ED0000000000FBFF3A00C1
:1027B000000000000000000000000000CAFE07004A
:1027C0005600370010C0B3001820EF00CBC3B30091
:1027D000AA0921001CFF0700080120000E00ED00DF
:1027E00087242400FEFF3A001020ED00FCFF3A0091
:1027F00000000000000000000000000000000000D9
:10280000460037001DC0B3001820EF00CBC3B30053
:102810004A0C21000CFF0700872424000801200037
:102820000E20ED00FEFF3A001020ED00FCFF3A0004
:10283000000000000000000000000000ABFD0700E9
:1028400000000000350037001DC0B3001820EF0065
:102850000A042100C0C3B300FBFE070008012000EA
:10286000872424000E20ED00FEFF3A00FDFF3A0011
:102870001000ED000000000000000000000000005B
:10288000000000002500370010C0B300C0C3B30033
:102890001820EF00BA0B2100EBFE07000801200012
:1028A000872424000E00ED001000ED00FDFF3A002B
:1028B000FCFF3A00000000000000000000000000E3
:1028C00000000000150037000040780020002100C3
:1028D00010C6B300000CE100A9FF32002000210067
:1028E0000040780020C6B300000CE100B5FF3200C4
:1028F0002000210090407800000CE10030C6B300B9
:10290000C0FF3200200021009040780040C6B30094
:10291000CDFF3200000CE100DBFF370070FF370015
:10292000CF0678004F067800CF0578004F05780075
:04293000FFFF37006E
:101E18008A1F78008B1F78008C1F78008D1F780030
:101E2800C5FE0700102020007DC0B3005CC0B300D1
:101E38000A80280080057800AFFF0700801F78001F
:101E4800000220002F00B1001420EF00B8FF0700A7
:101E58004F067800CF067800CF0578004F05780048
:041E68000000060070
:101940000000FA008A1F7800A10D21000020EF009E
:10195000804878000020EF00C0868800400EA90073
:10196000306EA900302EA900304EA900400EA9000B
:10197000404EA900448EA900402EA900400EA900A7
:10198000500EA900500EA90030EEA90030CEA900DB
:10199000300EA900308EA900342EA900344EA900C3
:1019A000440EA900444EA800448EA80028FD07005C
:1019B0002DFD0700F0C3B3005EFD07000ACCB300A5
:1019C00029FD07005BFD0700446EA800444EA900F6
:1019D00025FD0700F0C3B30056FD07000ACCB30095
:1019E00021FD070053FD07004F0578000080FA0035
:0419F00000000600ED
:100E50000000000000000000000000000000000092
:080E6000000000000000060084
:100E68000000FA0014E0AE00422EA90014E0AF0022
:100E7800422EA8001400AE0000000000420EA90097
:100E880014C0AF00420EA8000000000052AEA90036
:100E98001420AE0014A0AF00522EA80000000000DD
:100EA8001480AE001400AF00528EA900520EA800A4
:100EB800000000001460AE0032EEA900326EA800F7
:100EC80014E0AF00000000001440AE0032CEA900CC
:100ED8001440AF00320EA800000000001420AE003D
:100EE80032AEA9001420AF0032AEA8000000000006
:100EF8001400AE00328EA9001400AF00328EA80094
:0C0F0800000000000080FA00000006005D
:100F34000000FA009AFD0700340EA80098FD07008F
:0C0F4400346EA9000080FA0000000600D6
:1005A400A70020000E20ED00FEFF3A00000000002E
:0805B400000000000000060039
:101D00000000FA000E009000AA868800BB868800BA
:101D100090868800D00C21000C487800300021000B
:101D20000D487800A10D210010C0B3008048780054
:081D30000080FA00000006002B
:101D38000000FA00446EA900440EA8000420EF0039
:101D48006710E1000D003E008A1F78000245780008
:101D58007DFC07004F0578000220EF00F00320000B
:101D68000008E10003003E0068FC07000220EC00C8
:101D7800FAFF37000420EC00F1FF3700444EA900B9
:101D8800446EA8000420EF006010E1000D003E0042
:101D98008A1F7800024578006BFC07004F05780021
:101DA8000220EF00F00320000008E10003003E00DD
:101DB80056FC07000220EC00FAFF37000400EC0094
:0C1DC800F1FF37000080FA000000060068
:100F50000000FA008A1F7800340EA900340EA900A0
:100F60008A80FB00800B2000008070000045780024
:100F7000BDFF0700EFFF07004F0578000080FA0073
:040F80000000060067
:100F14000000FA00340EA900340EA800344EA900D3
:100F2400D0FF0700020007000080FA00000006005E
:000F3400BD
:10242C000000FA00500EA800500EA8000020EF008B
:0C243C00808688000080FA000000060086
:101DD400180EA800182EA80018CEA80018EEA80007
:101DE400180EA8001A0EA8001A2EA8001ACEA800D1
:101DF4001AEEA8001A0EA800414280000000270035
:101E04000080700048A8B7000268A9002208A80052
:041E140000000600C4
:101E88008A1F78008B1F780010202000000078003F
:101E98000A002800D5FE07008800200047122A0003
:101EA8000E20ED001000ED00FDFF3A00FCFF3A00A7
:101EB800102020000A40280080057800CBFE07008B
:101EC80047122A00880020000E20ED00FEFF3A008D
:101ED8001020ED00FCFF3A00CF0578004F05780090
:041EE80000000600F0
:1019F4000400FA008C1F78000A0798001B0798005F
:101A04000820EF006720E10032003E0081FB070060
:101A14001420EF008A9FBE00044578004BFD0700A8
:101A24008AFB07001420EF004F05BE000A20EF00D8
:101A34000028E100F00320000C003E000E0090009E
:101A44008A9FBE000040780031FD07006000470017
:101A54001B0020000C0020000005780043FB070059
:101A64004F05BE000A20EC00F1FF370000C4B300AC
:101A74008A9FBE0067FB07000445780033FD07001A
:101A840000C4B30071FB07004F05BE00050420002D
:101A9400F00720000028E1000C003E000E0090003A
:101AA400004078008A9FBE0019FD070060004700CF
:101AB4001B0020000C002000000078002BFB070016
:101AC4004F05BE000A20EC00F1FF37000800EC00CF
:101AD400CCFF37004F0678000080FA0000000600B3
:001AE40002
:100818000000FA008A80FB00F00720000040780002
:100828000085600000C0AE0003003700446EA800D9
:10083800440EA90002003700446EA900444EA800E7
:080848000080FA000000060028
:100850000000FA008A1F78008A80FB000080600098
:10086000F007200000457800342EA900344EA9007E
:1008700000806000F00B20008080FB0000457800C5
:100880008080FB00000420000080700000407800A1
:100890000045780074010700A60107004F057800A5
:0808A0000080FA0000000600D0
:100770000000FA0000002800010020000058E100FD
:100780000800310000E0E1003A804500AA004E0078
:100790000001BE000000AE0002003700028DBE0066
:1007A0001B0037000A017800620045001040780005
:1007B0000000AF0002003700610041001074A1008A
:1007C000E2004100114078004100DE000080FB00A3
:1007D000804878001299450012114E00814079003E
:1007E000600041000080FB004100DD00804878008F
:1007F0006000410000C0780000E0AE000200370059
:10080000620041001004A000600041001074A000CC
:080810000080FA000000060060
:102448000000FA000420EF00A00D210010407800E1
:102458006004E1000C003A00D10C210050C0B30028
:10246800804878003100210070C0B3000040780037
:1024780000802800A086880010202000B0868800F0
:102488000002200090868800020045001004E00049
:102498000F00320002004500004078008A9FBE000D
:1024A800821F78008DFD07004F05BE004F017800A0
:1024B800D00C21000080FB00600040000B80FB0076
:1024C80001004000804578000420EC00EEFF370052
:0824D8000080FA00000006007C
:101AE4000200FA008A1F7800020036006064E100F8
:101AF400630037008A80FB00200D21009080500095
:101B04000080FB00D00C21000008B800000378001E
:101B14000B4578004DFB07000C4578000BFD0700D2
:101B24000A20EF00D00C21001080FB000028E10007
:101B340038003100F0C7B300005CE100010036005A
:101B44004F0037008A1F78000B45780031FB0700EF
:101B54000C457800FDFC07000B4578003BFB0700B3
:101B64004F057800BEFA070000479800BCFA07004A
:101B7400004798008A1F78000B40780025FB070077
:101B84000C457800F1FC07000B4078002FFB0700A0
:101B94004F057800860178004F98DE0000804100F0
:101BA400420D2100A2004A00104078000041780054
:101BB4000C00EC0000E0EE00080037000040980044
:101BC4000C003700024798000A003700E000470085
:101BD400600047001148690006003700606CE100AE
:101BE400F6FF3200616CE100F6FF3200626CE10046
:101BF400F6FF32008A1F78000E459000C4FC0700EF
:101C04004F05780000C07800E0C545000A20EC00CC
:101C1400C4FF37000B4078008A1F7800FDFA0700E4
:101C24000C457800C9FC07000B45780007FB07004A
:101C34004F057800F0CFB3000220EF000C0037000E
:101C440000479800004078008A1F7800B0FC070025
:101C54004F0578000A003700014098008A1F780079
:101C640001457800AAFC0700050037004F057800FD
:101C7400606CE100F2FF3200F7FF3200606CE100BB
:0C1C84004F0578000080FA000000060008
:100664000200FA00400EA800400EA800502EA80078
:10067400500EA800300EA80030CEA80030AEA8005E
:10068400308EA800F1010700F0010700342EA80005
:10069400346EA900340EA800346EA800C0FF070011
:1006A4006000470042EEAE000010A0001070A100F0
:1006B400600047001060A000420EAE000000A100E0
:1006C400600047001050A000522EAE001050A10050
:1006D400640047000000A000520EAE001040A100CC
:1006E400600047001030A000326EAE000070A10020
:1006F400600047001020A00032CEAE001020A10000
:100704000000A0006100470032AEAE001010A1004E
:10071400600047001000A0000040A100320EAE00AF
:10072400346EA900344EA900C8010700C7010700B0
:10073400402EA900400EA900500EA900500EA90099
:1007440030EEA90030CEA90030AEA900300EA900C9
:0C0754000E4090000080FA00000006003B
:102024000800FA00100020000000980010002000B2
:10203400300798000020EF00100798000020EF0000
:102044007086880011FF07000000E20002003A00D9
:102054000020EF00A10037008A1F780060004700CD
:1020640000057800C6FB07004F057800010F20002B
:10207400600047000008E1000C003A000020EF0077
:102084003007980001FF07000000E20001003A0059
:10209400FCFF3700600047008A1F780000007800CA
:1020A400B7FB07004F05780037003700010E20000A
:1020B400600047001C003A000008E100F3FE07003E
:1020C4000000E20001003A00FCFF37006000470016
:1020D4008A1F780000057800A9FB0700010F200083
:1020E4004F057800600047001008E1000B003A003B
:1020F4000020EF0000009800E4FE07000000E2006A
:1021040001003A00FCFF37008A1F78006000470096
:10211400000578009AFB07004F0578007086880058
:1021240010002000180037007107200060004700ED
:102134001008E1000E003A0010002000200798006B
:10214400660047001000E000080032000010A700FD
:10215400000D210003003700000D21001010A00025
:1021640002003700000D21000000A1000600370026
:10217400110E2000600047001008E10002003A0040
:10218400000E200010079800E00C21000C00320023
:102194000000E0000E0090007200E10002003A002E
:1021A40000009800F00D2000C107200060004700E7
:1021B4001008E10002003A00F00D2000100798001A
:1021C4000E0090007200E10005003200910520002D
:1021D400600047001008E100010032000A003700E7
:1021E4001000200020079800660047001000E0005F
:1021F400030032000000A000000D2100020037009F
:10220400000D21001050A1000010A700000D2100B6
:102214000600370031072000600047001008E10085
:1022240002003A000020EF002C0037001E0090004E
:102234006000E10007003A000020EF00200798004A
:102244008A1F78000E05900089FB070000009800A3
:102254004F057800110E2000620047001008E100CD
:102264000D003A0010002000200798006600470087
:102274001000E000080032000020A700000D21003B
:1022840003003700000D21001020A00002003700D9
:10229400000D21000000A100810C20006200470015
:1022A4001008E1000600310010002000200798000B
:1022B400820C2000E2004700620047000000110089
:1022C4002E409000004D78004E4090000040780071
:1022D4006E409000004E7800100020000080FA004C
:0422E40000000600F0
:101C90000000FA000420EF00B1FA070051FC070031
:101CA0000000E20002003A00020078001200370053
:101CB0000020EF00020078000000780000082000FB
:101CC0000010E10008003100528EAF000400370020
:101CD00052AEAF00020037000700370010002000AE
:101CE0000420EC00F5FF37000200E20001003A009A
:101CF00052FC0700010078000080FA000000060096
:001D0000E3
:100760000000FA0050AEA800000006000080FA0069
:0007700089
:100DE4000200FA001000200000079800010820000B
:100DF400600047001008E1000A00360052AEAE0061
:100E040001082000030037006000470010887000CC
:100E140003003700110020006000470000804000FC
:100E2400F2FF3700600047001070A1000E00900030
:080E34000080FA000000060036
:100E3C000000FA0050AEA900520EA9000080FA0082
:040E4C00000006009C
:100F84000000FA000C20EF00150020000820EF00FC
:100F94000620EF00C10C210010C0B300004078000F
:100FA4000004E000C00C2100160032003DFE0700E2
:100FB4000000E20012003200520EAE0006003700BC
:100FC400C00C21001080FB000000730060806A00E8
:100FD400800278000200370005007800860278005D
:100FE400C00C21004100DD000080FB00C00C21008A
:100FF40001487800050378000200780000003700FB
:10100400E7FF370027FE07000000E200050032007A
:101014000020EF000000EC00522EAF000002780028
:10102400000037001FFE07000000E2000400320049
:101034000020EF000000EC00522EAF00010037004A
:10104400030078007CFF07000428E10004003A0054
:10105400030032006000E100060078000100370060
:101064000020EF00000D7800000006000080FA0068
:001074007C
:1008A8000000FA000420EF00F00F20000000E20032
:1008B8000C003200520EAF000220EF000220EC00C4
:1008C8000400E200040032000200E20002003A00E4
:1008D8001000200004003700010078000020ED001F
:1008E800F2FF37000020EF000080FA000000060049
:0008F80000
:101074000000FA000220EF006050E10002003A0094
:101084000100780045003700000D21001010A60073
:1010940011003700800620000050E1000E003600E9
:1010A4000050E100E00720000B0031007007200031
:1010B4000050E100080032000000550090062000B6
:1010C400B009290081004000114078008080FB00B5
:1010D40001007800310037006000550000057800F9
:1010E400000D21001050A6001600370050F3280010
:1010F40000004000114078008080FB00000D2100BA
:101104000020A60000042000080037000008E100C9
:1011140008003600B00520000008E1000800310096
:101124000002200000804000010037000100780028
:10113400010037000100780000007800000037004B
:101144001500370080FB28000000400011407800A3
:101154008080FB00000D21000020A6000006200076
:10116400080037000008E10008003600B00720003E
:101174000008E10008003100000220000080500057
:1011840001003700010078000100370001007800F9
:101194000000780000003700010078000080FA00A9
:0411A4000000060041
:1022E8008A1F78008B1F78008C1F78000020EF0071
:1022F800208188000020EF00308188000020EF0056
:102308000020EF0040818800508188000020EF0005
:102318006081880050C0B3008040780000C0680029
:1023280000842000E7C060000084200090C068009E
:1023380000842000014878000040780040C0B300C5
:10234800A084200090C06800E7C06000A08420003E
:1023580090C0680001407800A084200000C3B3004A
:1023680080407800E084200090C0680000C06000D1
:1023780000C7B300E084200090C06800E08420001B
:102388000148780000C2B30000407800A085200012
:1023980090C0680000C7B30080C06000A08520001E
:1023A80000C0680001407800A085200000102000CF
:1023B80080007800A0852000908068000080600080
:1023C80000702000A085200090806800D14288001D
:1023D8001C0021000B0021002A0021000FFF07002C
:1023E800200021009040780020C2B300000CE100DA
:1023F80007003200100021009080FB00000021003F
:102408001080FB000080600001003200F0FF370000
:1024180063FB07004F067800CF0578004F0578006A
:0424280000000600AA
:1011A800004078000084200080CFB30080C0600039
:1011B800008420000148780000407800A0842000C6
:1011C80080CFB30080C06000A08420000148780070
:1011D80000407800E0842000F0C8B30080C06000C0
:1011E800E08420000148780000407800A0852000B5
:1011F800F0C8B30080C06000A085200001487800D6
:1012080000806000F08F2F00D14280005AA8B700FC
:101218000020EF00208188000020EF003081880046
:10122800408188000020EF000020EF0050818800F6
:0C1238000020EF0060818800000006002C
:101EEC008A1F78008B1F78008C1F78008D1F78005C
:101EFC001DC0B3001820EF00CBC3B3004F01070087
:101F0C002A0121004087AE000E0037001DC0B3002F
:101F1C001620EF0010C0B300EA02210047010700B1
:101F2C00E5FD0700880020000E00ED0047122A0096
:101F3C00FEFF3A001020ED00FCFF3A004087A9009C
:101F4C00230037004007AE0012003700FACFB30071
:101F5C0076FF07001A20EF0020C0B300FA01210021
:101F6C001620EF0035010700B3FC070088002000A5
:101F7C0047122A000E00ED00FEFF3A001020ED0083
:101F8C00FCFF3A0040E7A9001420EF0067FF0700B0
:101F9C000F0037004007AE000D0037001DC0B30026
:101FAC003CC0B30025010700EA0021001620EF0019
:101FBC0022FD07008800200047122A00FFFF3A008C
:101FCC000E00ED001020ED00FCFF3A004007A900C8
:101FDC001C0021000B0021002A0021000E0007002C
:101FEC000000E20001003200F9FF3700210220005E
:101FFC00C00021001008E100C2FF3A0030062000AA
:10200C00608088004F067800CF067800CF057800F6
:08201C004F05780000000600EA
:1016C4008A1F78008B1F780000C4B3008D1F780038
:1016D4008C1F7800FCC7B3008BC0B3001420EF004C
:1016E4000020EF00801F780082FC07002000B1007A
:1016F4008D022000FC0120000B012000DA022000F2
:10170400A0E92800801F780010202000801F7800A6
:1017140080022000801F7800F0012000801F7800E4
:101724009CFC07004F00B100E80320004792200012
:101734000E00ED001000ED00FDFF3A00FCFF3A0042
:1017440000000000000000000DC4B300FCC7B3009B
:1017540080C0B3000020EF001420EF00801F780049
:1017640064FC07002F00B1008D022000FC01200062
:101774000B012000801F7800F0DF2800DA0220002F
:1017840010202000801F780080022000801F780035
:10179400F0012000801F78007EFC07004000B100AB
:1017A400E8032000479220000E20ED00FEFF3A00DF
:1017B4001020ED00FCFF3A000000000000000000D3
:1017C40000C4B300FCC7B3008BC0B3001420EF0007
:1017D4000020EF00801F780046FC07002000B100C5
:1017E4008D022000FC0120000B012000DA02200001
:1017F40040D62800801F780010202000801F780029
:1018040080022000801F780062FC0700801F78009F
:10181400F00120004F00B100E803200047922000AF
:101824000E20ED001000ED00FDFF3A00FCFF3A0031
:1018340000000000000000000DC4B300FCC7B300AA
:101844008BC0B300801F78000020EF001420EF004D
:1018540028FC07002F00B1008D022000FC012000AD
:101864000B012000DA02200010202000801F7800E5
:10187400A0E92800801F780080022000801F7800E3
:10188400F0012000801F780042FC07004F00B100E7
:1018940047922000E80320000E20ED00FEFF3A00EE
:1018A4001020ED00FCFF3A000000000000000000E2
:1018B400FDC7B3000CC4B3008BC0B3001420EF0009
:1018C4000020EF00801F78000AFC07002000B10010
:1018D4008D022000FC0120000B012000DA02200010
:1018E400F0DF2800801F780010202000801F78007F
:1018F40080022000801F7800F001200025FC0700F2
:10190400801F78004F00B100E803200047922000B8
:101914000E20ED00FEFF3A00FDFF3A001000ED003E
:101924000000000000000000CF0678004F06780099
:0C193400CF0578004F0578000000060089
:1008F8000000FA008A1F78008B1F78008D1F78008F
:100908000E4090008C9FBE008A9FBE008C1F78000E
:10091800834678000B467800CF057800F6FE07007E
:100928004F05BE004F06BE008C9FBE008A9FBE00CA
:100938008C4578000D46780003407800EEFE0700ED
:100948004F05BE004F06BE008C9FBE008B1F78006F
:100958000A4678000B4078008D4578008346780079
:1009680014FF07004F06BE00CF0578000B4578003E
:100978008D457800834678000EFF0700CF06780083
:10098800CF0578004F0578000080FA0000000600C7
:000998005F
:100500000000FA006064E10004003900F0C3B300A9
:100510000064E10001003E00010037001F003700C9
:100520006054E100010031001420EF00F0C7B30077
:10053000020036000054E100FAC7B300605CE1003D
:10054000010031001620EF00F0C7B300005CE100AD
:1005500001003600F0C7B3000B54E1000300360081
:100560000A80FB000B407800804578000B003E00BD
:100570000054E1008C1F78008A9FBE008C457800F3
:100580000D4678009EFF07004F05BE004F0678001D
:100590006140450000457800F4FF37000080FA0014
:0405A0000000060051
:100400000000FA008A1F78006054E10009003900FA
:10041000F0C7B3000054E10006003E00605CE1005C
:1004200004003900F0C3B300005CE10001003E00AD
:10043000010037002F0037008A1F7800F600070000
:100440000B80FB004300DE0000407800C002070084
:100450004F0578008A1F7800FD0007004F057800DF
:10046000500007007F0007004E0007007D000700D6
:10047000004178004B0007000B80FB004300DE00CA
:10048000004078008A1F7800B10207004F0578000D
:10049000EF000700600060000B80FB008080FB0025
:1004A000100020000100DD008040780000C0EE0058
:1004B0000700370080406100014078000B003700E2
:1004C0000040710009003700004069000700370054
:1004D0006064E100F7FF32006164E100F8FF320080
:1004E0006264E100F8FF32000240780000457800C5
:1004F000880207004F0578000080FA00000006001F
:00050000FB
:1005BC000000FA006064E10004003900F0C7B300E9
:1005CC000064E10001003E0001003700200037000C
:1005DC006054E100010031001420EF00F0C3B300BF
:1005EC00020036000054E100FAC3B300605CE10085
:1005FC00010031001620EF00F0C3B300005CE100F5
:10060C0001003600F0C3B3000B54E10003003600C8
:10061C000A80FB000B407800804578000C003E00FF
:10062C000054E1008C1F78008A9FBE008A45780038
:10063C000C4578000D4078006EFF07004F05BE009A
:10064C004F0678006140450000407800F3FF37000A
:08065C000080FA000000060016
:100998001600FA004EB8970040BF9F00EE0D900079
:1009A800800598001EB89700AEB8970010BF9F004A
:1009B80021BF9F00AEB897001EB89700100F98008F
:1009C800210F98000020EF00400798000020EF005A
:1009D800000098000C004500E1005000F0072000DE
:1009E8000008E10003003600000050000008200065
:1009F800000678000D804500E1005000F00320005B
:100A0800040036000008E100000420000B0050003C
:100A1800800678004358DE00004278008D8045004B
:100A2800618050004300DE00004078006780650068
:100A3800004478006E806000804398006A00570088
:100A48001068E100020031002747980005003700D0
:100A58006A005700108045000020ED004300DE00CA
:100A6800204798000E009000670060006000E100D9
:100A780006003A003E009000C305DE0068015700FA
:100A88001218B80070079800060037000E00900092
:100A9800C305DE00E1014000680157001218B800E4
:100AA80070079800000098000480FB00044178005B
:100AB800600047008780FB001008E100C50039008E
:000AC8002E
:00124400AA
:00144800A4
:0029CC000B
:00293400A3
:001E6C0076
:0029800057
:00260400D6
:0024E000FC
:0025780063
:00252C00AF
:020000040001F9
:1000000000000000000000000000000000000000F0
:1000100000000000000000000000000000000000E0
:1000200000000000000000000000000000000000D0
:1000300000000000000000000000000000000000C0
:1000400000000000000000000000000000000000B0
:1000500000000000000000000000000000000000A0
:100060000000000000000000000000000000000090
:100070000000000000000000000000000000000080
:100080000000000000000000000000000000000070
:100090000000000000000000000000000000000060
:1000A0000000000000000000000000000000000050
:1000B0000000000000000000000000000000000040
:1000C0000000000000000000000000000000000030
:1000D0000000000000000000000000000000000020
:1000E0000000000000000000000000000000000010
:1000F0000000000000000000000000000000000000
:1001000000000000000000000000000000000000EF
:1001100000000000000000000000000000000000DF
:10012000000000000000000000C0000020100000DF
:10013000000800000808000008000000101000007F
:10014000A0C000000000000000000000000000004F
:10015000000000000000000000000000000000009F
:10016000000000000000000000000000000000008F
:10017000000000000000000000000000000000007F
:10018000000000000000000000000000000000006F
:1001900000000000000000000000000000800000DF
:1001A000804000004040000040400000808000008F
:1001B000000000000000000000000000000000003F
:1001C000000000000000000000000000000000002F
:1001D000000000000000000000000000000000001F
:1001E000000000000000000000000000000000000F
:1001F00000000000000000000000000000000000FF
:1002000000000000000000000000000000000000EE
:1002100000000000000000000000000000000000DE
:100220000000000000000000DF3E00003810000069
:1002300000000000001000001CAE00007FFC000069
:10024000FCFF0000FFF00000800000000000000044
:1002500000000000000000000008000070E0000046
:10026000C0000000000000000000000000000000CE
:10027000000000000000000000000000000000007E
:10028000000000000000000000000000000000006E
:10029000000000000000000078860000010000005F
:1002A00000000000000000001C2400007C7800001A
:1002B000310600001860000080000000F0380000E7
:1002C000D408000014180000F000000000800000B6
:1002D00000C00000B00000000000000000000000AE
:1002E000000000000000000000000000000000000E
:1002F00000000000000000000000000000000000FE
:1003000000000000000000000000000000000000ED
:1003100000000000000000000000000000000000DD
:1003200000000000000000000102000004080000BE
:1003300008880000C83C00001A1D00008E4F000015
:10034000371B0000030700008FFE0000F87000005C
:10035000408000000000000000000000008300005A
:10036000FFFF0000FCF000000000000000000000A3
:10037000000000000000000000000000000000007D
:10038000000000000000000000000000000000006D
:100390000070000098080000684900000F3000005D
:1003A00040C0000080800000504000002098000005
:1003B00097480000300C000001060000010000001A
:1003C00000C00000700E000001000000010A0000E3
:1003D000150B0000976F00009E0000000000000059
:1003E000000000000000000000000000000000000D
:1003F00000000000000000000000000000000000FD
:1004000000000000000000000000000000000000EC
:1004100000000000000000000000000000000000DC
:100420000000000000000000001C00003229000055
:10043000211000001F600000800E00001914000051
:1004400018080000043E00008701000000000000C2
:100450000000000083FC0000FCFE00007F3F000065
:100460001F0F00000300000000000000000000005B
:10047000000000000000000000000000000000007C
:10048000000000000000000000000000000000006C
:100490000000000000010000010200000202000054
:1004A00007870000F70F00000101000001000000B5
:1004B000000000000000000080400000000000007C
:1004C000010300001C7000009010000088880000EC
:1004D000C4E20000F93E00000F0000000000000030
:1004E000000000000000000000000000000000000C
:1004F00000000000000000000000000000000000FC
:1005000000000000000000000000000000000000EB
:1005100000000000000000000000000000000000DB
:1005200000000000000000000000000000000000CB
:100530000080000040200000201100000A8C000014
:100540009CF80000F8E8000008050000067C0000A8
:10055000840600008F1D000038F00000E0C000009D
:10056000800000000000000000000000000000000B
:10057000000000000000000000000000000000007B
:10058000000000000000000000000000000000006B
:10059000000000000000000000000000804E00008D
:1005A0005120000020430000CCF80000F0F00000D3
:1005B00060200000203E000039700000E0E00000F4
:1005C00040400000406000005F870000070300001B
:1005D0000301000000000000000000000000000017
:1005E000000000000000000000000000000000000B
:1005F00000000000000000000000000000000000FB
:1006000000000000000000000000000000000000EA
:1006100000000000000000000000000000000000DA
:1006200000000000000000000000000000000000CA
:1006300000010000020300000202000003020000AB
:1006400003010000010000000000000000000000A5
:100650000102000002030000020300000303000087
:100660000100000000000000000000000000000089
:10067000000000000000000000000000000000007A
:10068000000000000000000000000000000000006A
:100690000000000000000000000000000001000059
:1006A0000101000001010000010100000100000043
:1006B0000000000000000000000000000102000037
:1006C000020200000202000002010000000000001F
:1006D000000000000000000000000000000000001A
:1006E000000000000000000000000000000000000A
:1006F00000000000000000000000000000000000FA
:1007000000000000000000000000000000000000E9
:1007100000000000000000000000000000000000D9
:1007200000000000000000000000000000000000C9
:1007300000000000000000000000000000000000B9
:1007400000000000000000000000000000000000A9
:100750000000000000000000000000000000000099
:100760000000000000000000000000000000000089
:100770000000000000000000000000000000000079
:100780000000000000000000000000000000000069
:100790000000000000000000000000000000000059
:1007A0000000000000000000000000000000000049
:1007B0000000000000000000000000000000000039
:1007C0000000000000000000000000000000000029
:1007D0000000000000000000000000000000000019
:1007E0000000000000000000000000000000000009
:1007F00000000000000000000000000000000000F9
:1008000000000000000000000000000000000000E8
:1008100000000000000000000000000000000000D8
:1008200000000000000000000000000000000000C8
:1008300000000000000000000000000000000000B8
:1008400000000000000000000000000000000000A8
:100850000000000000000000000000000000000098
:100860000000000000000000000000000000000088
:100870000000000000000000000000000000000078
:100880000000000000000000000000000000000068
:100890000000000000000000000000000000000058
:1008A0000000000080800000000000000000000048
:1008B0000000000000000000000000000000000038
:1008C0000000000000000000000000000000000028
:1008D0000000000000000000000000000000000018
:1008E0000000000000000000000000000000000008
:1008F00000000000000000000000000000000000F8
:1009000000000000000000000000000000000000E7
:1009100000000000000000000000000000000000D7
:100920000000000000000000000000000080000047
:1009300040200000201000001010000008040000FB
:10094000347A0000DE80000000000000000000009B
:100950000000000000000000000000000000000097
:100960000000000000000000000000000000000087
:100970000000000000000000000000000000000077
:100980000000000000000000000000000000000067
:1009900000000000000000000080000040E00000B7
:1009A00038070000000000003F700000E0C00000B9
:1009B00080000000000000000000000000000000B7
:1009C0000000000000000000000000000000000027
:1009D00000000000004400000C98000038F80000FF
:1009E00070E00000C00000000000000000000000F7
:1009F00000000000000000000000000000000000F7
:100A000000000000000000000000000000000000E6
:100A100000000000000000000000000000000000D6
:100A20000000000000000000804000007C1B00006F
:100A3000000000000010000020380000FCF600005C
:100A4000E2FE0000FFFF0000FEC00000C0C000008A
:100A5000C0C00000C0C00000808000008000000016
:100A60000000000000000000000000000000000086
:100A70000000000000000000000000000000000076
:100A80000000000000000000000000000000000066
:100A900000000000003C0000D38000008000000047
:100AA0000030000040C00000A8F800008CFF0000EB
:100AB000FFFE0000F8C0000080800000C040000081
:100AC000202000001010000010880000888800001E
:100AD000888800009674000058B700005EBF0000D0
:100AE0007D3A0000053F0000F8C000000000000053
:100AF00000000000000000000000000000000000F6
:100B000000000000000000000000000000000000E5
:100B10000000000000000000E0FE0000F88000007F
:100B20000000000000000000070A00001010000094
:100B3000F4F00000F0F80000F8FE0000FFDF000015
:100B40008F87000083C30000E3E70000DF8F000011
:100B50004F3D0000F830000031610000C1C30000CB
:100B6000E3620000FE3C00001CF80000B0600000E2
:100B70000000000000000000000000000000000075
:100B80000000000000000000000000000000000065
:100B900000000000000000000F11000028E000002D
:100BA000E0E80000E0F80000F7FF0000FF7F000031
:100BB0007F7F00007F7F00003F1F00000FFF0000CD
:100BC0007F7700002727000027430000C383000031
:100BD000030100003B7F00007DF00000E0F000001A
:100BE000F8F40000E01E0000030100000000000017
:100BF00000000000000000000000000000000000F5
:100C000000000000000000000000000000000000E4
:100C100000000000000000001F670000831F0000AC
:100C20003C780000F0F00000E0E00000C0C00000F0
:100C3000C16700003F1F0000381000003021000095
:100C4000212100002121000031930000FFFF00005E
:100C50007A7900007D7E0000F8F00000E08000005E
:100C60000102000004030000020100000000000077
:100C70000000000000000000000000000000000074
:100C80000000000000000000000000000000000064
:100C9000008000006010000088880000848600004A
:100CA000CFFF00003F1F00001F1D00001860000064
:100CB000800000000000000008140000275A000017
:100CC0008A05000001030000030F00001F3F000021
:100CD000FFFE0000F8F00000F8E8000084030000C8
:100CE000C03000000D000000000000000000000007
:100CF00000000000000000000000000000000000F4
:100D000000000000000000000000000000000000E3
:100D100000000000000000000000000001020000D0
:100D200004080000103300003F7F00007FFF000038
:100D3000F0C00000C0C00000F0F80000FDFE0000A0
:100D4000FEFE0000FEFE00007F73000041800000F8
:100D50008080000080800000C0E00000F3FF000001
:100D6000FEF80000E00000000000000000000000AD
:100D70000000000000000000000000000000000073
:100D8000000000000000000000000000001800004B
:100D9000262F0000121700001C08000007030000A7
:100DA000010000000000000000000000000E000034
:100DB0003141000042C40000E4FC0000F8F80000EB
:100DC000F0F10000E3E40000E42800002C1E000025
:100DD000171300000B0900000504000002010000C9
:100DE0000000000000000000000000000000000003
:100DF00000000000000000000000000000000000F3
:100E000000000000000000000000000000000000E2
:100E100000000000000000000000000000000000D2
:100E200000000000000000000000000000040000BE
:100E30000A0F000017170000170F00001717000017
:100E40001F07000003000000000000000000000079
:100E500008150000171F00002F2F00002F1F000093
:100E60002F270000170F0000060000000000000000
:100E70000000000000000000000000000000000072
:100E80000000000000000000000000000000000062
:100E90000000000000000000000000000000000052
:100EA0000000000000000000000000000000000042
:100EB000000000000000000000000000030D000022
:100EC000140C0000110F00000403000000000000DB
:100ED0000000000000000000000000000000000012
:100EE0000000000000000000000000000000000002
:100EF00000000000000000000000000000000000F2
:100F000000000000000000000000000000000000E1
:100F100000000000000000000000000000000000D1
:100F200000000000000000000000000000000000C1
:100F300000000000000000000000000000000000B1
:100F400000000000000000000000000000000000A1
:100F50000000000000000000000000000000000091
:100F60000000000000000000000000000000000081
:100F70000000000000000000000000000000000071
:100F80000000000000000000000000000000000061
:100F90000000000000000000000000000000000051
:100FA0000000000000000000000000000000000041
:100FB0000000000000000000000000000000000031
:100FC0000000000000000000000000000000000021
:100FD0000000000000000000000000000000000011
:100FE0000000000000000000000000000000000001
:100FF00000000000000000000000000000000000F1
:10100000000000000000000000000000005F000081
:1010100000000000000700000007000000140000AE
:101020007F1400007F140000242A00007F2A0000A3
:10103000122300001308000064620000364900001B
:1010400055220000500000000503000000000000D1
:10105000001C0000224100000000000041220000AE
:101060001C000000082A00001C2A000008080000DC
:10107000083E00000808000000500000300000009A
:101080000008000008080000080800000030000008
:1010900030000000002000001008000004020000E2
:1010A0003E510000494500003E000000427F000024
:1010B000400000004261000051490000462100004C
:1010C000414500004B31000018140000127F000061
:1010D0001027000045450000453900003C4A00004B
:1010E00049490000300100007109000005030000BB
:1010F0003649000049490000360600004949000011
:10110000291E00000036000036000000000000002C
:101110005636000000000000000800001422000005
:1011200041140000141400001414000041220000B7
:101130001408000000020000015100000906000030
:1011400032490000794100003E7E0000111100008C
:10115000117E00007F49000049490000363E000032
:1011600041410000412200007F4100004122000077
:101170001C7F000049490000494100007F09000030
:1011800009010000013E0000414100005132000011
:101190007F080000080800007F000000417F000079
:1011A0004100000020400000413F0000017F00009E
:1011B00008140000224100007F4000004040000071
:1011C000407F000002040000027F00007F04000056
:1011D000081000007F3E000041410000413E000039
:1011E0007F09000009090000063E0000415100008F
:1011F000215E00007F09000019290000464600001A
:101200004949000049310000010100007F01000050
:10121000013F000040400000403F00001F20000050
:10122000402000001F7F000020180000207F0000E9
:101230006314000008140000630300000478000039
:101240000403000061510000494500004300000014
:10125000007F00004141000002040000081000006F
:1012600020410000417F0000000000000402000057
:101270000102000004400000404000004040000027
:10128000000100000204000000200000545400008F
:10129000547800007F4800004444000038380000C3
:1012A000444400004420000038440000444800004A
:1012B0007F3800005454000054180000087E0000DD
:1012C000090100000208000014540000543C000012
:1012D0007F0800000404000078000000447D000046
:1012E0004000000020400000443D000000000000DD
:1012F0007F10000028440000004100007F400000F3
:10130000007C000004180000047800007C08000045
:101310000404000078380000444400004438000011
:101320007C140000141400000808000014140000CD
:10133000187C00007C08000004040000084800003D
:101340005454000054200000043F000044400000BA
:10135000203C000040400000207C00001C200000D9
:10136000402000001C3C000040300000403C0000D9
:101370004428000010280000440C000050500000D9
:10138000503C000044640000544C00004400000045
:101390000836000041000000000000007F0000004F
:1013A00000000000413600000800000008080000AE
:1013B0002A1C0000080800001C2A00000808000081
:1013C000000000000000000000000000000000001D
:0413D0000000000019
:0813D400504F00005200000020
:1013DC00556C0000746900006D6F00002052000015
:1013EC006573000065740000004D0000434C000064
:0413FC00520000009B
:1014000000000000000000000000000000000000DC
:0414100000000000D8
:081414005744000054000000E1
:10141C004C610000626F000072610000746F00008C
:0C142C00726900006F2000003100000019
:1014380043610000736F000020440000200000009A
:101448005072000065730000696F00006E6500004F
:101458002027000043270000207000006172000070
:101468006120000043610000736F0000203300001A
:101478000050000072650000736900006F6E000084
:10148800652000002741000027200000706100004F
:101498007261000020430000617300006F200000AB
:0414A800310000000F
:1014AC005072000065730000696F00006E650000EB
:1014BC00202700004227000020700000617200000D
:1014CC006120000043610000736F000020320000B7
:1014DC0000430000617300006F2000004100000019
:1014EC0043610000736F00002042000020000000E8
:1014FC005072000065730000696F00006E6500009B
:10150C0020270000442700002070000061720000BA
:10151C0061200000574400005420000020200000EF
:10152C0000450000727200006F6E0000656F0000D5
:04153C00200000008B
:1015400043610000736F0000204300002000000092
:10155000FFFF0000FFFF0000FFFF0000FFFF000093
:10156000FFFF0000FFFF0000FFFF0000FFFF000083
:10157000FFFF0000FFFF0000FFFF0000FFFF000073
:10158000FFFF0000FFFF0000FFFF0000FFFF000063
:10159000FFFF0000FFFF0000FFFF0000FFFF000053
:1015A000FFFF0000FFFF0000FFFF00007F3F000083
:1015B0001F0F0000070300000303000003070000E3
:1015C0000F1F00003F7F0000FFFF0000FFFF000033
:1015D000FFFF0000FFFF0000FFFF0000FFFF000013
:1015E000FFFF0000FFFF0000FFFF0000FFFF000003
:1015F0008E06000006000000C404000004CC0000B9
:10160000CC04000004C4000000060000068E0000A8
:10161000FFFF0000FFFF0000FFFF0000FFFF0000D2
:10162000FFFF0000FFFF0000FFFF0000FFFF0000C2
:10163000FFFF0000FFFF0000FFFE0000FCFC0000B9
:10164000FFFC0000FFFF0000FCFF0000FCFC0000AE
:10165000FEFF0000FFFF0000FFFF0000FFFF000093
:10166000FFFF0000FFFF0000030300000303000072
:101670000303000003030000030300000303000052
:101680000303000003030000030300000303000042
:101690000303000003030000030300000303000032
:1016A00003030000030300000303000003FF000026
:1016B000FFFF0000FFFF0000FFFF0000FFFF000032
:1016C000FFFF0000FFFF00007F3F00001F0F000032
:1016D0000F0F00000F1F00003F7F0000FFFF000002
:1016E000FFFF0000FFFF0000FFFF0000FFFF000002
:1016F000FFFF0000FFFF0000FFFF0000FFFF0000F2
:10170000FFFF0000FFFF0000FBF90000F8400000B1
:10171000A0A0000060E00000E0600000A0A00000C9
:1017200040F80000F9FB0000FFFF0000FFFF000091
:10173000FFFF0000FFFF0000FFFF0000FFFF0000B1
:10174000FFFF0000FFFF0000FFFF0000FFFF0000A1
:10175000FF01000002F1000001020000E3E30000CD
:1017600002010000F102000001FF0000FFFF000085
:10177000FFFF0000FFFF0000FFFF0000FFFF000071
:10178000FFFF0000FFFF0000FFFF0000FFFF000061
:10179000FFFF0000FFFF0000FFF80000FFFC00005B
:1017A000F0FF0000FFF00000FCFF0000F8FF000069
:1017B000FFFF0000FFFF0000FFFF0000FFFF000031
:1017C000FFFF0000FF03000003030000030300000D
:1017D00003030000030300000303000003030000F1
:1017E00003030000030300000303000003030000E1
:1017F00003030000030300000303000003030000D1
:0C180000030300000303000003030000CA
:10180C00FFFF0000FFFF0000FFFF0000FFFF0000D4
:10181C00FFFF0000FFFF0000FFFF0000FFFF0000C4
:10182C00FFFF0000FFFF0000FFFF0000FFFF0000B4
:10183C00FFFF0000FFFF0000FFFF0000FFFF0000A4
:10184C00FFFF0000FFFF0000FFFF0000FFFF000094
:10185C00FFFF0000FFFF0000FFBF00009F8F000094
:10186C000703000001000000000000000001000060
:10187C00030700008F9F0000BFFF0000FFFF000068
:10188C00FFFF0000FFFF0000FFFF0000FFFF000054
:10189C00FFFF0000FFFF0000FFFF0000FFFF000044
:1018AC00E3C100008100000031C1000001F3000021
:1018BC00F3010000C131000000810000C1E3000011
:1018CC00FFFF0000FFFF0000FFFF0000FFFF000014
:1018DC00FFFF0000FFFF0000FFFF0000FFFF000004
:1018EC00FFFF0000FFFF0000FFFF0000FFFF0000F4
:1018FC00FFFF0000FFFF0000FFFF0000FFFF0000E4
:10190C00FFFF0000FFFF0000FFFF0000FFFF0000D3
:10191C00FFFF0000FFFF00000303000003030000B3
:10192C000303000003030000030300000303000093
:10193C000303000003030000030300000303000083
:10194C000303000003030000030300000303000073
:10195C0003030000030300000303000003FF000067
:10196C00FFFF0000FFFF0000FFFF0000FFFF000073
:10197C00FFFF0000FFFF0000FFFF00007F3F0000A3
:10198C003F3F00003F7F0000FFFF0000FFFF000013
:10199C00FFFF0000FFFF0000FFFF0000FFFF000043
:1019AC00FFFF0000FFFF0000FFFF0000FFFF000033
:1019BC00FFFF0000FFFF0000EFE70000E301000065
:1019CC00808000008080000080800000808000000B
:1019DC0001E30000E7EF0000FFFF0000FFFF000045
:1019EC00FFFF0000FFFF0000FFFF0000FFFF0000F3
:1019FC00FFFF0000FFFF0000FFFF0000FFFF0000E3
:101A0C00FF07000009C60000060900008F8F0000C8
:101A1C0009060000C609000007FF0000FFFF0000D8
:101A2C00FFFF0000FFFF0000FFFF0000FFFF0000B2
:101A3C00FFFF0000FFFF0000FFFF0000FFFF0000A2
:101A4C00FFFF0000FFFF0000FCE00000FFF00000C3
:101A5C00C0FF0000FFC00000F0FF0000E0FC000031
:101A6C00FFFF0000FFFF0000FFFF0000FFFF000072
:101A7C00FFFF0000FF03000003030000030300004E
:101A8C000303000003030000030300000303000032
:101A9C000303000003030000030300000303000022
:101AAC000303000003030000030300000303000012
:0C1ABC000303000003030000030300000C
:101AC80000E00000F8FC0000FEFE00001F0E000011
:101AD8001EFC0000F83800009C1C0000F8F800000C
:101AE8001C9C000038F80000FC1E00000E1F0000BF
:101AF8003E3C00007C7C00003E1E00000000000010
:101B0800010700000F8F0000C0C000000020000087
:101B1800070700002C8800001D2F00002F1D000063
:101B2800882C00000707000020000000C0C000004B
:101B3800800000000000000000000000000000001D
:101B4800FCFF0000FFFF0000FFF90000FAE40000BE
:101B5800E5C40000DCC20000C1C10000FAFC0000BE
:101B6800FCFD0000FCFE0000F9FF0000FFFF000084
:101B7800FFFC0000E0000000000000000000000082
:101B8800070F00001F1F0000FFFF0000FFFF0000FD
:101B9800FFFF0000FFFF0000FFFF0000FFFF000045
:101BA800FFFF0000FFFF00001F3F00003F3F000055
:101BB8001F070000000000000000000000000000F7
:101BC8000000000000070000FFFF0000FFFF00000A
:101BD800FFFF0000FFFF0000FFFF0000FFFF000005
:101BE800FFFF0000070000000000000000000000E8
:101BF8000000000000E00000F8FC0000FEFE00000D
:101C08001F07000007FE0000FE0E00002747000027
:101C1800FEFE0000472700000EFE0000FE07000041
:101C2800071F00003E3C00007C7C00003E1E0000B8
:101C380000000000010700000F8F0000C0C0000076
:101C480040880000014100000B220000874B000083
:101C58004B870000220B0000410100008840000073
:101C6800C0C000008000000000000000000000006C
:101C780000000000FCFF0000FFFF0000FFFC000068
:101C8800FEF50000E1E50000CFC40000C0C0000080
:101C9800E4FF0000FDFD0000FDFE0000FCFF000069
:101CA800FFFF0000FFFC0000E00000000000000053
:101CB80000000000070F00001F1F0000FFFF0000CA
:101CC800FFFF0000FFFF0000FFFF0000FFFF000014
:101CD800FFFF0000FFFF0000FFFF00001F3F0000A4
:101CE8003F3F00001F070000000000000000000048
:101CF800000000000000000000070000FFFF0000D7
:101D0800FFFF0000FFFF0000FFFF0000FFFF0000D3
:101D1800FFFF0000FFFF00000700000000000000B8
:0C1D2800000000000000000000000000AF
:101D3400E0F80000FCFE0000FE1F000007070000A2
:101D4400FEFE00000E07000067FE0000FE670000B4
:101D5400070E0000FEFE0000070700001F3E000003
:101D64003C7C00007C3E00001E00000000010000DE
:101D7400070F00000F0000000000000088010000B1
:101D8400410B000022870000CBCB0000872200001B
:101D94000B4100000188000000800000C0C000006A
:101DA400E0F00000F0F80000FC00000000800000FB
:101DB400C0E00000F0F80000FCFF0000FFFF00009E
:101DC400FFFF0000FFFF0000FFFF0000FFFF000017
:101DD400FFFF0000FFFF0000FF3F00001F0F000097
:101DE4000703000081F0000000FE0000FFFF000078
:101DF400FF6F000003FF0000FFFF0000FFFF000073
:101E0400FFFF0000FFFF0000FFFF0000FFFF0000D6
:101E1400FFFF0000FF0000000000000000080000B9
:101E2400060300000100000001030000030300009A
:101E34000000000007FF0000FFFF0000FFFF00009C
:101E4400FFFF0000FFFF0000FFFF0000FFFF000096
:101E5400FF07000000000000000000000000000078
:101E64000000000000D1000000CD0000CBC900003C
:101E7400CAD4000000D20000D0CE0000CCEB000099
:101E84007E00000000DE0000DD000000DC510000E8
:101E940021000000000000005A53000041570000D8
:101EA40040DB0000004300005844000045240000CB
:101EB40023DB0000002000005646000054520000BE
:101EC40025000000004E0000424800004759000071
:101ED4005E000000000000004D4A0000552600008E
:101EE4002A000000003C00004B4900004F2900007C
:101EF40028000000003E00003F4C00003A50000063
:101F04005F00000000000000220000007B2B0000A6
:101F140000000000E1DD0000D57D0000007C000031
:101F240000000000000000000000000000000000AD
:101F3400D800000000E2000000E60000E30000001A
:101F440000000000D9DA0000E9350000E7E80000ED
:101F5400EAE50000D32B0000D72D00002AD60000AC
:0C1F6400E40000000000000000CF0000BE
:101F7000D1000000CDCB0000C9CA0000D4D30000BE
:101F8000D2D00000CECC0000EB60000000000000CA
:101F9000DEDD000000DC0000713100000000000008
:101FA000007A00007361000077320000DB0000005F
:101FB000637800006465000034330000DB0000003B
:101FC00020760000667400007235000000000000FA
:101FD0006E620000686700007936000000000000B3
:101FE000006D00006A750000373800000000000036
:101FF0002C6B0000696F0000303900000000000009
:102000002E2F00006C3B0000702D0000000000002F
:1020100000270000005B00003D00000000E1000020
:10202000DDD500005D0000005C0000000000000045
:10203000000000000000000000D8000000000000C8
:10204000E2000000E6E300000000000000D900000C
:10205000DAE9000035E70000E8EA0000E5D3000017
:102060002BD700002D2A0000D6E40000000000005D
:1020700000000000CF000000B0B800003C7E00006F
:10208000FEFE0000FFFF0000E7C60000CEFC0000DF
:10209000F8C00000000E00001F1D00000F0000002F
:1020A0000F1F00003F3F00001F1F00000F0F000028
:1020B0000F0F000000000000C0F80000FCCE000080
:1020C000C6E70000FFFF0000FEFE00007E3C0000AF
:1020D000B8B00000000000000F0F00000F0F00005C
:1020E0001F1F00003F3F00001F0F0000000F0000F7
:1020F0001D1F00000E00000080F00000F8FC000032
:10210000FCEE0000C6C60000EEFC0000FCF800007B
:10211000F0800000000000001F1F00001F1F0000D3
:102120003F3F00007F7F00003F3F00001F1F000077
:102130001F1F0000003100000034000037000000C5
:1021400000000000302E000032350000363800005C
:1021500000000000002B0000332D00002A39000091
:04216000000000007B
:042164000000000077
:0200000401F009
:1C0008000300000087000000A70000007F0000003F000000D70000000300000013
:00000001FF
