:100000006E1A040000000000000000000000000064
:1000100000000000000000000000000000000000E0
:100020000000000000000000CC19000000000000EB
:1000300000000000000000000000000000000000C0
:1000400000000000000000000000000000000000B0
:1000500000000000000000000000000000000000A0
:100060000000000000000000000000000000000090
:10007000000000001E190000E81800000000000049
:100080000000000000000000000000000000000070
:10009000000000000000000000000000021A000044
:1000A0000000000000000000000000000000000050
:1000B0000000000000000000000000000000000040
:1000C0000000000000000000000000000000000030
:1000D0000000000000000000000000000000000020
:1000E0000000000000000000000000000000000010
:1000F000000000000000000000000000C81B00001D
:10010000381A00000000000000000000000000009D
:1001100000000000000000000000000000000000DF
:1001200000000000000000000000000000000000CF
:1001300000000000000000000000000000000000BF
:1001400000000000000000000000000000000000AF
:1034DC00EF0D2100F0FF270020A0B70010202000E6
:1034EC0032A0B700400020004420B700FE1B0200B1
:1034FC00000000008A1F78008B1F78008C1F78005A
:10350C008D1F7800A2FC07007CFC07000BFC070059
:10351C0063FE070045FE070072FE07001420EF0053
:10352C004FFC07001DC0B3001820EF00FBC1B30017
:10353C00BA0721006BF907001DC0B3001CC0B30013
:10354C001620EF000A0B210066F907001DC0B3001E
:10355C002CC0B3001620EF009A09210061F9070076
:10356C001DC0B3003CC0B3001620EF009A08210028
:10357C005CF907001DC0B3004CC0B3001620EF006F
:10358C00BA01210057F907005C062100FB0321005A
:10359C00EA0321005AFE07000000E2007700320027
:1035AC00500621001004E00074003200F0032100EA
:1035BC001004E00071003A00380037001DC0B30061
:1035CC001820EF00CBC3B300FA00210045F9070027
:1035DC00B4FD0700690037001DC0B3001820EF00D0
:1035EC00CBC3B3008A0021003EF90700F8FC0700AA
:1035FC001420EF001AFC0700600037001420EF00C5
:10360C0017FC07001DC0B3001820EF00CBC3B3009C
:10361C008A04210033F907006BFC07001420EF002B
:10362C000FFC0700550037001420EF000CFC0700BE
:10363C001DC0B3001820EF00CBC3B3000A04210057
:10364C0028F907004D003700AAFC07004B00370093
:10365C004A0037001420EF0001FC07001DC0B30026
:10366C001820EF00CBC3B300BA0221001DF90700EC
:10367C00F8012000174928000E20ED00FEFF3A004B
:10368C001020ED00FCFF3A000000000000000000DC
:10369C00000000000000000038003700E0032100AB
:1036AC009040780010C7B300000CE100C3FF32005B
:1036BC00E00321009040780010C5B300000CE1003D
:1036CC00BEFF3200E00321009040780070C7B300C9
:1036DC00000CE100C0FF3200E003210090407800B4
:1036EC0070C5B300000CE100BBFF3200E003210009
:1036FC009040780050C6B300000CE100BFFF3200D0
:10370C00E00321009040780050C4B300000CE100AD
:10371C00BAFF3200E00321009040780020C7B300CC
:10372C00000CE100C0FF3200E00321009040780063
:10373C0020C5B300000CE100BBFF3200E003210008
:10374C009040780040C7B300000CE100BEFF32008F
:10375C00E00321009040780040C5B300000CE1006C
:10376C00B9FF3200E00321009040780030C4B30070
:10377C00000CE100B6FF3200B6FF370069FF3700DE
:04378C00FFFF370004
:10279C001E2EEF002E2EEF003E2EEF004E2EEF00E1
:1027AC006E2EEF00F0FF2F0010AEB700300EA80019
:1027BC00316EA800314EA800312EA800402EEF003B
:0827CC00602EEF000000060082
:102708008A1F78008C1F78008D1F7800E7FD07006E
:102718007DC0B3005CC0B3000A80280010202000F0
:102728008005780000022000801F780071FD0700F6
:102738002F00B1001420EF00CAFF0700CF06780071
:0C2748004F0678004F05780000000600E6
:101EB4000000FA008A1F7800410D21000020EF0085
:101EC400804878000020EF0090868800408EA900AA
:101ED400306EA900302EA900304EA900406EA90032
:101EE400404EA900448EA900402EA900400EA9002E
:101EF400502EA900500EA90030EEA90030CEA90042
:101F040030AEA900308EA900342EA900344EA900A9
:101F1400446EA900444EA800448EA8003DF9070071
:101F2400FAC3B30041F907006BF907000ACCB30008
:101F34003EF9070068F90700446EA800444EA90062
:101F4400FAC3B30039F9070063F907000ACCB300F8
:101F540036F9070060F907004F0578000080FA00A1
:041F64000000060073
:1004180000000000000000000000000000000000D4
:080428000000000000000600C6
:100430000000FA0014E0AE00422EA90014E0AF0064
:10044000422EA8000000000014C0AE00420EA90019
:1004500014C0AF00420EA8000000000014A0AE00BF
:10046000522EA90014A0AF00522EA80000000000D8
:100470001480AE00520EA9001480AF00520EA800E6
:10048000000000001460AE0032EEA9001460AF005E
:1004900032EEA800000000001440AE0032CEA900E9
:1004A0001440AF0032CEA800000000001420AE00BF
:1004B00032AEA9001420AF0032AEA8000000000048
:1004C0001400AE00328EA9001400AF00328EA800D6
:0C04D000000000000080FA0000000600A0
:1004DC000000FA00C7FF0700346EA800C5FF070034
:0C04EC00346EA9000080FA000000060039
:10040000A70020000E20ED00FEFF3A0000000000D3
:080410000000000000000600DE
:101CFC000000FA004EB897002A8688003B868800C0
:101D0C0010868800000C21000C487800100C210073
:101D1C000D487800410D210010C0B30080487800B8
:081D2C000080FA00000006002F
:10266C000000FA00446EA900444EA8000420EF00BC
:10267C006710E1000D003E008A1F780002457800CB
:10268C00A2F707004F0578000220EF00F0032000AE
:10269C000008E10003003E0094F707000220EC0064
:1026AC00FAFF37000420EC00F1FF3700444EA9007C
:1026BC00446EA8000420EF006710E1000D003E00FE
:1026CC008A1F78000245780090F707004F057800C4
:1026DC000220EF00F00320000008E10003003E00A0
:1026EC0082F707000220EC00FAFF37000420EC0010
:0C26FC00F1FF37000080FA00000006002B
:100518000000FA008A1F7800342EA900344EA90082
:100528008A80FB00800B2000008070000045780066
:10053800BDFF0700E7FF07004F0578000080FA00BD
:0405480000000600A9
:1004F8000000FA00346EA900342EA800344EA9007A
:10050800C9FF0700F3FF07000080FA00000006009B
:00051800E3
:102548002004200090407800F0C1B30080C06000F3
:102558002004200001487800C1E8A900C3E8A800C9
:102568004460A9002008A8002288A80023A8A80081
:1025780026A8A80026C8A8000008A90003A8A90042
:1025880003A8A90006A8A90006C8A9000020EF0012
:10259800A08188000020EF00B08188000020EF00B3
:1025A800C08188000020EF00D08188000020EF0063
:1025B800E0818800C208A900C228A900C248A90071
:1025C800C268A900C288A90000B024008000780071
:1025D800006A20009080680000F02700808060007A
:1025E800006A20009080680001358800A0C4B3000C
:1025F80080407800206A200090C06800F0C7B300CF
:1026080080C06000206A200090C06800206A200016
:10261800014878000090240080007800206A20009B
:102628009080680000F0270080806000206A200009
:10263800908068001135880080C4B300804078001D
:10264800406A200090C06800F0C7B30080C06000F6
:10265800406A200090C06800406A20000148780065
:042668000000060068
:102EAC0018AEA800188EA800186EA800184EA8001E
:102EBC00182EA8001AAEA8001A8EA8001A6EA80028
:102ECC001A4EA8001A2EA8004142800000002700CC
:102EDC000080700048A8B7000268A9002268A8000A
:042EEC0000000600DC
:102E38008A1F78000A4028001020200080057800AA
:102E4800BAFB070078022000675B22000E20ED0025
:102E5800FEFF3A001020ED00FCFF3A0000000000E1
:102E680000000000000000000A00280010202000D8
:102E780080057800ADFB070078022000675B220020
:102E88000E20ED00FEFF3A001020ED00FCFF3A0096
:102E98000000000000000000000000004F0578005E
:042EA8000000060020
:101D34000400FA008C1F78000A0798001B0798001B
:101D44000620EF006718E10036003E008A9FBE00BF
:101D54001420EF00EBFA070003457800EDF90700C3
:101D64001420EF0034FB07004F05BE000820EF00ED
:101D7400F00320000020E1000E003E000E00900061
:101D84009E009000A10188008A9FBE001045780043
:101D9400D8F90700600047001B0020000C00200059
:101DA400000578009BFF07004F05BE000820EC00EB
:101DB400EFFF37008A9FBE000AC4B300D1FA0700C0
:101DC40003457800D3F907000AC4B3001AFB0700DF
:101DD4004F05BE0004042000F00720000020E100AD
:101DE4000E003E000E0090009E009000A1018800AD
:101DF4008A9FBE0010457800BEF9070060004700C6
:101E04001B0020000C0020000005780081FF070063
:101E14004F05BE000820EC00EFFF37000620EC0061
:101E2400C8FF37004F0678000080FA000000060063
:001E3400AE
:100908000000FA008A80FB00F007200000806000E9
:100918000045780000C0AE0003003700446EA80010
:10092800444EA90002003700446EA900444EA800B6
:080938000080FA000000060037
:100A3C000000FA008A1F78008A80FB00F007200073
:100A4C000080600000457800342EA900344EA900C7
:100A5C008080FB00F00B20000080600000457800D7
:100A6C008080FB00000420000080700000457800AE
:100A7C00004578006BFE070095FE07004F057800D7
:080A8C000080FA0000000600E2
:101C18000000FA000A0178006200450010407800D0
:101C28000000AF0002003700610041001074A100FD
:101C3800E2004100114078000080FB004100DE0016
:101C4800804878001299450012114E00E2004100C8
:101C5800114078000080FB004100DD0080487800DA
:101C6800610041001040780000E0AE00020037003B
:101C7800620041001004A000610041001074A0003F
:081C88000080FA0000000600D4
:102EF0000000FA00508EA80050AEA8000020EF009D
:0C2F0000808688000080FA0000000600B7
:101AF0000000FA000420EF00400D210010407800A3
:101B00006004E1000C003A00010C210050C0B30059
:101B100080487800110C210070C0B3008048780024
:101B20000080280020868800102020003086880051
:101B30000002200010868800020045001004E0002A
:101B40000F00320002004500821F78008A9FBE000D
:101B50001045780065FE07004F05BE004F01780074
:101B6000000C21001080FB00E10040000B80FB0016
:101B700001004000804578000420EC00EEFF3700B3
:081B80000080FA0000000600DD
:1014EC000200FA008A1F78006764E10001003600F0
:1014FC00640037008A80FB00200C21009080500093
:10150C00000C21001080FB000008B80000037800DC
:10151C000B45780046FD07000C457800FBFB0700E7
:10152C000A20EF00000C21001080FB000028E100D5
:10153C0039003100F0C7B300005CE1000100360057
:10154C00500037008A1F78000B457800EBFC070031
:10155C000C457800EDFB07000B45780034FD0700C7
:10156C004F057800F3FC070000479800F1FC0700DA
:10157C00004798008A1F78000B457800DFFC0700B5
:10158C000C457800E1FB07000B45780028FD0700AF
:10159C004F057800860178004F9ADE00420C21003E
:1015AC0032804100A2004A00A1018800104078005E
:1015BC00004178000C20EC0000E0EE000800370041
:1015CC00004798000C003700024798000A003700CB
:1015DC00E000470060004700114869000600370032
:1015EC00606CE100F6FF3200616CE100F6FF320046
:1015FC00626CE100F6FF32008A1F78000E45900005
:10160C00BAFB07004F05780061C0450080457800A3
:10161C000A20EC00C3FF37008A1F78000B457800C6
:10162C00B6FC07000C457800B8FB07000B457800AA
:10163C00FFFC07004F057800F0CFB3000220EF004D
:10164C000C003700004798008A1F7800004578008E
:10165C00A6FB07004F0578000A00370001479800E9
:10166C008A1F780001457800A0FB07004F05780021
:10167C0004003700606CE100F2FF3200616CE100A5
:10168C00F6FF32004F0578000080FA0000000600DB
:00169C004E
:100940000200FA00402EA800400EA800502EA80079
:10095000500EA80030EEA80030CEA80030AEA8009F
:10096000308EA800ACFE0700ABFE0700342EA800B6
:10097000346EA900344EA800346EA800A0FE070013
:10098000600047001070A000422EAE001070A10061
:10099000600047001060A000420EAE001060A10091
:1009A000600047001050A000522EAE001050A10071
:1009B000600047001040A000520EAE001040A100A1
:1009C000600047001030A00032EEAE001030A100F1
:1009D000600047001020A00032CEAE001020A10021
:1009E000600047001010A00032AEAE001010A10051
:1009F000600047001000A000328EAE001000A10081
:100A0000346EA900344EA90083FE070082FE070061
:100A1000402EA900400EA900502EA900500EA9009A
:100A200030EEA90030CEA90030AEA900308EA9006A
:0C0A30000E4090000080FA00000006005C
:102F0C000800FA0010002000200798001000200094
:102F1C00300798000020EF00100798000020EF0009
:102F2C0070868800C0FB07000000E20002003A0037
:102F3C000020EF00A1003700600047008A1F7800D6
:102F4C000005780041FD07004F057800010F2000B7
:102F5C00600047001008E1000C003A000020EF0070
:102F6C0030079800B0FB07000000E20001003A00B7
:102F7C00FCFF3700600047008A1F780000057800CE
:102F8C0032FD07004F05780037003700010E200096
:102F9C00600047001008E1001B003A00A2FB07008C
:102FAC000000E20001003A00FCFF3700600047001F
:102FBC008A1F78000005780024FD07004F05780073
:102FCC00010F2000600047001008E1000B003A00E0
:102FDC000020EF003007980093FB07000000E20090
:102FEC0001003A00FCFF3700600047008A1F7800A0
:102FFC000005780015FD07004F0578001000200033
:10300C0070868800180037007107200060004700A8
:10301C001008E1000E003A00100020002007980074
:10302C00660047001000E00008003200000D21008F
:10303C001010A70003003700000D21001010A00095
:10304C0002003700000D21001010A100060037000F
:10305C00110E2000600047001008E10002003A0049
:10306C00000E200010079800E00C21001000E0007A
:10307C000B0032000E0090007200E10002003A00DA
:10308C00F00D200010079800C107200060004700D9
:10309C001008E10002003A00F00D20001007980023
:1030AC000E0090007200E100050032009105200036
:1030BC00600047001008E100010032000A003700F0
:1030CC001000200020079800660047001000E00068
:1030DC0003003200000D21001050A0000200370048
:1030EC00000D21001050A100000D21001010A700B0
:1030FC000600370031072000600047001008E1008F
:10310C0002003A000020EF002C0037001E00900057
:10311C006000E10007003A000020EF002007980053
:10312C008A1F78000E059000B8FB07004F05780049
:10313C0010079800110E2000620047001008E100F3
:10314C000D003A0010002000200798006600470090
:10315C001000E00008003200000D21001020A70034
:10316C0003003700000D21001020A00002003700E2
:10317C00000D21001020A100810C200062004700EE
:10318C001008E10006003100100020002007980014
:10319C00820C2000E2004700620047001108110079
:1031AC002E409000004D78004E409000804D7800ED
:1031BC006E409000004E7800100020000080FA0055
:0431CC0000000600F9
:101E34000400FA000020EF001007980051FF07008B
:101E440092FF07000000E20002003A001E0090002A
:101E5400150037000020EF0000079800010820005B
:101E6400600047001008E1000A003600528EAF00FF
:101E74000400370052AEAF0002003700100020000B
:101E8400090037008E009000600047006188400020
:101E9400F2FF3700620047001000E00001003A0042
:101EA40057FF07001E0090000080FA0000000600A3
:001EB4002E
:101B88000000FA0050AEA8000080FA00000006002D
:001B98004D
:101C90000200FA0010002000000798000108200050
:101CA000600047001008E1000A00360052AEAE00A6
:101CB0000400370001082000600047001088700011
:101CC000030037001100200060004700108840002A
:101CD000F2FF3700600047001070A1000E00900076
:081CE0000080FA00000006007C
:101C04000000FA0050AEA90052AEA9000080FA000C
:041C140000000600C6
:102458000000FA000C20EF00150020000820EF0013
:102468000620EF00D10C210010C0B300804878008E
:10247800D00C21001004E00016003200C4FD070053
:102488000000E20012003200528EAE000600370053
:10249800D00C21001080FB000000730061816A00ED
:1024A8008002780002003700050178008602780073
:1024B800D00C21001080FB00C100DD00D00C2100F1
:1024C8000148780005037800820278000000370090
:1024D800E7FF3700AEFD07000000E200050032000C
:1024E8000020EF00528EAF000020EC0000027800C0
:1024F80000003700A6FD07000000E20004003200DB
:102508000020EF00528EAF000020EC0001003700E1
:1025180003007800B9FD07000428E10004003A0030
:102528006000E10002003200060078000100370078
:102538000020EF00000D78000080FA00000006007F
:0025480093
:101B98000400FA000220EF00F00F20001007980060
:101BA800620047001000E0001100320060004700AA
:101BB8000008EB0052AEAF001008E8000200E20097
:101BC80005003200600047001000E00002003A0003
:101BD80010002000070037000E0190009E009000C2
:101BE800620047006188500082007800ECFF3700EF
:0C1BF8000020EF000080FA000000060052
:102018000000FA000220EF006050E10002003A00E0
:10202800010078004B003700000D21001010A600B9
:1020380013003700800620000050E1001000360031
:10204800E00720000050E1000D003100700720007B
:102058000050E1000A003200900620008000550080
:10206800E0F82800810040001020200034A0B700CC
:10207800114078008080FB000100780035003700AF
:102088006100550000057800000D21001050A600E1
:102098001800370090BD28008A004000102020005A
:1020A80034A0B700114078008080FB00000D2100AB
:1020B8001020A60009003700000420000008E100F5
:1020C80008003600B00520000008E10008003100D3
:1020D8000002200000804000010037000100780065
:1020E8000100370001007800800078000000370008
:1020F80017003700C0C528008A00400010202000C3
:1021080034A0B700114078008080FB00000D21004A
:102118001020A60009003700000620000008E10092
:1021280008003600B00720000008E1000800310070
:1021380000022000008050000100370001007800F4
:1021480001003700010078008000780000003700A7
:0C215800010078000080FA000000060082
:102CB0008A1F78008B1F78008C1F780060C0B300DB
:102CC000804078000084200090C06800E7C0600069
:102CD0000084200090C06800008420000148780033
:102CE00050C0B30080407800A084200090C06800ED
:102CF000E7C06000A084200090C06800A08420008D
:102D00000148780000C4B30080407800E0842000CF
:102D100090C0680000C7B30080C06000E08420005D
:102D200090C06800E08420000148780000C3B30030
:102D300080407800A085200090C0680000C7B300E4
:102D400080C06000A085200090C06800A0852000A1
:102D5000014878000020200080007800A085200035
:102D6000908068000070200080806000A0852000B6
:102D700090806800D14288001420EF003BFE0700DD
:102D80005105210010C0B300804878005106210091
:102D90000020EF0080487800F10321000020EF00C0
:102DA00080487800E10321000020EF00804878008F
:102DB0005C062100FB032100EA0321005300070009
:102DC000E00321009040780020C2B300000CE10035
:102DD0001100320050062100104078000040E2004F
:102DE0000260EF0001003A000260EC00F0032100F5
:102DF000104078000040E2000060EF0001003A005F
:102E00000060EC008180FB000080FB00008060001F
:102E100001003200DDFF3700D2FC07001420EF0074
:102E200012FE0700CFFC07004F067800CF057800A0
:082E30004F05780000000600C8
:10216400008420009040780080CFB30080C06000DD
:102174000084200001487800A0842000904078006A
:1021840080CFB30080C06000A084200001487800A4
:10219400E084200090407800F0C8B30080C0600064
:1021A400E084200001487800A08520009040780059
:1021B400F0C8B30080C06000A0852000014878000A
:1021C400D1428000F08F2F00008060005AA8B70031
:1021D4000020EF00A08188000020EF00B08188007B
:1021E4000020EF00C08188000020EF00D08188002B
:1021F4000020EF00E0818800510521000020EF005D
:0822040080487800000006008C
:1029DC008A1F78008B1F78008C1F78008D1F780061
:1029EC000020EF00308388000020EF004083880037
:1029FC000020EF00508388000020EF0060838800E7
:102A0C001420EF0016FF07001DC0B3001820EF00C4
:102A1C001620EF009A0A210032FC07000801200062
:102A2C00872424000E20ED00FEFF3A001020ED005C
:102A3C00FCFF3A0000000000000000000000000055
:102A4C00000000001420EF0005FF070051062100D4
:102A5C000020EF0080487800F10321000020EF00F7
:102A6C0080487800E10321000020EF0080487800C6
:102A7C00308380006100E10002003A00EB000700A7
:102A8C0069003700408380006100E10004003A00D7
:102A9C001620EF001420EF00D9FD0700620037006C
:102AAC00508380006100E10004003A001620EF0022
:102ABC001420EF001FFE07005B00370060838000CE
:102ACC006100E10058003A002D0120002C0120008B
:102ADC007B0120004A06200010F02800801F78009F
:102AEC0010202000801F780020012000801F78001B
:102AFC0020012000801F780054F907004F00B1001E
:102B0C008800200047122A000E20ED00FEFF3A003C
:102B1C001020ED00FCFF3A001420EF00D0FE07005F
:102B2C002D0120002C0120007B0120000A05200033
:102B3C0010F02800801F780010202000801F7800E3
:102B4C0020012000801F780020012000801F7800C9
:102B5C003EF907004F00B1008800200047122A0000
:102B6C000E20ED00FEFF3A001020ED00FCFF3A00B5
:102B7C001420EF00BAFE07002D0120002C012000CC
:102B8C007B012000CA03200010F02800801F780071
:102B9C0010202000801F780020012000801F78006A
:102BAC0020012000801F780028F907004F00B10099
:102BBC008800200047122A000E20ED00FEFF3A008C
:102BCC001020ED00FCFF3A001420EF00A4FE0700DB
:102BDC002D0120002C0120007B0120008A02200006
:102BEC0010F02800801F780010202000801F780033
:102BFC0020012000801F780020012000801F780019
:102C0C0012F907004F00B1008800200047122A007B
:102C1C000E20ED00FEFF3A001020ED00FCFF3A0004
:102C2C001420EF008EFE07005C062100FB03210040
:102C3C00EA032100B2000700E00321009040780075
:102C4C0020C2B300000CE10011003200500621003C
:102C5C00104078000040E2000260EF0001003A00F2
:102C6C000260EC00F0032100104078000040E2000C
:102C7C000060EF0001003A000060EC008180FB0076
:102C8C000080FB0000806000010032006DFF370007
:102C9C00CF0678004F067800CF0578004F057800F6
:042CAC00000006001E
:10220C008C1F78008A1F78001420EF00140107003F
:10221C004F0578008A1F78007CD8280010202000F9
:10222C008006780060FD07004F057800D80020007C
:10223C00F75E2B000E20ED00FEFF3A001020ED00A3
:10224C00FCFF3A008A1F78002CEC2800102020009C
:10225C008006780054FD07004F057800D800200058
:10226C00F75E2B000E20ED00FEFF3A001020ED0073
:10227C00FCFF3A008A1F78003CE828001020200060
:10228C008006780048FD07004F057800D800200034
:10229C00F75E2B000E20ED00FEFF3A001020ED0043
:1022AC00FCFF3A008A1F78006CDC2800102020000C
:1022BC00800678003CFD07004F057800D800200010
:1022CC00F75E2B000E20ED00FEFF3A001020ED0013
:1022DC00FCFF3A008A1F78005CE0280010202000E8
:1022EC008006780030FD07004F057800D8002000EC
:1022FC00F75E2B000E20ED00FEFF3A001020ED00E3
:10230C00FCFF3A004CE428001020200080067800E6
:10231C0025FD0700D8002000F75E2B000E20ED00F5
:10232C00FEFF3A001020ED00FCFF3A004F0678004B
:04233C000000060097
:1017B4008C1F78008D1F78008C9FBE005001200084
:1017C400801F780030012000801F78003D01200038
:1017D4005C0120001FFE07008F00B100CF067800D7
:0817E4004F067800000006002A
:101058001600FA004EB8970040BF9F003EB99700AF
:101068001EB89700AEB8970010BF9F0021BF9F0021
:101078001EB89700AEB89700100F9800210F98007F
:101088000020EF00500798000020EF00600798004C
:101098000C004500E1005000F00720000008E100C6
:1010A80003003600000820000A00500000067800FF
:1010B8000D804500E1005000F00320000008E10029
:1010C80003003600000420000B0050008006780062
:1010D8004358DE00004798008D804500618050002D
:1010E8004300DE001047980067806500204798009D
:1010F80067806000304798000D10E100030036005B
:101108001E409000404798000400370002804500C8
:101118000020ED004300DE004047980067006100B2
:101128006000E10005003A00C311DE0068015700C5
:101138001218B800000F9800050037004310DE00B1
:10114800E1014000680157001218B800000F98002C
:10115800600047001080FB003007980061004700DE
:101168009080FB00660047001008E100CD003900C0
:101178000020EF00700798000020EF00400798005B
:10118800680047001060E100B700360068004700BB
:10119800100045008A1F780000457800D8FD070038
:1011A8006E459000DAFC07004F057800CE009000ED
:1011B800680057001008E100400031006400470053
:1011C8009080FB00660047001008E1003B003900F2
:1011D800600047009080FB00660047001008E100AF
:1011E80002003A000620EF00150037001EB89700ED
:1011F800AEB89700100F9800210F9800FE009000DD
:101208006C00470090804000720047008C1F7800F7
:101218008A9FBE00810578000006EB000005780073
:101228007B0207004F05BE004F0678001E0890009D
:10123800AE089000A1018800104078008041780035
:10124800DE009000700047001008E100020039003D
:101258000020EF00160037001EB89700AEB89700C0
:10126800100F9800210F9800FE0090006A004700B8
:1012780090804000720047008C1F78008A9FBE0053
:10128800810578000006EB00000578006002070081
:101298004F05BE004F0678001E089000AE0890006B
:1012A800A101880010407800804078000140780053
:1012B8000341780080417800020037000620EF00E3
:1012C8000420EF00834078002E4090006004E10085
:1012D8000B003600620047001080FB00E800100099
:1012E8000280FB000101DE008380FB0062004700F2
:1012F8001080FB000008DD0080417100010037000C
:1013080081417800600047009080FB00660047003C
:101318001008E1001C003A002E4090006004E10033
:101328001A00360068004700100045008A1F780040
:1013380000457800BFFD07004F0578007EFD0700D7
:101348007DFD0700E20047009180FB0068811000E6
:10135800F10F20000209DE008080FB000280FB0004
:1013680000816000F10F2000620047001080FB0040
:101378008008DD000380FB0001006000024070006F
:101388008041780000003700000037006100470006
:101398009080FB00660047001008E1001C003A003E
:1013A8003E4090006004E1001B00360068004700E2
:1013B800100045008A1F7800004578009DFD070051
:1013C8004F0578005CFD07005BFD0700F20F200069
:1013D800E30047009180FB008110DD000080FB00E6
:1013E80001016000630047001080FB00E800100066
:1013F800F00F20000100DE008380FB000080FB006E
:101408000080600002407000004178000100370051
:10141800034178000100370003417800CE009000B6
:10142800680057001008E10003003100FE0090003A
:101438006E004700618840006800470010004500C2
:101448008A1F7800004578007AFD07000245780079
:1014580027FC07004F057800CE0090006800470081
:101468006188400046FF3700640047009080FB0019
:10147800660047001008E100060036005E00900094
:10148800600798005E019000E80057006A00470076
:1014980011084100BE0090006600470061884000C6
:0C14A8002EFF37000080FA000000060054
:102340008C1F78008A1F78001420EF00C700070058
:102350004F0578008A1F78007CF3280010202000A9
:102360008006780005FD07004F057800A8012000D1
:1023700067FC26000E20ED00FEFF3A001020ED0065
:10238000FCFF3A0000000000000000000000000018
:10239000000000008A1F78007CF528001020200033
:1023A00080067800F5FC07004F057800A8012000A2
:1023B00067FC26000E20ED00FEFF3A001020ED0025
:1023C000FCFF3A00000000000000000000000000D8
:1023D000000000007CF32800102020008006780018
:1023E000E6FC0700A801200067FC26000E20ED0097
:1023F000FEFF3A001020ED00FCFF3A000000000054
:102400000000000000000000000000004F067800FF
:0424100000000600C2
:10177C008C1F78008D1F78008C9FBE00000120000C
:10178C00801F780000012000801F78000D012000D0
:10179C000C0120002DFE07008F00B100CF06780051
:0817AC004F0678000000060062
:1027D4008A1F78008B1F78008C1F78008D1F78006B
:1027E4001420EF00A0FF07001DC0B3001820EF0065
:1027F400CBC3B3006A052100BCFC070051062100CD
:102804000020EF0080487800F10321000020EF0051
:10281400804878004087AE00090037001DC0B3002F
:102824001CC0B3001620EF002A072100AFFC0700EC
:102834004087A90042AEA800F5FE07001700370044
:1028440040E7AE000A0037001DC0B3002CC0B3003F
:102854001620EF006A072100A4FC070040E7A90046
:102864004007A90042EEA800BEFD07000F00370094
:102874004007AE00090037001DC0B3003CC0B300E0
:102884001620EF00EA06210098FC07004007A90083
:1028940062CEA80013FD0700100037005C0621007B
:1028A400FB032100EA03210097010700E003210054
:1028B4009040780020C2B300000CE1000700320011
:1028C400500621001004E00004003A00F003210047
:1028D4001004E00001003A00C8FF370044AEA9002C
:1028E40044EEA90064CEA900CF0678004F06780014
:0C28F400CF0578004F05780000000600BA
:102414008A1F78008B1F7800CB0020000A0320005D
:10242400F1FC0700CB0020000A032000EEFC0700AB
:10243400CB0020000A032000EBFC0700CB002000A7
:102444000A032000E8FC0700CF0578004F05780058
:04245400000006007E
:1017EC008C1F78008A1F78001420EF009C030700E0
:1017FC004F0578008A1F78007CF328001020200009
:10180C0080067800DAFF07004F057800A801200059
:10181C0067FC26000E20ED00FEFF3A001020ED00C4
:10182C00FCFF3A0000000000000000000000000077
:10183C00000000008A1F7800ECB328001020200064
:10184C008006780018FF07004F057800A8012000DB
:10185C0067FC26000E20ED00FEFF3A001020ED0084
:10186C00FCFF3A0000000000000000000000000037
:10187C0000000000ECB32800102020008006780047
:10188C0009FF0700A801200067FC26000E20ED00D0
:10189C00FEFF3A001020ED00FCFF3A0000000000B3
:1018AC000000000000000000000000004F0678005F
:0418BC000000060022
:1014B4008C1F78008D1F78008C9FBE008002200056
:1014C400801F7800F0012000801F78008D0220002A
:1014D400FC012000DFFE07008F00B100CF0678007A
:0814E4004F067800000006002D
:101F68008A1F78008B1F7800FB002000EA022000FF
:101F780090FE0700FB002000EA0220008DFE07000B
:101F8800FB002000EA0220008AFE0700FB00200078
:101F9800EA02200087FE0700CF0578004F05780089
:041FA800000006002F
:1019BC008C1F78008A1F78001AC0B3002803070018
:1019CC004F0578008A1F7800FCA828001020200002
:1019DC008006780078FD07004F057800780220001B
:1019EC00675B22000E20ED00FEFF3A001020ED0098
:1019FC00FCFF3A00000000000000000000000000A6
:101A0C000C9E280010202000800678006AFD07003C
:101A1C0078022000675B22000E20ED00FEFF3A00EA
:101A2C001020ED00FCFF3A00000000000000000058
:0C1A3C00000000004F06780000000600CB
:100FC4008C1F78008D1F78008C9FBE0020022000AB
:100FD400801F780030022000801F78002D0220003E
:100FE4003C0220001B0007008F00B100CF067800F0
:080FF4004F0678000000060022
:101CE800530407005204070051040700500407007A
:041CF80000000600E2
:102900008A1F78008B1F78001420EF0057FF070004
:10291000D8042000D7B624000E20ED00FEFF3A00B8
:102920001020ED00FCFF3A00000000000000000055
:10293000610D210010C0B30080487800600D2100B7
:1029400090407800D0C3B300000CE10020003100BB
:10295000510D21000020EF0080487800500D21002B
:10296000104078006504E10015003100500D210091
:102970009080FB0060012100010040009040780041
:10298000700D210001487800600D21009085FB004A
:102990000185FB00CAFB07008800200047122A00BF
:1029A0000E20ED00FEFF3A001020ED00FCFF3A0083
:1029B00011C0B300500D210010C84000E7FF3700E0
:1029C00011C0B300600D210010C84000DBFF3700CC
:0C29D000CF0578004F05780000000600DD
:1018C0008B1F78008C1F78008D1F78008A9FBE00C8
:1018D0000B057800C9FD07004F05BE004101DD0082
:1018E00001C4B300900D210002C85000900D2100EA
:1018F00090407800D00D210062C84000C00D21004A
:10190000744845008A9FBE000B057800BBFD0700A8
:101910004F05BE00810D2100804878006158E1002C
:1019200018003400800D2100104078006104E100AF
:1019300009003A000DC4B300C00D21001046780024
:101940007BC0B3000020EF00801F780053FF07002A
:101950002F00B1000A003700D00D2100904678001A
:10196000C00D210010467800900D210090457800B0
:1019700010002000801F780048FF07002F00B100F2
:101980000A003700D00D210090467800C00D2100DC
:1019900010467800900D210090457800100020003E
:1019A000801F78003DFF07002F00B100CF067800B0
:0C19B0004F067800CF057800000006000C
:100FFC008B1F78007950E100110034009201200021
:10100C00110009000205D800D08688008A1F7800DC
:10101C00CF80DE000081EB009BFE07000005BE00C8
:10102C007FFF0700F8FE07004F057800D086880088
:10103C00910120000088B900000055000100370024
:0C104C000A007800CF05780000000600C4
:100E2C000000FA00700120008A0078000B017800A5
:100E3C000000E900030035000201D1008180D300DD
:100E4C00FBFF3700F00F200080806000F0072000CF
:100E5C0000805000800078006000E10010003D0030
:100E6C000420EF000620EF000A00BE00E2FF07009E
:100E7C000000E0000060EF0001003D000060EC00AD
:100E8C000040E200030032000000200001F82B00BB
:100E9C001E0037000020EF000220EF001B0037007F
:100EAC007808E100020036000A00BE001700370087
:100EBC008A9FBE000A00BE0053FF07000081EB00B2
:100ECC00F1FE07004F05BE000002BE00849FBE006D
:100EDC000A01BE0047FF07000000E0000060EF00C1
:100EEC00010034000060EC004F02BE000040E20044
:100EFC00050032000200200003F823000400BE00AD
:100F0C00C2FF0700010037000400BE000080FA0099
:040F1C0000000600CB
:100C14000000FA00020007007E0604000000000045
:100C24000081BE001F0007000470A70003F0A100AC
:100C34006509B100160032000D0035006828E10096
:100C440006003500F0FF2F00F1FF27000600E20048
:100C540013003B00010028000000050000004000D4
:100C6400818048008502E900FCFF3A000800370053
:100C7400F88F420002003C008000EB0000000500F9
:100C84008100D1000080D3008502E800FCFF3A0017
:100C94000600E20002003B0060001000E080180043
:100CA40000000600C70ADE00F107B200F50FB2002B
:100CB40008003200E1CF42000200320002E0A80046
:100CC40024000500810F70000100320004080500B3
:100CD40044000500810F700002003A001400050072
:100CE4008502E9000000400081C04800FCFF3B0091
:100CF40002E0A800240005000080FA0000000600BD
:000D0400EF
:100A94000000FA0002000700FC050400000000004A
:100AA4000400E20006003A000005EB000200E20048
:100AB4000F003E000000E200270032000C00370067
:100AC400A10088000200E2000400350008003C0098
:100AD4000000E20020003200050037006000100032
:100AE400E080180002003B0001F02C001A003700DF
:100AF4000084BE006011B8006B0920000982CF0099
:100B0400020039000882CF000441B000694252005B
:100B14000E00320008003B00828171006101640014
:100B24008904D1000884D3008B05E8000442E8005E
:100B3400F9FF3A00050037000804440089844C009A
:100B44008B05E9000442E900FBFF3A0003000700BB
:100B54000AF0A70003E0A8000000060081002000BE
:100B6400618055000B003D000B00200061FE2F004A
:100B74000100E1001D003400828171006101640004
:100B84008904D1000884D3000000E800FAFF3A0089
:100B94007100200061006400030070000200600026
:100BA4000900320061044400E0844C000988A50077
:100BB400050032008B05E8006808E10002003A00F5
:100BC4008904D1000884D300F20F20000258E10008
:100BD40005003D00C75DDD00F907B200898075009E
:100BE40008008800000006000BF827001B0088009E
:0C0BF400000005000080FA000000060070
:100C00000000FA00F4FF2F0050FE07000080FA00F9
:040C100000000600DA
:10054C000000FA0002000700140304000000000081
:10055C00841F7800140007004F007800110033004E
:10056C00F0FF2F00838F6C0006003B000405650034
:10057C000A00A7000800370009F0A60010002000B0
:10058C0008003700820F5400838F5C000300390091
:10059C001000200001003E000000200009F0A70020
:1005AC000000EA00000006000084BE000600070000
:1005BC000083BE000485BE000280BE00020007005E
:1005CC00844F750000000600C70ADE00F107B20078
:1005DC00F50FB20008003200E1CF420002003200F9
:1005EC0002E0A80024000500810F70000100320019
:1005FC000408050044000500810F700002003A0059
:10060C00140005008502E9000000400081C048008C
:10061C00FCFF3B0002E0A800240005000080FA006B
:04062C0000000600C4
:100E18000000FA0007E0AA0003FE07000080FA00BD
:040E280000000600C0
:100630000000FA000200070080040400000000002F
:10064000889FBE008A9FBE008C1F7800590007005B
:10065000600033006450E1004F0032006420E1008C
:100660005200320003826C0007003B000905D000F5
:100670000306D000820F54000C065D000200390012
:100680000200320039008800C300880085825500CE
:1006900004003D000003FD008103FD008502EA0027
:1006A0008B854200840F720002003B006000100046
:1006B000E08018006011B8000005EB007A28E10026
:1006C0000A00390006008800C75DDD00F707B200A8
:1006D000878075002D003700828171002A00880014
:1006E000610560008180D1000080D3008502E900AF
:1006F000F9FF3B00060440008784480002003B00ED
:1007000060041400E0841C000988A3000700320084
:100710008A81710082817100610164008904D100C5
:100720000884D3008B05E800170037000978A30080
:1007300013003A001600E200130034008B05E900B4
:100740000804440089844C000A4474000978A3001A
:100750000D003A001600E200070034008B05E900A6
:100760000804440089844C0001003A000B0020007A
:100770000978A300F7FF32000001EB000200370008
:10078000828171002A008800220007000CF0A70077
:1007900003E0A800180037006420E10002003A00DE
:1007A000838F6C00180033000881BE000280BE00F9
:1007B000110037000084BE003C0007000083BE002B
:1007C0000485BE000280BE0038000700844F75001B
:1007D000000006000280BE006450E1000500360003
:1007E0006420E100020036000968A30001003A001D
:1007F0000880BE0002C0A8004F0678004F05BE006A
:100800004F04BE0000000600F0FF2F00F1FF27009C
:10081000F9FF370081002000618055000B003D008A
:100820000B00200061FE2F000100E1001D003400DC
:1008300082817100610164008904D1000884D300C1
:100840000000E800FAFF3A00710020006100640037
:1008500003007000020060000900320061044400DF
:10086000E0844C000988A500050032008B05E800F3
:100870006808E10002003A008904D1000884D3002E
:10088000F20F20000258E10005003D00C75DDD00C9
:10089000F907B20089807500080088000000060092
:1008A0000BF827001B00880000000500C70ADE00C7
:1008B000F107B200F50FB20008003200E1CF4200AC
:1008C0000200320002E0A80024000500810F700041
:1008D000010032000408050044000500810F70008B
:1008E00002003A00140005008502E9000000400003
:1008F00081C04800FCFF3B0002E0A8002400050086
:080900000080FA00000006006F
:100E04000000FA0014002000CFFD07000080FA0063
:040E140000000600D4
:10169C000000FA008EF997000B82FB000D80FB0016
:1016AC000020E1000A003E008C9FBE008A9FBE0015
:1016BC00834678008C4578000446780015FE0700B8
:1016CC004F05BE004F06BE000820EC00F3FF3700AC
:0816DC000080FA000000060086
:100F20000000FA006064E10004003900F0C3B3007F
:100F30000064E10001003E00010037001F0037009F
:100F40006054E100010031001420EF00F0C7B3004D
:100F50000054E10001003600FAC7B300605CE10014
:100F6000010031001620EF00F0C7B300005CE10083
:100F700001003600FBC7B3000B54E100030036004C
:100F80000A80FB000B457800804578000B54E10097
:100F90000A003E008C1F78008A9FBE008C457800B6
:100FA0000D46780057FF07004F05BE004F0678003A
:100FB0006140450000457800F4FF37000080FA00EA
:040FC0000000060027
:100D04000000FA008A1F78006054E10009003900ED
:100D1400F0C7B3000054E10006003E00605CE1004F
:100D240004003900F0C3B300005CE10001003E00A0
:100D3400010037002F0037008A1F7800F1FE0700FA
:100D44000B80FB004300DE0000457800F1FD070046
:100D54004F0578008A1F780037FF07004F05780099
:100D6400A6FD0700F5FE0700A4FD0700F3FE07003B
:100D740000417800A1FD07000B80FB004300DE006A
:100D84008A1F780000457800E2FD07004F057800CF
:100D940029FF07000B80FB00670060008080FB00D8
:100DA400100020000100DD008040780000E0EE002B
:100DB4000700370080406100014078000B003700D5
:100DC4000140710009003700014069000700370045
:100DD4006064E100F7FF32006164E100F8FF320073
:100DE4006264E100F8FF32000240780000457800B8
:100DF400C0FD07004F0578000080FA0000000600DF
:000E0400EE
:1037FC0001002100F0CD280064000900B0587800C9
:10380C006106210040D4280020000900B01878007F
:10381C00B05878005106210030FA2800B0587800D2
:10382C00910A210070F7280016000900B0587800A2
:04383C000000060082
:103470003400F8003200F8003600F800801F7800B1
:10348000200020000C000900B01F78008A1F78007F
:103490004A002000AFFC0700A8002000577C220053
:1034A0000E20ED00FEFF3A001020ED00FCFF3A0078
:1034B0000000000006C8A9004F057800A001200008
:1034C0000C0009004F1078004F0078003600F9001A
:0C34D0003200F9003400F9000040060052
:102754008B1F780050052100104078006104E100CF
:102764000B003A00C150DD0040032100810040000D
:10277400110078000020EC0080087800C150DD00D2
:1027840040032100010040009005780006FE070088
:08279400CF05780000000600EB
:101FAC008A1F78008B1F78008C1F78008D1F78009B
:101FBC00600121000A0040008A9FBE001085FB00D2
:101FCC003CFE07004F05BE008A1F78000B457800C9
:101FDC008B0C210099FE07004F0578006001210051
:101FEC000A0040001DC0B3001820EF009045780097
:101FFC008A0C2100BBFE0700CF0678004F06780044
:0C200C00CF0578004F05780000000600AA
:101A48000000FA008A1F78000820EF000A00FB0057
:101A58006054E10005003D00E10042000A00FB007F
:101A6800600010000102780000003700004578008F
:101A78001AFF070043002000040178006018E10005
:101A880006003600838045006180510000804500D3
:101A9800904878000620ED00F8FF370000C2B30038
:101AA800804D78000400E2000C0032000420EF00B2
:101AB800028045009040780000C2B300000CE100AD
:101AC80002003A000420EC00F9FF370061005100E1
:101AD80080804500D0C2B300804878004F05780068
:081AE8000080FA000000060076
:1016E4000200FA000420EF006314E1000600310058
:1016F4000280FB008080450000C2B300804878006F
:101704000460EC00F8FF37000280FB008080450095
:101714000020EF0080487800E14151000380FB0085
:1017240000804500000798000A80FB00A20020000A
:10173400110009000280D8000003200080804000CE
:101744000E009000014878000A80FB00A2002000EF
:10175400110009000280D800004578006004E1000F
:1017640001003A00020037000660ED00EBFF37008D
:081774000080FA0000000600ED
:103790003400F8003200F8003600F800801F78008E
:1037A000200020000C000900B01F78008A1F78005C
:1037B0003A002000E7FB0700A8002000577C220009
:1037C0000E20ED00FEFF3A001020ED00FCFF3A0055
:1037D0000000000006A8A9004F057800A001200005
:1037E0000C0009004F1078004F0078003600F900F7
:0C37F0003200F9003400F900004006002F
:103404003400F8003200F8003600F800801F78001D
:10341400200020000C000900B01F78008A1F7800EB
:103424002A002000CAFC0700A8002000577C2200C4
:103434000E20ED00FEFF3A001020ED00FCFF3A00E4
:103444000000000003A8A9004F057800A001200097
:103454000C0009004F1078004F0078003600F90086
:0C3464003200F9003400F90000400600BE
:1031D0003400F8003200F8003600F800801F780054
:1031E000200020000C000900B01F78008A1F780022
:1031F0001A00200057FD0700A8002000577C22007D
:103200000E20ED00FEFF3A001020ED00FCFF3A001A
:10321000000000000288A9004F057800A0012000EE
:103220000C0009004F1078004F0078003600F900BC
:0C3230003200F9003400F90000400600F4
:10323C003400F8003200F8003600F800801F7800E7
:10324C00200020000C000900B01F78008A1F7800B5
:10325C008B1F78008C1F78008D1F78000268A900E6
:10326C0012AEAE0009003700100020003083880039
:10327C000020EF00408388000020EF00508388007E
:10328C000020EF006083880020003700128EAE0013
:10329C00090037000020EF00308388001000200068
:1032AC00408388000020EF00508388000020EF004E
:1032BC006083880015003700126EAE0009003700DD
:1032CC000020EF00308388000020EF00408388004E
:1032DC0010002000508388000020EF0060838800DD
:1032EC000A003700124EAE00080037000020EF0035
:1032FC00308388000020EF00408388000020EF001E
:10330C00508388001000200060838800122EAE00CD
:10331C000600370040A7A8001DC0B3001820EF001E
:10332C001620EF00DA052100EEF907000801200055
:10333C00872424000E20ED00FEFF3A001020ED0043
:10334C00FCFF3A000000000000000000000000003C
:10335C00000000001420EF00C1FC0700CF0678002D
:10336C004F067800CF0578004F057800A0012000AB
:10337C000C0009004F1078004F0078003600F9005F
:0C338C003200F9003400F9000040060097
:103398003400F8003200F8003600F800801F78008A
:1033A800200020000C000900B01F78008A1F780058
:1033B8001420EF00E5FC0700A8002000577C22003D
:1033C8000E20ED00FEFF3A001020ED00FCFF3A0051
:1033D800000000000008A9004F057800A0012000A7
:1033E8000C0009004F1078004F0078003600F900F3
:0C33F8003200F9003400F900004006002B
:020000040001F9
:1000000000000000000000000000000000000000F0
:1000100000000000000000000000000000000000E0
:1000200000000000000000000000000000000000D0
:1000300000000000000000000000000000000000C0
:1000400000000000000000000000000000000000B0
:1000500000000000000000000000000000000000A0
:100060000000000000000000000000000000000090
:100070000000000000000000000000000000000080
:100080000000000000000000000000000000000070
:100090000000000000000000000000000000000060
:1000A0000000000080800000000000000000000050
:1000B0000000000000000000000000000000000040
:1000C0000000000000000000000000000000000030
:1000D0000000000000000000000000000000000020
:1000E0000000000000000000000000000000000010
:1000F0000000000000000000000000000000000000
:1001000000000000000000000000000000000000EF
:1001100000000000000000000000000000000000DF
:10012000000000000000000000000000008000004F
:100130004020000020100000101000000804000003
:10014000347A0000DE8000000000000000000000A3
:10015000000000000000000000000000000000009F
:10016000000000000000000000000000000000008F
:10017000000000000000000000000000000000007F
:10018000000000000000000000000000000000006F
:1001900000000000000000000080000040E00000BF
:1001A00038070000000000003F700000E0C00000C1
:1001B00080000000000000000000000000000000BF
:1001C000000000000000000000000000000000002F
:1001D00000000000004400000C98000038F8000007
:1001E00070E00000C00000000000000000000000FF
:1001F00000000000000000000000000000000000FF
:1002000000000000000000000000000000000000EE
:1002100000000000000000000000000000000000DE
:100220000000000000000000804000007C1B000077
:10023000000000000010000020380000FCF6000064
:10024000E2FE0000FFFF0000FEC00000C0C0000092
:10025000C0C00000C0C0000080800000800000001E
:10026000000000000000000000000000000000008E
:10027000000000000000000000000000000000007E
:10028000000000000000000000000000000000006E
:1002900000000000003C0000D3800000800000004F
:1002A0000030000040C00000A8F800008CFF0000F3
:1002B000FFFE0000F8C0000080800000C040000089
:1002C0002020000010100000108800008888000026
:1002D000888800009674000058B700005EBF0000D8
:1002E0007D3A0000053F0000F8C00000000000005B
:1002F00000000000000000000000000000000000FE
:1003000000000000000000000000000000000000ED
:100310000000000000000000E0FE0000F880000087
:100320000000000000000000070A0000101000009C
:10033000F4F00000F0F80000F8FE0000FFDF00001D
:100340008F87000083C30000E3E70000DF8F000019
:100350004F3D0000F830000031610000C1C30000D3
:10036000E3620000FE3C00001CF80000B0600000EA
:10037000000000000000000000000000000000007D
:10038000000000000000000000000000000000006D
:1003900000000000000000000F11000028E0000035
:1003A000E0E80000E0F80000F7FF0000FF7F000039
:1003B0007F7F00007F7F00003F1F00000FFF0000D5
:1003C0007F7700002727000027430000C383000039
:1003D000030100003B7F00007DF00000E0F0000022
:1003E000F8F40000E01E000003010000000000001F
:1003F00000000000000000000000000000000000FD
:1004000000000000000000000000000000000000EC
:1004100000000000000000001F670000831F0000B4
:100420003C780000F0F00000E0E00000C0C00000F8
:10043000C16700003F1F000038100000302100009D
:10044000212100002121000031930000FFFF000066
:100450007A7900007D7E0000F8F00000E080000066
:10046000010200000403000002010000000000007F
:10047000000000000000000000000000000000007C
:10048000000000000000000000000000000000006C
:100490000080000060100000888800008486000052
:1004A000CFFF00003F1F00001F1D0000186000006C
:1004B000800000000000000008140000275A00001F
:1004C0008A05000001030000030F00001F3F000029
:1004D000FFFE0000F8F00000F8E8000084030000D0
:1004E000C03000000D00000000000000000000000F
:1004F00000000000000000000000000000000000FC
:1005000000000000000000000000000000000000EB
:1005100000000000000000000000000001020000D8
:1005200004080000103300003F7F00007FFF000040
:10053000F0C00000C0C00000F0F80000FDFE0000A8
:10054000FEFE0000FEFE00007F7300004180000000
:100550008080000080800000C0E00000F3FF000009
:10056000FEF80000E00000000000000000000000B5
:10057000000000000000000000000000000000007B
:100580000000000000000000000000000018000053
:10059000262F0000121700001C08000007030000AF
:1005A000010000000000000000000000000E00003C
:1005B0003141000042C40000E4FC0000F8F80000F3
:1005C000F0F10000E3E40000E42800002C1E00002D
:1005D000171300000B0900000504000002010000D1
:1005E000000000000000000000000000000000000B
:1005F00000000000000000000000000000000000FB
:1006000000000000000000000000000000000000EA
:1006100000000000000000000000000000000000DA
:1006200000000000000000000000000000040000C6
:100630000A0F000017170000170F0000171700001F
:100640001F07000003000000000000000000000081
:1006500008150000171F00002F2F00002F1F00009B
:100660002F270000170F0000060000000000000008
:10067000000000000000000000000000000000007A
:10068000000000000000000000000000000000006A
:10069000000000000000000000000000000000005A
:1006A000000000000000000000000000000000004A
:1006B000000000000000000000000000030D00002A
:1006C000140C0000110F00000403000000000000E3
:1006D000000000000000000000000000000000001A
:1006E000000000000000000000000000000000000A
:1006F00000000000000000000000000000000000FA
:1007000000000000000000000000000000000000E9
:10092000000000000000000000C0000020100000D7
:100930000008000008080000080000001010000077
:10094000A0C0000000000000000000000000000047
:100950000000000000000000000000000000000097
:100960000000000000000000000000000000000087
:100970000000000000000000000000000000000077
:100980000000000000000000000000000000000067
:1009900000000000000000000000000000800000D7
:1009A0008040000040400000404000008080000087
:1009B0000000000000000000000000000000000037
:1009C0000000000000000000000000000000000027
:1009D0000000000000000000000000000000000017
:1009E0000000000000000000000000000000000007
:1009F00000000000000000000000000000000000F7
:100A000000000000000000000000000000000000E6
:100A100000000000000000000000000000000000D6
:100A20000000000000000000DF3E00003810000061
:100A300000000000001000001CAE00007FFC000061
:100A4000FCFF0000FFF0000080000000000000003C
:100A500000000000000000000008000070E000003E
:100A6000C0000000000000000000000000000000C6
:100A70000000000000000000000000000000000076
:100A80000000000000000000000000000000000066
:100A90000000000000000000788600000100000057
:100AA00000000000000000001C2400007C78000012
:100AB000310600001860000080000000F0380000DF
:100AC000D408000014180000F000000000800000AE
:100AD00000C00000B00000000000000000000000A6
:100AE0000000000000000000000000000000000006
:100AF00000000000000000000000000000000000F6
:100B000000000000000000000000000000000000E5
:100B100000000000000000000000000000000000D5
:100B200000000000000000000102000004080000B6
:100B300008880000C83C00001A1D00008E4F00000D
:100B4000371B0000030700008FFE0000F870000054
:100B50004080000000000000000000000083000052
:100B6000FFFF0000FCF0000000000000000000009B
:100B70000000000000000000000000000000000075
:100B80000000000000000000000000000000000065
:100B90000070000098080000684900000F30000055
:100BA00040C00000808000005040000020980000FD
:100BB00097480000300C0000010600000100000012
:100BC00000C00000700E000001000000010A0000DB
:100BD000150B0000976F00009E0000000000000051
:100BE0000000000000000000000000000000000005
:100BF00000000000000000000000000000000000F5
:100C000000000000000000000000000000000000E4
:100C100000000000000000000000000000000000D4
:100C20000000000000000000001C0000322900004D
:100C3000211000001F600000800E00001914000049
:100C400018080000043E00008701000000000000BA
:100C50000000000083FC0000FCFE00007F3F00005D
:100C60001F0F000003000000000000000000000053
:100C70000000000000000000000000000000000074
:100C80000000000000000000000000000000000064
:100C9000000000000001000001020000020200004C
:100CA00007870000F70F00000101000001000000AD
:100CB0000000000000000000804000000000000074
:100CC000010300001C7000009010000088880000E4
:100CD000C4E20000F93E00000F0000000000000028
:100CE0000000000000000000000000000000000004
:100CF00000000000000000000000000000000000F4
:100D000000000000000000000000000000000000E3
:100D100000000000000000000000000000000000D3
:100D200000000000000000000000000000000000C3
:100D30000080000040200000201100000A8C00000C
:100D40009CF80000F8E8000008050000067C0000A0
:100D5000840600008F1D000038F00000E0C0000095
:100D60008000000000000000000000000000000003
:100D70000000000000000000000000000000000073
:100D80000000000000000000000000000000000063
:100D9000000000000000000000000000804E000085
:100DA0005120000020430000CCF80000F0F00000CB
:100DB00060200000203E000039700000E0E00000EC
:100DC00040400000406000005F8700000703000013
:100DD000030100000000000000000000000000000F
:100DE0000000000000000000000000000000000003
:100DF00000000000000000000000000000000000F3
:100E000000000000000000000000000000000000E2
:100E100000000000000000000000000000000000D2
:100E200000000000000000000000000000000000C2
:100E300000010000020300000202000003020000A3
:100E4000030100000100000000000000000000009D
:100E5000010200000203000002030000030300007F
:100E60000100000000000000000000000000000081
:100E70000000000000000000000000000000000072
:100E80000000000000000000000000000000000062
:100E90000000000000000000000000000001000051
:100EA000010100000101000001010000010000003B
:100EB000000000000000000000000000010200002F
:100EC0000202000002020000020100000000000017
:100ED0000000000000000000000000000000000012
:100EE0000000000000000000000000000000000002
:100EF00000000000000000000000000000000000F2
:100F000000000000000000000000000000000000E1
:100F100000000000000000000000000000000000D1
:100F200000000000000000000000000000000000C1
:100F300000000000000000000000000000000000B1
:100F400000000000000000000000000000000000A1
:100F50000000000000000000000000000000000091
:100F60000000000000000000000000000000000081
:100F70000000000000000000000000000000000071
:100F80000000000000000000000000000000000061
:100F90000000000000000000000000000000000051
:100FA0000000000000000000000000000000000041
:100FB0000000000000000000000000000000000031
:100FC0000000000000000000000000000000000021
:100FD0000000000000000000000000000000000011
:100FE0000000000000000000000000000000000001
:100FF00000000000000000000000000000000000F1
:10100000000000000000000000000000005F000081
:1010100000000000000700000007000000140000AE
:101020007F1400007F140000242A00007F2A0000A3
:10103000122300001308000064620000364900001B
:1010400055220000500000000503000000000000D1
:10105000001C0000224100000000000041220000AE
:101060001C000000082A00001C2A000008080000DC
:10107000083E00000808000000500000300000009A
:101080000008000008080000080800000030000008
:1010900030000000002000001008000004020000E2
:1010A0003E510000494500003E000000427F000024
:1010B000400000004261000051490000462100004C
:1010C000414500004B31000018140000127F000061
:1010D0001027000045450000453900003C4A00004B
:1010E00049490000300100007109000005030000BB
:1010F0003649000049490000360600004949000011
:10110000291E00000036000036000000000000002C
:101110005636000000000000000800001422000005
:1011200041140000141400001414000041220000B7
:101130001408000000020000015100000906000030
:1011400032490000794100003E7E0000111100008C
:10115000117E00007F49000049490000363E000032
:1011600041410000412200007F4100004122000077
:101170001C7F000049490000494100007F09000030
:1011800009010000013E0000414100005132000011
:101190007F080000080800007F000000417F000079
:1011A0004100000020400000413F0000017F00009E
:1011B00008140000224100007F4000004040000071
:1011C000407F000002040000027F00007F04000056
:1011D000081000007F3E000041410000413E000039
:1011E0007F09000009090000063E0000415100008F
:1011F000215E00007F09000019290000464600001A
:101200004949000049310000010100007F01000050
:10121000013F000040400000403F00001F20000050
:10122000402000001F7F000020180000207F0000E9
:101230006314000008140000630300000478000039
:101240000403000061510000494500004300000014
:10125000007F00004141000002040000081000006F
:1012600020410000417F0000000000000402000057
:101270000102000004400000404000004040000027
:10128000000100000204000000200000545400008F
:10129000547800007F4800004444000038380000C3
:1012A000444400004420000038440000444800004A
:1012B0007F3800005454000054180000087E0000DD
:1012C000090100000208000014540000543C000012
:1012D0007F0800000404000078000000447D000046
:1012E0004000000020400000443D000000000000DD
:1012F0007F10000028440000004100007F400000F3
:10130000007C000004180000047800007C08000045
:101310000404000078380000444400004438000011
:101320007C140000141400000808000014140000CD
:10133000187C00007C08000004040000084800003D
:101340005454000054200000043F000044400000BA
:10135000203C000040400000207C00001C200000D9
:10136000402000001C3C000040300000403C0000D9
:101370004428000010280000440C000050500000D9
:10138000503C000044640000544C00004400000045
:101390000836000041000000000000007F0000004F
:1013A00000000000413600000800000008080000AE
:1013B0002A1C0000080800001C2A00000808000081
:1013C000FFFF0000FFFF0000FFFF0000FFFF000025
:1013D000FFFF0000FFFF0000FFFF0000FFFF000015
:1013E000FFFF0000FFFF0000FFFF0000FFFF000005
:1013F000FFFF0000FFFF0000FFFF0000FFFF0000F5
:10140000FFFF0000FFFF0000FFFF0000FFFF0000E4
:10141000FFFF0000FFFF0000FFFF00007F3F000014
:101420001F0F000007030000030300000307000074
:101430000F1F00003F7F0000FFFF0000FFFF0000C4
:10144000FFFF0000FFFF0000FFFF0000FFFF0000A4
:10145000FFFF0000FFFF0000FFFF0000FFFF000094
:101460008E06000006000000C404000004CC00004A
:10147000CC04000004C4000000060000068E00003A
:10148000FFFF0000FFFF0000FFFF0000FFFF000064
:10149000FFFF0000FFFF0000FFFF0000FFFF000054
:1014A000FFFF0000FFFF0000FFFE0000FCFC00004B
:1014B000FFFC0000FFFF0000FCFF0000FCFC000040
:1014C000FEFF0000FFFF0000FFFF0000FFFF000025
:1014D000FFFF0000FFFF0000030300000303000004
:1014E00003030000030300000303000003030000E4
:1014F00003030000030300000303000003030000D4
:1015000003030000030300000303000003030000C3
:1015100003030000030300000303000003FF0000B7
:10152000FFFF0000FFFF0000FFFF0000FFFF0000C3
:10153000FFFF0000FFFF0000FFFF00007F3F0000F3
:101540003F3F00003F7F0000FFFF0000FFFF000063
:10155000FFFF0000FFFF0000FFFF0000FFFF000093
:10156000FFFF0000FFFF0000FFFF0000FFFF000083
:10157000FFFF0000FFFF0000EFE70000E3010000B5
:10158000808000008080000080800000808000005B
:1015900001E30000E7EF0000FFFF0000FFFF000095
:1015A000FFFF0000FFFF0000FFFF0000FFFF000043
:1015B000FFFF0000FFFF0000FFFF0000FFFF000033
:1015C000FF07000009C60000060900008F8F000019
:1015D00009060000C609000007FF0000FFFF000029
:1015E000FFFF0000FFFF0000FFFF0000FFFF000003
:1015F000FFFF0000FFFF0000FFFF0000FFFF0000F3
:10160000FFFF0000FFFF0000FCE00000FFF0000013
:10161000C0FF0000FFC00000F0FF0000E0FC000081
:10162000FFFF0000FFFF0000FFFF0000FFFF0000C2
:10163000FFFF0000FF03000003030000030300009E
:101640000303000003030000030300000303000082
:101650000303000003030000030300000303000072
:101660000303000003030000030300000303000062
:0C1670000303000003030000030300005C
:10167C00E0F80000FCFE0000FE1F00000707000061
:10168C00FEFE00000E27000047FE0000FE47000093
:10169C00270E0000FEFE0000070700001F3E0000A2
:1016AC003C7C00007C3E00001E000000000100009D
:1016BC00070F00008FC00000C04000008801000030
:1016CC00410B0000228700004B4B000087220000DA
:1016DC000B4100000188000040C00000C0800000E9
:1016EC0000000000000000000000000000FC0000F2
:1016FC00FFFF0000FFFF0000FCFE0000F5E1000012
:10170C00E5CF0000C4C00000C0E40000FFFD0000F5
:10171C00FDFD0000FEFC0000FFFF0000FFFF0000CD
:10172C00FCE00000000000000000000000070000CA
:10173C000F1F00001FFF0000FFFF0000FFFF000055
:10174C00FFFF0000FFFF0000FFFF0000FFFF000095
:10175C00FFFF0000FF1F00003F3F00003F1F000085
:10176C000700000000000000000000000000000066
:10177C000000000007FF0000FFFF0000FFFF00005B
:10178C00FFFF0000FFFF0000FFFF0000FFFF000055
:10179C00FF07000000000000000000000000000037
:1017AC000000000000D1000000CD0000CBC90000FB
:1017BC00CAD4000000D20000D0CE0000CCEB000058
:1017CC007E00000000DE0000DD000000DC510000A7
:1017DC0021000000000000005A5300004157000097
:1017EC0040DB00000043000058440000452400008A
:1017FC0023DB00000020000056460000545200007D
:10180C0025000000004E000042480000475900002F
:10181C005E000000000000004D4A0000552600004C
:10182C002A000000003C00004B4900004F2900003A
:10183C0028000000003E00003F4C00003A50000021
:10184C005F00000000000000220000007B2B000065
:10185C0000000000E1DD0000D57D0000007C0000F0
:10186C00000000000000000000000000000000006C
:10187C00D800000000E2000000E60000E3000000D9
:10188C0000000000D9DA0000E9350000E7E80000AC
:10189C00EAE50000D32B0000D72D00002AD600006B
:0C18AC00E40000000000000000CF00007D
:1018B800D1000000CDCB0000C9CA0000D4D300007D
:1018C800D2D00000CECC0000EB6000000000000089
:1018D800DEDD000000DC00007131000000000000C7
:1018E800007A00007361000077320000DB0000001E
:1018F800637800006465000034330000DB000000FA
:1019080020760000667400007235000000000000B8
:101918006E62000068670000793600000000000071
:10192800006D00006A7500003738000000000000F4
:101938002C6B0000696F00003039000000000000C7
:101948002E2F00006C3B0000702D000000000000EE
:1019580000270000005B00003D00000000E10000DF
:10196800DDD500005D0000005C0000000000000004
:10197800000000000000000000D800000000000087
:10198800E2000000E6E300000000000000D90000CB
:10199800DAE9000035E70000E8EA0000E5D30000D6
:1019A8002BD700002D2A0000D6E40000000000001C
:1019B80000000000CF4300005541000044520000E1
:1019C8004F20000000430000617300006F200000FA
:0419D80057000000B4
:1019DC0043610000736F0000205100000004000000
:0819EC001D3600004F680000E9
:1019F400275200002720000070610000726100007F
:101A04002057000044540000202000002000000063
:101A140045720000726F00006E6500006F200000C8
:101A240000000000000000000000000000000000B2
:081A34000000000000000000AA
:101A3C0000430000617300006F2000005220000082
:101A4C00005500006C740000696D00006F200000F0
:0C1A5C005265000073650000740000007B
:101A680000430000617300006F2000004500000083
:101A7800494E000054200000574400005400000064
:101A8800000000000000000000000000000000004E
:081A9800504F00005200000055
:081AA00057440000540000004F
:101AA8004D4300004C520000004C000061620000F1
:101AB8006F720000617400006F720000696F0000AF
:101AC800203100000027000045270000207000009A
:101AD800617200006120000043610000736F000024
:101AE8002045000000270000572700002070000054
:101AF800617200006120000043610000736F000004
:101B080020570000008000004060000020380000DE
:101B18000C0600000203000001290000F10100008A
:101B28002BF20000060C00003020000060C000000E
:101B3800030400000808000018F00000E0C00000DE
:101B4800C0C00000C0E0000098840000C2E20000AD
:101B5800E27C00003C0400000300000000000000DC
:101B6800000000000103000007070000070700004D
:101B78000301000001010000010000000000000056
:041B88000000000059
:101B8C0000000000C0F00000180C0000040600006B
:101B9C000202000002520000E206000054EC0000B9
:101BAC0018700000C000000000000000000F0000D2
:101BBC00F8E00000A02000003030000030440000AD
:101BCC00C0C1000080C4000081E00000381F00008C
:101BDC0000000000000000000000000001030000F5
:101BEC0003030000030300000303000001010000D5
:101BFC0001010000000000000000000000000000D7
:101C0C0000000000E03800000C0400000602000098
:101C1C00020200000202000016E6000014EC0000B4
:101C2C0078E000000000000000000000C0FF000091
:101C3C003020000020400000C08000008090000098
:101C4C008084000081C40000C1B00000EF000000DF
:101C5C000000000000010000030300000707000063
:101C6C000707000007030000030300000303000044
:0C1C7C0003010000010000000000000057
:101C880000000000F03C00000E0600000301000008
:101C98000101000001010000810B000036E6000090
:101CA8001CF000000000000000F00000B80F000069
:101CB80038600000C0C00000C080000080840000C0
:101CC80080C10000C0C00000E0F20000FFE2000098
:101CD8007E3C000001030000070600000707000023
:101CE80007030000000000000000000000010000E1
:101CF80001010000010000000000000000000000D9
:101D080080E0000030180000080C00000404000007
:101D18000404000054E4000004540000E808000033
:101D280030E0000080000000001F00003068000064
:101D3800D0A00000A0E0000030200000202000001B
:101D480021400000C4C10000C0600000381F00002E
:101D5800000000000000000000000000000100007A
:101D68000303000003030000030300000303000053
:0C1D78000100000000000000000000005E
:101D84000000000000800000E03800000C040000A7
:101D94000602000002D20000E202000016E4000085
:101DA4000C380000E0800000000000001E3F00002E
:101DB40021E00000E0C0000080800000000000007E
:101DC400008100004044000041C00000E0A1000088
:101DD400311E0000000000000000000003070000A6
:101DE40007060000070300000307000006060000C2
:101DF40006060000060700000300000000000000C3
:101E04000080000040200000F0F00000D8E800004E
:101E1400E8E80000E8E80000F8000000E8E8000056
:101E2400000000000F1E00003D7E0000FFF30000D4
:101E3400E3E10000E3F00000F8F90000FF00000017
:101E4400FFFF000000000000000000000000000090
:101E54000000000001010000010100000101000078
:101E6400010000000101000000000000B0B8000003
:101E74003C7E0000FEFE0000FFFF0000E7C60000FD
:101E8400CEFC0000F8C00000000E00001F1D000082
:101E94000F0000000F1F00003F3F00001F1F000045
:101EA4000F0F00000F0F00000000000080F0000082
:101EB400F8FC0000FCEE0000C6C60000EEFC0000CA
:101EC400FCF80000F0800000000000001F1F00006C
:101ED4001F1F00003F3F00007F7F00003F3F0000C6
:101EE4001F1F00001F1F000000430000617300005B
:081EF4006F2000003200000025
:101EFC002751000027200000706100007261000073
:101F0C0020430000617300006F20000051000000AE
:101F1C0031000000343700000000000000300000E9
:101F2C002E320000353600003800000000000000A2
:0C1F3C002B3300002D2A000039000000AB
:0200000401F009
:1C0008000300000087000000A70000007E0000003F000000D70000000300000014
:00000001FF
