:10000000FE090400000000000000000000000000E5
:1000100000000000000000000000000000000000E0
:1000200000000000000000000000000000000000D0
:1000300000000000000000000000000000000000C0
:1000400000000000000000000000000000000000B0
:1013FC00F0FF2700AF0C210020A0B7001020200028
:10140C0032A0B700400020004420B700820B02003D
:10141C00000000008A1F78008B1F78008C1F78005A
:10142C008D1F78001E2EEF002E2EEF003E2EEF00AB
:10143C004E2EEF006E2EEF001000200010AEB70005
:10144C00402EEF00602EEF0097FE070010202000CA
:10145C007DC0B3005CC0B3000A8028008005780012
:10146C0000022000801F7800BCFE07002F00B10096
:10147C001420EF00EDFE07003DFE070012FF0700F1
:10148C0008012000872424000E20ED00FEFF3A0006
:10149C001000ED0000000000FBFF3A00000000000F
:1014AC0000000000000000001420EF00DFFE070029
:1014BC0010C0B3001820EF00FBC1B3002A002100BC
:1014CC00B4FE07001DC0B3001620EF0010C0B3001F
:1014DC005A032100AFFE07001DC0B3002CC0B3009F
:1014EC001620EF00ABFE0700EA0621001DC0B3007A
:1014FC003CC0B3001620EF008A092100A5FE0700AE
:10150C0010C0B3004CC0B3001620EF00EA04210059
:10151C00A0FE07001C01210004FF07002A01210086
:10152C000B0121000000E2006D00320010012100CF
:10153C001004E0006A003200000121001004E000F9
:10154C0067003A005100370010C0B3001820EF00BC
:10155C00CBC3B3007A0621008EFE070008012000E1
:10156C000E00ED0087242400FEFF3A001020ED0051
:10157C00FCFF3A000000000000000000000000002A
:10158C0000000000560037001DC0B3001820EF000B
:10159C00CBC3B300DA0221007EFE070087242400AF
:1015AC00080120000E20ED00FEFF3A001020ED0097
:1015BC00FCFF3A00000000000000000000000000EA
:1015CC0047003700000000001DC0B3001820EF00DA
:1015DC00CBC3B3001A0B21006EFE070008012000DC
:1015EC00872424000E20ED00FEFF3A001020ED00B1
:1015FC00FCFF3A00000000000000000000000000AA
:10160C0000000000E1FD07003500370010C0B300FA
:10161C00C0C3B3001820EF007A0821005DFE07005C
:10162C0008012000872424000E00ED001000ED00BE
:10163C00FDFF3A00FCFF3A00000000000000000033
:10164C0000000000000000002500370010C0B300AF
:10165C001820EF00CBC3B300FA0821004DFE0700A1
:10166C0008012000872424000E00ED00FEFF3A0044
:10167C001020ED00FCFF3A0000000000000000000C
:10168C0000000000000000001500370020012100C0
:10169C009040780010C6B300000CE100AAFF3200A5
:1016AC00004078002001210020C6B300000CE100AE
:1016BC00B5FF3200200121000040780030C6B30095
:1016CC00000CE100C0FF32002001210090407800A6
:1016DC00000CE10040C6B300CCFF3200DBFF37004A
:1016EC0071FF3700CF0678004F067800CF057800E1
:0816FC004F057800FFFF3700E5
:100EB4000000FA008A1F7800810C21000020EF0056
:100EC400804878000020EF0030868800400EA9009A
:100ED400306EA900302EA900304EA900400EA900A2
:100EE400404EA900448EA900402EA900400EA9003E
:100EF400500EA900500EA90030EEA90030CEA90072
:100F0400300EA900308EA900342EA900344EA90059
:100F1400440EA900444EA800448EA8003FFF0700D9
:100F240013FF0700F0C3B30016FE07000ACCB3009A
:100F34000FFF070013FE0700446EA800444EA900EB
:100F44000BFF0700F0C3B3000EFE07000ACCB3008A
:100F540007FF07000BFE07004F0578000080FA002A
:040F64000000060083
:100C200000000000000000000000000000000000C4
:080C30000000000000000600B6
:100B74000000FA0014E0AE00422EA90014E0AF0019
:100B8400422EA8001400AE0000000000420EA9008E
:100B940014C0AF00420EA8000000000052AEA9002D
:100BA4001420AE0014A0AF00522EA80000000000D4
:100BB4001480AE001400AF00528EA900520EA8009B
:100BC400000000001460AE0032EEA900326EA800EE
:100BD40014E0AF00000000001440AE0032CEA900C3
:100BE4001440AF00320EA800000000001420AE0034
:100BF40032AEA9001420AF0032AEA80000000000FD
:100C04001400AE00328EA9001400AF00328EA8008A
:0C0C1400000000000080FA000000060054
:100788000000FA00DCFF0700340EA800DAFF0700BB
:0C079800346EA9000080FA00000006008A
:10070000A70020000E20ED00FEFF3A0000000000D0
:080710000000000000000600DB
:100F68000000FA000E009000EA858800FB858800E2
:100F7800D0858800900B21000C487800100C2100C7
:100F88000D487800810C210010C0B300804878001B
:080F98000080FA0000000600D1
:101038000000FA00446EA900440EA8000420EF0046
:101048006710E1000D003E008A1F78000245780015
:101058003BFF07004F0578000220EF00F003200057
:101068000008E10003003E00F1FE07000220EC004A
:10107800FAFF37000420EC00F1FF3700444EA900C6
:10108800446EA8000420EF006010E1000D003E004F
:101098008A1F78000245780029FF07004F0578006D
:1010A8000220EF00F00320000008E10003003E00EA
:1010B800DFFE07000220EC00FAFF37000400EC0016
:0C10C800F1FF37000080FA000000060075
:100D48000000FA008A1F7800340EA900340EA900AA
:100D58008A80FB00800B200000807000004578002E
:100D680082FF070086FE07004F0578000080FA0022
:040D78000000060071
:100C38000000FA00340EA900340EA800344EA900B2
:100C4800CAFF0700CEFE07000080FA000000060079
:000C58009C
:100D7C000000FA00500EA800500EA8000020EF0052
:0C0D8C00108688000080FA0000000600BD
:1010D4008A1F78008B1F7800102020000000780001
:1010E4000A402800DBFE07008800200047122A007F
:1010F4000E20ED001000ED00FDFF3A00FCFF3A0069
:10110400102020000A00280080057800D1FE070086
:1011140047122A00880020000E20ED00FEFF3A004E
:101124001020ED00FCFF3A00CF0578004F05780051
:0411340000000600B1
:100C58000400FA008C1F78000A0798001B07980008
:100C68000820EF006720E10032003E004BFE07003D
:100C78001420EF008A9FBE0004457800300007006A
:100C880054FE07001420EF004F05BE000A20EF00B5
:100C98000028E100F00320000C003E000E00900048
:100CA8008A9FBE0000407800E1FF0700600047000F
:100CB8001B0020000C00200000057800CEFD070076
:100CC8004F05BE000A20EC00F1FF370000C4B30056
:100CD8008A9FBE0031FE070004457800180007000F
:100CE80000C4B3003BFE07004F05BE00050420000A
:100CF800F00720000028E1000C003E000E009000E4
:100D0800004078008A9FBE00C9FF070060004700C6
:100D18001B0020000C00200000007800B6FD070032
:100D28004F05BE000A20EC00F1FF37000800EC0078
:100D3800CCFF37004F0678000080FA00000006005C
:000D4800AB
:1005A4000000FA008A80FB00F00720000040780079
:1005B4000085600000C0AE0003003700446EA80050
:1005C400440EA90002003700446EA900444EA8005E
:0805D4000080FA00000006009F
:1005DC000000FA008A1F78008A80FB00008060000F
:1005EC00F007200000457800342EA900344EA900F5
:1005FC0000806000F00B20008080FB00004578003C
:10060C008080FB0000042000008070000040780017
:10061C000045780054010700580007004F0578008A
:08062C000080FA000000060046
:100400000000FA0000002800010020000058E10070
:100410000800310000E0E1003A804500AA004E00EB
:100420000001BE000000AE0002003700028DBE00D9
:100430001B0037000A017800620045001040780078
:100440000000AF0002003700610041001074A100FD
:10045000E2004100114078004100DE000080FB0016
:10046000804878001299450012114E0081407900B1
:10047000600041000080FB004100DD008048780002
:100480006000410000C0780000E0AE0002003700CC
:10049000620041001004A000600041001074A00040
:0804A0000080FA0000000600D4
:100FA0000000FA000420EF00800C210010407800BF
:100FB0006004E1000C003A00910B210050C0B30026
:100FC00080487800110C210070C0B3000040780008
:100FD00000802800E085880010202000F08588002F
:100FE00000022000D0858800020045001004E000C7
:100FF0000F00320002004500004078008A9FBE00CA
:10100000821F7800E7FD07004F05BE004F01780002
:10101000900B21000080FB00600040000B80FB0073
:1010200001004000804578000420EC00EEFF37000E
:081030000080FA000000060038
:1007A4000200FA008A1F7800020036006064E1004B
:1007B400630037008A80FB00A00B2100908050006A
:1007C4000080FB00900B21000008B80000037800B3
:1007D4000B45780080FF07000C457800590107009D
:1007E4000A20EF00900B21001080FB000028E1009C
:1007F40038003100F0C7B300005CE10001003600AE
:100804004F0037008A1F78000B45780064FF07000B
:100814000C4578004B0107000B4578006EFF07007C
:100824004F0578001FFF0700004798001DFF0700D1
:10083400004798008A1F78000B40780058FF070093
:100844000C4578003F0107000B40780062FF070069
:100854004F057800860178004F98DE000080410043
:10086400C20B2100A2004A00104078000041780029
:100874000C00EC0000E0EE00080037000040980097
:100884000C003700024798000A003700E0004700D8
:10089400600047001148690006003700606CE10001
:1008A400F6FF3200616CE100F6FF3200626CE10099
:1008B400F6FF32008A1F78000E459000DD00070025
:1008C4004F05780000C07800E0C545000A20EC0020
:1008D400C4FF37000B4078008A1F780030FF070000
:1008E4000C457800170107000B4578003AFF070014
:1008F4004F057800F0CFB3000220EF000C00370062
:1009040000479800004078008A1F7800C90007005B
:100914004F0578000A003700014098008A1F7800CC
:1009240001457800C3000700050037004F05780033
:10093400606CE100F2FF3200F7FF3200606CE1000E
:0C0944004F0578000080FA00000006005B
:1004A8000200FA00400EA800400EA800502EA80036
:1004B800500EA800300EA80030CEA80030AEA8001C
:1004C800308EA800D4010700D3010700342EA800FD
:1004D800346EA900340EA800346EA8008600070008
:1004E8006000470042EEAE000010A0001070A100AE
:1004F800600047001060A000420EAE000000A1009E
:10050800600047001050A000522EAE001050A1000D
:10051800640047000000A000520EAE001040A10089
:10052800600047001030A000326EAE000070A100DD
:10053800600047001020A00032CEAE001020A100BD
:100548000000A0006100470032AEAE001010A1000C
:10055800600047001000A0000040A100320EAE006D
:10056800346EA900344EA900AB010700AA010700A8
:10057800402EA900400EA900500EA900500EA90057
:1005880030EEA90030CEA90030AEA900300EA90087
:0C0598000E4090000080FA0000000600F9
:101138000800FA00100020000000980010002000AD
:10114800300798000020EF00100798000020EF00FB
:10115800208688006EFD07000000E20002003A00C9
:101168000020EF00A10037008A1F780060004700C8
:1011780000057800F4FD07004F057800010F2000F6
:10118800600047000008E1000C003A000020EF0072
:10119800300798005EFD07000000E20001003A00F9
:1011A800FCFF3700600047008A1F780000007800C5
:1011B800E5FD07004F05780037003700010E2000D5
:1011C800600047001C003A000008E10050FD0700DD
:1011D8000000E20001003A00FCFF37006000470011
:1011E8008A1F780000057800D7FD0700010F20004E
:1011F8004F057800600047001008E1000B003A0036
:101208000020EF000000980041FD07000000E20008
:1012180001003A00FCFF37008A1F78006000470091
:1012280000057800C8FD07004F0578002086880073
:1012380010002000180037007107200060004700E8
:101248001008E1000E003A00100020002007980066
:10125800660047001000E000080032000010A700F8
:10126800200C210003003700200C21001010A000E2
:1012780002003700200C21000000A1000600370002
:10128800110E2000600047001008E10002003A003B
:10129800000E200010079800400C21000C003200BE
:1012A8000000E0000E0090007200E10002003A0029
:1012B80000009800F00D2000C107200060004700E2
:1012C8001008E10002003A00F00D20001007980015
:1012D8000E0090007200E100050032009105200028
:1012E800600047001008E100010032000A003700E2
:1012F8001000200020079800660047001000E0005A
:10130800030032000000A000200C2100020037007A
:10131800200C21001050A1000010A700200C210073
:101328000600370031072000600047001008E10080
:1013380002003A000020EF002C0037001E00900049
:101348006000E10007003A000020EF002007980045
:101358008A1F78000E059000B7FD0700000098006E
:101368004F057800110E2000620047001008E100C8
:101378000D003A0010002000200798006600470082
:101388001000E000080032000020A700200C210017
:1013980003003700200C21001020A00002003700B5
:1013A800200C21000000A100810C200062004700F1
:1013B8001008E10006003100100020002007980006
:1013C800820C2000E2004700620047000000110084
:1013D8002E409000004D78004E409000004078006C
:1013E8006E409000004E7800100020000080FA0047
:0413F80000000600EB
:100718000000FA000420EF00DDFF0700E0FF0700FB
:100728000000E20002003A000200780012003700E0
:100738000020EF0002007800000078000008200088
:100748000010E10008003100528EAF0004003700AD
:1007580052AEAF000200370007003700100020003B
:100768000420EC00F5FF37000200E20001003A0027
:10077800AEFF0700010078000080FA0000000600C4
:0007880071
:100698000000FA0050AEA800000006000080FA0032
:0006A80052
:1006A8000200FA001000200000079800010820004E
:1006B800600047001008E1000A00360052AEAE00A4
:1006C8000108200003003700600047001088700010
:1006D8000300370011002000600047000080400040
:1006E800F2FF3700600047001070A1000E00900074
:0806F8000080FA00000006007A
:100634000000FA0050AEA900520EA9000080FA0092
:0406440000000600AC
:100950000000FA000C20EF00150020000820EF0036
:100960000620EF00010C210010C0B3000040780009
:100970000004E000000C21001600320032FF0700E6
:100980000000E20012003200520EAE0006003700F6
:10099000000C21001080FB000000730060806A00E2
:1009A0008002780002003700050078008602780097
:1009B000000C21004100DD000080FB00000C210044
:1009C0000148780005037800020078000000370035
:1009D000E7FF37001CFF07000000E20005003200BF
:1009E0000020EF000000EC00522EAF000002780063
:1009F0000000370014FF07000000E200040032008E
:100A00000020EF000000EC00522EAF000100370084
:100A10000300780007FF07000428E10004003A0003
:100A2000030032006000E10006007800010037009A
:100A30000020EF00000D7800000006000080FA00A2
:000A4000B6
:100648000000FA000420EF00F00F20000000E20094
:100658000C003200520EAF000220EF000220EC0026
:100668000400E200040032000200E20002003A0046
:100678001000200004003700010078000020ED0081
:10068800F2FF37000020EF000080FA0000000600AB
:0006980062
:100A40000000FA000220EF006050E10002003A00CE
:100A50000100780045003700200C21001010A6008E
:100A600011003700800620000050E1000E00360023
:100A70000050E100E00720000B003100700720006B
:100A80000050E100080032000000550090062000F0
:100A9000F0B9280081004000114078008080FB0000
:100AA0000100780031003700600055000005780033
:100AB000200C21001050A60016003700C0B12800FD
:100AC00000004000114078008080FB00200C2100D5
:100AD0000020A60000042000080037000008E10004
:100AE00008003600B00520000008E10008003100D1
:100AF0000002200000804000010037000100780063
:100B00000100370001007800000078000000370085
:100B10001500370090A9280000004000114078001F
:100B20008080FB00200C21000020A6000006200091
:100B3000080037000008E10008003600B007200078
:100B40000008E10008003100000220000080500091
:100B50000100370001007800010037000100780033
:100B60000000780000003700010078000080FA00E3
:040B7000000006007B
:100D98008A1F78008B1F78008C1F78008D1F7800C1
:100DA8001DC0B3001820EF00CBC3B3007A000700C2
:100DB8007A0121004087AE000D0037001DC0B30046
:100DC8001620EF0010C0B3004A022100720007008D
:100DD8008800200047122A000E20ED001000ED00C8
:100DE800FDFF3A00FCFF3A004087A9001D003700CC
:100DF80040E7AE000D00370010C0B3002CC0B300B0
:100E08001620EF008A0221006300070088002000F6
:100E180047122A000E00ED00FEFF3A001020ED00F8
:100E2800FCFF3A0040E7A9000E0037000D0037002C
:100E38004007AE001DC0B3003CC0B3001620EF0051
:100E48003A0121005400070047122A0088002000B8
:100E58000E20ED00FEFF3A001020ED00FCFF3A00E6
:100E68004007A9001C0121000B0121002A012100D3
:100E7800AF0007000000E20001003200F9FF370070
:100E880021022000000021001008E100C9FF3A00FB
:100E98000080880030062000CF0678004F067800D2
:0C0EA800CF0578004F0578000000060020
:1017040001002100009E28005B000900B018780049
:08171400B05878000000060047
:020000040001F9
:1000000000000000000000000000000000000000F0
:1000100000000000000000000000000000000000E0
:1000200000000000000000000000000000000000D0
:1000300000000000000000000000000000000000C0
:1000400000000000000000000000000000000000B0
:1000500000000000000000000000000000000000A0
:100060000000000000000000000000000000000090
:100070000000000000000000000000000000000080
:100080000000000000000000000000000000000070
:100090000000000000000000000000000000000060
:1000A0000000000080800000000000000000000050
:1000B0000000000000000000000000000000000040
:1000C0000000000000000000000000000000000030
:1000D0000000000000000000000000000000000020
:1000E0000000000000000000000000000000000010
:1000F0000000000000000000000000000000000000
:1001000000000000000000000000000000000000EF
:1001100000000000000000000000000000000000DF
:10012000000000000000000000000000008000004F
:100130004020000020100000101000000804000003
:10014000347A0000DE8000000000000000000000A3
:10015000000000000000000000000000000000009F
:10016000000000000000000000000000000000008F
:10017000000000000000000000000000000000007F
:10018000000000000000000000000000000000006F
:1001900000000000000000000080000040E00000BF
:1001A00038070000000000003F700000E0C00000C1
:1001B00080000000000000000000000000000000BF
:1001C000000000000000000000000000000000002F
:1001D00000000000004400000C98000038F8000007
:1001E00070E00000C00000000000000000000000FF
:1001F00000000000000000000000000000000000FF
:1002000000000000000000000000000000000000EE
:1002100000000000000000000000000000000000DE
:100220000000000000000000804000007C1B000077
:10023000000000000010000020380000FCF6000064
:10024000E2FE0000FFFF0000FEC00000C0C0000092
:10025000C0C00000C0C0000080800000800000001E
:10026000000000000000000000000000000000008E
:10027000000000000000000000000000000000007E
:10028000000000000000000000000000000000006E
:1002900000000000003C0000D3800000800000004F
:1002A0000030000040C00000A8F800008CFF0000F3
:1002B000FFFE0000F8C0000080800000C040000089
:1002C0002020000010100000108800008888000026
:1002D000888800009674000058B700005EBF0000D8
:1002E0007D3A0000053F0000F8C00000000000005B
:1002F00000000000000000000000000000000000FE
:1003000000000000000000000000000000000000ED
:100310000000000000000000E0FE0000F880000087
:100320000000000000000000070A0000101000009C
:10033000F4F00000F0F80000F8FE0000FFDF00001D
:100340008F87000083C30000E3E70000DF8F000019
:100350004F3D0000F830000031610000C1C30000D3
:10036000E3620000FE3C00001CF80000B0600000EA
:10037000000000000000000000000000000000007D
:10038000000000000000000000000000000000006D
:1003900000000000000000000F11000028E0000035
:1003A000E0E80000E0F80000F7FF0000FF7F000039
:1003B0007F7F00007F7F00003F1F00000FFF0000D5
:1003C0007F7700002727000027430000C383000039
:1003D000030100003B7F00007DF00000E0F0000022
:1003E000F8F40000E01E000003010000000000001F
:1003F00000000000000000000000000000000000FD
:1004000000000000000000000000000000000000EC
:1004100000000000000000001F670000831F0000B4
:100420003C780000F0F00000E0E00000C0C00000F8
:10043000C16700003F1F000038100000302100009D
:10044000212100002121000031930000FFFF000066
:100450007A7900007D7E0000F8F00000E080000066
:10046000010200000403000002010000000000007F
:10047000000000000000000000000000000000007C
:10048000000000000000000000000000000000006C
:100490000080000060100000888800008486000052
:1004A000CFFF00003F1F00001F1D0000186000006C
:1004B000800000000000000008140000275A00001F
:1004C0008A05000001030000030F00001F3F000029
:1004D000FFFE0000F8F00000F8E8000084030000D0
:1004E000C03000000D00000000000000000000000F
:1004F00000000000000000000000000000000000FC
:1005000000000000000000000000000000000000EB
:1005100000000000000000000000000001020000D8
:1005200004080000103300003F7F00007FFF000040
:10053000F0C00000C0C00000F0F80000FDFE0000A8
:10054000FEFE0000FEFE00007F7300004180000000
:100550008080000080800000C0E00000F3FF000009
:10056000FEF80000E00000000000000000000000B5
:10057000000000000000000000000000000000007B
:100580000000000000000000000000000018000053
:10059000262F0000121700001C08000007030000AF
:1005A000010000000000000000000000000E00003C
:1005B0003141000042C40000E4FC0000F8F80000F3
:1005C000F0F10000E3E40000E42800002C1E00002D
:1005D000171300000B0900000504000002010000D1
:1005E000000000000000000000000000000000000B
:1005F00000000000000000000000000000000000FB
:1006000000000000000000000000000000000000EA
:1006100000000000000000000000000000000000DA
:1006200000000000000000000000000000040000C6
:100630000A0F000017170000170F0000171700001F
:100640001F07000003000000000000000000000081
:1006500008150000171F00002F2F00002F1F00009B
:100660002F270000170F0000060000000000000008
:10067000000000000000000000000000000000007A
:10068000000000000000000000000000000000006A
:10069000000000000000000000000000000000005A
:1006A000000000000000000000000000000000004A
:1006B000000000000000000000000000030D00002A
:1006C000140C0000110F00000403000000000000E3
:1006D000000000000000000000000000000000001A
:1006E000000000000000000000000000000000000A
:1006F00000000000000000000000000000000000FA
:1007000000000000000000000000000000000000E9
:10092000000000000000000000C0000020100000D7
:100930000008000008080000080000001010000077
:10094000A0C0000000000000000000000000000047
:100950000000000000000000000000000000000097
:100960000000000000000000000000000000000087
:100970000000000000000000000000000000000077
:100980000000000000000000000000000000000067
:1009900000000000000000000000000000800000D7
:1009A0008040000040400000404000008080000087
:1009B0000000000000000000000000000000000037
:1009C0000000000000000000000000000000000027
:1009D0000000000000000000000000000000000017
:1009E0000000000000000000000000000000000007
:1009F00000000000000000000000000000000000F7
:100A000000000000000000000000000000000000E6
:100A100000000000000000000000000000000000D6
:100A20000000000000000000DF3E00003810000061
:100A300000000000001000001CAE00007FFC000061
:100A4000FCFF0000FFF0000080000000000000003C
:100A500000000000000000000008000070E000003E
:100A6000C0000000000000000000000000000000C6
:100A70000000000000000000000000000000000076
:100A80000000000000000000000000000000000066
:100A90000000000000000000788600000100000057
:100AA00000000000000000001C2400007C78000012
:100AB000310600001860000080000000F0380000DF
:100AC000D408000014180000F000000000800000AE
:100AD00000C00000B00000000000000000000000A6
:100AE0000000000000000000000000000000000006
:100AF00000000000000000000000000000000000F6
:100B000000000000000000000000000000000000E5
:100B100000000000000000000000000000000000D5
:100B200000000000000000000102000004080000B6
:100B300008880000C83C00001A1D00008E4F00000D
:100B4000371B0000030700008FFE0000F870000054
:100B50004080000000000000000000000083000052
:100B6000FFFF0000FCF0000000000000000000009B
:100B70000000000000000000000000000000000075
:100B80000000000000000000000000000000000065
:100B90000070000098080000684900000F30000055
:100BA00040C00000808000005040000020980000FD
:100BB00097480000300C0000010600000100000012
:100BC00000C00000700E000001000000010A0000DB
:100BD000150B0000976F00009E0000000000000051
:100BE0000000000000000000000000000000000005
:100BF00000000000000000000000000000000000F5
:100C000000000000000000000000000000000000E4
:100C100000000000000000000000000000000000D4
:100C20000000000000000000001C0000322900004D
:100C3000211000001F600000800E00001914000049
:100C400018080000043E00008701000000000000BA
:100C50000000000083FC0000FCFE00007F3F00005D
:100C60001F0F000003000000000000000000000053
:100C70000000000000000000000000000000000074
:100C80000000000000000000000000000000000064
:100C9000000000000001000001020000020200004C
:100CA00007870000F70F00000101000001000000AD
:100CB0000000000000000000804000000000000074
:100CC000010300001C7000009010000088880000E4
:100CD000C4E20000F93E00000F0000000000000028
:100CE0000000000000000000000000000000000004
:100CF00000000000000000000000000000000000F4
:100D000000000000000000000000000000000000E3
:100D100000000000000000000000000000000000D3
:100D200000000000000000000000000000000000C3
:100D30000080000040200000201100000A8C00000C
:100D40009CF80000F8E8000008050000067C0000A0
:100D5000840600008F1D000038F00000E0C0000095
:100D60008000000000000000000000000000000003
:100D70000000000000000000000000000000000073
:100D80000000000000000000000000000000000063
:100D9000000000000000000000000000804E000085
:100DA0005120000020430000CCF80000F0F00000CB
:100DB00060200000203E000039700000E0E00000EC
:100DC00040400000406000005F8700000703000013
:100DD000030100000000000000000000000000000F
:100DE0000000000000000000000000000000000003
:100DF00000000000000000000000000000000000F3
:100E000000000000000000000000000000000000E2
:100E100000000000000000000000000000000000D2
:100E200000000000000000000000000000000000C2
:100E300000010000020300000202000003020000A3
:100E4000030100000100000000000000000000009D
:100E5000010200000203000002030000030300007F
:100E60000100000000000000000000000000000081
:100E70000000000000000000000000000000000072
:100E80000000000000000000000000000000000062
:100E90000000000000000000000000000001000051
:100EA000010100000101000001010000010000003B
:100EB000000000000000000000000000010200002F
:100EC0000202000002020000020100000000000017
:100ED0000000000000000000000000000000000012
:100EE0000000000000000000000000000000000002
:100EF00000000000000000000000000000000000F2
:100F000000000000000000000000000000000000E1
:100F100000000000000000000000000000000000D1
:100F200000000000000000000000000000000000C1
:100F300000000000000000000000000000000000B1
:100F400000000000000000000000000000000000A1
:100F50000000000000000000000000000000000091
:100F60000000000000000000000000000000000081
:100F70000000000000000000000000000000000071
:100F80000000000000000000000000000000000061
:100F90000000000000000000000000000000000051
:100FA0000000000000000000000000000000000041
:100FB0000000000000000000000000000000000031
:100FC0000000000000000000000000000000000021
:100FD0000000000000000000000000000000000011
:100FE0000000000000000000000000000000000001
:100FF00000000000000000000000000000000000F1
:10100000000000000000000000000000005F000081
:1010100000000000000700000007000000140000AE
:101020007F1400007F140000242A00007F2A0000A3
:10103000122300001308000064620000364900001B
:1010400055220000500000000503000000000000D1
:10105000001C0000224100000000000041220000AE
:101060001C000000082A00001C2A000008080000DC
:10107000083E00000808000000500000300000009A
:101080000008000008080000080800000030000008
:1010900030000000002000001008000004020000E2
:1010A0003E510000494500003E000000427F000024
:1010B000400000004261000051490000462100004C
:1010C000414500004B31000018140000127F000061
:1010D0001027000045450000453900003C4A00004B
:1010E00049490000300100007109000005030000BB
:1010F0003649000049490000360600004949000011
:10110000291E00000036000036000000000000002C
:101110005636000000000000000800001422000005
:1011200041140000141400001414000041220000B7
:101130001408000000020000015100000906000030
:1011400032490000794100003E7E0000111100008C
:10115000117E00007F49000049490000363E000032
:1011600041410000412200007F4100004122000077
:101170001C7F000049490000494100007F09000030
:1011800009010000013E0000414100005132000011
:101190007F080000080800007F000000417F000079
:1011A0004100000020400000413F0000017F00009E
:1011B00008140000224100007F4000004040000071
:1011C000407F000002040000027F00007F04000056
:1011D000081000007F3E000041410000413E000039
:1011E0007F09000009090000063E0000415100008F
:1011F000215E00007F09000019290000464600001A
:101200004949000049310000010100007F01000050
:10121000013F000040400000403F00001F20000050
:10122000402000001F7F000020180000207F0000E9
:101230006314000008140000630300000478000039
:101240000403000061510000494500004300000014
:10125000007F00004141000002040000081000006F
:1012600020410000417F0000000000000402000057
:101270000102000004400000404000004040000027
:10128000000100000204000000200000545400008F
:10129000547800007F4800004444000038380000C3
:1012A000444400004420000038440000444800004A
:1012B0007F3800005454000054180000087E0000DD
:1012C000090100000208000014540000543C000012
:1012D0007F0800000404000078000000447D000046
:1012E0004000000020400000443D000000000000DD
:1012F0007F10000028440000004100007F400000F3
:10130000007C000004180000047800007C08000045
:101310000404000078380000444400004438000011
:101320007C140000141400000808000014140000CD
:10133000187C00007C08000004040000084800003D
:101340005454000054200000043F000044400000BA
:10135000203C000040400000207C00001C200000D9
:10136000402000001C3C000040300000403C0000D9
:101370004428000010280000440C000050500000D9
:10138000503C000044640000544C00004400000045
:101390000836000041000000000000007F0000004F
:1013A00000000000413600000800000008080000AE
:1013B0002A1C0000080800001C2A00000808000081
:0413C0000000000029
:1013C4004C610000626F000072610000746F0000E5
:0C13D400726900006F2000003100000072
:0413E0000000000009
:1013E400005000004F520000005500006C740000D3
:1013F400696D00006F2000005265000073650000F5
:041404007400000070
:081408005744000054000000ED
:101410004D4300004C520000004300006173000087
:101420006F200000422000000050000072650000A4
:10143000736900006F6E0000652000002741000006
:10144000272000007061000072610000204300004E
:0C145000617300006F20000031000000FC
:10145C005072000065730000696F00006E6500003B
:10146C00202700004427000020700000617200005B
:10147C006120000057440000542000002020000090
:10148C0000430000617300006F2000004100000069
:10149C005072000065730000696F00006E650000FB
:1014AC00202700004227000020700000617200001D
:1014BC006120000043610000736F000020320000C7
:1014CC0000430000617300006F2000004420000006
:1014DC0000450000727200006F6E0000656F000026
:0414EC0020000000DC
:1014F0005072000065730000696F00006E650000A7
:1015000020270000432700002070000061720000C7
:101510006120000043610000736F00002033000071
:1015200000430000617300006F20000043200000B2
:1015300000D1000000CD0000CBC90000CAD40000DB
:10154000D3D20000D0CE0000CCEB00006000000041
:1015500000DE0000DD000000DC7100003100000052
:10156000000000007A7300006177000032DB0000A9
:1015700000630000786400006534000033DB000085
:101580000020000076660000747200003500000044
:10159000006E0000626800006779000036000000FD
:1015A000000000006D6A0000753700003800000080
:1015B000002C00006B6900006F3000003900000053
:1015C000002E00002F6C00003B7000002D0000007A
:1015D00000000000270000005B3D0000000000004C
:1015E000E1DD0000D55D0000005C000000000000AF
:1015F000000000000000000000000000D800000013
:1016000000E2000000E60000E3000000000000002F
:10161000D9DA0000E9350000E7E80000EAE500005B
:10162000D32B0000D72D00002AD60000E4000000D4
:081630000000000000CF0000E3
:10163800D1000000CDCB0000C9CA0000D4000000D2
:10164800D2D00000CECC0000EB7E000000000000ED
:10165800DEDD000000DC0000512100000000000079
:10166800005A00005341000057400000DB00000012
:10167800435800004445000024230000DB0000001C
:1016880020560000465400005225000000000000CB
:101698004E42000048470000595E0000000000006C
:1016A800004D00004A550000262A000000000000F6
:1016B8003C4B0000494F00002928000000000000B2
:1016C8003E3F00004C3A0000505F00000000000060
:1016D80000220000007B00002B00000000E1000059
:1016E800DDD500007D0000007C0000000000000047
:1016F800000000000000000000D80000000000000A
:10170800E2000000E6E300000000000000D900004D
:10171800DAE9000035E70000E8EA0000E5D3000058
:101728002BD700002D2A0000D6E40000000000009E
:1017380000000000CF310000003400003700000036
:1017480000000000302E000032350000363800005E
:1017580000000000002B0000332D00002A39000093
:0200000401F009
:1C0008000300000087000000A70000007F0000003F000000D70000000300000013
:00000001FF
