:10000000D612040000000000000000000000000004
:1000100000000000000000000000000000000000E0
:1000200000000000000000000000000000000000D0
:1000300000000000000000000000000000000000C0
:1000400000000000000000000000000000000000B0
:1025AC008F0E2100F0FF270020A0B7001020200084
:1025BC0032A0B700400020004420B70036150200BE
:1025CC00000000008A1F78008B1F78008C1F780099
:1025DC008D1F78002E2EEF003E2EEF004E2EEF00BA
:1025EC00142EEF00102EEF001E2EEF00A6FC07009D
:1025FC00102020007DC0B3005CC0B3000000780048
:10260C000A80280000022000801F7800EFFD0700E0
:10261C002F00B1001420EF0098FD0700E4FD070027
:10262C001DC0B3001820EF00FBC1B300BAFD0700BA
:10263C001A042100E8022000A76D2C000E20ED00EA
:10264C00FEFF3A001020ED0000000000000000002A
:10265C00FAFF3A00000000000000000014AEEE008B
:10266C001DC0B300F0C1B3001820EF00AA01210077
:10267C00A9FD0700CAFC0700E80220000E00ED00CF
:10268C00A76D2C00FEFF3A001020ED00FCFF3A0075
:10269C00000000000000000000000000000000002E
:1026AC0016FF0700E8022000A76D2C000E20ED009D
:1026BC00FEFF3A001020ED00FCFF3A000000000085
:1026CC0000000000000000000000000033FF0700C5
:1026DC00E8022000A76D2C000E00ED001000ED00AC
:1026EC00FDFF3A00FCFF3A00000000000000000073
:1026FC00000000000000000061FE0700A76D2C0028
:10270C00E80220000E20ED00FEFF3A001020ED0044
:10271C00FCFF3A0000000000000000000000000078
:10272C00B8FD070000000000E8022000A76D2C0097
:10273C000E20ED00FEFF3A001000ED00000000003E
:10274C00FBFF3A0000000000000000000000000049
:10275C007AFC0700E8022000A76D2C000E00ED00AB
:10276C00FEFF3A001020ED00FCFF3A0000000000D4
:10277C000000000000000000000000001420EF002A
:10278C003EFD07001DC0B3001CC0B3001620EF00B7
:10279C000A00210060FD070010C0B3002CC0B3007C
:1027AC001620EF009A0921005BFD07001DC0B30045
:1027BC001620EF0030C0B3002A0B210056FD070095
:1027CC001DC0B3004CC0B3001620EF0052FD070033
:1027DC008A022100E8022000A76D2C000E20ED00DB
:1027EC00FEFF3A001020ED00000000000000000089
:1027FC00FAFF3A0000000000000000002102200057
:10280C00200521001008E1008F0032009C012100FE
:10281C000B052100FA04210023FB07000000E20055
:10282C008800320015FD07001420EF0070003700FF
:10283C001DC0B3001820EF00C0C3B30036FD070065
:10284C004A05210008012000872424000E20ED00F9
:10285C00FEFF3A001000ED0000000000FBFF3A0004
:10286C00000000000000000000000000F004210047
:10287C001080FB0090828800720037001DC0B300EE
:10288C001820EF00CBC3B300BA05210022FD0700CE
:10289C0087242400080120000E20ED00FEFF3A00E2
:1028AC001020ED00FCFF3A000000000000000000CA
:1028BC0000000000000000000080FB00F00421007C
:1028CC00908288005F0037001DC0B3001820EF0015
:1028DC00BA072100C0C3B3000FFD07000801200098
:1028EC00872424000E20ED00FEFF3A00FDFF3A0085
:1028FC001000ED00000000000000000000000000CF
:10290C000000000099FB0700F00421009082880071
:10291C000080FB004B0037001DC0B3001820EF00F7
:10292C00CBC3B300FCFC07003A06210008012000D1
:10293C00872424000E20ED00FEFF3A001020ED004D
:10294C000000000000000000FAFF3A000000000048
:10295C0000000000F00421001080FB009082880031
:10296C003800370010C0B3001820EF00CBC3B30001
:10297C00BA062100E8FC0700080120000E00ED005B
:10298C0087242400FEFF3A001020ED00FCFF3A00E3
:10299C00000000000000000000000000000000002B
:1029AC000080FB00F0042100908288002500370095
:1029BC001DC0B3001820EF00C0C3B300D6FC070045
:1029CC003A08210008012000872424000E20ED0085
:1029DC00FEFF3A001000ED0000000000FBFF3A0083
:1029EC00000000000000000000000000150037008F
:1029FC0011062000200521000008E1008CFF3200A8
:102A0C0021062000200521001008E1009BFF320068
:102A1C003106200020052100ABFF32000008E10048
:102A2C0041062000200521001008E100BAFF320009
:102A3C00210220000008E10020052100C9FF32001E
:102A4C00DBFF37006DFF370004FF3700CF0678003F
:102A5C004F067800CF0578004F057800FFFF370050
:002A6C006A
:101894000000FA008A1F7800910D21000020EF005B
:1018A400804878000020EF0000878800400EA900DF
:1018B400306EA900302EA900304EA900400EA900B8
:1018C400404EA900448EA900402EA900400EA90054
:1018D400500EA900500EA90030EEA90030CEA90088
:1018E400300EA900308EA900342EA900344EA90070
:1018F400440EA900444EA800448EA8002BFD070006
:101904004CFD0700F0C3B30075FD07000ACCB3001B
:1019140048FD070072FD0700446EA800444EA9006C
:1019240044FD0700F0C3B3006DFD07000ACCB3000B
:1019340040FD07006AFD07004F0578000080FA00AB
:041944000000060099
:100DB0000000000000000000000000000000000033
:080DC000000000000000060025
:100E38000000FA0014E0AE00422EA90014E0AF0052
:100E4800422EA8001400AE0000000000420EA900C7
:100E580014C0AF00420EA8000000000052AEA90066
:100E68001420AE0014A0AF00522EA800000000000D
:100E78001480AE001400AF00528EA900520EA800D4
:100E8800000000001460AE0032EEA900326EA80027
:100E980014E0AF00000000001440AE0032CEA900FC
:100EA8001440AF00320EA800000000001420AE006D
:100EB80032AEA9001420AF0032AEA8000000000036
:100EC8001400AE00328EA9001400AF00328EA800C4
:0C0ED800000000000080FA00000006008E
:100EE4000000FA0098FE0700340EA80096FE0700E2
:0C0EF400346EA9000080FA000000060027
:10094C00A70020000E20ED00FEFF3A000000000082
:08095C0000000000000006008D
:101DD8000000FA000E009000DA868800EB86880082
:101DE800F0868800100521000C487800800D21003D
:101DF8000D487800910D210010C0B300804878008C
:081E08000080FA000000060052
:101C88000000FA00446EA900440EA8000420EF00EA
:101C98006710E1000D003E008A1F780002457800B9
:101CA800F5FD07004F0578000220EF00F003200043
:101CB8000008E10003003E00ABFD07000220EC0035
:101CC800FAFF37000420EC00F1FF3700444EA9006A
:101CD800446EA8000420EF006010E1000D003E00F3
:101CE8008A1F780002457800E3FD07004F05780059
:101CF8000220EF00F00320000008E10003003E008E
:101D080099FD07000220EC00FAFF37000400EC0000
:0C1D1800F1FF37000080FA000000060018
:101480000000FA008A1F7800340EA900340EA9006B
:101490008A80FB00800B20000080700000457800EF
:1014A00065FE07008FFE07004F0578000080FA00F8
:0414B0000000060032
:101370000000FA00340EA900340EA800344EA90073
:10138000ADFE0700D7FE07000080FA00000006004F
:001390005D
:101DBC000000FA00500EA800500EA8000020EF0002
:0C1DCC00208788000080FA00000006005C
:101D24000000FA000420EF00900D2100104078001C
:101D34006004E1000C003A001105210050C0B3001A
:101D440080487800810D210070C0B3000040780005
:101D540000802800D086880010202000E0868800BB
:101D640000022000F0868800020045001004E00014
:101D74000F00320002004500004078008A9FBE0038
:101D8400821F7800D2FC07004F05BE004F01780087
:101D9400100521000080FB00600040000B80FB0068
:101DA40001004000804578000420EC00EEFF37007D
:081DB4000080FA0000000600A7
:1010D4000200FA008A1F7800020036006064E10012
:1010E400630037008A80FB00E00D210090805000EF
:1010F4000080FB00100521000008B8000003780000
:101104000B45780065FD07000C457800DB000700FF
:101114000A20EF00100521001080FB000028E100E8
:1011240038003100F0C7B300005CE1000100360074
:101134004F0037008A1F78000B4578006DFD0700CB
:101144000C457800CD0007000B45780053FD0700DF
:101154004F05780012FD07000047980010FD0700B6
:10116400004798008A1F78000B40780061FD070053
:101174000C457800C10007000B40780047FD0700CC
:101184004F057800860178004F98DE00008041000A
:10119400A20D2100A2004A0010407800004178000E
:1011A4000C00EC0000E0EE0008003700004098005E
:1011B4000C003700024798000A003700E00047009F
:1011C400600047001148690006003700606CE100C8
:1011D400F6FF3200616CE100F6FF3200626CE10060
:1011E400F6FF32008A1F78000E4590005F0007006A
:1011F4004F05780000C07800E0C545000A20EC00E7
:10120400C4FF37000B4078008A1F780039FD0700BF
:101214000C457800990007000B4578001FFD070076
:101224004F057800F0CFB3000220EF000C00370028
:1012340000479800004078008A1F78004B000700A0
:101244004F0578000A003700014098008A1F780093
:101254000145780045000700050037004F05780078
:10126400606CE100F2FF3200F7FF3200606CE100D5
:0C1274004F0578000080FA000000060022
:1006A0000000FA008A1F78008A80FB00008060004A
:1006B000F007200000457800342EA900344EA90030
:1006C00000806000F00B20008080FB000045780077
:1006D0008080FB0000042000008070000040780053
:1006E00000457800D4010700FE0107004F0578009F
:0806F0000080FA000000060082
:1006F8000000FA008A80FB00F00720000040780024
:100708000085600000C0AE0003003700446EA800FA
:10071800440EA90002003700446EA900444EA80008
:080728000080FA000000060049
:1005A4000200FA00400EA800400EA800502EA80039
:1005B400500EA800300EA80030CEA80030AEA8001F
:1005C400308EA800F9010700F8010700342EA800B6
:1005D400346EA900340EA800346EA800DA000700B7
:1005E4006000470042EEAE000010A0001070A100B1
:1005F400600047001060A000420EAE000000A100A1
:10060400600047001050A000522EAE001050A10010
:10061400640047000000A000520EAE001040A1008C
:10062400600047001030A000326EAE000070A100E0
:10063400600047001020A00032CEAE001020A100C0
:100644000000A0006100470032AEAE001010A1000F
:10065400600047001000A0000040A100320EAE0070
:10066400346EA900344EA900D0010700CF01070061
:10067400402EA900400EA900500EA900500EA9005A
:1006840030EEA90030CEA90030AEA900300EA9008A
:0C0694000E4090000080FA0000000600FC
:1019AC008B1F78008A1F78008C1F78008D1F7800A1
:1019BC000DC4B300FCC7B3008BC0B3001420EF0000
:1019CC000020EF004BFD0700801F78002F00B100B6
:1019DC003D0120005C0120004B0120005A01200039
:1019EC0080102900801F780030012000801F7800B3
:1019FC0010202000801F780050012000801F7800EC
:101A0C00D5FB07004F00B100580020000E00ED0080
:101A1C00273E2900FEFF3A001020ED00FCFF3A00A3
:101A2C00000000000DC4B300FBC7B3008CC0B300B2
:101A3C001420EF000020EF00801F78002DFD070020
:101A4C002F00B1003D0120005A0120004B01200065
:101A5C005C012000900C2900801F780010202000D1
:101A6C00801F780030012000801F7800500120007A
:101A7C00801F7800B8FB07004000B1005800200020
:101A8C00273E29000E20ED00FEFF3A001020ED004D
:101A9C00FCFF3A0000C4B30000000000FCC7B30018
:101AAC008BC0B3001420EF000020EF00801F7800E3
:101ABC0010FD07002000B1003D0120005C0120005A
:101ACC004B0120005A012000A0082900801F78003B
:101ADC0010202000801F780030012000801F78002B
:101AEC0050012000801F78009BFB07004F00B100C5
:101AFC0058002000273E29000E00ED001000ED00DC
:101B0C00FDFF3A00FCFF3A00000000000DC4B300DA
:101B1C00FCC7B3008BC0B300801F78000020EF001F
:101B2C001420EF00F3FC07002F00B1003D01200052
:101B3C005C0120004B0120005A01200010202000E5
:101B4C00801F780060182900801F78003001200069
:101B5C00801F780050012000801F78007EFB07005A
:101B6C004F00B100273E2900580020000E20ED0048
:101B7C00FEFF3A001020ED00FCFF3A0000000000D0
:101B8C000CC4B300FDC7B3008BC0B3001420EF002E
:101B9C000020EF00801F7800D6FC07002F00B1005A
:101BAC005C0120003D0120004B0120005A01200067
:101BBC0070142900801F780010202000801F7800EE
:101BCC0030012000801F780050012000801F780019
:101BDC0061FB07004F00B10058002000273E290090
:101BEC000E20ED00FEFF3A001000ED00000000009A
:101BFC00FBFF3A000DC4B300FCC7B3008BC0B300AD
:101C0C001420EF000020EF00801F7800B9FC0700C3
:101C1C002F00B1003D0120005C0120004B01200091
:101C2C005A012000B0042900801F780010202000E9
:101C3C00801F780030012000801F780050012000A8
:101C4C00801F780044FB07004F00B10058002000B3
:101C5C00273E29000E00ED00FEFF3A001020ED009B
:101C6C00FCFF3A0000000000CF0678004F06780019
:0C1C7C00CF0578004F057800000006003E
:100F00000000FA008A1F78008B1F78008D1F780080
:100F10000E4090008C9FBE008A9FBE008C1F780000
:100F2000834678000B467800CF05780074FD0700F3
:100F30004F05BE004F06BE008C9FBE008A9FBE00BC
:100F40008C4578000D467800034078006CFD070062
:100F50004F05BE004F06BE008C9FBE008B1F780061
:100F60000A4678000B4078008D457800834678006B
:100F7000EFFD07004F06BE00CF0578000B45780057
:100F80008D45780083467800E9FD0700CF0678009C
:100F9000CF0578004F0578000080FA0000000600B9
:000FA00051
:100500000000FA006064E10004003900F0C3B300A9
:100510000064E10001003E00010037001F003700C9
:100520006054E100010031001420EF00F0C7B30077
:10053000020036000054E100FAC7B300605CE1003D
:10054000010031001620EF00F0C7B300005CE100AD
:1005500001003600F0C7B3000B54E1000300360081
:100560000A80FB000B407800804578000B003E00BD
:100570000054E1008C1F78008A9FBE008C457800F3
:100580000D4678009EFF07004F05BE004F0678001D
:100590006140450000457800F4FF37000080FA0014
:0405A0000000060051
:100400000000FA008A1F78006054E10009003900FA
:10041000F0C7B3000054E10006003E00605CE1005C
:1004200004003900F0C3B300005CE10001003E00AD
:10043000010037002F0037008A1F7800AE00070048
:100440000B80FB004300DE00004078000C04070036
:100450004F0578008A1F7800910007004F0578004B
:100460003A0107004F000700380107004D00070060
:1004700000417800350107000B80FB004300DE00DF
:10048000004078008A1F7800FD0307004F057800C0
:1004900083000700600060000B80FB008080FB0091
:1004A000100020000100DD008040780000C0EE0058
:1004B0000700370080406100014078000B003700E2
:1004C0000040710009003700004069000700370054
:1004D0006064E100F7FF32006164E100F8FF320080
:1004E0006264E100F8FF32000240780000457800C5
:1004F0009F0307004F0578000080FA000000060007
:00050000FB
:100730000000FA006064E10004003900F0C7B30073
:100740000064E10001003E00010037002000370096
:100750006054E100010031001420EF00F0C3B30049
:10076000020036000054E100FAC3B300605CE1000F
:10077000010031001620EF00F0C3B300005CE1007F
:1007800001003600F0C3B3000B54E1000300360053
:100790000A80FB000B407800804578000C003E008A
:1007A0000054E1008C1F78008A9FBE008A457800C3
:1007B0000C4578000D40780011FF07004F05BE0082
:1007C0004F0678006140450000407800F3FF370095
:0807D0000080FA0000000600A1
:100964001600FA004EB8970040BF9F00EE0D9000AD
:10097400800598001EB89700AEB8970010BF9F007E
:1009840021BF9F00AEB897001EB89700100F9800C3
:10099400210F98000020EF00400798000020EF008E
:1009A400000098000C004500E1005000F007200012
:1009B4000008E10003003600000050000008200099
:1009C400000678000D804500E1005000F00320008F
:1009D400040036000008E100000420000B00500071
:1009E400800678004358DE00004278008D80450080
:1009F400618050004300DE0000407800678065009D
:100A0400004478006E806000804398006A005700BC
:100A14001068E10002003100274798000500370004
:100A24006A005700108045000020ED004300DE00FE
:100A3400204798000E009000670060006000E1000D
:100A440006003A003E009000C305DE00680157002E
:100A54001218B80070079800060037000E009000C6
:100A6400C305DE00E1014000680157001218B80018
:100A740070079800000098000480FB00044178008F
:100A8400600047008780FB001008E100C5003900C2
:100A94000020EF0060079800000098000020EF009D
:100AA40008437800874278000240780066004700D7
:100AB4001060E100A9003600600047001000450006
:100AC4008A1F7800004578000AFF07006B020700C0
:100AD4000E4090004F057800BE009000680057005B
:100AE4001008E1003C003100620047009080FB00E8
:100AF400640047001008E100370039008480FB00DF
:100B0400640047001008E10003003A000420EF00ED
:100B140002407800140037001EB89700AEB8970062
:100B2400100F980001009800EE0090006A00470042
:100B340090804000720047008C1F78008A9FBE009E
:100B4400010078000006EB000005780050FF070064
:100B54004F05BE004F0678000E009000104078004C
:100B64000041780002407800CE0090006E004700FB
:100B74001008E100030039000020EF00005798003E
:100B8400130037001EB89700AEB89700110F9800F5
:100B9400200F9800EE00900068004700908040000D
:100BA40072004700010078008A9FBE008C1F780005
:100BB4000006EB000005780035FF07004F05BE0076
:100BC4000E0090004F0678001040780000579800FF
:100BD40007407800030037000020EF000040980031
:100BE4000420EF000E509000004798006034E100AC
:100BF4000A0036000680FB00E80010000280FB00BB
:100C04000100DE00620047009080FB000680FB00CC
:100C14008008DD0060004700014871008480FB000B
:100C2400640047001008E10019003A006034E10054
:100C34001700360066004700100045008A1F780040
:100C44000045780095FE07004F05780054FE070024
:100C540053FE07008680FB00F10F20006080100027
:100C64000209DE008080FB000280FB00008160003E
:100C7400F10F20000680FB000008DD006100470042
:100C84001080FB00810060006000470002C8700013
:100C94008580FB00640047001008E1001C003A0056
:100CA4001E4090001A0036006004E1006600470010
:100CB400100045008A1F78000040780077FE070086
:100CC4004F05780036FE070035FE0700F20F2000BE
:100CD400E10047009180FB008110DD000080FB00F3
:100CE400810160000080FB0060004700E800100004
:100CF400F00F20000101DE00600047009080FB003F
:100D0400008060000280FB006000470003C87000A0
:100D14000E089000E30057001008E10003003100C2
:100D2400EE0090006C0047006080400066004700C1
:100D3400100045008A1F78000045780057FE070020
:100D44000E409000890107004F057800BE00900016
:100D5400660047006080400054FF3700620047008F
:100D64009080FB00640047000008E10006003600A4
:100D74004E009000500798004E0190006800570004
:100D8400E800470011084100AE00900064004700ED
:100D94006080400004407800854378000644780071
:0C0DA40037FF37000080FA000000060056
:100894000000FA0000002800010020000058E100D8
:1008A4000800310000E0E1003A804500AA004E0053
:1008B4000001BE000000AE0002003700028DBE0041
:1008C4001B0037000A0178006200450010407800E0
:1008D4000000AF0002003700610041001074A10065
:1008E400E2004100114078004100DE000080FB007E
:1008F400804878001299450012114E008140790019
:10090400600041000080FB004100DD008048780069
:100914006000410000C0780000E0AE000200370033
:10092400620041001004A000600041001074A000A7
:080934000080FA00000006003B
:102308008A1F78008B1F78008C1F78008D1F78003B
:10231800CB0620006A8055001C0032001420EF0014
:1023280057FE07008B1F78002D0120002C0120008C
:102338000B0578008B012000501C2900801F7800B5
:1023480010202000801F780020012000801F7800C6
:1023580020012000801F780080F907004F00B1009D
:10236800CF057800480020000E00ED0017092D0069
:10237800FEFF3A001020ED00FCFF3A0000000000CC
:102388000000000000000000E2FF3700CF067800E0
:102398004F067800CF0578004F057800000006004A
:0023A80035
:1023A8008A1F78008D1F78008C1F78008B1F78009B
:1023B8000DC4B300FCC7B3008BC0B3001420EF00FA
:1023C80010002000801F7800CBFA07002000B10021
:1023D8002D0220003C0220000B012000FA032000FF
:1023E800D0BE2800801F780010202000801F7800B1
:1023F80030022000801F780020022000801F780013
:1024080056F907004F00B100D8042000D7B62400C1
:10241800FFFF3A000E00ED001020ED00FCFF3A002F
:1024280000000000000000000DC4B300FCC7B300AA
:102438001420EF0080C0B30010002000801F780037
:10244800ADFA07002F00B1002D0220003C02200049
:10245800009E2800FA0320000B012000801F78004E
:1024680010202000801F780020022000801F7800A4
:1024780030022000801F780038F907004000B100C2
:10248800D8042000D7B624000E20ED00FEFF3A0045
:102498001020ED00FCFF3A000000000000C4B3006B
:1024A80000000000FCC7B3008BC0B3001420EF008D
:1024B80010002000801F78008FFA07002000B1006C
:1024C8002D0220003C0220000B012000FA0320000E
:1024D800F0A82800801F780010202000801F7800B6
:1024E80020022000801F780030022000801F780022
:1024F8001AF907004F00B100D8042000D7B624000D
:102508000E00ED001000ED00FDFF3A00FCFF3A0060
:1025180000000000000000000DC4B300FCC7B300B9
:1025280080C0B300100020001420EF00801F780046
:1025380071FA07002F00B1002D0220003C02200094
:102548000B012000801F7800E0B32800FA03200068
:1025580010202000801F780020022000801F7800B3
:1025680030022000801F7800FCF807004000B1000E
:10257800D8042000D7B624000E20ED00FEFF3A0054
:102588001020ED00FCFF3A000000000000000000F1
:10259800CF0678004F067800CF0578004F05780001
:0425A8000000060029
:10208C008A1F78008B1F780000C4B3008D1F780066
:10209C008C1F7800FCC7B3008BC0B3001420EF007A
:1020AC000020EF00801F780092FB07002000B10099
:1020BC008D022000FC0120000B012000DA02200020
:1020CC0020DD2800801F780010202000801F780061
:1020DC0080022000801F7800F0012000801F780013
:1020EC001DFA07004F00B100E803200047922000C2
:1020FC000E00ED001000ED00FDFF3A00FCFF3A0071
:10210C0000000000000000000DC4B300FCC7B300C9
:10211C0080C0B3000020EF001420EF00801F780077
:10212C0074FB07002F00B1008D022000FC01200081
:10213C000B012000801F780070D32800DA022000E9
:10214C0010202000801F780080022000801F780063
:10215C00F0012000801F7800FFF907004000B1005B
:10216C00E8032000479220000E20ED00FEFF3A000D
:10217C001020ED00FCFF3A00000000000000000001
:10218C0000C4B300FCC7B3008BC0B3001420EF0035
:10219C000020EF00801F780056FB07002000B100E4
:1021AC008D022000FC0120000B012000DA0220002F
:1021BC00C0C92800801F780010202000801F7800E4
:1021CC0080022000801F7800E3F90700801F780050
:1021DC00F00120004F00B100E803200047922000DE
:1021EC000E20ED001000ED00FDFF3A00FCFF3A0060
:1021FC0000000000000000000DC4B300FCC7B300D9
:10220C008BC0B300801F78000020EF001420EF007B
:10221C0038FB07002F00B1008D022000FC012000CC
:10222C000B012000DA02200010202000801F780013
:10223C0020DD2800801F780080022000801F78009D
:10224C00F0012000801F7800C3F907004F00B10097
:10225C0047922000E80320000E20ED00FEFF3A001C
:10226C001020ED00FCFF3A00000000000000000010
:10227C00FDC7B3000CC4B3008BC0B3001420EF0037
:10228C000020EF00801F78001AFB07002000B1002F
:10229C008D022000FC0120000B012000DA0220003E
:1022AC0070D32800801F780010202000801F780039
:1022BC0080022000801F7800F0012000A6F90700A2
:1022CC00801F78004F00B100E803200047922000E7
:1022DC000E20ED00FEFF3A00FDFF3A001000ED006D
:1022EC000000000000000000CF0678004F067800C8
:0C22FC00CF0578004F05780000000600B8
:101E10008A1F78008B1F780000C4B3008D1F7800E4
:101E20008C1F7800FCC7B3008BC0B3001420EF00F8
:101E30000020EF00801F780031FC07002000B10077
:101E40000D0120000C0120008B032000DA07200088
:101E5000B0212900801F780010202000801F78000A
:101E600000012000801F780000012000801F780002
:101E7000BCFA07004F00B100E803200047922000A1
:101E80000E00ED001000ED00FDFF3A00FCFF3A00EF
:101E900000000000000000000DC4B300FCC7B30048
:101EA00080C0B3000020EF001420EF00801F7800F6
:101EB00013FC07002F00B1000D0120000C012000D1
:001EC00022
:001948009F
:001280006E
:0014B40038
:000DC8002B
:00093C00BB
:00083C00BC
:0007D80021
:001390005D
:0007EC000D
:000FA00051
:0017780071
:002A6C006A
:020000040001F9
:1000000000000000000000000000000000000000F0
:1000100000000000000000000000000000000000E0
:1000200000000000000000000000000000000000D0
:1000300000000000000000000000000000000000C0
:1000400000000000000000000000000000000000B0
:1000500000000000000000000000000000000000A0
:100060000000000000000000000000000000000090
:100070000000000000000000000000000000000080
:100080000000000000000000000000000000000070
:100090000000000000000000000000000000000060
:1000A0000000000080800000000000000000000050
:1000B0000000000000000000000000000000000040
:1000C0000000000000000000000000000000000030
:1000D0000000000000000000000000000000000020
:1000E0000000000000000000000000000000000010
:1000F0000000000000000000000000000000000000
:1001000000000000000000000000000000000000EF
:1001100000000000000000000000000000000000DF
:10012000000000000000000000000000008000004F
:100130004020000020100000101000000804000003
:10014000347A0000DE8000000000000000000000A3
:10015000000000000000000000000000000000009F
:10016000000000000000000000000000000000008F
:10017000000000000000000000000000000000007F
:10018000000000000000000000000000000000006F
:1001900000000000000000000080000040E00000BF
:1001A00038070000000000003F700000E0C00000C1
:1001B00080000000000000000000000000000000BF
:1001C000000000000000000000000000000000002F
:1001D00000000000004400000C98000038F8000007
:1001E00070E00000C00000000000000000000000FF
:1001F00000000000000000000000000000000000FF
:1002000000000000000000000000000000000000EE
:1002100000000000000000000000000000000000DE
:100220000000000000000000804000007C1B000077
:10023000000000000010000020380000FCF6000064
:10024000E2FE0000FFFF0000FEC00000C0C0000092
:10025000C0C00000C0C0000080800000800000001E
:10026000000000000000000000000000000000008E
:10027000000000000000000000000000000000007E
:10028000000000000000000000000000000000006E
:1002900000000000003C0000D3800000800000004F
:1002A0000030000040C00000A8F800008CFF0000F3
:1002B000FFFE0000F8C0000080800000C040000089
:1002C0002020000010100000108800008888000026
:1002D000888800009674000058B700005EBF0000D8
:1002E0007D3A0000053F0000F8C00000000000005B
:1002F00000000000000000000000000000000000FE
:1003000000000000000000000000000000000000ED
:100310000000000000000000E0FE0000F880000087
:100320000000000000000000070A0000101000009C
:10033000F4F00000F0F80000F8FE0000FFDF00001D
:100340008F87000083C30000E3E70000DF8F000019
:100350004F3D0000F830000031610000C1C30000D3
:10036000E3620000FE3C00001CF80000B0600000EA
:10037000000000000000000000000000000000007D
:10038000000000000000000000000000000000006D
:1003900000000000000000000F11000028E0000035
:1003A000E0E80000E0F80000F7FF0000FF7F000039
:1003B0007F7F00007F7F00003F1F00000FFF0000D5
:1003C0007F7700002727000027430000C383000039
:1003D000030100003B7F00007DF00000E0F0000022
:1003E000F8F40000E01E000003010000000000001F
:1003F00000000000000000000000000000000000FD
:1004000000000000000000000000000000000000EC
:1004100000000000000000001F670000831F0000B4
:100420003C780000F0F00000E0E00000C0C00000F8
:10043000C16700003F1F000038100000302100009D
:10044000212100002121000031930000FFFF000066
:100450007A7900007D7E0000F8F00000E080000066
:10046000010200000403000002010000000000007F
:10047000000000000000000000000000000000007C
:10048000000000000000000000000000000000006C
:100490000080000060100000888800008486000052
:1004A000CFFF00003F1F00001F1D0000186000006C
:1004B000800000000000000008140000275A00001F
:1004C0008A05000001030000030F00001F3F000029
:1004D000FFFE0000F8F00000F8E8000084030000D0
:1004E000C03000000D00000000000000000000000F
:1004F00000000000000000000000000000000000FC
:1005000000000000000000000000000000000000EB
:1005100000000000000000000000000001020000D8
:1005200004080000103300003F7F00007FFF000040
:10053000F0C00000C0C00000F0F80000FDFE0000A8
:10054000FEFE0000FEFE00007F7300004180000000
:100550008080000080800000C0E00000F3FF000009
:10056000FEF80000E00000000000000000000000B5
:10057000000000000000000000000000000000007B
:100580000000000000000000000000000018000053
:10059000262F0000121700001C08000007030000AF
:1005A000010000000000000000000000000E00003C
:1005B0003141000042C40000E4FC0000F8F80000F3
:1005C000F0F10000E3E40000E42800002C1E00002D
:1005D000171300000B0900000504000002010000D1
:1005E000000000000000000000000000000000000B
:1005F00000000000000000000000000000000000FB
:1006000000000000000000000000000000000000EA
:1006100000000000000000000000000000000000DA
:1006200000000000000000000000000000040000C6
:100630000A0F000017170000170F0000171700001F
:100640001F07000003000000000000000000000081
:1006500008150000171F00002F2F00002F1F00009B
:100660002F270000170F0000060000000000000008
:10067000000000000000000000000000000000007A
:10068000000000000000000000000000000000006A
:10069000000000000000000000000000000000005A
:1006A000000000000000000000000000000000004A
:1006B000000000000000000000000000030D00002A
:1006C000140C0000110F00000403000000000000E3
:1006D000000000000000000000000000000000001A
:1006E000000000000000000000000000000000000A
:1006F00000000000000000000000000000000000FA
:1007000000000000000000000000000000000000E9
:10092000000000000000000000C0000020100000D7
:100930000008000008080000080000001010000077
:10094000A0C0000000000000000000000000000047
:100950000000000000000000000000000000000097
:100960000000000000000000000000000000000087
:100970000000000000000000000000000000000077
:100980000000000000000000000000000000000067
:1009900000000000000000000000000000800000D7
:1009A0008040000040400000404000008080000087
:1009B0000000000000000000000000000000000037
:1009C0000000000000000000000000000000000027
:1009D0000000000000000000000000000000000017
:1009E0000000000000000000000000000000000007
:1009F00000000000000000000000000000000000F7
:100A000000000000000000000000000000000000E6
:100A100000000000000000000000000000000000D6
:100A20000000000000000000DF3E00003810000061
:100A300000000000001000001CAE00007FFC000061
:100A4000FCFF0000FFF0000080000000000000003C
:100A500000000000000000000008000070E000003E
:100A6000C0000000000000000000000000000000C6
:100A70000000000000000000000000000000000076
:100A80000000000000000000000000000000000066
:100A90000000000000000000788600000100000057
:100AA00000000000000000001C2400007C78000012
:100AB000310600001860000080000000F0380000DF
:100AC000D408000014180000F000000000800000AE
:100AD00000C00000B00000000000000000000000A6
:100AE0000000000000000000000000000000000006
:100AF00000000000000000000000000000000000F6
:100B000000000000000000000000000000000000E5
:100B100000000000000000000000000000000000D5
:100B200000000000000000000102000004080000B6
:100B300008880000C83C00001A1D00008E4F00000D
:100B4000371B0000030700008FFE0000F870000054
:100B50004080000000000000000000000083000052
:100B6000FFFF0000FCF0000000000000000000009B
:100B70000000000000000000000000000000000075
:100B80000000000000000000000000000000000065
:100B90000070000098080000684900000F30000055
:100BA00040C00000808000005040000020980000FD
:100BB00097480000300C0000010600000100000012
:100BC00000C00000700E000001000000010A0000DB
:100BD000150B0000976F00009E0000000000000051
:100BE0000000000000000000000000000000000005
:100BF00000000000000000000000000000000000F5
:100C000000000000000000000000000000000000E4
:100C100000000000000000000000000000000000D4
:100C20000000000000000000001C0000322900004D
:100C3000211000001F600000800E00001914000049
:100C400018080000043E00008701000000000000BA
:100C50000000000083FC0000FCFE00007F3F00005D
:100C60001F0F000003000000000000000000000053
:100C70000000000000000000000000000000000074
:100C80000000000000000000000000000000000064
:100C9000000000000001000001020000020200004C
:100CA00007870000F70F00000101000001000000AD
:100CB0000000000000000000804000000000000074
:100CC000010300001C7000009010000088880000E4
:100CD000C4E20000F93E00000F0000000000000028
:100CE0000000000000000000000000000000000004
:100CF00000000000000000000000000000000000F4
:100D000000000000000000000000000000000000E3
:100D100000000000000000000000000000000000D3
:100D200000000000000000000000000000000000C3
:100D30000080000040200000201100000A8C00000C
:100D40009CF80000F8E8000008050000067C0000A0
:100D5000840600008F1D000038F00000E0C0000095
:100D60008000000000000000000000000000000003
:100D70000000000000000000000000000000000073
:100D80000000000000000000000000000000000063
:100D9000000000000000000000000000804E000085
:100DA0005120000020430000CCF80000F0F00000CB
:100DB00060200000203E000039700000E0E00000EC
:100DC00040400000406000005F8700000703000013
:100DD000030100000000000000000000000000000F
:100DE0000000000000000000000000000000000003
:100DF00000000000000000000000000000000000F3
:100E000000000000000000000000000000000000E2
:100E100000000000000000000000000000000000D2
:100E200000000000000000000000000000000000C2
:100E300000010000020300000202000003020000A3
:100E4000030100000100000000000000000000009D
:100E5000010200000203000002030000030300007F
:100E60000100000000000000000000000000000081
:100E70000000000000000000000000000000000072
:100E80000000000000000000000000000000000062
:100E90000000000000000000000000000001000051
:100EA000010100000101000001010000010000003B
:100EB000000000000000000000000000010200002F
:100EC0000202000002020000020100000000000017
:100ED0000000000000000000000000000000000012
:100EE0000000000000000000000000000000000002
:100EF00000000000000000000000000000000000F2
:100F000000000000000000000000000000000000E1
:100F100000000000000000000000000000000000D1
:100F200000000000000000000000000000000000C1
:100F300000000000000000000000000000000000B1
:100F400000000000000000000000000000000000A1
:100F50000000000000000000000000000000000091
:100F60000000000000000000000000000000000081
:100F70000000000000000000000000000000000071
:100F80000000000000000000000000000000000061
:100F90000000000000000000000000000000000051
:100FA0000000000000000000000000000000000041
:100FB0000000000000000000000000000000000031
:100FC0000000000000000000000000000000000021
:100FD0000000000000000000000000000000000011
:100FE0000000000000000000000000000000000001
:100FF00000000000000000000000000000000000F1
:10100000000000000000000000000000005F000081
:1010100000000000000700000007000000140000AE
:101020007F1400007F140000242A00007F2A0000A3
:10103000122300001308000064620000364900001B
:1010400055220000500000000503000000000000D1
:10105000001C0000224100000000000041220000AE
:101060001C000000082A00001C2A000008080000DC
:10107000083E00000808000000500000300000009A
:101080000008000008080000080800000030000008
:1010900030000000002000001008000004020000E2
:1010A0003E510000494500003E000000427F000024
:1010B000400000004261000051490000462100004C
:1010C000414500004B31000018140000127F000061
:1010D0001027000045450000453900003C4A00004B
:1010E00049490000300100007109000005030000BB
:1010F0003649000049490000360600004949000011
:10110000291E00000036000036000000000000002C
:101110005636000000000000000800001422000005
:1011200041140000141400001414000041220000B7
:101130001408000000020000015100000906000030
:1011400032490000794100003E7E0000111100008C
:10115000117E00007F49000049490000363E000032
:1011600041410000412200007F4100004122000077
:101170001C7F000049490000494100007F09000030
:1011800009010000013E0000414100005132000011
:101190007F080000080800007F000000417F000079
:1011A0004100000020400000413F0000017F00009E
:1011B00008140000224100007F4000004040000071
:1011C000407F000002040000027F00007F04000056
:1011D000081000007F3E000041410000413E000039
:1011E0007F09000009090000063E0000415100008F
:1011F000215E00007F09000019290000464600001A
:101200004949000049310000010100007F01000050
:10121000013F000040400000403F00001F20000050
:10122000402000001F7F000020180000207F0000E9
:101230006314000008140000630300000478000039
:101240000403000061510000494500004300000014
:10125000007F00004141000002040000081000006F
:1012600020410000417F0000000000000402000057
:101270000102000004400000404000004040000027
:10128000000100000204000000200000545400008F
:10129000547800007F4800004444000038380000C3
:1012A000444400004420000038440000444800004A
:1012B0007F3800005454000054180000087E0000DD
:1012C000090100000208000014540000543C000012
:1012D0007F0800000404000078000000447D000046
:1012E0004000000020400000443D000000000000DD
:1012F0007F10000028440000004100007F400000F3
:10130000007C000004180000047800007C08000045
:101310000404000078380000444400004438000011
:101320007C140000141400000808000014140000CD
:10133000187C00007C08000004040000084800003D
:101340005454000054200000043F000044400000BA
:10135000203C000040400000207C00001C200000D9
:10136000402000001C3C000040300000403C0000D9
:101370004428000010280000440C000050500000D9
:10138000503C000044640000544C00004400000045
:101390000836000041000000000000007F0000004F
:1013A00000000000413600000800000008080000AE
:1013B0002A1C0000080800001C2A00000808000081
:1013C000FFFF0000FFFF0000FFFF0000FFFF000025
:1013D000FFFF0000FFFF0000FFFF0000FFFF000015
:1013E000FFFF0000FFFF0000FFFF0000FFFF000005
:1013F000FFFF0000FFFF0000FFFF0000FFFF0000F5
:10140000FFFF0000FFFF0000FFFF0000FFFF0000E4
:10141000FFFF0000FFFF0000FFFF00007F3F000014
:101420001F0F000007030000030300000307000074
:101430000F1F00003F7F0000FFFF0000FFFF0000C4
:10144000FFFF0000FFFF0000FFFF0000FFFF0000A4
:10145000FFFF0000FFFF0000FFFF0000FFFF000094
:101460008E06000006000000C404000004CC00004A
:10147000CC04000004C4000000060000068E00003A
:10148000FFFF0000FFFF0000FFFF0000FFFF000064
:10149000FFFF0000FFFF0000FFFF0000FFFF000054
:1014A000FFFF0000FFFF0000FFFE0000FCFC00004B
:1014B000FFFC0000FFFF0000FCFF0000FCFC000040
:1014C000FEFF0000FFFF0000FFFF0000FFFF000025
:1014D000FFFF0000FFFF0000030300000303000004
:1014E00003030000030300000303000003030000E4
:1014F00003030000030300000303000003030000D4
:1015000003030000030300000303000003030000C3
:1015100003030000030300000303000003FF0000B7
:10152000FFFF0000FFFF0000FFFF0000FFFF0000C3
:10153000FFFF0000FFFF00007F3F00001F0F0000C3
:101540000F0F00000F1F00003F7F0000FFFF000093
:10155000FFFF0000FFFF0000FFFF0000FFFF000093
:10156000FFFF0000FFFF0000FFFF0000FFFF000083
:10157000FFFF0000FFFF0000FBF90000F840000043
:10158000A0A0000060E00000E0600000A0A000005B
:1015900040F80000F9FB0000FFFF0000FFFF000023
:1015A000FFFF0000FFFF0000FFFF0000FFFF000043
:1015B000FFFF0000FFFF0000FFFF0000FFFF000033
:1015C000FF01000002F1000001020000E3E300005F
:1015D00002010000F102000001FF0000FFFF000017
:1015E000FFFF0000FFFF0000FFFF0000FFFF000003
:1015F000FFFF0000FFFF0000FFFF0000FFFF0000F3
:10160000FFFF0000FFFF0000FFF80000FFFC0000EC
:10161000F0FF0000FFF00000FCFF0000F8FF0000FA
:10162000FFFF0000FFFF0000FFFF0000FFFF0000C2
:10163000FFFF0000FF03000003030000030300009E
:101640000303000003030000030300000303000082
:101650000303000003030000030300000303000072
:101660000303000003030000030300000303000062
:0C1670000303000003030000030300005C
:10167C00FFFF0000FFFF0000FFFF0000FFFF000066
:10168C00FFFF0000FFFF0000FFFF0000FFFF000056
:10169C00FFFF0000FFFF0000FFFF0000FFFF000046
:1016AC00FFFF0000FFFF0000FFFF0000FFFF000036
:1016BC00FFFF0000FFFF0000FFFF0000FFFF000026
:1016CC00FFFF0000FFFF0000FFBF00009F8F000026
:1016DC0007030000010000000000000000010000F2
:1016EC00030700008F9F0000BFFF0000FFFF0000FA
:1016FC00FFFF0000FFFF0000FFFF0000FFFF0000E6
:10170C00FFFF0000FFFF0000FFFF0000FFFF0000D5
:10171C00E3C100008100000031C1000001F30000B2
:10172C00F3010000C131000000810000C1E30000A2
:10173C00FFFF0000FFFF0000FFFF0000FFFF0000A5
:10174C00FFFF0000FFFF0000FFFF0000FFFF000095
:10175C00FFFF0000FFFF0000FFFF0000FFFF000085
:10176C00FFFF0000FFFF0000FFFF0000FFFF000075
:10177C00FFFF0000FFFF0000FFFF0000FFFF000065
:10178C00FFFF0000FFFF0000030300000303000045
:10179C000303000003030000030300000303000025
:1017AC000303000003030000030300000303000015
:1017BC000303000003030000030300000303000005
:1017CC0003030000030300000303000003FF0000F9
:1017DC00FFFF0000FFFF0000FFFF0000FFFF000005
:1017EC00FFFF0000FFFF0000FFFF00007F3F000035
:1017FC003F3F00003F7F0000FFFF0000FFFF0000A5
:10180C00FFFF0000FFFF0000FFFF0000FFFF0000D4
:10181C00FFFF0000FFFF0000FFFF0000FFFF0000C4
:10182C00FFFF0000FFFF0000EFE70000E3010000F6
:10183C00808000008080000080800000808000009C
:10184C0001E30000E7EF0000FFFF0000FFFF0000D6
:10185C00FFFF0000FFFF0000FFFF0000FFFF000084
:10186C00FFFF0000FFFF0000FFFF0000FFFF000074
:10187C00FF07000009C60000060900008F8F00005A
:10188C0009060000C609000007FF0000FFFF00006A
:10189C00FFFF0000FFFF0000FFFF0000FFFF000044
:1018AC00FFFF0000FFFF0000FFFF0000FFFF000034
:1018BC00FFFF0000FFFF0000FCE00000FFF0000055
:1018CC00C0FF0000FFC00000F0FF0000E0FC0000C3
:1018DC00FFFF0000FFFF0000FFFF0000FFFF000004
:1018EC00FFFF0000FF0300000303000003030000E0
:1018FC0003030000030300000303000003030000C4
:10190C0003030000030300000303000003030000B3
:10191C0003030000030300000303000003030000A3
:0C192C000303000003030000030300009D
:1019380000E00000F8FC0000FEFE00001F0E0000A2
:101948001EFC0000F83800009C1C0000F8F800009D
:101958001C9C000038F80000FC1E00000E1F000050
:101968003E3C00007C7C00003E1E000000000000A1
:10197800010700000F8F0000C0C000000020000019
:10198800070700002C8800001D2F00002F1D0000F5
:10199800882C00000707000020000000C0C00000DD
:1019A80080000000000000000000000000000000AF
:1019B800FCFF0000FFFF0000FFF90000FAE4000050
:1019C800E5C40000DCC20000C1C10000FAFC000050
:1019D800FCFD0000FCFE0000F9FF0000FFFF000016
:1019E800FFFC0000E0000000000000000000000014
:1019F800070F00001F1F0000FFFF0000FFFF00008F
:101A0800FFFF0000FFFF0000FFFF0000FFFF0000D6
:101A1800FFFF0000FFFF00001F3F00003F3F0000E6
:101A28001F07000000000000000000000000000088
:101A38000000000000070000FFFF0000FFFF00009B
:101A4800FFFF0000FFFF0000FFFF0000FFFF000096
:101A5800FFFF000007000000000000000000000079
:101A68000000000000E00000F8FC0000FEFE00009E
:101A78001F07000007FE0000FE0E000027470000B9
:101A8800FEFE0000472700000EFE0000FE070000D3
:101A9800071F00003E3C00007C7C00003E1E00004A
:101AA80000000000010700000F8F0000C0C0000008
:101AB80040880000014100000B220000874B000015
:101AC8004B870000220B0000410100008840000005
:101AD800C0C00000800000000000000000000000FE
:101AE80000000000FCFF0000FFFF0000FFFC0000FA
:101AF800FEF50000E1E50000CFC40000C0C0000012
:101B0800E4FF0000FDFD0000FDFE0000FCFF0000FA
:101B1800FFFF0000FFFC0000E000000000000000E4
:101B280000000000070F00001F1F0000FFFF00005B
:101B3800FFFF0000FFFF0000FFFF0000FFFF0000A5
:101B4800FFFF0000FFFF0000FFFF00001F3F000035
:101B58003F3F00001F0700000000000000000000D9
:101B6800000000000000000000070000FFFF000068
:101B7800FFFF0000FFFF0000FFFF0000FFFF000065
:101B8800FFFF0000FFFF000007000000000000004A
:0C1B980000000000000000000000000041
:101BA400E0F80000FCFE0000FE1F00000707000034
:101BB400FEFE00000E07000067FE0000FE67000046
:101BC400070E0000FEFE0000070700001F3E000095
:101BD4003C7C00007C3E00001E0000000001000070
:101BE400070F00000F000000000000008801000043
:101BF400410B000022870000CBCB000087220000AD
:101C04000B4100000188000000800000C0C00000FB
:101C1400E0F00000F0F80000FC000000008000008C
:101C2400C0E00000F0F80000FCFF0000FFFF00002F
:101C3400FFFF0000FFFF0000FFFF0000FFFF0000A8
:101C4400FFFF0000FFFF0000FF3F00001F0F000028
:101C54000703000081F0000000FE0000FFFF000009
:101C6400FF6F000003FF0000FFFF0000FFFF000004
:101C7400FFFF0000FFFF0000FFFF0000FFFF000068
:101C8400FFFF0000FF00000000000000000800004B
:101C9400060300000100000001030000030300002C
:101CA4000000000007FF0000FFFF0000FFFF00002E
:101CB400FFFF0000FFFF0000FFFF0000FFFF000028
:101CC400FF0700000000000000000000000000000A
:081CD400000000000000000008
:041CDC000000000004
:101CE00043610000736F00002041000000430000CA
:101CF000617300006F2000004220000000430000DC
:101D0000617300006F20000044200000004D0000BF
:101D1000656E00007520000050720000696E0000C2
:101D200063690000706100006C2000000043000047
:101D3000617300006F200000432000000045000098
:101D4000727200006F6E0000656F000020000000DE
:101D5000556C0000746900006D6F00002052000097
:101D6000657300006574000000500000726500009B
:101D7000736900006F6E00006520000027420000BC
:101D80002720000070610000726100002043000005
:0C1D9000617300006F20000032000000B2
:101D9C005072000065730000696F00006E650000F2
:101DAC002027000043270000207000006172000013
:101DBC006120000043610000736F000020330000BD
:101DCC00005000004F520000005700004454000027
:0C1DDC00004D0000434C000052000000CD
:101DE800D1000000CDCB0000C9CA0000D4D3000048
:101DF800D2D00000CECC0000EB6000000000000054
:101E0800DEDD000000DC0000713100000000000091
:101E1800007A00007361000077320000DB000000E8
:101E2800637800006465000034330000DB000000C4
:101E38002076000066740000723500000000000083
:101E48006E6200006867000079360000000000003C
:101E5800006D00006A7500003738000000000000BF
:101E68002C6B0000696F0000303900000000000092
:101E78002E2F00006C3B0000702D000000000000B9
:101E880000270000005B00003D00000000E10000AA
:101E9800DDD500005D0000005C00000000000000CF
:101EA800000000000000000000D800000000000052
:101EB800E2000000E6E300000000000000D9000096
:101EC800DAE9000035E70000E8EA0000E5D30000A1
:101ED8002BD700002D2A0000D6E4000000000000E7
:101EE80000000000CFD1000000CD0000CBC90000E9
:101EF800CAD4000000D20000D0CE0000CCEB000015
:101F08007E00000000DE0000DD000000DC51000063
:101F180021000000000000005A5300004157000053
:101F280040DB000000430000584400004524000046
:101F380023DB000000200000564600005452000039
:101F480025000000004E00004248000047590000EC
:101F58005E000000000000004D4A00005526000009
:101F68002A000000003C00004B4900004F290000F7
:101F780028000000003E00003F4C00003A500000DE
:101F88005F00000000000000220000007B2B000022
:101F980000000000E1DD0000D57D0000007C0000AD
:101FA8000000000000000000000000000000000029
:101FB800D800000000E2000000E60000E300000096
:101FC80000000000D9DA0000E9350000E7E8000069
:101FD800EAE50000D32B0000D72D00002AD6000028
:0C1FE800E40000000000000000CF00003A
:101FF4005072000065730000696F00006E65000098
:1020040020270000412700002070000061720000BA
:102014006120000043610000736F00002031000064
:0420240000000000B8
:102028004C610000626F000072610000746F000074
:0C203800726900006F2000003100000001
:102044005072000065730000696F00006E65000047
:102054002027000044270000207000006172000067
:10206400612000005744000054200000202000009C
:10207400004C0000616200006F7200006174000097
:102084006F720000696F0000203100000000000042
:102094000000000000F000003C0E000006030000F9
:1020A4000101000001010000018100000B36000065
:1020B400E61C0000F000000000000000F0B8000082
:1020C4000F38000060C00000C0C000008080000025
:1020D40084800000C1C00000C0E00000F2FF0000E6
:1020E400E27E00003C010000030700000607000038
:1020F40007070000030000000000000000000000CB
:1021040001010000010100000000000000000000C7
:1021140000800000E0300000180800000C040000FB
:102124000404000004540000E404000054E8000027
:1021340008300000E0800000000000001F300000B4
:1021440068D00000A0A00000E030000020200000C3
:102154002021000040C40000C1C00000603800001D
:102164001F0000000000000000000000000000004C
:102174000103000003030000030300000303000045
:102184000301000000000000000000000000000047
:102194000000000080E00000380C0000040600008D
:1021A40002020000D2E2000002160000E40C00006B
:1021B40038E0000080000000001E00003F21000005
:1021C400E0E00000C080000080000000000000008B
:1021D4008140000044410000C0E00000A131000043
:1021E4001E000000000000000003000007070000BC
:1021F40006070000030300000706000006060000AF
:0C220400060600000703000000000000B8
:102210008040000060200000380C00000602000032
:102220000301000029F10000012B0000F20600006C
:102230000C30000020600000C00300000408000013
:1022400008180000F0E00000C0C00000C0C000009E
:10225000E098000084C20000E2E200007C3C000044
:102260000403000000000000000000000001000066
:10227000030700000707000007030000010100003A
:10228000010100000000000000000000000000004C
:1022900000000000E03800000C040000060200000E
:1022A000020200000202000016E6000014EC00002A
:1022B00078E000000000000000000000C0FF000007
:1022C0003020000020400000C0800000809000000E
:1022D0008084000081C40000C1B00000EF00000055
:1022E00000000000000100000303000007070000D9
:1022F00007070000070300000303000003030000BA
:0C230000030100000100000000000000CC
:10230C0000000000C0F00000180C000004060000E3
:10231C000202000002520000E206000054EC000031
:10232C0018700000C000000000000000000F00004A
:10233C00F8E00000A0200000303000003044000025
:10234C00C0C1000080C4000081E00000381F000004
:10235C00000000000000000000000000010300006D
:10236C00030300000303000003030000010100004D
:10237C00010100000000000000000000000000004F
:10238C000080000040200000F0F00000D8E80000C1
:10239C00E8E80000E8E80000F8000000E8E80000C9
:1023AC00000000000F1E00003D7E0000FFF3000047
:1023BC00E3E10000E3F00000F8F90000FF0000008A
:1023CC00FFFF000000000000000000000000000003
:1023DC0000000000010100000101000001010000EB
:1023EC0001000000010100000000000080F000006E
:1023FC00F8FC0000FCEE0000C6C60000EEFC00007D
:10240C00FCF80000F0800000000000001F1F00001E
:10241C001F1F00003F3F00007F7F00003F3F000078
:10242C001F1F00001F1F000000000000B0B80000BC
:10243C003C7E0000FEFE0000FFFF0000E7C600002F
:10244C00CEFC0000F8C00000000E00001F1D0000B4
:10245C000F0000000F1F00003F3F00001F1F000077
:10246C000F0F00000F0F000000000000C0F800006C
:10247C00FCCE0000C6E70000FFFF0000FEFE0000DF
:10248C007E3C0000B8B00000000000000F0F000000
:10249C000F0F00001F1F00003F3F00001F0F000028
:1024AC00000F00001D1F00000E3100000034000062
:1024BC003700000000000000302E00003235000014
:1024CC003638000000000000002B0000332D000007
:0424DC002A39000099
:0200000401F009
:1C0008000300000087000000A70000007F0000003F000000D70000000300000013
:00000001FF
