:10000000B615040000000000000000000000000021
:1000100000000000000000000000000000000000E0
:10002000000000000000000000000000901500002B
:1000300000000000B21600000000000000000000F8
:1000400000000000000000000000000000000000B0
:1000500000000000000000000000000000000000A0
:100060000000000000000000000000000000000090
:100070000000000000000000000000000000000080
:100400000200FA000420EF006514E100060031004C
:100410000280FB008080450000C2B3008048780065
:100420000460EC00F8FF37000280FB00808045008C
:100430000020EF0080487800E14151000380FB007C
:100440000080450000079800A2002000110009006C
:100450000285D80000032000808040000E0090003C
:1004600001487800A2002000110009000285D80090
:10047000000578006000E10001003A00020037004A
:100480000660ED00EDFF37000080FA000000060076
:100490000000FA008A1F78000820EF000A007800A8
:1004A0006050E10003003D001400200060001500D2
:1004B0000000370000057800D1FF0700630020002E
:1004C000040178006018E1000600360083804500D2
:1004D0006180510000804500904878000620ED00C2
:1004E000F8FF370000C2B300804D78000400E2003E
:1004F0000C0032000420EF0002804500904078009C
:1005000000C2B300000CE10002003A000420EC003D
:10051000F9FF37006100510080804500D0C2B30070
:10052000804878004F0578000080FA00000006003F
:10053000A70020000E20ED00FEFF3A0000000000A2
:1005400000000000000006008A1F78008D1F780060
:100550008B1F78008B172100CDFF0700CF05780097
:100560001DC0B3008A17210039060700CF067800A6
:100570004F057800000006000000000000000000A9
:100580000000000000000000000000000000060065
:100590000000FA000200070036030400000000001B
:1005A000841F7800140007004F007800110033000A
:1005B000F0FF2F00838F6C0006003B0004056500F0
:1005C0000A00A7000800370009F0A600100020006C
:1005D00008003700820F5400838F5C00030039004D
:1005E0001000200001003E000000200009F0A700DC
:1005F0000000EA00000006000084BE0006000700BC
:100600000083BE000485BE000280BE000200070019
:10061000844F750000000600C70ADE00F107B20033
:10062000F50FB20008003200E1CF420002003200B4
:1006300002E0A80024000500810F700001003200D4
:100640000408050044000500810F700002003A0014
:10065000140005008502E9000000400081C0480048
:10066000FCFF3B0002E0A800240005000080FA0027
:10067000000006000000FA0050AEA90052AEA9002A
:100680000080FA00000006000400FA000220EF00DB
:10069000F00F200010079800620047001000E000F3
:1006A00011003200600047000008EB0052AEAF00BE
:1006B0001008E8000200E200050032006000470078
:1006C0001000E00002003A00100020000700370090
:1006D0000E0190009E00900062004700618850006B
:1006E00082007800ECFF37000020EF000080FA0065
:1006F000000006000200FA00100020000007980029
:1007000001082000600047001008E1000A003600E0
:1007100052AEAE0004003700010820006000470020
:1007200010887000030037001100200060004700AF
:1007300010884000F2FF3700600047001070A100F1
:100740000E0090000080FA00000006000200FA008F
:100750008A1F78006764E1000100360064003700FA
:100760008A80FB0060172100908050001017210044
:100770001080FB000008B800000378000B457800EB
:10078000D40107000C457800780207000A20EF002A
:10079000101721001080FB000028E1003900310013
:1007A000F0C7B300005CE1000100360050003700E4
:1007B0008A1F78000B457800DC0107000C457800A3
:1007C0006A0207000B457800C20107004F05780058
:1007D0004A000700004798004800070000479800BB
:1007E0008A1F78000B457800D00107000C4578007F
:1007F0005E0207000B457800B60107004F05780040
:10080000860178004F9ADE002217210032804100D5
:10081000A2004A00A1018800104078000041780041
:100820000C20EC0000E0EE000800370000479800C4
:100830000C003700024798000A003700E00047002C
:10084000600047001148690006003700606CE10055
:10085000F6FF3200616CE100F6FF3200626CE100ED
:10086000F6FF32008A1F78000E4590004C02070008
:100870004F05780061C04500804578000A20EC00F3
:10088000C3FF37008A1F78000B457800A7010700D7
:100890000C457800350207000B4578008D010700F4
:1008A0004F057800F0CFB3000220EF000C003700B6
:1008B000004798008A1F780000457800380207003A
:1008C0004F0578000A003700014798008A1F78001A
:1008D00001457800320207004F0578000400370018
:1008E000606CE100F2FF3200616CE100F6FF320063
:1008F0004F0578000080FA00000006000200FA00B0
:10090000402EA800400EA800502EA800500EA800AF
:1009100030EEA80030CEA80030AEA800308EA8007F
:1009200015FF070014FF0700342EA800346EA9003D
:10093000344EA800346EA800FDFE0700600047009A
:100940001070A000422EAE001070A10060004700A1
:100950001060A000420EAE001060A10060004700D1
:100960001050A000522EAE001050A10060004700B1
:100970001040A000520EAE001040A10060004700E1
:100980001030A00032EEAE001030A1006000470031
:100990001020A00032CEAE001020A1006000470061
:1009A0001010A00032AEAE001010A1006000470091
:1009B0001000A000328EAE001000A100346EA9001D
:1009C000344EA900ECFE0700EBFE0700402EA90004
:1009D000400EA900502EA900500EA90030EEA9002B
:1009E00030CEA90030AEA900308EA9000E40900094
:1009F0000080FA00000006000000FA0050AEA800D7
:100A00000080FA00000006000000FA001400200038
:100A1000DFFE07000080FA00000006000000FA0078
:100A2000F4FF2F00DAFE07000080FA000000060045
:100A30000000FA000A00780000017800E10140009F
:100A40008B007800618045008005780011497800AE
:100A50001204E0000200320003007800F6FF3700C5
:100A60000A0078000080FA00000006008B1F780062
:100A70008C1F78008D1F7800100020000006780081
:100A80006660E10015003D000A60E10009003A00DF
:100A90008C1F78008A1F78001DC0B3001620EF005D
:100AA0000A002100EA0407004F0578004F0678008D
:100AB000080037008C1F78008A1F78001DC0B30023
:100AC0001620EF008A012100E10407004F0578009D
:100AD0004F0678001820EC00E9FF3700CF067800B9
:100AE0004F067800CF057800000006000200FA00EB
:100AF0008B1F78008C1F78000000200000079800F2
:100B00008A1F78007C0020008A0578000E0590007E
:100B10008DFE07004F0578005E0707006007210083
:100B2000104078006D04E1003A0032008A1F78001E
:100B30006C0B21000B0F21006A07210089050700BB
:100B40004F0578000000E20031003200600B210008
:100B50001004E0002E003200600721009040780071
:100B6000C0C6B300000CE10006003200600721009F
:100B700090407800F0C6B300000CE10001003200A4
:100B8000220037006007210090407800F0C6B300D3
:100B9000000CE10008003A000E0090000020EC007C
:100BA000000798006A00E10002003A000020EF0010
:100BB0000007980037070700600721009040780081
:100BC000C0C6B300000CE10009003A000E0090001E
:100BD000E100500001079800F0FF2F000008E1003D
:100BE00002003A0090002000000798002907070043
:100BF0008A1F78007C0020008A0578000E0590008E
:100C000051FE07004F057800220707002107070063
:100C1000C2FF37000E0090004F067800CF05780025
:100C20000080FA00000006000000FA000200070041
:100C30002A07040000000000889FBE008A9FBE00B3
:100C40008C1F7800300007003700330003866C00EB
:100C50006450E100240032006420E10027003200EB
:100C60006150E100220032006120E10021003200E9
:100C70008B854200EB07B1000134B800003AB800A0
:100C80000804420089844A00013AB8000030B800E4
:100C90008880400009014A00040033000000400041
:100CA00081804800020149008B05E900C909DD0087
:100CB000830170000100320013002000C814DE0020
:100CC0004814DD004709DE001200B200C808DE004B
:100CD000088470002400070001F0A1000CF0A700B8
:100CE00003E0A800190037006120E1001B0032007A
:100CF0000881BE000280BE00F7FF37006150E100AE
:100D0000FCFF3A00150037000084BE003C000700DD
:100D10000083BE000485BE000280BE0038000700CC
:100D2000844F7500000006000280BE006450E100A0
:100D3000050036006420E100020036000968A300C7
:100D400001003A000880BE0002C0A8004F067800EB
:100D50004F05BE004F04BE0000000600F0FF2F004C
:100D6000F1FF2700F9FF3700810020006180550066
:100D70000B003D000B00200061FE2F000100E10090
:100D80001D00340082817100610164008904D1007A
:100D90000884D3000000E800FAFF3A007100200048
:100DA000610064000300700002006000090032006E
:100DB00061044400E0844C000988A500050032006D
:100DC0008B05E8006808E10002003A008904D100C0
:100DD0000884D300F20F20000258E10005003D0016
:100DE000C75DDD00F907B200898075000800880042
:100DF000000006000BF827001B008800000005001B
:100E0000C70ADE00F107B200F50FB2000800320099
:100E1000E1CF42000200320002E0A80024000500F9
:100E2000810F700001003200040805004400050035
:100E3000810F700002003A00140005008502E900ED
:100E40000000400081C04800FCFF3B0002E0A80019
:100E5000240005000080FA00000006000000FA00EF
:100E60000A01780062004500104078000000AF00E1
:100E700002003700610041001074A100E20041004F
:100E8000114078000080FB004100DE0080487800BF
:100E90001299450012114E00E20041001140780005
:100EA0000080FB004100DD008048780061004100C7
:100EB0001040780000E0AE00020037006200410000
:100EC0001004A000610041001074A0000080FA002E
:100ED000000006000000FA008A1F78008A80FB00EC
:100EE000F00720000080600000457800342EA90043
:100EF000344EA9008080FB00F00B200000806000D1
:100F0000004578008080FB00000420000080700015
:100F1000004578000045780019000700110007001F
:100F20004F0578000080FA00000006000000FA007B
:100F30008A80FB00F00720000080600000457800F8
:100F400000C0AE0003003700446EA800444EA90064
:100F500002003700446EA900444EA8000080FA0049
:100F6000000006000000FA0071FD0700346EA800C2
:100F70006FFD0700346EA9000080FA000000060033
:100F80000000FA0014E0AE00422EA90014E0AF0009
:100F9000422EA8000000000014C0AE00420EA900BE
:100FA00014C0AF00420EA8000000000014A0AE0064
:100FB000522EA90014A0AF00522EA800000000007D
:100FC0001480AE00520EA9001480AF00520EA8008B
:100FD000000000001460AE0032EEA9001460AF0003
:100FE00032EEA800000000001440AE0032CEA9008E
:100FF0001440AF0032CEA800000000001420AE0064
:1010000032AEA9001420AF0032AEA80000000000EC
:101010001400AE00328EA9001400AF00328EA8007A
:10102000000000000080FA00000006000200FA0044
:101030008A1F78008B1F78008C1F78008D1F780026
:101040001000200000079800600721001040780081
:101050006D04E1003E0032000E05900083FE0700A3
:101060006C0B21000B0F21006A0721003D040700D3
:101070000000E20035003200600B21001004E000A7
:10108000320032006007210090407800C0C6B300F3
:10109000000CE1000600320060072100904078005B
:1010A000F0C6B300000CE100010032001C00370064
:1010B0006007210090407800C0C6B300000CE1003A
:1010C00008003A000E0090000020EC000007980095
:1010D0006600E10002003A001000200000079800BE
:1010E000EC0507006007210090407800F0C6B300CF
:1010F000000CE10008003A000E0090000020ED0016
:10110000000798006000E10002003A005000200053
:1011100000079800DF0507000E05900053FE07004A
:10112000600721009040780020C2B300000CE1006D
:1011300006003A001DC0B3007CC0B300CBC3B300AF
:10114000AA0121004203070001003700BEFF37005B
:101150000E009000CF0678004F067800CF0578008B
:101160004F0578000080FA00000006000000FA0039
:101170008A1F7800342EA900344EA9008A80FB0013
:10118000800B200000807000004578007CFF070085
:1011900074FF07004F0578000080FA000000060089
:1011A0000000FA00346EA900342EA800344EA900C5
:1011B00073FF07006BFF07000080FA0000000600C5
:1011C0000200FA008A1F78001820EF006560E10035
:1011D00019003D006260E1000E003200A00621000F
:1011E0000C004000000798005000200000E1B9000A
:1011F000C003200002004000000578003BFE07000D
:1012000001032000808040000E009000014878001B
:10121000050037006260E10003003A00C1062100CA
:10122000A0C3B300804878009A050700F1050700C5
:101230001820EC00E5FF37004F0578000080FA0029
:10124000000006000000FA008A1F7800A1162100A5
:101250000020EF00804878000020EF00408B8800DD
:10126000408EA900306EA900302EA900304EA90092
:10127000406EA900404EA900448EA900402EA9004E
:10128000400EA900502EA900500EA90030EEA90072
:1012900030CEA90030AEA900308EA900342EA900AE
:1012A000344EA900446EA900444EA800448EA80004
:1012B000B1FC0700FAC3B30031FF070029FF0700A4
:1012C0000ACCB3002EFF070026FF0700446EA800DB
:1012D000444EA900FAC3B30029FF070021FF07000D
:1012E0000ACCB30026FF07001EFF07004F05780059
:1012F0000080FA00000006001600FA004EB89700C1
:1013000040BF9F003EB997001EB89700AEB8970047
:1013100010BF9F0021BF9F001EB89700AEB8970076
:10132000100F9800210F98000020EF005007980040
:101330000020EF00600798000C004500E10050001D
:10134000F00720000008E10003003600000820003C
:101350000A005000000678000D804500E1005000B2
:10136000F00320000008E100030036000004200024
:101370000B005000800678004358DE0000479800BC
:101380008D804500618050004300DE0010479800CA
:1013900067806500204798006780600030479800AC
:1013A0000D10E100030036001E40900040479800F9
:1013B00004003700028045000020ED004300DE00FD
:1013C00040479800670061006000E10005003A00B6
:1013D000C311DE00680157001218B800000F980012
:1013E000050037004310DE00E101400068015700AE
:1013F0001218B800000F9800600047001080FB0032
:1014000030079800610047009080FB0066004700AD
:101410001008E100CD0039000020EF0070079800AF
:101420000020EF0040079800680047001060E100CE
:10143000B700360068004700100045008A1F78009A
:1014400000457800B9FE07006E45900047FF070091
:101450004F057800CE009000680057001008E100AA
:1014600040003100640047009080FB0066004700A8
:101470001008E1003B003900600047009080FB004D
:10148000660047001008E10002003A000620EF0065
:10149000150037001EB89700AEB89700100F9800DF
:1014A000210F9800FE0090006C00470090804000E3
:1014B000720047008C1F78008A9FBE00810578006B
:1014C0000006EB000005780064FE07004F05BE0033
:1014D0004F0678001E089000AE089000A101880019
:1014E0001040780080417800DE00900070004700D6
:1014F0001008E100020039000020EF00160037005C
:101500001EB89700AEB89700100F9800210F9800F2
:10151000FE0090006A004700908040007200470083
:101520008C1F78008A9FBE00810578000006EB00C2
:101530000005780049FE07004F05BE004F06780001
:101540001E089000AE089000A101880010407800AD
:1015500080407800014078000341780080417800A5
:10156000020037000620EF000420EF0083407800DF
:101570002E4090006004E1000B003600620047003E
:101580001080FB00E80010000280FB000101DE007B
:101590008380FB00620047001080FB000008DD0034
:1015A00080417100010037008141780060004700F0
:1015B0009080FB00660047001008E1001C003A0024
:1015C0002E4090006004E1001A00360068004700D9
:1015D000100045008A1F7800004578003DFE070096
:1015E0004F057800C5FC0700C4FC0700E200470077
:1015F0009180FB0068811000F10F20000209DE00DD
:101600008080FB000280FB0000816000F10F200061
:10161000620047001080FB008008DD000380FB00B3
:101620000100600002407000804178000000370037
:1016300000003700610047009080FB006600470013
:101640001008E1001C003A003E4090006004E100F8
:101650001B00360068004700100045008A1F780014
:10166000004578001BFE07004F057800A3FC07002B
:10167000A2FC0700F20F2000E30047009180FB006E
:101680008110DD000080FB00010160006300470065
:101690001080FB00E8001000F00F20000100DE00C9
:1016A0008380FB000080FB0000806000024070002F
:1016B0000041780001003700034178000100370045
:1016C00003417800CE009000680057001008E10048
:1016D00003003100FE0090006E004700618840006A
:1016E00068004700100045008A1F78000045780018
:1016F000F8FD070002457800A9FE07004F057800B5
:10170000CE009000680047006188400046FF370027
:10171000640047009080FB00660047001008E1006D
:10172000060036005E009000600798005E019000A1
:10173000E80057006A00470011084100BE00900011
:1017400066004700618840002EFF37000080FA00E5
:10175000000006000000FA004EB897009A8B88003F
:10176000AB8B8800B08B8800101721000C487800E4
:10177000001721000D487800A116210010C0B30009
:10178000804878000080FA00000006000600FA0099
:101790008A1F78008B1F78000820EF0000002000CF
:1017A000404798000A0798001B0798000E01900018
:1017B0009E019000F0FF2F00F1FF2F000010E100CC
:1017C0000198E10005003A007B1021000C0578002B
:1017D00097FC070030C0B3000A01370015C0B30002
:1017E00060004700630040001040780000E0AE0059
:1017F0000C00370060004700630140009280FB004E
:101800000008200000806800004978000A60EC00B1
:10181000D0C2B300004E7800610046000006780098
:10182000000037000E0090009E0090006000E10074
:101830006088E10005003A00BB1021000C0578002B
:101840007BFC07000020EF00EE0037000E01900047
:101850009E0190000000200001F827000010E10028
:101860000198E10005003A003B1021000C057800CA
:101870006FFC070005407800E20037000441780063
:10188000821F78008C1F78008A9FBE000200200013
:1018900003F823000E0090009E0090005AFC070001
:1018A0000000E0000060EF0001003D000060EC007F
:1018B0004F05BE004F0678004F0178000040E2005F
:1018C00011003200821F78008C1F78008A9FBE00B2
:1018D0000E0090009E0090000200200003122400E1
:1018E000D1FC07004F05BE004F0678004F0178007D
:1018F0000007980011079800CE4090006400470050
:1019000061C85000DEFF370002427800841F780073
:101910008C1F78008A9FBE00020020000312240062
:101920000E0090009E0090003CFC07000000E000CC
:101930000060EF00010035000060EC004F05BE00C4
:101940004F0678004F0278000040E200110032009C
:10195000841F78008C1F78008A9FBE000E009000C4
:101960009E009000D2CC2C00C3DC2300AEFC07000C
:101970004F05BE004F0678004F0278000007980020
:1019800011079800CE4090006400470061C84000F5
:10199000DEFF3700600147001200BE000000D000EB
:1019A0008180D2000007980011079800600047006E
:1019B0006300400090407800F0C7B30000C15000C1
:1019C00060004700E300400010C0B300804878008A
:1019D0008281FB00600147001200BE008301E90024
:1019E000030035000000D0008180D200FBFF3700EB
:1019F000000798001107980060004700630040004E
:101A0000010320001080FB0000804000004E7800A1
:101A100061004600000678004E4090006104E1003D
:101A2000050035004E4090006604E10002003C00D5
:101A30000443780005003700E0C2B300004E780090
:101A4000610046000006780016C0B30065C0B30010
:101A5000602CE1002F00320060004700E3004000EE
:101A60000020EF008048780060004700B001780057
:101A7000200278008301D0000482D2008301D000CC
:101A80000482D2006001470032804100A2004A0077
:101A90000007980011079800600147001200BE007F
:101AA0000000D0008180D200000798001107980044
:101AB0006000470063004000010320001080FB002D
:101AC00000804000004E780061004600000678006B
:101AD0006034E1000D003A004E4090000060ED00DF
:101AE000404798006004E10007003A00E0C2B300FC
:101AF000004E7800610046000006780010C0B30078
:101B00000043780000003700000037000A60ED0055
:101B1000CFFF3700F0FF2F00000046009040780014
:101B200000C3B300000CE10003003A00610056005E
:101B300000067800F7FF3700F0FF2F000000460096
:101B400090407800E0C2B300000CE10002003A00CF
:101B500061005600000678004E4090006004E100ED
:101B60002500320050C6B300004E780061004600E8
:101B7000000678004E4090006004E10007003D0040
:101B8000D0C2B300004E7800610046000006780025
:101B9000CE4090006400470060C81000CE41900025
:101BA0004E4090006904E1000A0036000380FB000B
:101BB000A2002000110009000200D8008000780077
:101BC0000003200001004000004E78006100460044
:101BD000000678000380FB00A2002000110009002D
:101BE0000200D8000003200001004000004E7800F1
:101BF00061004600000678000020EF00004E7800EB
:101C00000020EF00CF0578004F0578000080FA0033
:101C1000000006000000FA000220EF006050E10022
:101C200002003A00010078004B003700E016210066
:101C30001010A60013003700800620000050E100BD
:101C400010003600E00720000050E1000D003100D8
:101C5000700720000050E1000A00320090062000CA
:101C600080005500E01E2900810040001020200067
:101C700034A0B700114078008080FB00010078009C
:101C8000350037006100550000057800E01621009E
:101C90001050A60018003700800E29008A0040006E
:101CA0001020200034A0B700114078008080FB0095
:101CB000E01621001020A6000900370000042000D3
:101CC0000008E10008003600B00520000008E1002F
:101CD00008003100000220000080400001003700B1
:101CE00001007800010037000100780080007800D2
:101CF0000000370017003700B01629008A004000A6
:101D00001020200034A0B700114078008080FB0034
:101D1000E01621001020A600090037000006200070
:101D20000008E10008003600B00720000008E100CC
:101D30000800310000022000008050000100370040
:101D40000100780001003700010078008000780071
:101D500000003700010078000080FA000000060053
:101D60000000FA000C20EF00150020000820EF0012
:101D70000620EF00B116210010C0B30080487800A3
:101D8000B01621001004E000160032003EFA0700F1
:101D90000000E20012003200528EAE000600370052
:101DA000B01621001080FB000000730061816A0002
:101DB0008002780002003700050178008602780072
:101DC000B01621001080FB00C100DD00B01621001C
:101DD000014878000503780082027800000037008F
:101DE000E7FF370028FA07000000E2000500320094
:101DF0000020EF00528EAF000020EC0000027800BF
:101E00000000370020FA07000000E2000400320062
:101E10000020EF00528EAF000020EC0001003700E0
:101E20000300780013FA07000428E10004003A00D8
:101E30006000E10002003200060078000100370077
:101E40000020EF00000D78000080FA00000006007E
:101E50000000FA000420EF00A016210010407800D6
:101E60006004E1000C003A001117210050C0B300DB
:101E7000804878000117210070C0B30080487800C6
:101E800000BC2800908B880010202000A08B8800C8
:101E900000022000B08B8800020045001004E00022
:101EA0000F00320002004500821F78008A9FBE00AA
:101EB0001045780025FA07004F05BE004F01780055
:101EC000101721001080FB00E10040000B80FB0098
:101ED00001004000804578000420EC00EEFF370050
:101EE0000080FA00000006000400FA008C1F780051
:101EF0000A0798001B0798000620EF006718E1000A
:101F000036003E008A9FBE001420EF0007FC070049
:101F10000345780095FC07001420EF00EDFB070057
:101F20004F05BE000820EF00F00320000020E10074
:101F30000E003E000E0090009E009000A10188005F
:101F40008A9FBE001045780095FC0700600047009E
:101F50001B0020000C00200000057800BFFB0700DC
:101F60004F05BE000820EC00EFFF37008A9FBE003F
:101F70000AC4B300EDFB0700034578007BFC0700B3
:101F80000AC4B300D3FB07004F05BE0004042000C1
:101F9000F00720000020E1000E003E000E0090003F
:101FA0009E009000A10188008A9FBE001045780025
:101FB0007BFC0700600047001B0020000C00200095
:101FC00000057800A5FB07004F05BE000820EC00C7
:101FD000EFFF37000620EC00C8FF37004F067800FF
:101FE0000080FA00000006000400FA000020EF0064
:101FF0001007980080FA0700BEF907000000E20011
:1020000002003A001E009000150037000020EF008B
:102010000007980001082000600047001008E10058
:102020000A003600528EAF000400370052AEAF00F7
:102030000200370010002000090037008E009000D9
:102040006000470061884000F2FF370062004700EF
:102050001000E00001003A0086F907001E00900021
:102060000080FA00000006008A1F78008B1F7800AD
:102070008C1F78008D1F7800600721009040780049
:1020800020C2B300000CE10031003200CC18210066
:102090002A8C80003B8C8000BCFD07000040E200E1
:1020A00005003A001DC0B3001CC0B3001BC4B30040
:1020B000CA18210066FF0700CC1821004A8C800056
:1020C0005B8C8000B1FD07000040E20005003A0093
:1020D0001DC0B3002CC0B3001BC4B300CA1821003C
:1020E0005BFF0700CC1821000A8C80001B8C80004D
:1020F000A6FD07000040E20005003A001DC0B30045
:102100003CC0B3001BC4B300CA18210050FF070035
:10211000CC182100EA8B8000FB8B80009BFD070020
:102120000040E20005003A001DC0B3004CC0B300FF
:102130001BC4B300CA18210045FF07006C0B210027
:102140000B0F21006A07210006000700CAFF3700B5
:10215000CF0678004F067800CF0578004F0578004D
:10216000000006000800FA00100020002007980078
:1021700010002000300798000020EF0010079800A2
:102180000020EF00608B880097FF07000000E2004E
:1021900002003A000020EF00A10037006000470075
:1021A0008A1F780000057800EDFE07004F057800D3
:1021B000010F2000600047001008E1000C003A0009
:1021C0000020EF003007980087FF07000000E200C2
:1021D00001003A00FCFF3700600047008A1F7800CA
:1021E00000057800DEFE07004F0578003700370055
:1021F000010E2000600047001008E1001B003A00BB
:1022000079FF07000000E20001003A00FCFF370000
:10221000600047008A1F780000057800D0FE0700A4
:102220004F057800010F2000600047001008E10012
:102230000B003A000020EF00300798006AFF07000B
:102240000000E20001003A00FCFF37006000470098
:102250008A1F780000057800C1FE07004F0578004E
:1022600010002000608B88001800370071072000E4
:10227000600047001008E1000E003A001000200046
:1022800020079800660047001000E00008003200B8
:10229000E01621001010A70003003700E01621000F
:1022A0001010A00002003700E01621001010A1005D
:1022B00006003700110E2000600047001008E10002
:1022C00002003A00000E200010079800C0162100FE
:1022D0001000E0000B0032000E0090007200E100E0
:1022E00002003A00F00D200010079800C1072000FE
:1022F000600047001008E10002003A00F00D2000E5
:10230000100798000E0090007200E10005003200F6
:1023100091052000600047001008E1000100320034
:102320000A003700100020002007980066004700D0
:102330001000E00003003200E01621001050A00061
:1023400002003700E01621001050A100E016210025
:102350001010A7000600370031072000600047007A
:102360001008E10002003A000020EF002C003700C6
:102370001E0090006000E10007003A000020EF001E
:10238000200798008A1F78000E05900021FE0700A4
:102390004F05780010079800110E200062004700DA
:1023A0001008E1000D003A001000200020079800FE
:1023B000660047001000E00008003200E01621002F
:1023C0001020A70003003700E01621001020A00015
:1023D00002003700E01621001020A100810C20002F
:1023E000620047001008E1000600310010002000E4
:1023F00020079800820C2000E2004700620047009E
:10240000110811002E409000004D78004E409000C1
:10241000804D78006E409000004E78001000200043
:102420000080FA00000006008A1F78008B1F7800E9
:102430008C1F78008D1F7800CD032000CC03200076
:102440002B0020000A02200000DA2800801F7800FC
:1024500010202000801F7800C0032000801F78001B
:10246000C0032000801F7800A3FB07004F00B100CD
:102470008800200047122A000E20ED00FEFF3A00DF
:102480001020ED00FCFF3A00CD032000CC0320001B
:102490002B0020000A022000009E2800801F7800E8
:1024A00010202000801F7800C0032000801F7800CB
:1024B000C0032000801F78008FFB07004F00B10091
:1024C0008800200047122A000E20ED00FEFF3A008F
:1024D0001020ED00FCFF3A00CD032000CC032000CB
:1024E0002B0020000A02200000DA2800801F78005C
:1024F00010202000801F7800C0032000801F78007B
:10250000C0032000801F78007BFB07004F00B10054
:102510008800200047122A000E20ED00FEFF3A003E
:102520001020ED00FCFF3A00CD032000CC0320007A
:102530002B0020000A02200000802800801F780065
:1025400010202000801F7800C0032000801F78002A
:10255000C0032000801F780067FB07004F00B10018
:102560008800200047122A000E20ED00FEFF3A00EE
:102570001020ED00FCFF3A00CD032000CC0320002A
:102580002B0020000A02200000DA2800801F7800BB
:1025900010202000801F7800C0032000801F7800DA
:1025A000C0032000801F780053FB07004F00B100DC
:1025B000CF0678004F067800CF0578004F057800E9
:1025C000000006000000FA00508EA80050AEA800DF
:1025D0000020EF00708B88000080FA0000000600E9
:1025E0001E2EEF002E2EEF003E2EEF004E2EEF009F
:1025F0006E2EEF00F0FF2F0010AEB700402EEF0060
:10260000602EEF00316EA800314EA800312EA800D8
:10261000310EA800000006008A1F78008B1F78008A
:102620008C1F78008D1F78001DC0B3001820EF00AC
:10263000FBC1B3001A05210005FE07001DC0B30051
:102640001CC0B3001620EF00BA09210000FE0700ED
:102650001DC0B3002CC0B3001620EF00AA0A210051
:10266000FBFD07001DC0B3003CC0B3001620EF0007
:102670007A072100F6FD0700CF0678004F067800A4
:10268000CF0578004F057800000006008A1F78000B
:102690008C1F78008D1F7800EAFA07007DC0B30018
:1026A0005CC0B3000ABC2800102020008005780020
:1026B00000022000801F780026FC07002F00B100D8
:1026C0001420EF00A4000700CF0678004F06780022
:1026D0004F057800000006008A1F78008B1F7800E5
:1026E0008C1F78008D1F78001DC0B3001820EF00EC
:1026F0006BC0B300AA022100D5FD07001DC0B300C6
:102700001CC0B3006BC0B300AA142100D0FD0700A9
:102710001DC0B3002CC0B3006BC0B3007A122100FF
:10272000CBFD07001DC0B3003CC0B3006BC0B300BD
:102730004A132100C6FD07001DC0B3004CC0B30002
:102740006BC0B300FA132100C1FD07001DC0B30028
:102750005CC0B3006BC0B3007A0B2100BCFD070066
:10276000CF0678004F067800CF0578004F05780037
:10277000000006008A1F78008B1F78008C1F7800ED
:102780008D1F7800600721009040780020C2B300C0
:10279000000CE1003000320024FA070010808800AD
:1027A0001D00370086FA07003A00070029003700AD
:1027B0001DC0B3007CC0B300EBC1B3006A042100AC
:1027C000A3FD070005E1A800220037001DC0B300EB
:1027D0007CC0B300EBC1B3004A0221009CFD07009E
:1027E00005E1A9001B0037001DC0B3007CC0B30089
:1027F000EBC1B300BA04210095FD070015003700B6
:102800001DC0B3007CC0B300EBC1B300EA012100DE
:102810008FFD07000F003700108080006100E1008D
:10282000E0FF3200108080006200E100E0FF320033
:10283000108080006300E100E4FF3200108080001F
:102840006400E100E8FF3200108080006500E100D4
:10285000EBFF3200CBFF3700CF0678004F06780041
:10286000CF0578004F057800000006002004200006
:1028700090407800F0C1B30080C0600020042000C8
:1028800001487800C1E8A900C3E8A8004460A90095
:1028900000000600610721000020EF00804878005A
:1028A000010F21000020EF0080487800610B21001B
:1028B0000020EF0080487800000006008A1F7800A2
:1028C0008B1F78008C1F78008D1F78001DC0B3000F
:1028D0001820EF00CBC3B300FA0521005CFD070010
:1028E0001DC0B3001CC0B3006BC0B3001A082100A8
:1028F00057FD07001DC0B3002CC0B3006BC0B30070
:102900003A09210052FD07001DC0B3003CC0B300CE
:102910006BC0B300FA0021004DFD07001DC0B300DD
:102920004CC0B3006BC0B3004A00210048FD070053
:102930001DC0B3005CC0B3006BC0B300CA0321006C
:1029400043FD0700CF0678004F067800CF057800DA
:102950004F057800000006000000FA00446EA90050
:10296000444EA8000420EF006710E1000D003E0077
:102970008A1F780002457800FCF907004F057800AF
:102980000220EF00F00320000008E10003003E00F9
:1029900003FA07000220EC00FAFF37000420EC00E5
:1029A000F1FF3700444EA900446EA8000420EF0058
:1029B0006710E1000D003E008A1F78000245780094
:1029C000EAF907004F0578000220EF00F00320002D
:1029D0000008E10003003E00F1F907000220EC00CE
:1029E000FAFF37000420EC00F1FF37000080FA0006
:1029F000000006008A1F78008B1F78008C1F78006B
:102A00008D1F78001DC0B3007CC0B300CBC3B300E2
:102A10001A0C21000EFD07001DC0B3007CC0B300DE
:102A2000CBC3B300AA06210009FD0700CF0678003A
:102A30004F067800CF0578004F05780000000600AB
:102A40000021EF0020A1270002A1B7002068A80004
:102A50000068A900000023008000780000842000A6
:102A600090806800000027008080600000842000C3
:102A700090806800014288000421EF0000C2B3008A
:102A8000804078004010200090C0680000C3B30070
:102A900080C060004010200090C0680040102000FE
:102AA0000148780005E1A900000006008A1F7800AF
:102AB0000A40280010202000800578000AFD070049
:102AC0004800200017092D000E20ED00FEFF3A00FF
:102AD0001020ED00FCFF3A000000000000000000A4
:102AE000000000000A002800102020008005780067
:102AF000FDFC07004800200017092D000E20ED0006
:102B0000FEFF3A001020ED00FCFF3A00000000003C
:102B100000000000000000004F05780000000600E3
:102B20003400F8003200F8003600F800801F78000A
:102B3000200020000C000900B01F780011002000C8
:102B400060152100108840000028A900A001200085
:102B50000C0009004F1078004F0078003600F90093
:102B60003200F9003400F90000400600CF192100BE
:102B7000F0FF270020A0B7001020200032A0B700EF
:102B8000400020004420B7000818020000000000A8
:102B90008A1F78008B1F78008C1F78008D1F7800AB
:102BA0008FFE0700B9FE070030FF0700A4FF0700F3
:102BB000BEFF07001420EF0067FF070081FE07003B
:102BC0001420EF0064FF070093FE07006C0B210048
:102BD0000B0F21006A07210062FD07000000E200E0
:102BE0005E003200600B21001004E0005B00320048
:102BF0001DC0B3007CC0B3001620EF00FA11210005
:102C000093FC07008800200047122A000E20ED00E8
:102C1000FEFF3A001020ED00FCFF3A001DC0B3009B
:102C20007CC0B3001620EF004A0F210088FC07008B
:102C3000D10F21000020EF00804878002D003700E0
:102C400014FF07001DFF0700CAFE070043003700FE
:102C500010FF0700A0FE070003FD07003F0037003C
:102C60001DC0B3007CC0B300CBC3B3000A10210069
:102C700077FC0700390037001DC0B3007CC0B300EB
:102C8000CBC3B3001A0F210071FC070033003700DB
:102C900058FF07008800200047122A000E20ED0090
:102CA000FEFF3A001020ED00FCFF3A002B00370039
:102CB0001DC0B3007CC0B300CBC3B300DA10210049
:102CC00063FC07008800200047122A000E20ED0058
:102CD000FEFF3A001020ED00FCFF3A001DC0B300DB
:102CE0007CC0B300CBC3B3006A11210058FC0700BD
:102CF0001A003700600721009040780080C7B300B9
:102D0000000CE100CEFF3200600721009040780007
:102D100070C5B300000CE100CDFF32006007210058
:102D200090407800F0C6B300000CE100CCFF320008
:102D30006007210090407800C0C6B300000CE1009D
:102D4000CDFF3200600721009040780040C6B300FC
:102D5000000CE100CEFF3200D5FF37009AFF3700AC
:102D6000FFFF37003400F8003200F8003600F800AA
:102D7000801F7800200020000C000900B01F7800A0
:102D80008A1F780011C0B300E00F210010C8400076
:102D9000E00F2100104078006A04E10041003A0091
:102DA000E10F21000020EF008048780011C0B3003F
:102DB000F00F210010C84000F00F210010407800F3
:102DC0006604E10037003A00F10F21000020EF0017
:102DD0008048780011C0B3004016210010C84000A0
:102DE00040162100104078006A04E1002D003A00EE
:102DF000411621000020EF008048780011C0B30088
:102E00005016210010C840005016210010407800D4
:102E10006604E10023003A00511621000020EF0073
:102E20008048780011C0B3002013210010C8400072
:102E300020132100104078006A04E1000B003A00E2
:102E400030132100104078006004E10007003A00D0
:102E5000211321000020EF008048780011C0B3004A
:102E60003013210010C840000E003700201321004D
:102E7000104078006304E1000A003A00301321009A
:102E8000104078006104E10006003A00211321009F
:102E900010C0B30080487800311321000020EF00FB
:102EA00080487800601621001000E0001900320010
:102EB0008015210090407800A0062100100CE10050
:102EC00014003A009015210090407800B0062100CF
:102ED000100CE1000F003A00B0152100904078007E
:102EE000D0062100100CE1000A003A00C0152100B4
:102EF00090407800E0062100100CE10005003A0047
:102F00001420EF0094FE070047FD07000020EF00AB
:102F1000308B8800301321001041780001C3B300CA
:102F2000A006210001484100201321001041780033
:102F300001C3B300B006210001484100C1062100D1
:102F4000A0C3B300804878005016210010417800DB
:102F500001C3B300D0062100014841004016210002
:102F60001041780001C3B300E00621000148410090
:102F7000F1062100A0C3B30080487800F00F2100C3
:102F80001041780001C3B30000072100014841004F
:102F9000E00F21001041780001C3B30010072100A9
:102FA0000148410021072100A0C3B30080487800F8
:102FB000601221001041780001C3B30030072100E6
:102FC00001484100501521001041780001C3B300B1
:102FD0004007210001484100510721000020EF0077
:102FE0008048780083FE07000068A9004F0578003C
:102FF000A00120000C0009004F1078004F0078005D
:103000003600F9003200F9003400F90000400600F3
:103010000100210000F82800B3000900B018780072
:1030200000000600FFFFFFFFFFFFFFFFFFFFFFFFA6
:10303000FFFFFFFFFFFFFFFFFFFFFFFFFFFFFFFFA0
:10304000FFFFFFFFFFFFFFFFFFFFFFFFFFFFFFFF90
:10305000FFFFFFFFFFFFFFFFFFFFFFFFFFFFFFFF80
:10306000FFFFFFFFFFFFFFFFFFFFFFFFFFFFFFFF70
:020000040001F9
:1000A0000000000080800000000000000000000050
:1000B0000000000000000000000000000000000040
:1000C0000000000000000000000000000000000030
:1000D0000000000000000000000000000000000020
:1000E0000000000000000000000000000000000010
:1000F0000000000000000000000000000000000000
:1001000000000000000000000000000000000000EF
:1001100000000000000000000000000000000000DF
:10012000000000000000000000000000008000004F
:100130004020000020100000101000000804000003
:10014000347A0000DE8000000000000000000000A3
:10015000000000000000000000000000000000009F
:10016000000000000000000000000000000000008F
:10017000000000000000000000000000000000007F
:10018000000000000000000000000000000000006F
:1001900000000000000000000080000040E00000BF
:1001A00038070000000000003F700000E0C00000C1
:1001B00080000000000000000000000000000000BF
:1001C000000000000000000000000000000000002F
:1001D00000000000004400000C98000038F8000007
:1001E00070E00000C00000000000000000000000FF
:1001F00000000000000000000000000000000000FF
:1002000000000000000000000000000000000000EE
:1002100000000000000000000000000000000000DE
:100220000000000000000000804000007C1B000077
:10023000000000000010000020380000FCF6000064
:10024000E2FE0000FFFF0000FEC00000C0C0000092
:10025000C0C00000C0C0000080800000800000001E
:10026000000000000000000000000000000000008E
:10027000000000000000000000000000000000007E
:10028000000000000000000000000000000000006E
:1002900000000000003C0000D3800000800000004F
:1002A0000030000040C00000A8F800008CFF0000F3
:1002B000FFFE0000F8C0000080800000C040000089
:1002C0002020000010100000108800008888000026
:1002D000888800009674000058B700005EBF0000D8
:1002E0007D3A0000053F0000F8C00000000000005B
:1002F00000000000000000000000000000000000FE
:1003000000000000000000000000000000000000ED
:100310000000000000000000E0FE0000F880000087
:100320000000000000000000070A0000101000009C
:10033000F4F00000F0F80000F8FE0000FFDF00001D
:100340008F87000083C30000E3E70000DF8F000019
:100350004F3D0000F830000031610000C1C30000D3
:10036000E3620000FE3C00001CF80000B0600000EA
:10037000000000000000000000000000000000007D
:10038000000000000000000000000000000000006D
:1003900000000000000000000F11000028E0000035
:1003A000E0E80000E0F80000F7FF0000FF7F000039
:1003B0007F7F00007F7F00003F1F00000FFF0000D5
:1003C0007F7700002727000027430000C383000039
:1003D000030100003B7F00007DF00000E0F0000022
:1003E000F8F40000E01E000003010000000000001F
:1003F00000000000000000000000000000000000FD
:1004000000000000000000000000000000000000EC
:1004100000000000000000001F670000831F0000B4
:100420003C780000F0F00000E0E00000C0C00000F8
:10043000C16700003F1F000038100000302100009D
:10044000212100002121000031930000FFFF000066
:100450007A7900007D7E0000F8F00000E080000066
:10046000010200000403000002010000000000007F
:10047000000000000000000000000000000000007C
:10048000000000000000000000000000000000006C
:100490000080000060100000888800008486000052
:1004A000CFFF00003F1F00001F1D0000186000006C
:1004B000800000000000000008140000275A00001F
:1004C0008A05000001030000030F00001F3F000029
:1004D000FFFE0000F8F00000F8E8000084030000D0
:1004E000C03000000D00000000000000000000000F
:1004F00000000000000000000000000000000000FC
:1005000000000000000000000000000000000000EB
:1005100000000000000000000000000001020000D8
:1005200004080000103300003F7F00007FFF000040
:10053000F0C00000C0C00000F0F80000FDFE0000A8
:10054000FEFE0000FEFE00007F7300004180000000
:100550008080000080800000C0E00000F3FF000009
:10056000FEF80000E00000000000000000000000B5
:10057000000000000000000000000000000000007B
:100580000000000000000000000000000018000053
:10059000262F0000121700001C08000007030000AF
:1005A000010000000000000000000000000E00003C
:1005B0003141000042C40000E4FC0000F8F80000F3
:1005C000F0F10000E3E40000E42800002C1E00002D
:1005D000171300000B0900000504000002010000D1
:1005E000000000000000000000000000000000000B
:1005F00000000000000000000000000000000000FB
:1006000000000000000000000000000000000000EA
:1006100000000000000000000000000000000000DA
:1006200000000000000000000000000000040000C6
:100630000A0F000017170000170F0000171700001F
:100640001F07000003000000000000000000000081
:1006500008150000171F00002F2F00002F1F00009B
:100660002F270000170F0000060000000000000008
:10067000000000000000000000000000000000007A
:10068000000000000000000000000000000000006A
:10069000000000000000000000000000000000005A
:1006A000000000000000000000000000000000004A
:1006B000000000000000000000000000030D00002A
:1006C000140C0000110F00000403000000000000E3
:1006D000000000000000000000000000000000001A
:1006E000000000000000000000000000000000000A
:1006F00000000000000000000000000000000000FA
:1007000000000000000000000000000000000000E9
:10092000000000000000000000C0000020100000D7
:100930000008000008080000080000001010000077
:10094000A0C0000000000000000000000000000047
:100950000000000000000000000000000000000097
:100960000000000000000000000000000000000087
:100970000000000000000000000000000000000077
:100980000000000000000000000000000000000067
:1009900000000000000000000000000000800000D7
:1009A0008040000040400000404000008080000087
:1009B0000000000000000000000000000000000037
:1009C0000000000000000000000000000000000027
:1009D0000000000000000000000000000000000017
:1009E0000000000000000000000000000000000007
:1009F00000000000000000000000000000000000F7
:100A000000000000000000000000000000000000E6
:100A100000000000000000000000000000000000D6
:100A20000000000000000000DF3E00003810000061
:100A300000000000001000001CAE00007FFC000061
:100A4000FCFF0000FFF0000080000000000000003C
:100A500000000000000000000008000070E000003E
:100A6000C0000000000000000000000000000000C6
:100A70000000000000000000000000000000000076
:100A80000000000000000000000000000000000066
:100A90000000000000000000788600000100000057
:100AA00000000000000000001C2400007C78000012
:100AB000310600001860000080000000F0380000DF
:100AC000D408000014180000F000000000800000AE
:100AD00000C00000B00000000000000000000000A6
:100AE0000000000000000000000000000000000006
:100AF00000000000000000000000000000000000F6
:100B000000000000000000000000000000000000E5
:100B100000000000000000000000000000000000D5
:100B200000000000000000000102000004080000B6
:100B300008880000C83C00001A1D00008E4F00000D
:100B4000371B0000030700008FFE0000F870000054
:100B50004080000000000000000000000083000052
:100B6000FFFF0000FCF0000000000000000000009B
:100B70000000000000000000000000000000000075
:100B80000000000000000000000000000000000065
:100B90000070000098080000684900000F30000055
:100BA00040C00000808000005040000020980000FD
:100BB00097480000300C0000010600000100000012
:100BC00000C00000700E000001000000010A0000DB
:100BD000150B0000976F00009E0000000000000051
:100BE0000000000000000000000000000000000005
:100BF00000000000000000000000000000000000F5
:100C000000000000000000000000000000000000E4
:100C100000000000000000000000000000000000D4
:100C20000000000000000000001C0000322900004D
:100C3000211000001F600000800E00001914000049
:100C400018080000043E00008701000000000000BA
:100C50000000000083FC0000FCFE00007F3F00005D
:100C60001F0F000003000000000000000000000053
:100C70000000000000000000000000000000000074
:100C80000000000000000000000000000000000064
:100C9000000000000001000001020000020200004C
:100CA00007870000F70F00000101000001000000AD
:100CB0000000000000000000804000000000000074
:100CC000010300001C7000009010000088880000E4
:100CD000C4E20000F93E00000F0000000000000028
:100CE0000000000000000000000000000000000004
:100CF00000000000000000000000000000000000F4
:100D000000000000000000000000000000000000E3
:100D100000000000000000000000000000000000D3
:100D200000000000000000000000000000000000C3
:100D30000080000040200000201100000A8C00000C
:100D40009CF80000F8E8000008050000067C0000A0
:100D5000840600008F1D000038F00000E0C0000095
:100D60008000000000000000000000000000000003
:100D70000000000000000000000000000000000073
:100D80000000000000000000000000000000000063
:100D9000000000000000000000000000804E000085
:100DA0005120000020430000CCF80000F0F00000CB
:100DB00060200000203E000039700000E0E00000EC
:100DC00040400000406000005F8700000703000013
:100DD000030100000000000000000000000000000F
:100DE0000000000000000000000000000000000003
:100DF00000000000000000000000000000000000F3
:100E000000000000000000000000000000000000E2
:100E100000000000000000000000000000000000D2
:100E200000000000000000000000000000000000C2
:100E300000010000020300000202000003020000A3
:100E4000030100000100000000000000000000009D
:100E5000010200000203000002030000030300007F
:100E60000100000000000000000000000000000081
:100E70000000000000000000000000000000000072
:100E80000000000000000000000000000000000062
:100E90000000000000000000000000000001000051
:100EA000010100000101000001010000010000003B
:100EB000000000000000000000000000010200002F
:100EC0000202000002020000020100000000000017
:100ED0000000000000000000000000000000000012
:100EE0000000000000000000000000000000000002
:100EF00000000000000000000000000000000000F2
:100F000000000000000000000000000000000000E1
:100F100000000000000000000000000000000000D1
:100F200000000000000000000000000000000000C1
:100F300000000000000000000000000000000000B1
:100F400000000000000000000000000000000000A1
:100F50000000000000000000000000000000000091
:100F60000000000000000000000000000000000081
:100F70000000000000000000000000000000000071
:100F80000000000000000000000000000000000061
:100F90000000000000000000000000000000000051
:100FA0000000000000000000000000000000000041
:100FB0000000000000000000000000000000000031
:100FC0000000000000000000000000000000000021
:100FD0000000000000000000000000000000000011
:100FE0000000000000000000000000000000000001
:100FF00000000000000000000000000000000000F1
:1010000000000000000000000000000000000000E0
:101010000000000000000000000000000080000050
:10102000C0C0000060600000000000000000000080
:1010300000000000000000000000000000000000B0
:1010400000000000000000000000000000000000A0
:101050000000000000000000000000000000000090
:101060000000000000000000000000000000000080
:101070000000000000000000000000000000000070
:10108000000000000000000000800000E078000088
:101090003C0E000007C30000E1700000381800009B
:1010A0000C0C0000000000000000000000800000A8
:1010B00080800000C0800000C080000080C0000070
:1010C000E030000030E00000E00000000000000020
:1010D0000000000000000000000000000000000010
:1010E0000000000000000000000000000000000000
:1010F00000000000000000000000000000F0000000
:10110000FE0F000001000000E0FC00001F030000D3
:10111000010000000000000000C00000F0F8000026
:10112000FEFE0000FFFF0000FFFF0000FFFF0000C9
:10113000FFFF0000FFFF0000FFFF0000FFFF0000B7
:10114000F9F00000C00000000000000000000000F6
:10115000000000000000000000000000000000008F
:10116000000000000000000000000000000000007F
:101170000000000000030000030000000000000069
:1011800003830000C0C00000E0F00000F8FE000093
:10119000FFFF0000FFFF0000FFFF0000FFFF000057
:1011A000FFFF0000FFFF0000FFFF0000FFFF000047
:1011B000FFFF0000FFFF0000FF7F00001F00000096
:1011C000000000000000000000F80000FC0000002B
:1011D00000000000F8000000000000000000000017
:1011E00000000000000000000000000000000000FF
:1011F0000000000000030000070F00000F1F0000A8
:101200001F3F00003F7F0000FFFF0000FFFF0000C6
:10121000FFFF0000FFFF0000FFFF0000FFFF0000D6
:10122000FFFF0000FFFF0000FF3F00000F0700006E
:10123000010000000000000080C00000F038000045
:101240001F07000081C00000F03E00000F000000FA
:10125000000000000000000000000000000000008E
:10126000000000000000000000000000000000007E
:10127000000000000000000000000000061E00004A
:101280001C3C00003931000033030000070F000050
:101290000F1F00001F3F00007F7F0000FFFF0000C6
:1012A000FB000000000000000006000007430000F3
:1012B000E3600000301800001C0E0000070300006F
:1012C000000000000000000000000000000000001E
:1012D000000000000000000000000000000000000E
:1012E00000000000000000000000000000000000FE
:1012F00000000000000000000000000000000000EE
:1013000000000000000000000000000000000000DD
:1013100000000000000000000000000000000000CD
:1013200000000000000000000000000000000000BD
:1013300000000000000000000000000000000000AD
:10134000000000000000000000000000000000009D
:10135000000000000000000000000000000000008D
:10136000000000000000000000000000000000007D
:10137000000000000000000000000000000000006D
:10138000000000000000000000000000000000005D
:10139000000000000000000000000000000000004D
:1013A000000000000000000000000000000000003D
:1013B000000000000000000000000000000000002D
:1013C000000000000000000000000000000000001D
:1013D000000000000000000000000000000000000D
:1013E00000000000000000000000000000000000FD
:1013F00000000000000000000000000000000000ED
:1014000000000000000000000000000000000000DC
:101410000060000060E00000C080000000000000EC
:1014200000000000000000000000000000000000BC
:1014300000000000000000000000000000000000AC
:10144000000000000000000000000000000000009C
:10145000000000000000000000000000000000008C
:10146000E0F0000030B00000F0E00000C0C000007C
:10147000C0C00000C0C000008080000080000000EC
:1014800000000000000600000E1C00003870000084
:10149000E1C30000070E00001C780000E08000009F
:1014A000000000000000000000000000000000003C
:1014B000000000000000000000000000000000002C
:1014C000000000000000000000000000000000001C
:1014D00000000000E0F80000FDFF0000FFFF00003A
:1014E000FFFF0000FFFF0000FFFF0000FFFF000004
:1014F000FFFF0000FFFF0000FEFC0000F0C0000046
:101500008000000000000000000300001FFC00003D
:10151000E0000000010F0000FEF0000000000000ED
:1015200000000000000000000000000000000000BB
:101530001CFC0000E000000000080000FCF80000B7
:101540000000000000000000000000001F7F0000FD
:10155000FFFF0000FFFF0000FFFF0000FFFF000093
:10156000FFFF0000FFFF0000FFFF0000FFFF000083
:10157000FFFF0000FFFF0000FFFE0000F8F000008A
:10158000E0C00000C08300008300000000000000F5
:101590000303000000000000000000000000000045
:1015A0000000000000000000000100000F3E0000ED
:1015B000F0C00000810700001E3C000070E0000049
:1015C000C080000000000000010300000F3F000089
:1015D000FFFF0000FFFF0000FFFF0000FFFF000013
:1015E000FFFF0000FFFF0000FFFF0000FFFF000003
:1015F0007F3F00003F1F00001F0F00000F0700008B
:1016000003030000000000000000000000000000D4
:1016100000000000000000000000000000000000CA
:1016200000000000000000000001000003070000AF
:101630000E1800003830000061230000070200008F
:1016400000000000000000007FFF00007F3F00005E
:101650003F1F00001F0F00000F07000003130000D2
:10166000111900003C1C00001E0E000003000000C9
:10167000000000000000000000000000000000006A
:10168000000000000000000000000000000000005A
:10169000000000000000000000000000000000004A
:1016A000000000000000000000000000000000003A
:1016B000000000000000000000000000000000002A
:1016C000000000000000000000000000000000001A
:1016D000000000000000000000000000000000000A
:1016E00000000000000000000000000000000000FA
:1016F00000000000000000000000000000000000EA
:1017000000000000000000000000000000000000D9
:1017100000000000000000000000000000000000C9
:1017200000000000000000000000000000000000B9
:1017300000000000000000000000000000000000A9
:101740000000000000000000000000000000000099
:101750000000000000000000000000000000000089
:101760000000000000000000000000000000000079
:101770000000000000000000000000000000000069
:10178000000000000000000000000000005F0000FA
:101790000000000000070000000700000014000027
:1017A0007F1400007F140000242A00007F2A00001C
:1017B0001223000013080000646200003649000094
:1017C000552200005000000005030000000000004A
:1017D000001C000022410000000000004122000027
:1017E0001C000000082A00001C2A00000808000055
:1017F000083E000008080000005000003000000013
:101800000008000008080000080800000030000080
:10181000300000000020000010080000040200005A
:101820003E510000494500003E000000427F00009C
:1018300040000000426100005149000046210000C4
:10184000414500004B31000018140000127F0000D9
:101850001027000045450000453900003C4A0000C3
:101860004949000030010000710900000503000033
:101870003649000049490000360600004949000089
:10188000291E0000003600003600000000000000A5
:10189000563600000000000000080000142200007E
:1018A0004114000014140000141400004122000030
:1018B00014080000000200000151000009060000A9
:1018C00032490000794100003E7E00001111000005
:1018D000117E00007F49000049490000363E0000AB
:1018E00041410000412200007F41000041220000F0
:1018F0001C7F000049490000494100007F090000A9
:1019000009010000013E0000414100005132000089
:101910007F080000080800007F000000417F0000F1
:101920004100000020400000413F0000017F000016
:1019300008140000224100007F40000040400000E9
:10194000407F000002040000027F00007F040000CE
:10195000081000007F3E000041410000413E0000B1
:101960007F09000009090000063E00004151000007
:10197000215E00007F090000192900004646000092
:101980004949000049310000010100007F010000C9
:10199000013F000040400000403F00001F200000C9
:1019A000402000001F7F000020180000207F000062
:1019B00063140000081400006303000004780000B2
:1019C000040300006151000049450000430000008D
:1019D000007F0000414100000204000008100000E8
:1019E00020410000417F00000000000004020000D0
:1019F00001020000044000004040000040400000A0
:101A00000001000002040000002000005454000007
:101A1000547800007F48000044440000383800003B
:101A200044440000442000003844000044480000C2
:101A30007F3800005454000054180000087E000055
:101A4000090100000208000014540000543C00008A
:101A50007F0800000404000078000000447D0000BE
:101A60004000000020400000443D00000000000055
:101A70007F10000028440000004100007F4000006B
:101A8000007C000004180000047800007C080000BE
:101A9000040400007838000044440000443800008A
:101AA0007C14000014140000080800001414000046
:101AB000187C00007C0800000404000008480000B6
:101AC0005454000054200000043F00004440000033
:101AD000203C000040400000207C00001C20000052
:101AE000402000001C3C000040300000403C000052
:101AF0004428000010280000440C00005050000052
:101B0000503C000044640000544C000044000000BD
:101B10000836000041000000000000007F000000C7
:101B20000000000041360000080000000808000026
:101B30002A1C0000080800001C2A000008080000F9
:101B40000000000000000000000000000000000095
:101B50000000000000000000000000000000000085
:101B60000000000000000000000000000000000075
:101B70000000000000000000000000000000000065
:101B80000000000000000000000000000000000055
:101B90000000000000000000000000000000000045
:101BA0000000000000000000000000000000000035
:101BB0000000000000000000000000000000000025
:101BC0000000000000800000C0C000000000000015
:101BD0000000000000000000000000000000000005
:101BE00000000000000000008080000080F800007D
:101BF000FCCC0000CCFC0000F880000080800000DD
:101C000000000000000000000000000000000000D4
:101C1000000000000000000000000000C0C0000044
:101C20008000000000000000000000000000000034
:101C3000000000000000000000E00000FC1F0000A9
:101C400003000000C0F800003E0600000000000095
:101C50000000000000C00000F8FC0000FEFF0000D3
:101C6000FFFF0000FFFF0000FFFF0000FFFF00007C
:101C7000FFFF0000FFFF0000FFFE0000FCF8000077
:101C8000C00000000000000000000000063E000050
:101C9000F8C00000000300003FFC0000E00000006E
:101CA0000000000000000000000000000000000034
:101CB000007F0000FF800000000000003FFF0000E8
:101CC000C0000000000000000000000000FF000055
:101CD000FFFF0000FFFF0000FFFF0000FFFF00000C
:101CE000FFFF0000FFFF0000FFFF0000FFFF0000FC
:101CF000FFFF0000FFFF0000FF00000000000000E9
:101D00000000000000C00000FF3F000000000000D5
:101D1000C0FF00007F000000000000000000000085
:101D2000000000000000000000000000031F000091
:101D30003C30000000010000070600000000000029
:101D400080C00000F8FF0000FFFF0000FFFF000060
:101D5000FFFF0000FFFF0000FFFF0000FFFF00008B
:101D6000FFFF0000FFFF0000FFFF0000FFFF00007B
:101D7000FFF00000C0800000000000000607000027
:101D800001000000303C00001F03000000000000C4
:101D90000000000000000000000000000000000043
:101DA0000000000000000000000000000000000033
:101DB0000000000000060000070700000707000001
:101DC000070700000707000007070000676700001B
:101DD000E7E70000E7E7000067670000070700008B
:101DE00007070000070700000707000007070000BB
:101DF00006000000000000000000000000000000DD
:101E000000000000000000000000000000000000D2
:101E100000000000000000000000000000000000C2
:101E200000000000000000000000000000000000B2
:101E300000000000000000000000000000000000A2
:101E40000000000000000000000000000000000092
:101E50000000000000000000000000000000000082
:101E60000000000000000000000000000000000072
:101E70000000000000000000000000000000000062
:101E80000000000000000000000000000000000052
:101E90000000000000000000000000000000000042
:101EA0000000000000000000000000000000000032
:101EB0000000000000000000000000000000000022
:101EC0000000000000000000000000000000000012
:101ED0000000000000000000000000000000000002
:101EE00000000000000000000000000000000000F2
:101EF00000000000000000000000000000000000E2
:101F00002A000000000000003429000020520000D8
:101F1000455300004554000020200000003300001D
:101F200029200000504100005553000045000000EA
:101F3000200000004553000043000000414C000019
:101F4000415200004D0000007061000075730000F8
:101F5000650000005075000065720000746F00009D
:101F60002064000065200000456E000074720000CF
:101F7000616400006100000035290000204100007C
:101F80006C610000726D000061000000504C0000A8
:101F90004159000000520000455300004554000024
:101FA000004C0000616200006F720000617400006C
:101FB0006F720000696F00002032000000430000D3
:101FC000726F00006E6F00006D650000747200009B
:101FD0006F000000303000003A300000303A00005E
:101FE000303000003A3000003000000000270000D0
:101FF0004527000020500000574D00002020000021
:102000000031000029200000507200006F670000BE
:10201000726100006D61000072200000486F0000D6
:10202000726100000032000029200000504C0000C6
:102030004159000000270000512700002043000004
:10204000726F00006E6F00006D650000747200001A
:102050006F000000275700002720000043610000A8
:10206000707400007572000061000000003500000F
:1020700029200000566F00006C7600006572000099
:102080000020000020200000202000002020000070
:102090002020000020200000202000002020000040
:1020A0002020000020200000202000002020000030
:1020B0002020000020200000202000002020000020
:1020C0002020000020200000202000002020000010
:1020D0002020000020200000202000002000000020
:1020E00000410000420000002020000020200000ED
:1020F0002020000020200000000000000000000060
:1021000041520000004900004E460000004E000011
:10211000614E0000003000000045000072720000B7
:102120006F6E0000656F000020000000202000009E
:10213000202000002020000020200000004500009A
:102140006E74000072610000720000000052000016
:10215000507800002F5000004F52000054780000CB
:10216000790000000000000052500000782F0000AD
:10217000504F0000525400007879000000520000D7
:10218000507800002F5000004F520000547800009B
:102190007900000052500000782F0000504F0000DE
:1021A0005254000078790000000000000000000098
:1021B000303000003A300000303A0000303000008B
:1021C0003A30000030000000000000000000000075
:1021D000D1000000CDCB0000C9CA0000D40000002F
:1021E000D2D00000CECC0000EB7E0000000000004A
:1021F000DEDD000000DC00005121000000000000D6
:10220000005A00005341000057400000DB0000006E
:10221000435800004445000024230000DB00000078
:102220002056000046540000522500000000000027
:102230004E42000048470000595E000000000000C8
:10224000004D00004A550000262A00000000000052
:102250003C4B0000494F000029280000000000000E
:102260003E3F00004C3A0000505F000000000000BC
:1022700000220000007B00002B00000000E10000B5
:10228000DDD500007D0000007C00000000000000A3
:10229000000000000000000000D800000000000066
:1022A000E2000000E6E300000000000000D90000AA
:1022B000DAE9000035E70000E8EA0000E5D30000B5
:1022C0002BD700002D2A0000D6E4000000000000FB
:1022D00000000000CFD1000000CD0000CBC90000FD
:1022E000CAD40000D3D20000D0CE0000CCEB000056
:1022F0006000000000DE0000DD000000DC71000076
:1023000031000000000000007A73000061770000D7
:1023100032DB0000006300007864000065340000D8
:1023200033DB0000002000007666000074720000BD
:1023300035000000006E0000626800006779000050
:1023400036000000000000006D6A000075370000D4
:1023500038000000002C00006B6900006F300000A6
:1023600039000000002E00002F6C00003B700000C0
:102370002D00000000000000270000005B3D000071
:1023800000000000E1DD0000D55D0000005C000001
:10239000000000000000000000000000000000003D
:1023A000D800000000E2000000E60000E3000000AA
:1023B00000000000D9DA0000E9350000E7E800007D
:1023C000EAE50000D32B0000D72D00002AD600003C
:1023D000E40000000000000000CF00003100000019
:1023E0003437000000000000003000002E320000F2
:1023F0003536000038000000000000002B330000DC
:102400002D2A000039000000FFFFFFFFFFFFFFFF44
:0200000401F009
:1C0008000300000082000000A60000007F0000003F000000D70000000300000019
:00000001FF
