:10000000B017040000000000000000000000000025
:1000100000000000000000000000000000000000E0
:100020000000000000000000000000002C1700008D
:10003000000000006C17000000000000000000003D
:1000400000000000000000000000000000000000B0
:1000500000000000000000000000000000000000A0
:100060000000000000000000000000000000000090
:100070000000000000000000000000000000000080
:100080000000000000000000000000000000000070
:1000900000000000E4180000C41800000000000088
:1000A0000000000000000000000000000000000050
:1000B0000000000000000000000000000000000040
:1000C0000000000000000000000000000000000030
:1000D0000000000000000000000000000000000020
:100400000200FA000420EF006514E100060031004C
:100410000280FB008080450000C2B3008048780065
:100420000460EC00F8FF37000280FB00808045008C
:100430000020EF0080487800E14151000380FB007C
:100440000080450000079800A2002000110009006C
:100450000285D80000032000808040000E0090003C
:1004600001487800A2002000110009000285D80090
:10047000000578006000E10001003A00020037004A
:100480000660ED00EDFF37000080FA000000060076
:10049000A70020000E20ED00FEFF3A000000000043
:1004A00000000000000006000000FA008A1F78002B
:1004B0000820EF000A0078006050E10003003D00D2
:1004C00014002000600015000000370000057800CF
:1004D000CBFF070063002000040178006018E100F2
:1004E0000600360083804500618051000080450091
:1004F000904878000620ED00F8FF370000C2B300F6
:10050000804D78000400E2000C0032000420EF006F
:10051000028045009040780000C2B300000CE1006A
:1005200002003A000420EC00F9FF3700610051009E
:1005300080804500D0C2B300804878004F05780025
:100540000080FA00000006000000FA000200070028
:100550001203040000000000841F7800140007004C
:100560004F00780011003300F0FF2F00838F6C00E4
:1005700006003B00040565000A00A70008003700DC
:1005800009F0A6001000200008003700820F540078
:10059000838F5C00030039001000200001003E0042
:1005A0000000200009F0A7000000EA00000006009B
:1005B0000084BE00060007000083BE000485BE0064
:1005C0000280BE0002000700844F75000000060094
:1005D000C70ADE00F107B200F50FB20008003200D2
:1005E000E1CF42000200320002E0A8002400050032
:1005F000810F70000100320004080500440005006E
:10060000810F700002003A00140005008502E90025
:100610000000400081C04800FCFF3B0002E0A80051
:10062000240005000080FA00000006000000FA0027
:1006300014002000C4FF07000080FA00000006003C
:100640000000FA00F4FF2F00BFFF07000080FA004F
:10065000000006008A1F78008D1F78008B1F78002D
:100660004B1A210090FF0700CF0578001DC0B30092
:100670004A1A210036080700CF0678004F05780097
:100680000000060000000000000000000000000064
:100690000000000000000000000006000000FA005A
:1006A0000A00780000017800E10140008B0078002A
:1006B0006180450080057800114978001204E0004F
:1006C0000200320003007800F6FF37000A007800CD
:1006D0000080FA00000006000000FA0014E0AE00FE
:1006E000422EA90014E0AF00422EA8000000000036
:1006F00014C0AE00420EA90014C0AF00420EA80004
:100700000000000014A0AE00522EA90014A0AF00FB
:10071000522EA800000000001480AE00520EA90066
:100720001480AF00520EA800000000001460AE005C
:1007300032EEA9001460AF0032EEA8000000000005
:100740001440AE0032CEA9001440AF0032CEA80053
:10075000000000001420AE0032AEA9001420AF004B
:1007600032AEA800000000001400AE00328EA900D6
:100770001400AF00328EA800000000000080FA00D4
:10078000000006000000FA0041FF0700346EA800D8
:100790003FFF0700346EA9000080FA000000060049
:1007A0000000FA0050AEA8000080FA000000060029
:1007B0000200FA0010002000000798000108200045
:1007C000600047001008E1000A00360052AEAE009B
:1007D0000400370001082000600047001088700006
:1007E000030037001100200060004700108840001F
:1007F000F2FF3700600047001070A1000E0090006B
:100800000080FA00000006000000FA000A017800EB
:1008100062004500104078000000AF000200370081
:10082000610041001074A100E20041001140780015
:100830000080FB004100DE008048780012994500EE
:1008400012114E00E2004100114078000080FB00D0
:100850004100DD00804878006100410010407800D0
:1008600000E0AE0002003700620041001004A0006A
:10087000610041001074A0000080FA000000060032
:100880000200FA00402EA800400EA800502EA8003A
:10089000500EA80030EEA80030CEA80030AEA80060
:1008A000308EA80077FF070076FF0700342EA800DF
:1008B000346EA900344EA800346EA800F4FE070080
:1008C000600047001070A000422EAE001070A10022
:1008D000600047001060A000420EAE001060A10052
:1008E000600047001050A000522EAE001050A10032
:1008F000600047001040A000520EAE001040A10062
:10090000600047001030A00032EEAE001030A100B1
:10091000600047001020A00032CEAE001020A100E1
:10092000600047001010A00032AEAE001010A10011
:10093000600047001000A000328EAE001000A10041
:10094000346EA900344EA9004EFF07004DFF07008A
:10095000402EA900400EA900502EA900500EA9005B
:1009600030EEA90030CEA90030AEA900308EA9002B
:100970000E4090000080FA00000006000000FA001F
:1009800050AEA90052AEA9000080FA000000060097
:100990000200FA008B1F78008C1F780000002000F6
:1009A000000798008A1F78007C0020008A057800E4
:1009B0000E05900027FF07004F0578001C0907006F
:1009C00030152100104078006D04E1003A0032003B
:1009D0008A1F7800DC1821002B1921003A1521000C
:1009E000640607004F0578000000E2003100320085
:1009F000D01821001004E0002E0032003015210034
:100A000090407800C0C6B300000CE1000600320040
:100A10003015210090407800F0C6B300000CE100D2
:100A2000010032002200370030152100904078008C
:100A3000F0C6B300000CE10008003A000E00900080
:100A40000020EC00000798006A00E10002003A0074
:100A50000020EF0000079800F5080700301521007E
:100A600090407800C0C6B300000CE10009003A00D5
:100A70000E009000E100500001079800F0FF2F00E9
:100A80000008E10002003A009000200000079800F2
:100A9000E70807008A1F78007C0020008A0578009C
:100AA0000E059000EBFE07004F057800E0080700F8
:100AB000DF080700C2FF37000E0090004F067800E5
:100AC000CF0578000080FA00000006000600FA005A
:100AD0008A1F78008B1F78000820EF00000020009C
:100AE000404798000A0798001B0798000E019000E5
:100AF0009E019000F0FF2F00F1FF2F000010E10099
:100B00000198E10005003A009B1321000C057800D4
:100B1000E2FE070030C0B3000A01370015C0B30081
:100B200060004700630040001040780000E0AE0025
:100B30000C00370060004700630140009280FB001A
:100B40000008200000806800004978000A60EC007E
:100B5000D0C2B300004E7800610046000006780065
:100B6000000037000E0090009E0090006000E10041
:100B70006088E10005003A000B1521000C057800A3
:100B8000C6FE07000020EF00EE0037000E019000C7
:100B90009E0190000000200001F827000010E100F5
:100BA0000198E10005003A009B1821000C0578002F
:100BB000BAFE070005407800E200370004417800E3
:100BC000821F78008C1F78008A9FBE0002002000E0
:100BD00003F823000E0090009E00900093FE070093
:100BE0000000E0000060EF0001003D000060EC004C
:100BF0004F05BE004F0678004F0178000040E2002C
:100C000011003200821F78008C1F78008A9FBE007E
:100C10000E0090009E0090000200200003122400AD
:100C2000470507004F05BE004F0678004F017800CA
:100C30000007980011079800CE409000640047001C
:100C400061C85000DEFF370002427800841F780040
:100C50008C1F78008A9FBE0002002000031224002F
:100C60000E0090009E00900075FE07000000E0005E
:100C70000060EF00010035000060EC004F05BE0091
:100C80004F0678004F0278000040E2001100320069
:100C9000841F78008C1F78008A9FBE000E00900091
:100CA0009E009000D2CC2C00C3DC2300240507005A
:100CB0004F05BE004F0678004F02780000079800ED
:100CC00011079800CE4090006400470061C84000C2
:100CD000DEFF3700600147001200BE000000D000B8
:100CE0008180D2000007980011079800600047003B
:100CF0006300400090407800F0C7B30000C150008E
:100D000060004700E300400010C0B3008048780056
:100D10008281FB00600147001200BE008301E900F0
:100D2000030035000000D0008180D200FBFF3700B7
:100D3000000798001107980060004700630040001A
:100D4000010320001080FB0000804000004E78006E
:100D500061004600000678004E4090006104E1000A
:100D6000050035004E4090006604E10002003C00A2
:100D70000443780005003700E0C2B300004E78005D
:100D8000610046000006780016C0B30065C0B300DD
:100D9000602CE1002F00320060004700E3004000BB
:100DA0000020EF008048780060004700B001780024
:100DB000200278008301D0000482D2008301D00099
:100DC0000482D2006001470032804100A2004A0044
:100DD0000007980011079800600147001200BE004C
:100DE0000000D0008180D200000798001107980011
:100DF0006000470063004000010320001080FB00FA
:100E000000804000004E7800610046000006780037
:100E10006034E1000D003A004E4090000060ED00AB
:100E2000404798006004E10007003A00E0C2B300C8
:100E3000004E7800610046000006780010C0B30044
:100E40000043780000003700000037000A60ED0022
:100E5000CFFF3700F0FF2F000000460090407800E1
:100E600000C3B300000CE10003003A00610056002B
:100E700000067800F7FF3700F0FF2F000000460063
:100E800090407800E0C2B300000CE10002003A009C
:100E900061005600000678004E4090006004E100BA
:100EA0002500320050C6B300004E780061004600B5
:100EB000000678004E4090006004E10007003D000D
:100EC000D0C2B300004E78006100460000067800F2
:100ED000CE4090006400470060C81000CE419000F2
:100EE0004E4090006904E1000A0036000380FB00D8
:100EF000A2002000110009000200D8008000780044
:100F00000003200001004000004E78006100460010
:100F1000000678000380FB00A200200011000900F9
:100F20000200D8000003200001004000004E7800BD
:100F300061004600000678000020EF00004E7800B7
:100F40000020EF00CF0578004F0578000080FA0000
:100F5000000006000400FA000220EF00F00F20005D
:100F600010079800620047001000E00011003200F6
:100F7000600047000008EB0052AEAF001008E80028
:100F80000200E20005003200600047001000E000AF
:100F900002003A0010002000070037000E01900008
:100FA0009E00900062004700618850008200780037
:100FB000ECFF37000020EF000080FA000000060080
:100FC0008B1F78008C1F78008D1F78001000200088
:100FD000000678006660E10015003D000A60E1004F
:100FE00009003A008C1F78008A1F78001DC0B300EA
:100FF0001620EF00DA052100D50507004F0578001F
:101000004F067800080037008C1F78008A1F780090
:101010001DC0B3001620EF000A082100CC05070010
:101020004F0578004F0678001820EC00E9FF3700E4
:10103000CF0678004F067800CF0578000000060044
:101040000000FA008A1F78008A80FB00F007200069
:101050000080600000457800342EA900344EA900BD
:101060008080FB00F00B20000080600000457800CD
:101070008080FB00000420000080700000457800A4
:101080000045780094FD0700BEFD07004F0578007D
:101090000080FA00000006000000FA008A1F7800B5
:1010A000342EA900344EA9008A80FB00800B20005A
:1010B000008070000045780087FD0700B1FD070043
:1010C0004F0578000080FA00000006000000FA00DA
:1010D000346EA900342EA800344EA9007EFD07000E
:1010E000A8FD07000080FA00000006000000FA00DA
:1010F0008A80FB00F0072000008060000045780037
:1011000000C0AE0003003700446EA800444EA900A2
:1011100002003700446EA900444EA8000080FA0087
:10112000000006008A1F78008B1F78008C1F780053
:101130008D1F78001DC0B3006CC0B3001620EF00F7
:101140001A052100820507007C1A2100BA8D800053
:10115000CB8D80005DFE07001DC0B3006CC0B300E6
:101160001BC4B3007A1A2100790507007C1A2100FC
:10117000DA8D8000EB8D800054FE07001DC0B300A7
:101180007CC0B3001BC4B3007A1A210070050700AD
:10119000CF0678004F067800CF0578004F0578001D
:1011A000000006000400FA000020EF00100798007D
:1011B0007BFD07007EFD07000000E20002003A0010
:1011C0001E009000150037000020EF000007980077
:1011D00001082000600047001008E1000A00360006
:1011E000528EAF000400370052AEAF00020037004D
:1011F00010002000090037008E00900060004700BA
:1012000061884000F2FF3700620047001000E000F4
:1012100001003A00D9FD07001E0090000080FA008E
:10122000000006000000FA008A1F7800011A210061
:101230000020EF00804878000020EF00108D88002B
:10124000408EA900306EA900302EA900304EA900B2
:10125000406EA900404EA900448EA900402EA9006E
:10126000400EA900502EA900500EA90030EEA90092
:1012700030CEA90030AEA900308EA900342EA900CE
:10128000344EA900446EA900444EA800448EA80024
:10129000FCFC0700FAC3B3000FFD070039FD07008F
:1012A0000ACCB3000CFD070036FD0700446EA80011
:1012B000444EA900FAC3B30007FD070031FD070043
:1012C0000ACCB30004FD07002EFD07004F0578008F
:1012D0000080FA00000006000000FA000220EF0083
:1012E0006050E10002003A00010078004B00370036
:1012F000E01921001010A60013003700800620001E
:101300000050E10010003600E00720000050E1002E
:101310000D003100700720000050E1000A0032008B
:10132000900620008000550090C7280081004000F2
:101330001020200034A0B700114078008080FB000E
:101340000100780035003700610055000005780085
:10135000E01921001050A6001800370060BF2800D7
:101360008A0040001020200034A0B700114078000F
:101370008080FB00E01921001020A6000900370042
:10138000000420000008E10008003600B00520003D
:101390000008E10008003100000220000080400049
:1013A00001003700010078000100370001007800DB
:1013B00080007800000037001700370030B72800A1
:1013C0008A0040001020200034A0B70011407800AF
:1013D0008080FB00E01921001020A60009003700E2
:1013E000000620000008E10008003600B0072000D9
:1013F0000008E100080031000002200000805000D9
:10140000010037000100780001003700010078007A
:101410008000780000003700010078000080FA00AA
:10142000000006000000FA004EB89700AA8C880061
:10143000BB8C8800C08C8800A01921000C48780063
:10144000301921000D487800011A210010C0B300A6
:10145000804878000080FA00000006000000FA00D2
:101460000C20EF00150020000820EF000620EF0000
:10147000B119210010C0B30080487800B0192100D4
:101480001004E00016003200B2FE07000000E20087
:1014900012003200528EAE0006003700B019210053
:1014A0001080FB000000730061816A0080027800F8
:1014B000020037000501780086027800B01921008B
:1014C0001080FB00C100DD00B01921000148780048
:1014D000050378008202780000003700E7FF37003C
:1014E0009CFE07000000E200050032000020EF0033
:1014F000528EAF000020EC000002780000003700A0
:1015000094FE07000000E200040032000020EF001B
:10151000528EAF000020EC0001003700030078007D
:1015200016FD07000428E10004003A006000E10015
:101530000200320006007800010037000020EF00B2
:10154000000D78000080FA00000006008A1F780075
:101550008B1F78008C1F78008D1F78001DC0B30092
:101560007CC0B300CBC3B3006A012100780407003C
:101570001DC0B3007CC0B300CBC3B3005A0421002C
:1015800073040700CF0678004F067800CF05780077
:101590004F057800000006000400FA008C1F780058
:1015A0000A0798001B0798000620EF006718E10063
:1015B00036003E008A9FBE001420EF00CBFE0700DD
:1015C00003457800B4FE07001420EF009CFE0700DE
:1015D0004F05BE000820EF00F00320000020E100CE
:1015E0000E003E000E0090009E009000A1018800B9
:1015F0008A9FBE0010457800B4FE070060004700D7
:101600001B0020000C002000000578007EFC070075
:101610004F05BE000820EC00EFFF37008A9FBE0098
:101620000AC4B300B1FE0700034578009AFE070024
:101630000AC4B30082FE07004F05BE000404200068
:10164000F00720000020E1000E003E000E00900098
:101650009E009000A10188008A9FBE00104578007E
:101660009AFE0700600047001B0020000C002000CD
:101670000005780064FC07004F05BE000820EC0060
:10168000EFFF37000620EC00C8FF37004F06780058
:101690000080FA00000006000200FA008A1F7800AD
:1016A0006764E10001003600640037008A80FB00B7
:1016B0008019210090805000A01921001080FB00AB
:1016C0000008B800000378000B4578005CFE0700B6
:1016D0000C45780070FE07000A20EF00A0192100D9
:1016E0001080FB000028E10039003100F0C7B30092
:1016F000005CE10001003600500037008A1F7800CE
:101700000B45780079FE07000C45780062FE070063
:101710000B4578004AFE07004F05780058FC07008B
:101720000047980056FC0700004798008A1F780081
:101730000B4578006DFE07000C45780056FE07004B
:101740000B4578003EFE07004F05780086017800C3
:101750004F9ADE004219210032804100A2004A0067
:10176000A101880010407800004178000C20EC00B6
:1017700000E0EE0008003700004798000C0037003A
:10178000024798000A003700E00047006000470069
:101790001148690006003700606CE100F6FF320076
:1017A000616CE100F6FF3200626CE100F6FF32008E
:1017B0008A1F78000E45900044FE07004F05780010
:1017C00061C04500804578000A20EC00C3FF370067
:1017D0008A1F78000B45780044FE07000C4578000E
:1017E0002DFE07000B45780015FE07004F05780019
:1017F000F0CFB3000220EF000C0037000047980044
:101800008A1F78000045780030FE07004F057800F9
:101810000A003700014798008A1F780001457800C8
:101820002AFE07004F05780004003700606CE100D5
:10183000F2FF3200616CE100F6FF32004F057800E4
:101840000080FA00000006008A1F78007805070073
:101850001820EF006560E10017003D006260E100C4
:101860000C0032005000200000E1B900C00320004D
:10187000020040000005780045FC0700010320003D
:1018800081004000500421000C0040000148780015
:10189000050037006260E10003003A007104210096
:1018A000A0C3B300804878006105070027FF070048
:1018B0001820EC00E7FF37004F0578000000060015
:1018C0000000FA00446EA900444EA8000420EF0076
:1018D0006710E1000D003E008A1F78000245780085
:1018E000EDFD07004F0578000220EF00F003200017
:1018F0000008E10003003E00F4FD07000220EC00B8
:10190000FAFF37000420EC00F1FF3700444EA90035
:10191000446EA8000420EF006710E1000D003E00B7
:101920008A1F780002457800DBFD07004F0578002C
:101930000220EF00F00320000008E10003003E0059
:10194000E2FD07000220EC00FAFF37000420EC0063
:10195000F1FF37000080FA00000006000200FA00E4
:101960008A1F78008B1F78008C1F78008D1F7800ED
:10197000100020000007980030152100104078006A
:101980006D04E1003E0032000E0590008CFD070062
:10199000DC1821002B1921003A15210075020700DF
:1019A0000000E20035003200D01821001004E000F1
:1019B000320032003015210090407800C0C6B300DC
:1019C000000CE10006003200301521009040780044
:1019D000F0C6B300000CE100010032001C0037002B
:1019E0003015210090407800C0C6B300000CE10023
:1019F00008003A000E0090000020EC00000798005C
:101A00006600E10002003A00100020000007980084
:101A1000070507003015210090407800F0C6B3009C
:101A2000000CE10008003A000E0090000020ED00DC
:101A3000000798006000E10002003A00500020001A
:101A400000079800FA0407000E0590005CFD0700EF
:101A5000301521009040780020C2B300000CE10056
:101A600006003A001DC0B3007CC0B300CBC3B30076
:101A7000EA1821003603070001003700BEFF3700D7
:101A80000E009000CF0678004F067800CF05780052
:101A90004F0578000080FA00000006008A1F7800D9
:101AA0008B1F78008C1F78001420EF0084FF070044
:101AB000301521009040780020C2B300000CE100F6
:101AC0000C00320097FD07008800200047122A0012
:101AD0000E20ED00FEFF3A001020ED00FCFF3A0062
:101AE000DC1821002B1921003A15210021020700E2
:101AF000EFFF37004F067800CF0578004F057800DC
:101B0000000006008A1F78008B1F78008C1F780069
:101B100008010700301521009040780020C2B30072
:101B2000000CE1000700320021E1A8001FE1A8003D
:101B3000DC1821002B1921003A1521000D020700A5
:101B4000F4FF370021E1A9001FE1A9004F0678004A
:101B5000CF0578004F057800000006000000FA006D
:101B600002000700600E0400000000000400E20014
:101B700006003A000005EB000200E2000F003E0004
:101B80000000E200270032000C003700A1008800AE
:101B90000200E2000400350008003C000000E20002
:101BA000200032000500370060001000E0801800BF
:101BB00002003B0001F02C001A0037000084BE0038
:101BC0006011B8006B0920000982CF0002003900C3
:101BD0000882CF000441B000694252000E0032007A
:101BE00008003B0082817100610164008904D1001A
:101BF0000884D3008B05E8000442E800F9FF3A00AE
:101C0000050037000804440089844C008B05E90076
:101C10000442E900FBFF3A00030007000AF0A700B6
:101C200003E0A8000000060081002000618055004C
:101C30000B003D000B00200061FE2F000100E100C1
:101C40001D00340082817100610164008904D100AB
:101C50000884D3000000E800FAFF3A007100200079
:101C6000610064000300700002006000090032009F
:101C700061044400E0844C000988A500050032009E
:101C80008B05E8006808E10002003A008904D100F1
:101C90000884D300F20F20000258E10005003D0047
:101CA000C75DDD00F907B200898075000800880073
:101CB000000006000BF827001B008800000005004C
:101CC0000080FA00000006000000FA000200070091
:101CD000960F040000000000889FBE008A9FBE008F
:101CE0008C1F78003E0007004500330003866C001F
:101CF0006450E1002E0032006420E1003300320025
:101D00006150E1002F0032006120E100310032001B
:101D100085855500EB07B00009002000080420006D
:101D2000050037000804440089844C000A00310093
:101D30000603430087834B000001530081815B0051
:101D4000F8FF33000283BE001000A800080444001E
:101D500089844C00F6FF3900C639DD008301730029
:101D600001003200130020008904D1000884D30050
:101D70000998A300050032000800A7000600A8008B
:101D80008904D1000884D3008B05E8008904D100C0
:101D90000884D3000001EB000281D2002800070074
:101DA00001F0A1000CF0A70003E0A8001D0037001F
:101DB0006420E1001F0032000881BE000280BE00E6
:101DC000F7FF37006120E1001A0032006000B80020
:101DD000F3FF37000000200001F82700F0FF370074
:101DE0000084BE003C0007000083BE000485BE00E6
:101DF0000280BE0038000700844F75000000060016
:101E00000280BE006450E100050036006420E1005D
:101E1000020036000968A30001003A000880BE00F5
:101E200002C0A8004F0678004F05BE004F04BE0058
:101E300000000600F0FF2F00F1FF2700F9FF370038
:101E400081002000618055000B003D000B00200048
:101E500061FE2F000100E1001D003400828171004D
:101E6000610164008904D1000884D3000000E80007
:101E7000FAFF3A0071002000610064000300700066
:101E8000020060000900320061044400E0844C005C
:101E90000988A500050032008B05E8006808E1000C
:101EA00002003A008904D1000884D300F20F200018
:101EB0000258E10005003D00C75DDD00F907B200F2
:101EC0008980750008008800000006000BF82700D4
:101ED0001B00880000000500C70ADE00F107B20001
:101EE000F50FB20008003200E1CF420002003200DC
:101EF00002E0A80024000500810F700001003200FC
:101F00000408050044000500810F700002003A003B
:101F1000140005008502E9000000400081C048006F
:101F2000FCFF3B0002E0A800240005000080FA004E
:101F3000000006008A1F78008B1F78008C1F780035
:101F40008D1F78001420EF005DFE07001DC0B30058
:101F50001820EF006BC0B3004A0B2100FC01070002
:101F60001DC0B3004CC0B3006BC0B300BA09210060
:101F7000F70107001DC0B3001CC0B3006BC0B30065
:101F80004A0D2100F20107001DC0B3002CC0B300B0
:101F90006BC0B300DA082100ED0107001DC0B300DB
:101FA0003CC0B3006BC0B3006A0C2100E80107001D
:101FB0001DC0B3001CC0B3006BC0B3009A0A21005F
:101FC000E30107001DC0B3002CC0B3006BC0B30019
:101FD0005A072100DE0107001DC0B3003CC0B3005A
:101FE0006BC0B300FA052100D90107001DC0B30082
:101FF0004CC0B3006BC0B3002A082100D401070015
:10200000CF0678004F067800CF0578004F0578009E
:10201000000006008A1F78008C1F78008D1F780052
:1020200080FC07007DC0B3005CC0B3000A802800BC
:10203000102020008005780000022000801F78001A
:10204000F8FC07002F00B1001420EF001CFE070071
:10205000CF0678004F0678004F0578000000060094
:102060001E2EEF002E2EEF003E2EEF004E2EEF0024
:102070006E2EEF00F0FF2F0010AEB700402EEF00E5
:10208000602EEF00316EA800314EA800312EA8005E
:10209000310EA80040AEA90040EEA90060CEA90014
:1020A000610EA90000C1B30080407800C068200024
:1020B00090C06800F0C3B30080C06000C06820001A
:1020C00090C06800C068200001487800001021001E
:1020D00080007800C06820009080680000F0230035
:1020E00080806000C06820009080680061348800B3
:1020F0000020210080007800A06920009080680006
:1021000000F0230080806000A069200090806800BB
:10211000D134880030C1B30080407800C06920000D
:1021200090C06800F0C3B30080C06000C0692000A8
:1021300090C06800C06920000148780000000600D7
:102140000000FA0002000700B611040000000000C1
:10215000889FBE008A9FBE008C1F78003000070059
:102160003700330003866C006450E1002400320025
:102170006420E100270032006150E10022003200BB
:102180006120E100210032008B854200EB07B100A5
:102190000134B800003AB8000804420089844A00BB
:1021A000013AB8000030B8008880400009014A00B8
:1021B0000400330000004000818048000201490013
:1021C0008B05E900C909DD008301700001003200C0
:1021D00013002000C814DE004814DD004709DE00AB
:1021E0001200B200C808DE00088470002400070056
:1021F00001F0A1000CF0A70003E0A80019003700CF
:102200006120E1001B0032000881BE000280BE0098
:10221000F7FF37006150E100FCFF3A00150037007E
:102220000084BE003C0007000083BE000485BE00A1
:102230000280BE0038000700844F750000000600D1
:102240000280BE006450E100050036006420E10019
:10225000020036000968A30001003A000880BE00B1
:1022600002C0A8004F0678004F05BE004F04BE0014
:1022700000000600F0FF2F00F1FF2700F9FF3700F4
:1022800081002000618055000B003D000B00200004
:1022900061FE2F000100E1001D0034008281710009
:1022A000610164008904D1000884D3000000E800C3
:1022B000FAFF3A0071002000610064000300700022
:1022C000020060000900320061044400E0844C0018
:1022D0000988A500050032008B05E8006808E100C8
:1022E00002003A008904D1000884D300F20F2000D4
:1022F0000258E10005003D00C75DDD00F907B200AE
:102300008980750008008800000006000BF827008F
:102310001B00880000000500C70ADE00F107B200BC
:10232000F50FB20008003200E1CF42000200320097
:1023300002E0A80024000500810F700001003200B7
:102340000408050044000500810F700002003A00F7
:10235000140005008502E9000000400081C048002B
:10236000FCFF3B0002E0A800240005000080FA000A
:10237000000006000800FA00100020002007980066
:1023800010002000300798000020EF001007980090
:102390000020EF00E08C880082FB07000000E200D4
:1023A00002003A000020EF00A10037006000470063
:1023B0008A1F78000005780028FC07004F05780088
:1023C000010F2000600047001008E1000C003A00F7
:1023D0000020EF003007980072FB07000000E200C9
:1023E00001003A00FCFF3700600047008A1F7800B8
:1023F0000005780019FC07004F057800370037000A
:10240000010E2000600047001008E1001B003A00A8
:1024100064FB07000000E20001003A00FCFF370007
:10242000600047008A1F7800000578000BFC070059
:102430004F057800010F2000600047001008E10000
:102440000B003A000020EF003007980055FB070012
:102450000000E20001003A00FCFF37006000470086
:102460008A1F780000057800FCFB07004F05780004
:1024700010002000E08C8800180037007107200051
:10248000600047001008E1000E003A001000200034
:1024900020079800660047001000E00008003200A6
:1024A000E01921001010A70003003700E0192100F7
:1024B0001010A00002003700E01921001010A10048
:1024C00006003700110E2000600047001008E100F0
:1024D00002003A00000E200010079800C0192100E9
:1024E0001000E0000B0032000E0090007200E100CE
:1024F00002003A00F00D200010079800C1072000EC
:10250000600047001008E10002003A00F00D2000D2
:10251000100798000E0090007200E10005003200E4
:1025200091052000600047001008E1000100320022
:102530000A003700100020002007980066004700BE
:102540001000E00003003200E01921001050A0004C
:1025500002003700E01921001050A100E01921000D
:102560001010A70006003700310720006000470068
:102570001008E10002003A000020EF002C003700B4
:102580001E0090006000E10007003A000020EF000C
:10259000200798008A1F78000E0590004EFB070068
:1025A0004F05780010079800110E200062004700C8
:1025B0001008E1000D003A001000200020079800EC
:1025C000660047001000E00008003200E01921001A
:1025D0001020A70003003700E01921001020A00000
:1025E00002003700E01921001020A100810C20001A
:1025F000620047001008E1000600310010002000D2
:1026000020079800820C2000E2004700620047008B
:10261000110811002E409000004D78004E409000AF
:10262000804D78006E409000004E78001000200031
:102630000080FA00000006008A1F78000A40280087
:102640001020200080057800D3FB07004800200000
:1026500017092D000E20ED00FEFF3A001020ED00BE
:10266000FCFF3A0000000000000000000000000035
:102670000A0028001020200080057800C6FB070013
:102680004800200017092D000E20ED00FEFF3A0043
:102690001020ED00FCFF3A000000000000000000E8
:1026A000000000004F05780000000600316EA80011
:1026B000B0C4B30080407800E06A200090C0680099
:1026C000F0C7B30080C06000E06A200090C06800DE
:1026D000E06A200001487800000006008A1F7800A8
:1026E0008B1F78008C1F78008D1F78001DC0B300F1
:1026F0001820EF00FBC1B3003A10210014000700BE
:102700001DC0B3001CC0B3001620EF008A0E2100CC
:102710000F0007001DC0B3002CC0B3001620EF004F
:102720000A0021000A0007001DC0B3003CC0B3002E
:102730001620EF00CA00210005000700CF06780030
:102740004F067800CF0578004F057800000006009E
:102750000000FA000420EF00001A21001040780069
:102760006004E1000C003A00A119210050C0B30040
:10277000804878003119210070C0B300804878008B
:1027800000802800A08C880010202000B08C8800D9
:1027900000022000C08C8800020045001004E00008
:1027A0000F00320002004500821F78008A9FBE00A1
:1027B00010457800B8FB07004F05BE004F017800B8
:1027C000A01921001080FB00E10040000B80FB00FD
:1027D00001004000804578000420EC00EEFF370047
:1027E0000080FA00000006008A1F78008B1F780026
:1027F0008C1F78008D1F78001DC0B3007CC0B30013
:10280000CBC3B3006AC2B300A3FB07001DC0B30073
:102810007CC0B3001BC4B3006AC2B3009EFB0700B8
:102820001DC0B3007CC0B3006BC4B3006AC2B30068
:1028300099FB07001DC0B3007CC0B300BBC4B3004C
:102840006AC2B30094FB070078012000D7362E003F
:102850000E20ED00FEFF3A001020ED00FCFF3A00D4
:102860003AFB07001DC0B3007CC0B300CBC3B3006C
:102870001AC3B30088FB07001DC0B3007CC0B300BF
:102880001BC4B3002AC3B30083FB07001DC0B30001
:102890007CC0B3006BC4B3003AC3B3007EFB070037
:1028A0001DC0B3007CC0B300BBC4B3004AC3B300B7
:1028B00079FB070078012000D7362E000E20ED00AE
:1028C000FEFF3A001020ED00FCFF3A00CF06780032
:1028D0004F067800CF0578004F057800000006000D
:1028E0000000FA00508EA80050AEA8000020EF00B3
:1028F000F08C88000080FA00000006008A1F780033
:102900008B1F78008C1F78008D1F780030152100F8
:102910009040780020C2B300000CE100300032008B
:102920000EFC0700A08A88001D003700C6FB0700C8
:102930003F010700290037001DC0B3007CC0B30071
:10294000EBC1B3009A17210081FF070005E1A80041
:10295000220037001DC0B3007CC0B300EBC1B30040
:102960002A0E21007AFF070005E1A9001B003700AD
:102970001DC0B3007CC0B300EBC1B3007A0F2100CF
:1029800073FF0700150037001DC0B3007CC0B30003
:10299000EBC1B300DA0F21006DFF07000F00370015
:1029A000A08A80006100E100E0FF3200A08A800080
:1029B0006200E100E0FF3200A08A80006300E100D5
:1029C000E4FF3200A08A80006400E100E8FF3200EA
:1029D000A08A80006500E100EBFF3200CBFF3700EA
:1029E000CF0678004F067800CF0578004F057800B5
:1029F000000006008A1F78008B1F78008C1F78006B
:102A00008D1F78001DC0B3001820EF00CBC3B300AA
:102A1000EA1721004EFF07001DC0B3001CC0B30021
:102A20006BC0B3007A16210049FF07001DC0B30038
:102A30002CC0B3006BC0B3006A15210044FF07002F
:102A40001DC0B3003CC0B3006BC0B300EA15210049
:102A50003FFF07001DC0B3004CC0B3006BC0B30004
:102A6000AA0621003AFF07001DC0B3005CC0B300F6
:102A70006BC0B3001A11210035FF0700CF067800A4
:102A80004F067800CF0578004F057800000006005B
:102A90002004200090407800F0C1B30080C06000A6
:102AA0002004200001487800C1E8A900C3E8A8007C
:102AB0004460A9000000060000C0200080007800EB
:102AC000809220009080680000C02100808060001B
:102AD000809220009080680041498800008020009A
:102AE00080007800009020009080680000C02100E5
:102AF000808060000090200090806800014888007D
:102B00000080200080007800A09020009080680065
:102B100000C0210080806000A090200090806800AC
:102B200051488800008020008000780040912000FB
:102B30009080680000C021008080600040912000EB
:102B400090806800A1488800008020008000780004
:102B5000E09120009080680000C02100808060002B
:102B6000E091200090806800F148880050C0B300D8
:102B7000804078008092200090C06800E7C060002C
:102B80008092200090C06800809220000148780068
:102B900050C0B300804078000090200090C06800D2
:102BA000E7C060000090200090C068000090200006
:102BB0000148780050C0B30080407800A090200009
:102BC00090C06800E7C06000A090200090C068003E
:102BD000A09020000148780050C0B30080407800E9
:102BE0004091200090C06800E7C060004091200044
:102BF00090C06800409120000148780050C0B300A8
:102C000080407800E091200090C06800E7C060003C
:102C1000E091200090C06800E09120000148780019
:102C2000A00020002EA9B700F07F20002CA9B7003B
:102C30002013200006A9B700F07F200004A9B700E8
:102C40009039200010A9B700F07F20000EA9B7002E
:102C5000B04C20001AA9B700F07F200018A9B700D7
:102C60005066200024A9B700F07F200022A9B700F9
:102C700050C0B300804078002090200090C06800D1
:102C8000FFC060002090200090C0680020902000CD
:102C90000148780050C0B30080407800C090200008
:102CA00090C06800FFC06000C090200090C0680025
:102CB000C09020000148780050C0B30080407800E8
:102CC0006091200090C06800FFC06000609120000B
:102CD00090C06800609120000148780050C0B300A7
:102CE000804078000092200090C06800FFC0600023
:102CF0000092200090C068000092200001487800F7
:102D0000F0C0B30080407800A092200090C068001E
:102D1000FFC06000A092200090C06800A092200038
:102D200001487800000006002368A8002388A80056
:102D30000368A9000388A900E011200090407800F2
:102D4000F0CCB30080C06000E011200001487800A2
:102D50001E21A9001421EF00007D20001AA1B70058
:102D600000C5B300804078000012200090C06800C9
:102D700000C3B30080C060000012200090C0680053
:102D800000122000014878002021A9001821EF003E
:102D900070FA2B001CA1B700000006000021EF0014
:102DA0000002200004A1B70020A1270002A1B70063
:102DB000000021008000780000142000908068004E
:102DC00000C0210080806000001420009080680016
:102DD000010A880050C0B300804078000014200031
:102DE00090C06800E7C060000014200090C0680038
:102DF0000014200001487800B0C4B300804078007F
:102E0000E06A200090C06800F0C7B30080C0600096
:102E1000E06A200090C06800E06A20000148780065
:102E200005E1A8002028A8000028A900000006004D
:102E3000311521000020EF00804878002119210081
:102E40000020EF0080487800D11821000020EF001A
:102E500080487800000006003400F8003200F800D6
:102E60003600F800801F7800200020000C000900C8
:102E7000B01F78008A1F78008B1F78008C1F7800A5
:102E80008D1F78001DC0B3007CC0B3001620EF007A
:102E90002A1321002EFE070011002000001321003C
:102EA000108840000028A900CF0678004F0678005F
:102EB000CF0578004F057800A00120000C00090024
:102EC0004F1078004F0078003600F9003200F9000A
:102ED0003400F900004006003400F8003200F80029
:102EE0003600F800801F7800200020000C00090048
:102EF000B01F780005E1A9000068A9008089800062
:102F00004200DD004100DD00CF80DE000081EB00EB
:102F100012FB0700B08D8800C18D88000001BE0043
:102F20000000200001F8230067FB07000240220098
:102F300043A7240082FC0700D08D8800E18D880023
:102F4000A00120000C0009004F1078004F0078000D
:102F50003600F9003200F9003400F90000400600A4
:102F6000EF1B2100F0FF270020A0B7001020200059
:102F700032A0B700400020004420B700041902002E
:102F8000000000008A1F78008B1F78008C1F7800DB
:102F90008D1F780032FC07001EFC0700BCFE0700F6
:102FA000C5FE070060FF07007CFF0700BFFD0700AC
:102FB000A1FD07001420EF0041FA07000AFE0700F8
:102FC00047FE07001420EF003DFA0700C3FD07008D
:102FD000DC1821002B1921003A152100E5FC07001F
:102FE0000000E20066003200D01821001004E0006A
:102FF000630032001DC0B3007CC0B3001620EF0098
:103000006A142100D2FD07008800200047122A0020
:103010000E20ED00FEFF3A001020ED00FCFF3A000C
:103020001DC0B3007CC0B3001620EF00DA132100EE
:10303000C7FD0700211521000020EF00804878001F
:10304000300037007AFF07006AFE07002BFE0700FA
:103050004B00370076FF070090FA07004800370062
:1030600073FF0700B3FB0700A6FA07004400370010
:103070001DC0B3007CC0B300CBC3B300DA14210081
:10308000B3FD07003E0037001DC0B3007CC0B30095
:10309000CBC3B300BA112100ADFD070038003700E3
:1030A0002AF907008800200047122A000E20ED00B0
:1030B000FEFF3A001020ED00FCFF3A003000370020
:1030C0001DC0B3007CC0B300CBC3B300EA11210024
:1030D0009FFD07008800200047122A000E20ED0007
:1030E000FEFF3A001020ED00FCFF3A001DC0B300C7
:1030F0007CC0B300CBC3B3007A12210094FD07005B
:103100001F003700301521009040780080C7B300C1
:10311000000CE100CBFF3200301521009040780018
:1031200070C5B300000CE100CAFF32003015210069
:103130009040780050C6B300000CE100C8FF320098
:103140003015210090407800F0C6B300000CE1007B
:10315000C7FF32003015210090407800C0C6B30090
:10316000000CE100C8FF32003015210090407800CB
:1031700040C6B300000CE100C9FF3200D0FF3700A9
:1031800092FF3700FFFF37003400F8003200F800EC
:103190003600F800801F7800200020000C00090095
:1031A000B01F78000388A900A00120000C000900CE
:1031B0004F1078004F0078003600F9003200F90017
:1031C0003400F900004006003400F8003200F80036
:1031D0003600F800801F7800200020000C00090055
:1031E000B01F78000368A900A00120000C000900AE
:1031F0004F1078004F0078003600F9003200F900D7
:103200003400F9000040060001002100009E280063
:10321000C8000900B0187800B05878000000060017
:10322000FFFFFFFFFFFFFFFFFFFFFFFFFFFFFFFFAE
:10323000FFFFFFFFFFFFFFFFFFFFFFFFFFFFFFFF9E
:10324000FFFFFFFFFFFFFFFFFFFFFFFFFFFFFFFF8E
:10325000FFFFFFFFFFFFFFFFFFFFFFFFFFFFFFFF7E
:020000040001F9
:1000A0000000000080800000000000000000000050
:1000B0000000000000000000000000000000000040
:1000C0000000000000000000000000000000000030
:1000D0000000000000000000000000000000000020
:1000E0000000000000000000000000000000000010
:1000F0000000000000000000000000000000000000
:1001000000000000000000000000000000000000EF
:1001100000000000000000000000000000000000DF
:10012000000000000000000000000000008000004F
:100130004020000020100000101000000804000003
:10014000347A0000DE8000000000000000000000A3
:10015000000000000000000000000000000000009F
:10016000000000000000000000000000000000008F
:10017000000000000000000000000000000000007F
:10018000000000000000000000000000000000006F
:1001900000000000000000000080000040E00000BF
:1001A00038070000000000003F700000E0C00000C1
:1001B00080000000000000000000000000000000BF
:1001C000000000000000000000000000000000002F
:1001D00000000000004400000C98000038F8000007
:1001E00070E00000C00000000000000000000000FF
:1001F00000000000000000000000000000000000FF
:1002000000000000000000000000000000000000EE
:1002100000000000000000000000000000000000DE
:100220000000000000000000804000007C1B000077
:10023000000000000010000020380000FCF6000064
:10024000E2FE0000FFFF0000FEC00000C0C0000092
:10025000C0C00000C0C0000080800000800000001E
:10026000000000000000000000000000000000008E
:10027000000000000000000000000000000000007E
:10028000000000000000000000000000000000006E
:1002900000000000003C0000D3800000800000004F
:1002A0000030000040C00000A8F800008CFF0000F3
:1002B000FFFE0000F8C0000080800000C040000089
:1002C0002020000010100000108800008888000026
:1002D000888800009674000058B700005EBF0000D8
:1002E0007D3A0000053F0000F8C00000000000005B
:1002F00000000000000000000000000000000000FE
:1003000000000000000000000000000000000000ED
:100310000000000000000000E0FE0000F880000087
:100320000000000000000000070A0000101000009C
:10033000F4F00000F0F80000F8FE0000FFDF00001D
:100340008F87000083C30000E3E70000DF8F000019
:100350004F3D0000F830000031610000C1C30000D3
:10036000E3620000FE3C00001CF80000B0600000EA
:10037000000000000000000000000000000000007D
:10038000000000000000000000000000000000006D
:1003900000000000000000000F11000028E0000035
:1003A000E0E80000E0F80000F7FF0000FF7F000039
:1003B0007F7F00007F7F00003F1F00000FFF0000D5
:1003C0007F7700002727000027430000C383000039
:1003D000030100003B7F00007DF00000E0F0000022
:1003E000F8F40000E01E000003010000000000001F
:1003F00000000000000000000000000000000000FD
:1004000000000000000000000000000000000000EC
:1004100000000000000000001F670000831F0000B4
:100420003C780000F0F00000E0E00000C0C00000F8
:10043000C16700003F1F000038100000302100009D
:10044000212100002121000031930000FFFF000066
:100450007A7900007D7E0000F8F00000E080000066
:10046000010200000403000002010000000000007F
:10047000000000000000000000000000000000007C
:10048000000000000000000000000000000000006C
:100490000080000060100000888800008486000052
:1004A000CFFF00003F1F00001F1D0000186000006C
:1004B000800000000000000008140000275A00001F
:1004C0008A05000001030000030F00001F3F000029
:1004D000FFFE0000F8F00000F8E8000084030000D0
:1004E000C03000000D00000000000000000000000F
:1004F00000000000000000000000000000000000FC
:1005000000000000000000000000000000000000EB
:1005100000000000000000000000000001020000D8
:1005200004080000103300003F7F00007FFF000040
:10053000F0C00000C0C00000F0F80000FDFE0000A8
:10054000FEFE0000FEFE00007F7300004180000000
:100550008080000080800000C0E00000F3FF000009
:10056000FEF80000E00000000000000000000000B5
:10057000000000000000000000000000000000007B
:100580000000000000000000000000000018000053
:10059000262F0000121700001C08000007030000AF
:1005A000010000000000000000000000000E00003C
:1005B0003141000042C40000E4FC0000F8F80000F3
:1005C000F0F10000E3E40000E42800002C1E00002D
:1005D000171300000B0900000504000002010000D1
:1005E000000000000000000000000000000000000B
:1005F00000000000000000000000000000000000FB
:1006000000000000000000000000000000000000EA
:1006100000000000000000000000000000000000DA
:1006200000000000000000000000000000040000C6
:100630000A0F000017170000170F0000171700001F
:100640001F07000003000000000000000000000081
:1006500008150000171F00002F2F00002F1F00009B
:100660002F270000170F0000060000000000000008
:10067000000000000000000000000000000000007A
:10068000000000000000000000000000000000006A
:10069000000000000000000000000000000000005A
:1006A000000000000000000000000000000000004A
:1006B000000000000000000000000000030D00002A
:1006C000140C0000110F00000403000000000000E3
:1006D000000000000000000000000000000000001A
:1006E000000000000000000000000000000000000A
:1006F00000000000000000000000000000000000FA
:1007000000000000000000000000000000000000E9
:10092000000000000000000000C0000020100000D7
:100930000008000008080000080000001010000077
:10094000A0C0000000000000000000000000000047
:100950000000000000000000000000000000000097
:100960000000000000000000000000000000000087
:100970000000000000000000000000000000000077
:100980000000000000000000000000000000000067
:1009900000000000000000000000000000800000D7
:1009A0008040000040400000404000008080000087
:1009B0000000000000000000000000000000000037
:1009C0000000000000000000000000000000000027
:1009D0000000000000000000000000000000000017
:1009E0000000000000000000000000000000000007
:1009F00000000000000000000000000000000000F7
:100A000000000000000000000000000000000000E6
:100A100000000000000000000000000000000000D6
:100A20000000000000000000DF3E00003810000061
:100A300000000000001000001CAE00007FFC000061
:100A4000FCFF0000FFF0000080000000000000003C
:100A500000000000000000000008000070E000003E
:100A6000C0000000000000000000000000000000C6
:100A70000000000000000000000000000000000076
:100A80000000000000000000000000000000000066
:100A90000000000000000000788600000100000057
:100AA00000000000000000001C2400007C78000012
:100AB000310600001860000080000000F0380000DF
:100AC000D408000014180000F000000000800000AE
:100AD00000C00000B00000000000000000000000A6
:100AE0000000000000000000000000000000000006
:100AF00000000000000000000000000000000000F6
:100B000000000000000000000000000000000000E5
:100B100000000000000000000000000000000000D5
:100B200000000000000000000102000004080000B6
:100B300008880000C83C00001A1D00008E4F00000D
:100B4000371B0000030700008FFE0000F870000054
:100B50004080000000000000000000000083000052
:100B6000FFFF0000FCF0000000000000000000009B
:100B70000000000000000000000000000000000075
:100B80000000000000000000000000000000000065
:100B90000070000098080000684900000F30000055
:100BA00040C00000808000005040000020980000FD
:100BB00097480000300C0000010600000100000012
:100BC00000C00000700E000001000000010A0000DB
:100BD000150B0000976F00009E0000000000000051
:100BE0000000000000000000000000000000000005
:100BF00000000000000000000000000000000000F5
:100C000000000000000000000000000000000000E4
:100C100000000000000000000000000000000000D4
:100C20000000000000000000001C0000322900004D
:100C3000211000001F600000800E00001914000049
:100C400018080000043E00008701000000000000BA
:100C50000000000083FC0000FCFE00007F3F00005D
:100C60001F0F000003000000000000000000000053
:100C70000000000000000000000000000000000074
:100C80000000000000000000000000000000000064
:100C9000000000000001000001020000020200004C
:100CA00007870000F70F00000101000001000000AD
:100CB0000000000000000000804000000000000074
:100CC000010300001C7000009010000088880000E4
:100CD000C4E20000F93E00000F0000000000000028
:100CE0000000000000000000000000000000000004
:100CF00000000000000000000000000000000000F4
:100D000000000000000000000000000000000000E3
:100D100000000000000000000000000000000000D3
:100D200000000000000000000000000000000000C3
:100D30000080000040200000201100000A8C00000C
:100D40009CF80000F8E8000008050000067C0000A0
:100D5000840600008F1D000038F00000E0C0000095
:100D60008000000000000000000000000000000003
:100D70000000000000000000000000000000000073
:100D80000000000000000000000000000000000063
:100D9000000000000000000000000000804E000085
:100DA0005120000020430000CCF80000F0F00000CB
:100DB00060200000203E000039700000E0E00000EC
:100DC00040400000406000005F8700000703000013
:100DD000030100000000000000000000000000000F
:100DE0000000000000000000000000000000000003
:100DF00000000000000000000000000000000000F3
:100E000000000000000000000000000000000000E2
:100E100000000000000000000000000000000000D2
:100E200000000000000000000000000000000000C2
:100E300000010000020300000202000003020000A3
:100E4000030100000100000000000000000000009D
:100E5000010200000203000002030000030300007F
:100E60000100000000000000000000000000000081
:100E70000000000000000000000000000000000072
:100E80000000000000000000000000000000000062
:100E90000000000000000000000000000001000051
:100EA000010100000101000001010000010000003B
:100EB000000000000000000000000000010200002F
:100EC0000202000002020000020100000000000017
:100ED0000000000000000000000000000000000012
:100EE0000000000000000000000000000000000002
:100EF00000000000000000000000000000000000F2
:100F000000000000000000000000000000000000E1
:100F100000000000000000000000000000000000D1
:100F200000000000000000000000000000000000C1
:100F300000000000000000000000000000000000B1
:100F400000000000000000000000000000000000A1
:100F50000000000000000000000000000000000091
:100F60000000000000000000000000000000000081
:100F70000000000000000000000000000000000071
:100F80000000000000000000000000000000000061
:100F90000000000000000000000000000000000051
:100FA0000000000000000000000000000000000041
:100FB0000000000000000000000000000000000031
:100FC0000000000000000000000000000000000021
:100FD0000000000000000000000000000000000011
:100FE0000000000000000000000000000000000001
:100FF00000000000000000000000000000000000F1
:10100000000000000000000000000000005F000081
:1010100000000000000700000007000000140000AE
:101020007F1400007F140000242A00007F2A0000A3
:10103000122300001308000064620000364900001B
:1010400055220000500000000503000000000000D1
:10105000001C0000224100000000000041220000AE
:101060001C000000082A00001C2A000008080000DC
:10107000083E00000808000000500000300000009A
:101080000008000008080000080800000030000008
:1010900030000000002000001008000004020000E2
:1010A0003E510000494500003E000000427F000024
:1010B000400000004261000051490000462100004C
:1010C000414500004B31000018140000127F000061
:1010D0001027000045450000453900003C4A00004B
:1010E00049490000300100007109000005030000BB
:1010F0003649000049490000360600004949000011
:10110000291E00000036000036000000000000002C
:101110005636000000000000000800001422000005
:1011200041140000141400001414000041220000B7
:101130001408000000020000015100000906000030
:1011400032490000794100003E7E0000111100008C
:10115000117E00007F49000049490000363E000032
:1011600041410000412200007F4100004122000077
:101170001C7F000049490000494100007F09000030
:1011800009010000013E0000414100005132000011
:101190007F080000080800007F000000417F000079
:1011A0004100000020400000413F0000017F00009E
:1011B00008140000224100007F4000004040000071
:1011C000407F000002040000027F00007F04000056
:1011D000081000007F3E000041410000413E000039
:1011E0007F09000009090000063E0000415100008F
:1011F000215E00007F09000019290000464600001A
:101200004949000049310000010100007F01000050
:10121000013F000040400000403F00001F20000050
:10122000402000001F7F000020180000207F0000E9
:101230006314000008140000630300000478000039
:101240000403000061510000494500004300000014
:10125000007F00004141000002040000081000006F
:1012600020410000417F0000000000000402000057
:101270000102000004400000404000004040000027
:10128000000100000204000000200000545400008F
:10129000547800007F4800004444000038380000C3
:1012A000444400004420000038440000444800004A
:1012B0007F3800005454000054180000087E0000DD
:1012C000090100000208000014540000543C000012
:1012D0007F0800000404000078000000447D000046
:1012E0004000000020400000443D000000000000DD
:1012F0007F10000028440000004100007F400000F3
:10130000007C000004180000047800007C08000045
:101310000404000078380000444400004438000011
:101320007C140000141400000808000014140000CD
:10133000187C00007C08000004040000084800003D
:101340005454000054200000043F000044400000BA
:10135000203C000040400000207C00001C200000D9
:10136000402000001C3C000040300000403C0000D9
:101370004428000010280000440C000050500000D9
:10138000503C000044640000544C00004400000045
:101390000836000041000000000000007F0000004F
:1013A00000000000413600000800000008080000AE
:1013B0002A1C0000080800001C2A00000808000081
:1013C00027570000272000004361000070740000D0
:1013D0007572000061000000274500002720000012
:1013E000505700004D200000200000002020000089
:1013F00020200000202000002020000020200000ED
:1014000020200000202000002020000020200000DC
:1014100020200000202000002020000020200000CC
:1014200020200000202000002020000020200000BC
:1014300020200000202000002020000020200000AC
:10144000202000002020000000300000303A000082
:10145000303000003A300000303A000030300000F8
:101460000046000072650000637500002E28000031
:10147000687A0000293D0000002A000000520000A8
:10148000507800002F5000004F52000054780000A8
:10149000790000003429000020520000455300006C
:1014A0004554000020200000005200005078000049
:1014B0002F5000004F5200005478000079000000C7
:1014C0002000000052500000782F0000504F000014
:1014D000525400007879000000520000503800009B
:1014E000372000002F520000453700002034000054
:1014F000352500000052000050310000303100005E
:101500002F5200004738000020380000302500002E
:1015100000520000507800002F5000004F52000091
:1015200054780000790000005075000065720000DA
:10153000746F00002064000065200000456E00000C
:1015400074720000616400006100000052500000ED
:1015500038370000202F00005247000036200000DE
:1015600036300000250000005250000038350000E1
:10157000202F0000524500003520000031350000CA
:101580002500000070610000757300006500000018
:101590002751000027200000437200006F6E0000FA
:1015A0006F6D000065740000726F00000052000053
:1015B0004553000045540000004100004C4100002C
:1015C000524D0000004C0000616200006F7200008C
:1015D000617400006F720000696F0000203200002B
:1015E0000035000029200000416C000061720000FD
:1015F0006D610000004100004200000045720000E3
:10160000726F00006E6500006F2000000020000077
:1016100020200000202000002020000020000000EA
:1016200000000000494E0000542000004943000023
:10163000004E0000614E000000200000202000004D
:10164000202000002020000020000000456E000047
:10165000747200006172000000410000520000003E
:1016600030000000000000000000000032290000EF
:10167000205000004C4100005900000033290000B8
:10168000205000004155000053450000003100008B
:1016900029200000507200006F6700007261000096
:1016A0006D61000072200000486F00007261000050
:1016B000005000004C41000059000000437200003F
:1016C0006F6E00006F6D000065740000726F0000A7
:1016D000004900004E460000000000004553000095
:1016E0004300000000D1000000CD0000CBC9000085
:1016F000CAD40000D3D20000D0CE0000CCEB000052
:101700006000000000DE0000DD000000DC71000071
:1017100031000000000000007A73000061770000D3
:1017200032DB0000006300007864000065340000D4
:1017300033DB0000002000007666000074720000B9
:1017400035000000006E000062680000677900004C
:1017500036000000000000006D6A000075370000D0
:1017600038000000002C00006B6900006F300000A2
:1017700039000000002E00002F6C00003B700000BC
:101780002D00000000000000270000005B3D00006D
:1017900000000000E1DD0000D55D0000005C0000FD
:1017A0000000000000000000000000000000000039
:1017B000D800000000E2000000E60000E3000000A6
:1017C00000000000D9DA0000E9350000E7E8000079
:1017D000EAE50000D32B0000D72D00002AD6000038
:1017E000E40000000000000000CF0000D100000075
:1017F000CDCB0000C9CA0000D4000000D2D0000048
:10180000CECC0000EB7E000000000000DEDD00001A
:1018100000DC00005121000000000000005A000020
:101820005341000057400000DB0000004358000017
:101830004445000024230000DB0000002056000087
:101840004654000052250000000000004E420000F7
:1018500048470000595E000000000000004D0000F5
:101860004A550000262A0000000000003C4B000002
:10187000494F000029280000000000003E3F000002
:101880004C3A0000505F0000000000000022000001
:10189000007B00002B00000000E10000DDD500000F
:1018A0007D0000007C00000000000000000000003F
:1018B0000000000000D8000000000000E20000006E
:1018C000E6E300000000000000D90000DAE90000B3
:1018D00035E70000E8EA0000E5D300002BD7000060
:1018E0002D2A0000D6E400000000000000000000E7
:1018F000CF3100000034000037000000000000007D
:10190000302E0000323500003638000000000000A4
:10191000002B0000332D00002A390000FFFFFFFFDD
:0200000401F009
:1C0008000300000087000000A70000007F0000003F000000D70000000300000013
:00000001FF
