:10000000781B040000000000000000000000000059
:1000100000000000000000000000000000000000E0
:100020000000000000000000000000004619000071
:10003000000000008C19000000000000000000001B
:10004000000000005C18000000000000000000003C
:1000500000000000000000000000000000000000A0
:100060000000000000000000000000000000000090
:100070000000000000000000000000000000000080
:100080000000000000000000000000000000000070
:1000900000000000121B00002C1C000000000000EB
:1000A0000000000000000000000000000000000050
:1000B0000000000000000000000000004C1C0000D8
:1000C00000000000DC1B0000000000000000000039
:1000D0000000000000000000000000000000000020
:1000E0000000000000000000000000000000000010
:1000F0000000000000000000000000000000000000
:1001000000000000000000000000000000000000EF
:1001100000000000000000000000000000000000DF
:1001200000000000000000000000000000000000CF
:1001300000000000000000000000000000000000BF
:1001400000000000000000000000000000000000AF
:10015000000000000000000000000000000000009F
:10016000000000000000000000000000000000008F
:10017000000000000000000000000000000000007F
:10018000000000000000000000000000000000006F
:10019000000000000000000000000000000000005F
:1001A000000000000000000000000000000000004F
:1001B000000000000000000000000000000000003F
:1001C000000000000000000000000000000000002F
:1001D000000000000000000000000000000000001F
:1001E000000000000000000000000000000000000F
:1001F00000000000000000000000000000000000FF
:1002000000000000000000000000000000000000EE
:1002100000000000000000000000000000000000DE
:1002200000000000321B0000000000000000000081
:1002300000000000000000000000000000000000BE
:1002400000000000000000000000000000000000AE
:10025000000000000000000000000000000000009E
:10026000000000000000000000000000000000008E
:10027000000000000000000000000000000000007E
:10028000000000000000000000000000000000006E
:10029000000000000000000000000000000000005E
:1002A000000000000000000000000000000000004E
:1002B000000000000000000000000000000000003E
:1002C000000000000000000000000000000000002E
:1002D000000000000000000000000000000000001E
:1002E000000000000000000000000000000000000E
:1002F00000000000000000000000000000000000FE
:1003000000000000000000000000000000000000ED
:1003100000000000000000000000000000000000DD
:1003200000000000000000000000000000000000CD
:1003300000000000000000000000000000000000BD
:1003400000000000000000000000000000000000AD
:10035000000000000000000000000000000000009D
:10036000000000000000000000000000000000008D
:10037000000000000000000000000000000000007D
:10038000000000000000000000000000000000006D
:10039000000000000000000000000000000000005D
:1003A000000000000000000000000000000000004D
:1003B000000000000000000000000000000000003D
:1003C000000000000000000000000000000000002D
:1003D000000000000000000000000000000000001D
:1003E000000000000000000000000000000000000D
:1003F00000000000000000000000000000000000FD
:10040000A70020000E20ED00FEFF3A0000000000D3
:1004100000000000000006000000FA0002000700D3
:100420007A02040000000000841F78001400070016
:100430004F00780011003300F0FF2F00838F6C0015
:1004400006003B00040565000A00A700080037000D
:1004500009F0A6001000200008003700820F5400A9
:10046000838F5C00030039001000200001003E0073
:100470000000200009F0A7000000EA0000000600CC
:100480000084BE00060007000083BE000485BE0095
:100490000280BE0002000700844F750000000600C5
:1004A000C70ADE00F107B200F50FB2000800320003
:1004B000E1CF42000200320002E0A8002400050063
:1004C000810F70000100320004080500440005009F
:1004D000810F700002003A00140005008502E90057
:1004E0000000400081C04800FCFF3B0002E0A80083
:1004F000240005000080FA00000006000000FA0059
:1005000050AEA90052AEA9000080FA00000006001B
:100510000000FA0050AEA8000080FA0000000600BB
:100520000200FA00100020000007980001082000D7
:10053000600047001008E1000A00360052AEAE002D
:100540000400370001082000600047001088700098
:1005500003003700110020006000470010884000B1
:10056000F2FF3700600047001070A1000E009000FD
:100570000080FA00000006000400FA000220EF00EC
:10058000F00F200010079800620047001000E00004
:1005900011003200600047000008EB0052AEAF00CF
:1005A0001008E8000200E200050032006000470089
:1005B0001000E00002003A001000200007003700A1
:1005C0000E0190009E00900062004700618850007C
:1005D00082007800ECFF37000020EF000080FA0076
:1005E000000006000000FA00140020008AFF070047
:1005F0000080FA00000006000000FA00F4FF2F005F
:1006000085FF07000080FA00000006008A1F7800BE
:100610008D1F780000032000000045001DC0B300BE
:10062000004578001E040700CF0678004F057800CB
:10063000000006000000FA000A00780000017800BF
:10064000E10140008B007800618045008005780062
:10065000114978001204E000020032000300780023
:10066000F6FF37000A0078000080FA00000006005C
:100670000000FA0014E0AE00422EA90014E0AF0022
:10068000422EA8000000000014C0AE00420EA900D7
:1006900014C0AF00420EA8000000000014A0AE007D
:1006A000522EA90014A0AF00522EA8000000000096
:1006B0001480AE00520EA9001480AF00520EA800A4
:1006C000000000001460AE0032EEA9001460AF001C
:1006D00032EEA800000000001440AE0032CEA900A7
:1006E0001440AF0032CEA800000000001420AE007D
:1006F00032AEA9001420AF0032AEA8000000000006
:100700001400AE00328EA9001400AF00328EA80093
:10071000000000000080FA00000006000000FA005F
:1007200037FF0700346EA80035FF0700346EA900BC
:100730000080FA0000000600000000000000000039
:1007400000000000000000000000000000000600A3
:100750000000FA008A80FB00F007200000806000A3
:100760000045780000C0AE0003003700446EA800CA
:10077000444EA90002003700446EA900444EA80070
:100780000080FA00000006000000FA008A1F7800CE
:100790008A80FB00F00720000080600000457800A0
:1007A000342EA900344EA9008080FB00F00B2000FD
:1007B00000806000004578008080FB00000420007D
:1007C000008070000045780000457800A8FF070011
:1007D000D2FF07004F0578000080FA0000000600F5
:1007E0000000FA008A1F7800342EA900344EA900B8
:1007F0008A80FB00800B200000807000004578009C
:100800009BFF0700C5FF07004F0578000080FA0036
:10081000000006000400FA000020EF001007980016
:100820003BFF07003EFF07000000E20002003A0025
:100830001E009000150037000020EF000007980010
:1008400001082000600047001008E1000A0036009F
:10085000528EAF000400370052AEAF0002003700E6
:1008600010002000090037008E0090006000470053
:1008700061884000F2FF3700620047001000E0008E
:1008800001003A001DFF07001E0090000080FA00E2
:10089000000006000600FA008A1F78008B1F78000F
:1008A0000820EF0000002000404798000A07980049
:1008B0001B0798000E0190009E019000F0FF2F0092
:1008C000F1FF2F000010E1000198E10005003A005F
:1008D0005B1421000C05780056FF070030C0B30000
:1008E0000A01370015C0B3006000470063004000F4
:1008F0001040780000E0AE000C00370060004700B8
:10090000630140009280FB00000820000080680026
:10091000004978000A60EC00D0C2B300004E7800B5
:100920006100460000067800000037000E009000CD
:100930009E0090006000E1006088E10005003A0040
:100940009B1421000C0578003AFF07000020EF00FF
:10095000EE0037000E0190009E0190000000200084
:1009600001F827000010E1000198E10005003A00BD
:100970001B1421000C0578002EFF070005407800AD
:10098000E200370004417800821F78008C1F780055
:100990008A9FBE000200200003F823000E00900092
:1009A0009E0090000FFF07000000E0000060EF00D5
:1009B00001003D000060EC004F05BE004F067800CE
:1009C0004F0178000040E20011003200821F7800E1
:1009D0008C1F78008A9FBE000E0090009E00900041
:1009E0000200200003122400A50507004F05BE00E9
:1009F0004F0678004F017800000798001107980013
:100A0000CE4090006400470061C85000DEFF370010
:100A100002427800841F78008C1F78008A9FBE00F5
:100A200002002000031224000E0090009E0090009F
:100A3000F1FE07000000E0000060EF00010035005B
:100A40000060EC004F05BE004F0678004F027800B2
:100A50000040E20011003200841F78008C1F7800F3
:100A60008A9FBE000E0090009E009000D2CC2C0009
:100A7000C3DC2300820507004F05BE004F06780047
:100A80004F0278000007980011079800CE409000B0
:100A90006400470061C84000DEFF37006001470086
:100AA0001200BE000000D0008180D2000007980034
:100AB00011079800600047006300400090407800F4
:100AC000F0C7B30000C1500060004700E3004000E1
:100AD00010C0B300804878008281FB0060014700AD
:100AE0001200BE008301E900030035000000D000C1
:100AF0008180D200FBFF37000007980011079800A3
:100B00006000470063004000010320001080FB00EC
:100B100000804000004E780061004600000678002A
:100B20004E4090006104E100050035004E40900009
:100B30006604E10002003C00044378000500370031
:100B4000E0C2B300004E7800610046000006780065
:100B500016C0B30065C0B300602CE1002F00320066
:100B600060004700E30040000020EF00804878006C
:100B700060004700B0017800200278008301D000B7
:100B80000482D2008301D0000482D20060014700B9
:100B900032804100A2004A00000798001107980027
:100BA000600147001200BE000000D0008180D2002A
:100BB000000798001107980060004700630040009C
:100BC000010320001080FB0000804000004E7800F0
:100BD00061004600000678006034E1000D003A0034
:100BE0004E4090000060ED00404798006004E10036
:100BF00007003A00E0C2B300004E780061004600F2
:100C00000006780010C0B3000043780000003700F1
:100C1000000037000A60ED00CFFF3700F0FF2F0023
:100C2000000046009040780000C3B300000CE100D3
:100C300003003A006100560000067800F7FF370015
:100C4000F0FF2F000000460090407800E0C2B300A3
:100C5000000CE10002003A00610056000006780036
:100C60004E4090006004E1002500320050C6B30001
:100C7000004E780061004600000678004E4090006B
:100C80006004E10007003D00D0C2B300004E7800D0
:100C90006100460000067800CE40900064004700E6
:100CA00060C81000CE4190004E4090006904E10001
:100CB0000A0036000380FB00A2002000110009009A
:100CC0000200D800800078000003200001004000EE
:100CD000004E780061004600000678000380FB00AB
:100CE000A2002000110009000200D800000320002B
:100CF00001004000004E78006100460000067800C8
:100D00000020EF00004E78000020EF00CF057800B3
:100D10004F0578000080FA00000006000200FA008B
:100D2000402EA800400EA800502EA800500EA8008B
:100D300030EEA80030CEA80030AEA800308EA8005B
:100D40007DFE07007CFE0700342EA800346EA9004B
:100D5000344EA800346EA800A9FD070060004700CB
:100D60001070A000422EAE001070A100600047007D
:100D70001060A000420EAE001060A10060004700AD
:100D80001050A000522EAE001050A100600047008D
:100D90001040A000520EAE001040A10060004700BD
:100DA0001030A00032EEAE001030A100600047000D
:100DB0001020A00032CEAE001020A100600047003D
:100DC0001010A00032AEAE001010A100600047006D
:100DD0001000A000328EAE001000A100346EA900F9
:100DE000344EA90054FE070053FE0700402EA90010
:100DF000400EA900502EA900500EA90030EEA90007
:100E000030CEA90030AEA900308EA9000E4090006F
:100E10000080FA00000006000000FA000C20EF003D
:100E2000150020000820EF000620EF000117210028
:100E300010C0B30080487800001721001004E000C3
:100E400016003200CCFD07000000E2001200320064
:100E5000528EAE0006003700001721001080FB0004
:100E60000000730061816A00800278000200370090
:100E70000501780086027800001721001080FB0031
:100E8000C100DD000017210001487800050378004B
:100E90008202780000003700E7FF3700B6FD070048
:100EA0000000E200050032000020EF00528EAF008B
:100EB0000020EC000002780000003700AEFD0700C3
:100EC0000000E200040032000020EF00528EAF006C
:100ED0000020EC00010037000300780087FD0700C8
:100EE0000428E10004003A006000E1000200320042
:100EF00006007800010037000020EF00000D7800A8
:100F00000080FA00000006000000FA000220EF0056
:100F10006050E10002003A00010078004B00370009
:100F2000E01621001010A6001300370080062000F4
:100F30000050E10010003600E00720000050E10002
:100F40000D003100700720000050E1000A0032005F
:100F50009006200080005500904428008100400049
:100F60001020200034A0B700114078008080FB00E2
:100F70000100780035003700610055000005780059
:100F8000E01621001050A600180037000036280097
:100F90008A0040001020200034A0B70011407800E3
:100FA0008080FB00E01621001020A6000900370019
:100FB000000420000008E10008003600B005200011
:100FC0000008E1000800310000022000008040001D
:100FD00001003700010078000100370001007800AF
:100FE000800078000000370017003700D02D28005F
:100FF0008A0040001020200034A0B7001140780083
:101000008080FB00E01621001020A60009003700B8
:10101000000620000008E10008003600B0072000AC
:101020000008E100080031000002200000805000AC
:10103000010037000100780001003700010078004E
:101040008000780000003700010078000080FA007E
:10105000000006000200FA008B1F78008C1F780049
:1010600000002000000798008A1F78007C00200004
:101070008A0578000E05900064FD07004F05780092
:10108000CC000700A0152100104078006D04E1009D
:10109000310032008A9FBE007C152100BB15210063
:1010A000AA152100CD0007004F05BE000000E20098
:1010B00028003200701521001004E00025003200E5
:1010C000A015210090407800C0C6B300000CE100DC
:1010D00006003200A015210090407800F0C6B30051
:1010E000000CE1000100320019003700A0152100BA
:1010F00090407800F0C6B300000CE10004003A0014
:101100008E0090006000470061884000A900070041
:10111000A015210090407800C0C6B300000CE1008B
:1011200004003A008E009000600047006188500083
:10113000A00007008A9FBE007C0020008A0578007E
:101140000E05900031FD07004F05BE009900070015
:1011500098000700CBFF37000E0090004F06780084
:10116000CF0578000080FA00000006000000FA00B9
:10117000346EA900342EA800344EA9003CFD0700AF
:1011800066FD07000080FA00000006008A1F780054
:101190008B1F7800870007001820EF006560E100D2
:1011A00018003D006260E1000D0032005000200098
:1011B00000E1B90020032000020040008C05780007
:1011C00000057800A3FF0700010320008100400014
:1011D000301221000C004000014878000500370063
:1011E0006260E10003003A0051122100A0C3B30085
:1011F000804878006F0007006F0407001820EC009B
:10120000E6FF3700CF0578004F05780000000600A4
:101210008A1F78008B1F78008C1F78008D1F780044
:101220001DC0B3001CC0B3001620EF000A0021004F
:101230007B0707001DC0B3001CC0B3001BC4B30074
:101240005A022100760707006C1921003A8D8000B0
:101250004B8D80008FFD07001DC0B3002CC0B30074
:101260005BC0B3006A1921006D0707006C192100EB
:101270009A8C8000AB8C800086FD07001DC0B300F7
:101280003CC0B3005BC0B3006A19210064070700CB
:101290006C1921001A8C80002B8C80007DFD0700CA
:1012A0001DC0B3004CC0B3005BC0B3006A1921007D
:1012B0005B0707006C192100FA8B80000B8C800003
:1012C00074FD07001DC0B3005CC0B3005BC0B30079
:1012D0006A192100520707006C192100DA8B80007F
:1012E000EB8B80006BFD07001DC0B3002CC0B3006A
:1012F0001BC4B3006A192100490707006C192100BB
:101300007A8C80008B8C800062FD07001DC0B300CA
:101310003CC0B3001BC4B3006A192100400707009A
:101320006C1921005A8C80006B8C800059FD0700DD
:101330001DC0B3004CC0B3001BC4B3006A19210028
:10134000370707006C1921003A8C80004B8C800015
:1013500050FD07001DC0B3005CC0B3001BC4B30048
:101360006A1921002E070700CF0678004F06780083
:10137000CF0578004F057800000006000000FA0055
:101380004EB897009A8B8800AB8B8800508B8800F2
:10139000601721000C487800701721000D48780074
:1013A0001117210010C0B300804878000080FA00B7
:1013B00000000600A11521000020EF008048780001
:1013C000B11521000020EF00804878007115210040
:1013D0000020EF0080487800000006000800FA00B6
:1013E000100020002007980010002000300798000F
:1013F0000020EF00100798000020EF00608B8800AD
:1014000004FD07000000E20002003A000020EF00A7
:10141000A1003700600047008A1F780000057800AF
:101420007DFE07004F057800010F20006000470097
:101430001008E1000C003A000020EF00300798008F
:10144000F4FC07000000E20001003A00FCFF370056
:10145000600047008A1F7800000578006EFE0700D4
:101460004F05780037003700010E2000600047006C
:101470001008E1001B003A00E6FC07000000E20053
:1014800001003A00FCFF3700600047008A1F780027
:101490000005780060FE07004F057800010F20006E
:1014A000600047001008E1000B003A000020EF0048
:1014B00030079800D7FC07000000E20001003A0066
:1014C000FCFF3700600047008A1F780000057800A5
:1014D00051FE07004F05780010002000608B880047
:1014E0001800370071072000600047001008E10075
:1014F0000E003A0010002000200798006600470008
:101500001000E00008003200E01621001010A700D3
:1015100003003700E01621001010A0000200370081
:10152000E01621001010A10006003700110E200067
:10153000600047001008E10002003A00000E2000A1
:1015400010079800C01621001000E0000B003200C8
:101550000E0090007200E10002003A00F00D200041
:1015600010079800C1072000600047001008E10044
:1015700002003A00F00D2000100798000E009000C5
:101580007200E10005003200910520006000470074
:101590001008E100010032000A00370010002000AE
:1015A00020079800660047001000E00003003200AA
:1015B000E01621001050A00002003700E0162100C4
:1015C0001050A100E01621001010A70006003700FF
:1015D00031072000600047001008E10002003A00D7
:1015E0000020EF002C0037001E0090006000E1009A
:1015F00007003A000020EF00200798008A1F7800BB
:101600000E05900040FE07004F0578001007980077
:10161000110E2000620047001008E1000D003A00A2
:101620001000200020079800660047001000E0002E
:1016300008003200E01621001020A7000300370048
:10164000E01621001020A00002003700E016210063
:101650001020A100810C2000620047001008E1006A
:10166000060031001000200020079800820C2000A6
:10167000E200470062004700110811002E40900070
:10168000004D78004E409000804D78006E409000F4
:10169000004E7800100020000080FA0000000600D4
:1016A0000200FA008A1F78006764E100010036003A
:1016B000640037008A80FB00A01621009080500053
:1016C000601721001080FB000008B80000037800BC
:1016D0000B4578002CFC07000C45780040FC070007
:1016E0000A20EF00601721001080FB000028E100B5
:1016F00039003100F0C7B300005CE10001003600A2
:10170000500037008A1F78000B45780010FC070056
:101710000C45780032FC07000B4578001AFC0700E6
:101720004F0578007DFD0700004798007BFD07000E
:10173000004798008A1F78000B45780004FC0700DA
:101740000C45780026FC07000B4578000EFC0700CE
:101750004F057800860178004F9ADE00221721009D
:1017600032804100A2004A00A101880010407800A8
:10177000004178000C20EC0000E0EE00080037008B
:10178000004798000C003700024798000A00370015
:10179000E00047006000470011486900060037007C
:1017A000606CE100F6FF3200616CE100F6FF320090
:1017B000626CE100F6FF32008A1F78000E4590004F
:1017C0006AFE07004F05780061C04500804578003B
:1017D0000A20EC00C3FF37008A1F78000B45780011
:1017E000DBFB07000C457800FDFB07000B4578008C
:1017F000E5FB07004F057800F0CFB3000220EF00B3
:101800000C003700004798008A1F780000457800D8
:1018100056FE07004F0578000A0037000147980080
:101820008A1F78000145780050FE07004F057800B8
:1018300004003700606CE100F2FF3200616CE100EF
:10184000F6FF32004F0578000080FA000000060025
:101850000200FA000420EF006514E10006003100E8
:101860000280FB008080450000C2B3008048780001
:101870000460EC00F8FF37000280FB008080450028
:101880000020EF0080487800E14151000380FB0018
:101890000080450000079800A20020001100090008
:1018A0000285D80000032000808040000E009000D8
:1018B00001487800A2002000110009000285D8002C
:1018C000000578006000E10001003A0002003700E6
:1018D0000660ED00EDFF37000080FA000000060012
:1018E0008B1F78008C1F78008D1F7800100020005F
:1018F000000678006660E10015003D000A60E10026
:1019000009003A008C1F78008A1F78001DC0B300C0
:101910001620EF008A152100C10507004F05780049
:101920004F067800080037008C1F78008A1F780067
:101930001DC0B3001620EF00EA152100B80507000E
:101940004F0578004F0678001820EC00E9FF3700BB
:10195000CF0678004F067800CF057800000006001B
:101960000000FA008A1F7800111721000020EF0004
:10197000804878000020EF00C08B8800408EA900CE
:10198000306EA900302EA900304EA900406EA9008B
:10199000404EA900448EA900402EA900400EA90087
:1019A000502EA900500EA90030EEA90030CEA9009B
:1019B00030AEA900308EA900342EA900344EA90003
:1019C000446EA900444EA800448EA8005AFB0700AC
:1019D000FAC3B30026FB070050FB07000ACCB30094
:1019E00023FB07004DFB0700446EA800444EA900EE
:1019F000FAC3B3001EFB070048FB07000ACCB30084
:101A00001BFB070045FB07004F0578000080FA002C
:101A1000000006008A1F78008B1F78008C1F78005A
:101A20008D1F78008A02070011E1A8001420EF0042
:101A30006A040700A01521009040780060C7B30039
:101A4000000CE10015003200F1FD07001DC0B300DD
:101A50007CC0B300ABC0B3000A10210070050700C2
:101A600008012000872424000E20ED00FEFF3A002C
:101A70001020ED00FCFF3A00000000000000000014
:101A800000000000000000007C152100BB152100B3
:101A9000AA15210051FE0700E6FF3700CF067800A7
:101AA0004F067800CF0578004F057800000006004B
:101AB0000000FA008A1F78000820EF000A00780072
:101AC0006050E10003003D0014002000600015009C
:101AD00000003700000578005DFF0700630020006C
:101AE000040178006018E10006003600838045009C
:101AF0006180510000804500904878000620ED008C
:101B0000F8FF370000C2B300804D78000400E20007
:101B10000C0032000420EF00028045009040780065
:101B200000C2B300000CE10002003A000420EC0007
:101B3000F9FF37006100510080804500D0C2B3003A
:101B4000804878004F0578000080FA000000060009
:101B50000000FA0002000700DA0E04000000000096
:101B6000889FBE008A9FBE008C1F78003E00070041
:101B70004500330003866C006450E1002E00320003
:101B80006420E100330032006150E1002F00320098
:101B90006120E1003100320085855500EB07B0007F
:101BA0000900200008042000050037000804440054
:101BB00089844C000A0031000603430087834B00F0
:101BC0000001530081815B00F8FF33000283BE00F7
:101BD0001000A8000804440089844C00F6FF390076
:101BE000C639DD00830173000100320013002000BC
:101BF0008904D1000884D3000998A30005003200AD
:101C00000800A7000600A8008904D1000884D300BA
:101C10008B05E8008904D1000884D3000001EB00A3
:101C20000281D2002800070001F0A1000CF0A700FB
:101C300003E0A8001D0037006420E1001F0032000F
:101C40000881BE000280BE00F7FF37006120E1007E
:101C50001A0032006000B800F3FF370000002000D7
:101C600001F82700F0FF37000084BE003C000700A9
:101C70000083BE000485BE000280BE00380007005D
:101C8000844F7500000006000280BE006450E10031
:101C9000050036006420E100020036000968A30058
:101CA00001003A000880BE0002C0A8004F0678007C
:101CB0004F05BE004F04BE0000000600F0FF2F00DD
:101CC000F1FF2700F9FF37008100200061805500F7
:101CD0000B003D000B00200061FE2F000100E10021
:101CE0001D00340082817100610164008904D1000B
:101CF0000884D3000000E800FAFF3A0071002000D9
:101D000061006400030070000200600009003200FE
:101D100061044400E0844C000988A50005003200FD
:101D20008B05E8006808E10002003A008904D10050
:101D30000884D300F20F20000258E10005003D00A6
:101D4000C75DDD00F907B2008980750008008800D2
:101D5000000006000BF827001B00880000000500AB
:101D6000C70ADE00F107B200F50FB200080032002A
:101D7000E1CF42000200320002E0A800240005008A
:101D8000810F7000010032000408050044000500C6
:101D9000810F700002003A00140005008502E9007E
:101DA0000000400081C04800FCFF3B0002E0A800AA
:101DB000240005000080FA00000006000000FA0080
:101DC00002000700900F0400000000000400E20081
:101DD00006003A000005EB000200E2000F003E00A2
:101DE0000000E200270032000C003700A10088004C
:101DF0000200E2000400350008003C000000E200A0
:101E0000200032000500370060001000E08018005C
:101E100002003B0001F02C001A0037000084BE00D5
:101E20006011B8006B0920000982CF000200390060
:101E30000882CF000441B000694252000E00320017
:101E400008003B0082817100610164008904D100B7
:101E50000884D3008B05E8000442E800F9FF3A004B
:101E6000050037000804440089844C008B05E90014
:101E70000442E900FBFF3A00030007000AF0A70054
:101E800003E0A800000006008100200061805500EA
:101E90000B003D000B00200061FE2F000100E1005F
:101EA0001D00340082817100610164008904D10049
:101EB0000884D3000000E800FAFF3A007100200017
:101EC000610064000300700002006000090032003D
:101ED00061044400E0844C000988A500050032003C
:101EE0008B05E8006808E10002003A008904D1008F
:101EF0000884D300F20F20000258E10005003D00E5
:101F0000C75DDD00F907B200898075000800880010
:101F1000000006000BF827001B00880000000500E9
:101F20000080FA00000006001E2EEF002E2EEF00AB
:101F30003E2EEF004E2EEF006E2EEF00F0FF2F0032
:101F400010AEB700402EEF00602EEF00316EA800FB
:101F5000314EA800312EA800310EA800506EA90005
:101F600040AEA90040EEA90060CEA900610EA90014
:101F700000C1B30080407800C068200090C06800B5
:101F8000F0C3B30080C06000C068200090C068004B
:101F9000C06820000148780000102100800078000F
:101FA000C06820009080680000F0230080806000FE
:101FB000C068200090806800613488000020210003
:101FC00080007800A06920009080680000F0230065
:101FD00080806000A069200090806800D134880073
:101FE00030C1B30080407800C069200090C0680014
:101FF000F0C3B30080C06000C069200090C06800DA
:10200000C06920000148780040C1B30080407800DA
:102010000068200090C06800F0C3B30080C060007A
:102020000068200090C06800006820000148780027
:10203000000006008A1F78008C1F78008D1F780032
:1020400047FE07007DC0B3005CC0B3000A00280053
:10205000102020008005780000022000801F7800FA
:10206000C6FC07002F00B1001420EF00DB020700C0
:10207000CF0678004F0678004F0578000000060074
:102080000000FA00020007005611040000000000E2
:10209000889FBE008A9FBE008C1F7800300007001A
:1020A0003700330003866C006450E10024003200E6
:1020B0006420E100270032006150E100220032007C
:1020C0006120E100210032008B854200EB07B10066
:1020D0000134B800003AB8000804420089844A007C
:1020E000013AB8000030B8008880400009014A0079
:1020F00004003300000040008180480002014900D4
:102100008B05E900C909DD00830170000100320080
:1021100013002000C814DE004814DD004709DE006B
:102120001200B200C808DE00088470002400070016
:1021300001F0A1000CF0A70003E0A800190037008F
:102140006120E1001B0032000881BE000280BE0059
:10215000F7FF37006150E100FCFF3A00150037003F
:102160000084BE003C0007000083BE000485BE0062
:102170000280BE0038000700844F75000000060092
:102180000280BE006450E100050036006420E100DA
:10219000020036000968A30001003A000880BE0072
:1021A00002C0A8004F0678004F05BE004F04BE00D5
:1021B00000000600F0FF2F00F1FF2700F9FF3700B5
:1021C00081002000618055000B003D000B002000C5
:1021D00061FE2F000100E1001D00340082817100CA
:1021E000610164008904D1000884D3000000E80084
:1021F000FAFF3A00710020006100640003007000E3
:10220000020060000900320061044400E0844C00D8
:102210000988A500050032008B05E8006808E10088
:1022200002003A008904D1000884D300F20F200094
:102230000258E10005003D00C75DDD00F907B2006E
:102240008980750008008800000006000BF8270050
:102250001B00880000000500C70ADE00F107B2007D
:10226000F50FB20008003200E1CF42000200320058
:1022700002E0A80024000500810F70000100320078
:102280000408050044000500810F700002003A00B8
:10229000140005008502E9000000400081C04800EC
:1022A000FCFF3B0002E0A800240005000080FA00CB
:1022B000000006008A1F78008B1F78008C1F7800B2
:1022C0001900070021E1A8001FE1A8005800200024
:1022D000273E29000E20ED00FEFF3A001020ED0001
:1022E000FCFF3A0000000000A0152100904078009B
:1022F00060C7B300000CE100050032007C1521002E
:10230000BB152100AA15210034FC0700F6FF370099
:1023100021E1A9001FE1A9004F067800CF05780050
:102320004F057800000006008A1F78008B1F780098
:102330008C1F78008D1F78001420EF002702070003
:102340001DC0B3001820EF00CBC3B3003A1021002A
:10235000330307001DC0B3004CC0B3001620EF00CC
:102360004A0821002E0307001DC0B3001CC0B300A3
:102370001620EF002A092100290307001DC0B30021
:102380002CC0B3001620EF000A0C21002403070024
:102390001DC0B3003CC0B3001620EF005A1121004D
:1023A0001F030700CF0678004F067800CF0578009E
:1023B0004F057800000006008A1F78008B1F780008
:1023C0008C1F78008D1F78001DC0B3007CC0B30047
:1023D000CBC3B300EA0C2100110307000020EF007B
:1023E000F08788000020EF00F0878800F0878000E9
:1023F0006C00E10011003D00F187800050002000DA
:102400000009B80020032000020240003112210020
:10241000E00F2100108040001DC0B3007CC0B3005D
:1024200084457800104578009DFC070011002000CD
:10243000E00F210010884000ECFF3700CF06780045
:102440004F067800CF0578004F05780000000600A1
:102450000621EF0000C2B300804078000011200088
:1024600090C0680000C3B30080C06000001120006D
:1024700090C06800001120000148780010C1A90038
:102480001021A90020A127000CA1B70020E8A80076
:1024900000E8A900410A800000C02100008070000F
:1024A00048A1B70050C0B3008040780080142000DD
:1024B00090C06800E7C060008014200090C06800F1
:1024C00080142000014878004B01A800010A800018
:1024D00000C021000080700040A1B70050C0B300D0
:1024E000804078000014200090C06800E7C06000C1
:1024F0000014200090C068000014200001487800FB
:102500002028A8000028A9004301A800C10A8000D3
:1025100000C021000080700058A1B70050C0B30077
:10252000804078008015200090C06800E7C06000FF
:102530008015200090C068008015200001487800B8
:102540005B01A800810A800000C0210000807000AB
:1025500050A1B70050C0B3008040780000152000A3
:1025600090C06800E7C060000015200090C06800BF
:10257000001520000148780024A8A80004A8A9009C
:102580005301A800410B800000C0210000807000B2
:1025900068A1B70050C0B3008040780080162000CA
:1025A00090C06800E7C060008016200090C06800FE
:1025B00080162000014878006B01A800010B800004
:1025C00000C021000080700060A1B70050C0B300BF
:1025D000804078000016200090C06800E7C06000CE
:1025E0000016200090C06800001620000148780006
:1025F00024E8A80004E8A9006301A800C10C800039
:1026000000C021000080700098A1B70050C0B30046
:10261000804078008019200090C06800E7C060000A
:102620008019200090C068008019200001487800BF
:102630009B01A800810C800000C021000080700078
:1026400090A1B70050C0B30080407800001920006E
:1026500090C06800E7C060000019200090C06800CA
:1026600000192000014878002FE8A8000FE8A90011
:102670006301A80000000600316EA800B0C4B300DA
:1026800080407800E06A200090C06800F0C7B30086
:1026900080C06000E06A200090C06800E06A20000E
:1026A00001487800314EA800A0C4B30080407800F3
:1026B000006B200090C06800F0C7B30080C06000CD
:1026C000006B200090C06800006B2000014878007B
:1026D000312EA80090C4B30080407800206B200009
:1026E00090C06800F0C7B30080C06000206B20007D
:1026F00090C06800206B200001487800310EA800CF
:1027000080C4B30080407800406E200090C0680014
:10271000F0C7B30080C06000406E200090C0680029
:10272000406E200001487800000006000000FA001A
:10273000508EA80050AEA8000020EF00708B8800DB
:102740000080FA00000006002368A8002388A80083
:102750000368A9000388A900E011200090407800D8
:10276000F0CCB30080C06000E01120000148780088
:102770001E21A9001421EF00007D20001AA1B7003E
:1027800000C5B300804078000012200090C06800AF
:1027900000C3B30080C060000012200090C0680039
:1027A00000122000014878002021A9001821EF0024
:1027B000608929001CA1B70000000600007D2000F0
:1027C00002A1B7000021EF002068A8000068A9005E
:1027D00000002300800078000084200090806800C2
:1027E0000000270080806000008420009080680046
:1027F0000142880004C1A9000441A9000421A900E4
:102800004010200090407800F0CCB30080C0600001
:10281000401020000148780000000600200420003D
:1028200090407800F0C1B30080C060002004200018
:1028300001487800C1E8A900C3E8A8004460A900E5
:102840000000220080007800008420009080680052
:1028500000002700808060000084200090806800D5
:1028600001428800000024008000780020842000BD
:102870009080680000002700808060002084200095
:1028800090806800114288000000220080007800DB
:10289000C0842000908068000000270080806000D5
:1028A000C0842000908068006142880030C0B3007E
:1028B00080407800E084200090C06800E7C060009D
:1028C000E084200090C06800E08420000148780087
:1028D00000C2B300804078000084200090C06800EF
:1028E00000C7B30080C060000084200090C0680072
:1028F000008420000148780000C2B30080407800C6
:102900002085200090C0680000C7B30080C0600030
:102910002085200090C068002085200001487800B4
:102920000000220080007800208520009080680050
:1029300000002700808060002085200090806800D3
:10294000914288000000220080007800E08720008B
:10295000908068000000270080806000E0872000F1
:1029600090806800F1438800000006004149800023
:1029700000C021000080700028A9B700008020005E
:1029800080007800009020009080680000C0210046
:1029900080806000009020009080680001488800DE
:1029A0000080200080007800A090200090806800C7
:1029B00000C0210080806000A0902000908068000E
:1029C000514888000080200080007800409120005D
:1029D0009080680000C0210080806000409120004D
:1029E00090806800A1488800008020008000780066
:1029F000E09120009080680000C02100808060008D
:102A0000E091200090806800F148880002A9A800A9
:102A10000CA9A80016A9A80020A9A8002AA9A80006
:102A200050C0B300804078008092200090C06800C1
:102A3000E7C060008092200090C068008092200073
:102A40000148780050C0B30080407800009020001A
:102A500090C06800E7C060000090200090C068004F
:102A6000009020000148780050C0B30080407800FA
:102A7000A090200090C06800E7C06000A0902000F7
:102A800090C06800A09020000148780050C0B300BA
:102A9000804078004091200090C06800E7C060004E
:102AA0004091200090C068004091200001487800CB
:102AB00050C0B30080407800E091200090C06800D2
:102AC000E7C06000E091200090C06800E091200025
:102AD00001487800201320002EA9B700F07F2000C5
:102AE0002CA9B7002013200006A9B700F07F200012
:102AF00004A9B7009039200010A9B700F07F20008A
:102B00000EA9B700B04C20001AA9B700F07F200032
:102B100018A9B7005066200024A9B700F07F200054
:102B200022A9B700F0C0B3008040780020902000B8
:102B300090C06800FFC060002090200090C0680036
:102B4000209020000148780050C0B30080407800F9
:102B5000C090200090C06800FFC06000C0902000BE
:102B600090C06800C090200001487800F0C0B30019
:102B7000804078006091200090C06800FFC0600035
:102B80006091200090C068006091200001487800AA
:102B9000F0C0B300804078000092200090C0680030
:102BA000FFC060000092200090C0680000922000EA
:102BB00001487800F0C0B30080407800A092200067
:102BC00090C06800FFC06000A092200090C0680024
:102BD000A092200001487800000006000000FA00E2
:102BE000446EA900444EA8000420EF006710E100E5
:102BF0000D003E008A1F780002457800F8F60700B5
:102C00004F0578000220EF00F00320000008E100EB
:102C100003003E0055F907000220EC00FAFF3700E0
:102C20000420EC00F1FF3700444EA900446EA800D8
:102C30000420EF006710E1000D003E008A1F7800BD
:102C400002457800E6F607004F0578000220EF0005
:102C5000F00320000008E10003003E0043F90700F4
:102C60000220EC00FAFF37000420EC00F1FF3700EF
:102C70000080FA00000006000200FA008B1F7800B6
:102C80008C1F78008D1F780010002000000798002E
:102C9000A0152100104078006D04E10057003200BB
:102CA0008A1F78000E0590000DFB07007C1521009F
:102CB000BB152100AA152100C8F907004F057800AF
:102CC0000000E2004C003200701521001004E0000A
:102CD00049003200A015210090407800C0C6B30022
:102CE000000CE10006003200A015210090407800A1
:102CF000F0C6B300000CE100010032001E003700F6
:102D0000A015210090407800C0C6B300000CE1007F
:102D100008003A000E0090000020EC000007980028
:102D20000A00E100020034001000200000079800B3
:102D3000A0F90700A015210090407800F0C6B3006C
:102D4000000CE10007003A000E0090000020ED00AA
:102D5000000798006000E10001003A000A079800AF
:102D600094F907008A1F78000E059000DCFA07002E
:102D70004F05780020003700A01521009040780012
:102D800060C7B300000CE1000E003A008A1F780013
:102D90001DC0B3007CC0B300CBC3B3000A08210040
:102DA0009F0007004F0578008800200047122A0086
:102DB0000E20ED00FEFF3A001020ED00FCFF3A006F
:102DC0000E0037008A1F78001DC0B3007CC0B3001E
:102DD000CBC3B3000A0A2100910007004F05780019
:102DE0008800200047122A000E20ED00FEFF3A0066
:102DF0001020ED00FCFF3A00A5FF37000E00900008
:102E0000CF0678004F067800CF0578000080FA00E2
:102E1000000006008A1F78008B1F78008C1F780046
:102E20008D1F7800A01521009040780060C7B30086
:102E3000000CE100310032005A0020008EFF070034
:102E4000E08A88001D003700D0F8070059F9070014
:102E5000290037001DC0B3007CC0B300EBC1B30034
:102E60002A1521006E00070005E1A80022003700A6
:102E70001DC0B3007CC0B300EBC1B3003A06210013
:102E80006700070005E1A9001B0037001DC0B30063
:102E90007CC0B300EBC1B3009A06210060000700BC
:102EA000150037001DC0B3007CC0B300EBC1B300F8
:102EB000FA0621005A0007000F003700E08A800060
:102EC0006100E100E0FF3200E08A80006200E10082
:102ED000E0FF3200E08A80006300E100E4FF32009E
:102EE000E08A80006400E100E8FF3200E08A8000B0
:102EF0006500E100EBFF3200CAFF3700CF06780023
:102F00004F067800CF0578004F05780000000600D6
:102F10008A1F78008B1F78008C1F78008D1F780027
:102F20001DC0B3001820EF00CBC3B3005A07210027
:102F30003B0007001DC0B3001CC0B3006BC0B30052
:102F4000BA002100360007001DC0B3002CC0B3003A
:102F50006BC0B300DA012100310007001DC0B300CF
:102F60003CC0B3006BC0B3005A0421002C00070022
:102F70001DC0B3004CC0B3006BC0B300EA04210015
:102F8000270007001DC0B3005CC0B3006BC0B300D6
:102F90009A05210022000700CF0678004F0678002E
:102FA000CF0578004F057800000006008A1F7800E2
:102FB0008B1F78008C1F78008D1F78001DC0B30018
:102FC0001820EF00CBC3B3004A0A21001400070009
:102FD0001DC0B3001CC0B3006BC0B3002A0B21009E
:102FE0000F0007001DC0B3002CC0B3006BC0B300BE
:102FF0001A0321000A0007001DC0B3003CC0B30043
:103000006BC0B300CA03210005000700CF0678009B
:103010004F067800CF0578004F05780000000600C5
:103020000000FA000420EF00101721001040780083
:103030006004E1000C003A006117210050C0B300A9
:10304000804878007117210070C0B3008048780074
:1030500000002800908B880010202000A08B8800A2
:1030600000022000508B8800020045001004E000A0
:103070000F00320002004500821F78008A9FBE00C8
:103080001045780086F907004F05BE004F01780013
:10309000601721001080FB00E10040000B80FB0066
:1030A00001004000804578000420EC00EEFF37006E
:1030B0000080FA00000006000400FA003400F80066
:1030C0003200F8003600F800801F78002000200051
:1030D0000C000900B01F7800001420009040780018
:1030E00080CFB30080C06000001420000148780049
:1030F000001520009040780080CFB30080C06000B1
:10310000001520000148780000162000904078004B
:1031100080CFB30080C06000001620000148780016
:10312000001920009040780080CFB30080C060007C
:10313000001920000148780011E1A80000E8A9006A
:10314000308B80004200DD004100DD00CF80DE00DA
:103150000081EB0019FB0700000798001107980099
:10316000308D8800418D8800008B80004200DD009A
:103170004100DD00CF80DE000081EB000FFB070087
:10318000908C8800A18C8800808A80004200DD003D
:103190004100DD00CF80DE000081EB0007FB07006F
:1031A000108C8800218C8800708A80004200DD002D
:1031B0004100DD00CF80DE000081EB00FFFA070058
:1031C000F08B8800018C88000E0190009E01900019
:1031D0000000200001F823005DFA070002402200F1
:1031E00043972400A6FB0700D08B8800E18B880062
:1031F000928C8000A38C80000000200001F8230046
:1032000053FA070002402200439724009CFB07006A
:10321000708C8800818C8800128C8000238C800048
:103220000000200001F8230049FA070002402200B4
:103230004397240092FB0700508C8800618C880023
:10324000F28B8000038C80000000200001F8230036
:103250003FFA0700024022004397240088FB070042
:10326000308C8800418C8800A00120000C000900EF
:103270004F1078004F0078003600F9003200F90056
:103280003400F9000080FA00004006003400F80025
:103290003200F8003600F800801F7800200020007F
:1032A0000C000900B01F78008A1F78008B1F78007F
:1032B0008C1F78008D1F78001100200060162100FF
:1032C000108840006B1921003A8B8000F8F9070044
:1032D0001DC0B3007CC0B3001620EF006A192100A6
:1032E0004FFF07000028A900CF0678004F0678009E
:1032F000CF0578004F057800A00120000C000900E0
:103300004F1078004F0078003600F9003200F900C5
:103310003400F900004006003400F8003200F800E4
:103320003600F800801F7800200020000C00090003
:10333000B01F78008A1F780011C0B300501621001A
:1033400010C8400050162100104078006A04E100C7
:103350005A003A00511621000020EF008048780002
:1033600011C0B3008016210010C840008016210053
:10337000104078006604E10050003A0081162100F8
:103380000020EF008048780011C0B30090162100A3
:1033900010C8400090162100104078006A04E10037
:1033A00046003A00911621000020EF008048780086
:1033B00011C0B300C013210010C84000C013210089
:1033C000104078006604E1003C003A00C11321007F
:1033D0000020EF008048780011C0B300D00F21001A
:1033E00010C84000D00F2100104078006A04E100AE
:1033F00032003A00D10F21000020EF008048780011
:1034000011C0B300B013210010C84000B013210058
:10341000104078006604E10028003A00B113210052
:103420000020EF008048780011C0B3000014210094
:1034300010C8400000142100104078006A04E10028
:103440000500320000142100104078007404E100EF
:10345000010032000B003700D0132100104078002B
:103460006004E10007003A00011421000020EF0091
:103470008048780011C0B300D013210010C840006C
:103480000E00370000142100104078006404E100B1
:103490000A003A00D0132100104078006204E100D5
:1034A00006003A00011421000020EF008048780057
:1034B000D11321000020EF0080487800E0132100A4
:1034C0001000E00018003200F01221009040780057
:1034D00030122100100CE10013003A00001321000B
:1034E0009040780040122100100CE1000E003A00DC
:1034F000201321009040780060122100100CE100A0
:1035000009003A0030132100904078006012210039
:10351000100CE10004003A001420EF00AFFD07009A
:103520000020EF00F0898800D013210010417800BE
:1035300001C3B300301221000148410000142100F2
:103540001041780001C3B30040122100014841003E
:1035500051122100A0C3B30080487800B0132100AD
:103560001041780001C3B3006012210001484100FE
:10357000D00F21001041780001C3B3007012210068
:103580000148410081122100A0C3B30080487800A7
:10359000C01321001041780001C3B3009012210034
:1035A00001484100901621001041780001C3B3008A
:1035B000A012210001484100B1122100A0C3B300B4
:1035C00080487800801621001041780001C3B300C4
:1035D000C01221000148410050162100104178001E
:1035E00001C3B300D012210001484100E1122100C3
:1035F0000020EF00804878006FFB07000068A900FA
:103600004F057800A00120000C0009004F10780041
:103610004F0078003600F9003200F9003400F9005C
:10362000004006003400F8003200F8003600F800D0
:10363000801F7800200020000C000900B01F7800D7
:103640000368A900A00120000C0009004F107800B9
:103650004F0078003600F9003200F9003400F9001C
:10366000004006003400F8003200F8003600F80090
:10367000801F7800200020000C000900B01F780097
:103680008A1F78008B1F78008C1F78008D1F7800B0
:1036900011002000E0142100108840006B19210067
:1036A0007A8A800002F907001DC0B3007CC0B30015
:1036B0008BC2B3006A19210059FE07000FE8A90068
:1036C000CF0678004F067800CF0578004F057800C8
:1036D000A00120000C0009004F1078004F00780076
:1036E0003600F9003200F9003400F900004006000D
:1036F000AF1A2100F0FF270020A0B7001020200003
:1037000032A0B700400020004420B7009C1C0200FB
:10371000000000008A1F780003FA070045FA07003E
:103720003EFC070025FC070090FC070006FC070094
:1037300047FB0700D0FB07001420EF0027FD070020
:10374000FAFB07001420EF0024FD070017FE070016
:103750003A00200048FD0700E08A88000B0037008F
:1037600014F70700EAFD0700AAFD07001000370064
:1037700010F70700A7F807000D0037000DF7070046
:10378000E9FA0700CBFA070009003700E08A800059
:103790006100E100F2FF3200E08A80006200E10097
:1037A000F3FF3200E08A80006300E100F3FF3200A3
:1037B000E6FF3700FFFF37003400F8003200F80062
:1037C0003600F800801F7800200020000C0009005F
:1037D000B01F78008A1F78008B1F78008C1F78003C
:1037E0008D1F780011002000001521001088400076
:1037F0006B1921008A8A8000ADF807001DC0B30054
:103800007CC0B3004BC1B3006A19210004FE07005D
:103810001DC0B3004CC0B3001BC4B300BA142100D8
:10382000FFFD070004E8A900CF0678004F067800E6
:10383000CF0578004F057800A00120000C0009009A
:103840004F1078004F0078003600F9003200F90080
:103850003400F900004006003400F8003200F8009F
:103860003600F800801F7800200020000C000900BE
:10387000B01F78000388A900A00120000C000900F7
:103880004F1078004F0078003600F9003200F90040
:103890003400F900004006003400F8003200F8005F
:1038A0003600F800801F7800200020000C0009007E
:1038B000B01F78008A1F78008B1F78008C1F78005B
:1038C0008D1F780011002000001621001088400094
:1038D0006B1921000A8B800075F807001DC0B3002A
:1038E0005CC0B300ABC0B3006A192100CCFD070077
:1038F0001DC0B3005CC0B300CBC3B3002A162100C7
:10390000C7FD070004A8A900CF0678004F0678007D
:10391000CF0578004F057800A00120000C000900B9
:103920004F1078004F0078003600F9003200F9009F
:103930003400F9000040060001002100001E2800AC
:103940007D000900B0187800B0587800E10F210020
:10395000403E28001D000900B0187800B0587800DB
:10396000D10F2100303E2800B0587800B11321005B
:10397000E045280002000900B0587800E11321005A
:103980002042280012000900B0187800B0587800D2
:10399000611621004046280000000900B018780098
:1039A0005116210010422800B058780081162100DD
:1039B0001046280001000900B058780000000600F9
:1039C000FFFFFFFFFFFFFFFFFFFFFFFFFFFFFFFF07
:1039D000FFFFFFFFFFFFFFFFFFFFFFFFFFFFFFFFF7
:1039E000FFFFFFFFFFFFFFFFFFFFFFFFFFFFFFFFE7
:1039F000FFFFFFFFFFFFFFFFFFFFFFFFFFFFFFFFD7
:020000040001F9
:10000000000000000000000000000000005F000091
:1000100000000000000700000007000000140000BE
:100020007F1400007F140000242A00007F2A0000B3
:10003000122300001308000064620000364900002B
:1000400055220000500000000503000000000000E1
:10005000001C0000224100000000000041220000BE
:100060001C000000082A00001C2A000008080000EC
:10007000083E0000080800000050000030000000AA
:100080000008000008080000080800000030000018
:1000900030000000002000001008000004020000F2
:1000A0003E510000494500003E000000427F000034
:1000B000400000004261000051490000462100005C
:1000C000414500004B31000018140000127F000071
:1000D0001027000045450000453900003C4A00005B
:1000E00049490000300100007109000005030000CB
:1000F0003649000049490000360600004949000021
:10010000291E00000036000036000000000000003C
:100110005636000000000000000800001422000015
:1001200041140000141400001414000041220000C7
:100130001408000000020000015100000906000040
:1001400032490000794100003E7E0000111100009C
:10015000117E00007F49000049490000363E000042
:1001600041410000412200007F4100004122000087
:100170001C7F000049490000494100007F09000040
:1001800009010000013E0000414100005132000021
:100190007F080000080800007F000000417F000089
:1001A0004100000020400000413F0000017F0000AE
:1001B00008140000224100007F4000004040000081
:1001C000407F000002040000027F00007F04000066
:1001D000081000007F3E000041410000413E000049
:1001E0007F09000009090000063E0000415100009F
:1001F000215E00007F09000019290000464600002A
:100200004949000049310000010100007F01000060
:10021000013F000040400000403F00001F20000060
:10022000402000001F7F000020180000207F0000F9
:100230006314000008140000630300000478000049
:100240000403000061510000494500004300000024
:10025000007F00004141000002040000081000007F
:1002600020410000417F0000000000000402000067
:100270000102000004400000404000004040000037
:10028000000100000204000000200000545400009F
:10029000547800007F4800004444000038380000D3
:1002A000444400004420000038440000444800005A
:1002B0007F3800005454000054180000087E0000ED
:1002C000090100000208000014540000543C000022
:1002D0007F0800000404000078000000447D000056
:1002E0004000000020400000443D000000000000ED
:1002F0007F10000028440000004100007F40000003
:10030000007C000004180000047800007C08000055
:100310000404000078380000444400004438000021
:100320007C140000141400000808000014140000DD
:10033000187C00007C08000004040000084800004D
:100340005454000054200000043F000044400000CA
:10035000203C000040400000207C00001C200000E9
:10036000402000001C3C000040300000403C0000E9
:100370004428000010280000440C000050500000E9
:10038000503C000044640000544C00004400000055
:100390000836000041000000000000007F0000005F
:1003A00000000000413600000800000008080000BE
:1003B0002A1C0000080800001C2A00000808000091
:1003C0004672000065630000752E0000286800007A
:1003D0007A2900000031000029200000507200003E
:1003E0006F670000726100006D6100007220000004
:1003F000486F0000726100000032000029200000F8
:10040000504C00004159000000500000657200008F
:10041000696F0000646F00002875000073290000F8
:1004200000310000292000004361000070740000CA
:1004300075720000610000003329000020500000A8
:10044000574D00002020000000330000292000004C
:1004500050410000555300004500000034290000C1
:1004600020520000455300004554000020200000A9
:100470000035000029200000416C0000617200007E
:100480006D61000000700000617500007365000080
:100490000052000045530000455400000041000098
:1004A0004C410000524D000000430000726F0000FC
:1004B0006E6F00006D650000747200006F00000038
:1004C000455300004300000052500000313000004E
:1004D000312F000052470000382000003830000063
:1004E000250000005250000038350000202F000089
:1004F0005245000035200000313500002500000085
:1005000045520000520000004C610000626F000084
:1005100072610000746F0000726900006F200000BB
:10052000320000003129000020430000726F0000FB
:100530006E6F00006D650000747200006F000000B7
:100540005250000038370000202F000052450000B4
:100550003720000034350000250000002020000076
:10056000202000002020000020200000202000008B
:10057000202000002020000020200000202000007B
:10058000202000002020000020200000202000006B
:10059000202000002020000020200000202000005B
:1005A000202000002020000020200000202000004B
:1005B000202000002020000000D1000000CD00001D
:1005C000CBC90000CAD40000D3D20000D0CE0000B6
:1005D000CCEB00006000000000DE0000DD00000049
:1005E000DC71000031000000000000007A730000A0
:1005F0006177000032DB00000063000078640000D7
:100600006534000033DB0000002000007666000047
:100610007472000035000000006E00006268000087
:100620006779000036000000000000006D6A0000DD
:100630007537000038000000002C00006B690000D6
:100640006F30000039000000002E00002F6C000009
:100650003B7000002D00000000000000270000009B
:100660005B3D000000000000E1DD0000D55D000002
:10067000005C00000000000000000000000000001E
:1006800000000000D800000000E2000000E60000CA
:10069000E300000000000000D9DA0000E9350000A6
:1006A000E7E80000EAE50000D32B0000D72D0000AA
:1006B0002AD60000E40000000000000000CF000087
:1006C000D1000000CDCB0000C9CA0000D40000005A
:1006D000D2D00000CECC0000EB7E00000000000075
:1006E000DEDD000000DC0000512100000000000001
:1006F000005A00005341000057400000DB0000009A
:10070000435800004445000024230000DB000000A3
:100710002056000046540000522500000000000052
:100720004E42000048470000595E000000000000F3
:10073000004D00004A550000262A0000000000007D
:100740003C4B0000494F0000292800000000000039
:100750003E3F00004C3A0000505F000000000000E7
:1007600000220000007B00002B00000000E10000E0
:10077000DDD500007D0000007C00000000000000CE
:10078000000000000000000000D800000000000091
:10079000E2000000E6E300000000000000D90000D5
:1007A000DAE9000035E70000E8EA0000E5D30000E0
:1007B0002BD700002D2A0000D6E400000000000026
:1007C00000000000CF0000000000000063320000C5
:1007D0000050000075650000727400006F2000007A
:1007E00064650000204500006E7400007261000026
:1007F0006461000000520000503800003720000003
:100800002F5200004736000020360000302500003F
:1008100000300000303A0000303000003A30000074
:10082000303A00003030000000300000303A000064
:10083000303000003A300000303A00003030000024
:100840000000000000000000004900004E460000CB
:10085000004E0000614E0000003000000063000008
:10086000350000000000000000000000504C0000B7
:1008700041590000000000002A00000000000000B4
:1008800000000000200000000000000063330000B2
:1008900000310000003400003700000000000000BC
:1008A000302E000032350000363800000000000015
:1008B000002B0000332D00002A390000000000004A
:1008C000000000000000000000000000FFFFFFFF2C
:0200000401F009
:1C0008000300000087000000A70000007F0000003F000000D70000000300000013
:00000001FF
