:100000009625040000000000000000000000000031
:1000100000000000000000000000000000000000E0
:1000200000000000000000000000000000000000D0
:1000300000000000000000000000000000000000C0
:10004000000000006E2400004E24000000000000AC
:10005000000000000000000000000000F824000084
:100060000000000000000000000000000000000090
:100070000000000000000000000000000000000080
:100080000000000000000000000000000000000070
:1000900000000000B8240000000000000000000084
:1000A0000000000000000000000000000000000050
:1000B0000000000000000000000000000000000040
:1000C0000000000000000000000000000000000030
:1000D0000000000000000000000000000000000020
:1000E0000000000000000000000000000000000010
:1000F0000000000000000000000000000000000000
:1001000000000000000000000000000000000000EF
:100110000C260000000000000000000000000000AD
:1001200000000000000000000000000000000000CF
:1001300000000000000000000000000000000000BF
:1001400000000000000000000000000000000000AF
:10015000000000000000000000000000000000009F
:10016000000000000000000000000000000000008F
:10017000000000000000000000000000000000007F
:10018000000000000000000000000000000000006F
:10019000000000000000000000000000000000005F
:1001A00000000000000000005A2600003E2500006C
:1001B000000000000000000000000000000000003F
:1001C000000000000000000000000000000000002F
:1001D000000000000000000000000000000000001F
:1001E000000000000000000000000000000000000F
:100400000000FA000200070068030400000000007A
:10041000889FBE008A9FBE008C1F7800590007008D
:10042000600033006450E1004F0032006420E100BE
:100430005200320003826C0007003B000905D00027
:100440000306D000820F54000C065D000200390044
:100450000200320039008800C30088008582550000
:1004600004003D000003FD008103FD008502EA0059
:100470008B854200840F720002003B006000100078
:10048000E08018006011B8000005EB007A28E10058
:100490000A00390006008800C75DDD00F707B200DA
:1004A000878075002D003700828171002A00880046
:1004B000610560008180D1000080D3008502E900E1
:1004C000F9FF3B00060440008784480002003B001F
:1004D00060041400E0841C000988A30007003200B7
:1004E0008A81710082817100610164008904D100F8
:1004F0000884D3008B05E800170037000978A300B3
:1005000013003A001600E200130034008B05E900E6
:100510000804440089844C000A4474000978A3004C
:100520000D003A001600E200070034008B05E900D8
:100530000804440089844C0001003A000B002000AC
:100540000978A300F7FF32000001EB00020037003A
:10055000828171002A008800220007000CF0A700A9
:1005600003E0A800180037006420E10002003A0010
:10057000838F6C00180033000881BE000280BE002B
:10058000110037000084BE003C0007000083BE005D
:100590000485BE000280BE0038000700844F75004D
:1005A000000006000280BE006450E1000500360035
:1005B0006420E100020036000968A30001003A004F
:1005C0000880BE0002C0A8004F0678004F05BE009C
:1005D0004F04BE0000000600F0FF2F00F1FF2700CF
:1005E000F9FF370081002000618055000B003D00BD
:1005F0000B00200061FE2F000100E1001D0034000F
:1006000082817100610164008904D1000884D300F3
:100610000000E800FAFF3A00710020006100640069
:100620000300700002006000090032006104440011
:10063000E0844C000988A500050032008B05E80025
:100640006808E10002003A008904D1000884D30060
:10065000F20F20000258E10005003D00C75DDD00FB
:10066000F907B200898075000800880000000600C4
:100670000BF827001B00880000000500C70ADE00F9
:10068000F107B200F50FB20008003200E1CF4200DE
:100690000200320002E0A80024000500810F700073
:1006A000010032000408050044000500810F7000BD
:1006B00002003A00140005008502E9000000400035
:1006C00081C04800FCFF3B0002E0A80024000500B8
:1006D0000080FA00000006000400FA000A079800F3
:1006E0001B0798009E00900000F8270080806000A3
:1006F000C708DE00E007200000805000000E7800F0
:1007000001F02300620047009080680000F8270095
:1007100080806000620047009080680011079800A8
:100720000E0090009E0090000080FA00000006007D
:100730000000FA0007E0AA0031FF07000080FA007D
:10074000000006000000FA004268DD0000014600DB
:100750001020200034A0B7001200BE000001BE002F
:100760001A00E200150032008C9FBE008A9FBE0076
:100770000200BE000A01BE00F40607004F05BE00DD
:100780004F06BE0061815600820678004269DD0096
:100790000202460012202000A20188001401BE00BF
:1007A0008C9FBE008A9FBE0015FF07004F05BE004C
:1007B0004F06BE000001BE00E9FF37000200BE0088
:1007C0000080FA00000006000000FA0002000700A6
:1007D0001605040000000000889FBE008A9FBE002E
:1007E0008C1F78003E0007004500330003866C0034
:1007F0006450E1002E0032006420E100330032003A
:100800006150E1002F0032006120E1003100320030
:1008100085855500EB07B000090020000804200082
:10082000050037000804440089844C000A003100A8
:100830000603430087834B000001530081815B0066
:10084000F8FF33000283BE001000A8000804440033
:1008500089844C00F6FF3900C639DD00830173003E
:1008600001003200130020008904D1000884D30065
:100870000998A300050032000800A7000600A800A0
:100880008904D1000884D3008B05E8008904D100D5
:100890000884D3000001EB000281D2002800070089
:1008A00001F0A1000CF0A70003E0A8001D00370034
:1008B0006420E1001F0032000881BE000280BE00FB
:1008C000F7FF37006120E1001A0032006000B80035
:1008D000F3FF37000000200001F82700F0FF370089
:1008E0000084BE003C0007000083BE000485BE00FB
:1008F0000280BE0038000700844F7500000006002B
:100900000280BE006450E100050036006420E10072
:10091000020036000968A30001003A000880BE000A
:1009200002C0A8004F0678004F05BE004F04BE006D
:1009300000000600F0FF2F00F1FF2700F9FF37004D
:1009400081002000618055000B003D000B0020005D
:1009500061FE2F000100E1001D0034008281710062
:10096000610164008904D1000884D3000000E8001C
:10097000FAFF3A007100200061006400030070007B
:10098000020060000900320061044400E0844C0071
:100990000988A500050032008B05E8006808E10021
:1009A00002003A008904D1000884D300F20F20002D
:1009B0000258E10005003D00C75DDD00F907B20007
:1009C0008980750008008800000006000BF82700E9
:1009D0001B00880000000500C70ADE00F107B20016
:1009E000F50FB20008003200E1CF420002003200F1
:1009F00002E0A80024000500810F70000100320011
:100A00000408050044000500810F700002003A0050
:100A1000140005008502E9000000400081C0480084
:100A2000FCFF3B0002E0A800240005000080FA0063
:100A3000000006000400FA000A0798001B0798004F
:100A40009E00900000F82700008060004700DE0054
:100A500000004600000678006000E10003003D0051
:100A60000020EF000220EF001F003700F00F2000F1
:100A70000060E100100034000420EF000620EF00C9
:100A80000A00BE005E0407000000E0000060EF0006
:100A900001003D000060EC000040E2000300320075
:100AA000F0FF2F00F1F72F000F003700F0FF2F00AD
:100AB000F1F727000C00370070C0B3000000FB0006
:100AC0008060DD00620047009080680000F8270029
:100AD00080806000620047009080680011079800E5
:100AE0000E0090009E0090000080FA0000000600BA
:100AF0000000FA00700120008A0078000B017800E5
:100B00000000E900030035000201D1008180D3001C
:100B1000FBFF3700F00F200080806000F00720000E
:100B200000805000800078006000E10010003D006F
:100B30000420EF000620EF000A00BE00300407008A
:100B40000000E0000060EF0001003D000060EC00EC
:100B50000040E200030032000000200001F82B00FA
:100B60001E0037000020EF000220EF001B003700BE
:100B70007808E100020036000A00BE0017003700C6
:100B80008A9FBE000A00BE00BE0C07000081EB0079
:100B9000610C07004F05BE000002BE00849FBE002E
:100BA0000A01BE00E40507000000E0000060EF005D
:100BB000010034000060EC004F02BE000040E20083
:100BC000050032000200200003F823000400BE00EC
:100BD000D7FE0700010037000400BE000080FA00C5
:100BE000000006000200FA008C1F78008D1F7800BC
:100BF0008A9FBE000420EF000620EF000A00BE001E
:100C0000FF0307000000E0000060EF0001003C006F
:100C10000060EC004F05BE000040E200030032001F
:100C20000020EF000220EF002100370060004700A5
:100C300000067800A8FE07008A9FBE000200200080
:100C400003002400C10507000200200003F8230070
:100C5000B7FE07004F05BE000005BE0013002000D0
:100C600060014700128911008A9FBE008D0020009C
:100C70004C6328000005BE00B2FE07004F05BE0011
:100C80000005BE008A9FBE000E009000CF80DE00EF
:100C90000081EB00200C07008221270013F32300C2
:100CA000AA0507004F05BE000A01BE00D4FD0700DB
:100CB000CF0678004F0678000080FA00000006009A
:100CC0000400FA008C1F78008D1F78008A9FBE00F8
:100CD0000A00BE000420EF000620EF00C803070052
:100CE0000000E0000060EF0001003A000060EC004E
:100CF0004F05BE000040E20003003200000020006B
:100D000001F82300680037008A9FBE00E24F2D00E3
:100D1000232B24000A00BE00870507000000E00026
:100D20000060EF00010034000060EC004F05BE00E1
:100D30000040E20003003200F0FF2F00F1F727002F
:100D4000590037008A9FBE0002C52A00E32A2C0002
:100D50000A00BE00AA0307000000E0000060EF00E8
:100D600001003D000060EC004F05BE000040E200C5
:100D7000030032000020EF000220EF004A0037009D
:100D80008A9FBE000420EF000620EF000A00BE008C
:100D90009B0307000000E0000060EF0001003D0041
:100DA0000060EC004F05BE00204798000040E200C4
:100DB00005003200000020000100280000006D0046
:100DC00081806D000005BE008A9FBE000A00BE0043
:100DD000B2A32A0083FB23005C0507004F05BE0079
:100DE0000005BE008A9FBE000005BE0040FF070050
:100DF000240C070000079800CF80DE000081EB0084
:100E0000C50B07004F05BE008A9FBE000001BE0053
:100E10000A00BE0046FE07004F05BE000005BE00EA
:100E20008A9FBE009D002000CC6028000005BE0007
:100E300044FE07000E0690000005BE00FDFE070000
:100E40004F05BE000005BE00620047001004E00030
:100E5000140032008A9FBE000A00BE00F2FF2F007D
:100E6000F3F72700660307000000E0000060EF00D2
:100E700001003A000060EC004F05BE000040E200B7
:100E8000030032000020EF000220EF0006003700D0
:100E90000A01BE000000200001F823004AFE0700FE
:100EA000010037000A00BE00CF0678004F06780028
:100EB0000080FA00000006000000FA006064E10013
:100EC00004003900F0C3B3000064E10001003E00FB
:100ED000010037001F0037006054E10001003100BD
:100EE0001420EF00F0C7B3000054E1000100360009
:100EF000FAC7B300605CE100010031001620EF008A
:100F0000F0C7B300005CE10001003600FBC7B3008E
:100F10000B54E100030036000A80FB000B4578000B
:100F2000804578000B54E1000A003E008C1F7800D9
:100F30008A9FBE008C4578000D467800910207001C
:100F40004F05BE004F06780061404500004578001F
:100F5000F4FF37000080FA00000006000600FA00E7
:100F600000002000200798008C9FBE008A9FBE00D2
:100F70000C00BE000420EF000620EF002003070055
:100F80000000E0000060EF0001003A000060EC00AB
:100F90004F05BE004F06BE000040E20003003200D5
:100FA0000000200001F82300590037008C9FBE008C
:100FB0008A9FBE000A00BE000420EF000620EF005A
:100FC0000F0307000000E0000060EF0001003A009E
:100FD0000060EC004F05BE004F06BE000040E2007E
:100FE000030032000020EF000220EF00480037002D
:100FF0008C9FBE008A9FBE000420EF000620EF00F9
:101000000A00BE00FE0207000000E0000060EF00E2
:1010100001003D000060EC004F05BE004F06BE0021
:101020000040E200210032008C9FBE008A9FBE007B
:101030000C00BE00930B07000007980011079800F2
:101040000081EB00340B07004F05BE004F06BE00C9
:101050008C9FBE008A9FBE000C01BE00E802070004
:101060000000E0000060EF00010032000060EC00D2
:101070004F05BE004F06BE000040E20003003200F4
:101080000020EF000220EF00210037008E009000CA
:101090006400470061886000000020000100280013
:1010A00000006D0081806D000005BE008C9FBE00B9
:1010B0008A9FBE00CBFE07004F05BE004F06BE0054
:1010C0000005BE008A9FBE000C01BE009F04070001
:1010D0004F05BE000005BE008A9FBE000005BE0091
:1010E000F7FE07004F05BE000005BE006400470084
:1010F0001000E00005003200000020000100280080
:1011000000006D0081806D00010037000A00BE0004
:101110000080FA00000006000C00FA008C1F780026
:101120008A9FBE000420EF000620EF000A00BE00E8
:10113000B30207000000E0000060EF0001003C0087
:101140000060EC004F05BE000040E20003003200EA
:101150000020EF000220EF005E0037000A07980031
:101160001B0798008A9FBE000200200003F823009E
:101170000A00BE00A20207000000E0000060EF00CD
:1011800001003D000060EC004F05BE000040E200A1
:10119000090032008A9FBE000E0190009E0190005F
:1011A0000000200001F8230087FD07004F05BE0066
:1011B00000079800110798006A0047008A9FBE0048
:1011C000000678000E0590009E05900042FD070085
:1011D0005E0190004191DE00020678000005BE002D
:1011E00014FE07004F05BE00000798001107980085
:1011F0008A9FBE000200200003F823000A00BE0000
:101200007F0207000000E0000060EF0001003D00E9
:101210000060EC004F05BE000040E2000900320013
:101220008A9FBE000E0190009E01900000002000E9
:1012300001F8230064FD07004F05BE000007980079
:101240001107980040012000400798008A9FBE00C7
:101250000E0190009E0190000A00BE005AFD07009A
:101260000E0190009E01900065FC07000200200026
:101270000300240054FD0700200798003107980060
:101280000E0190009E0190005D0207000000E0004A
:101290000060EF0001003A000060EC004F05BE0066
:1012A0000040E20001003200080037002E009000EC
:1012B000BE00900000079800110798004E009000B3
:1012C0000020ED0040079800E0FF3A000E0090007B
:1012D0009E0090004F0678000080FA000000060093
:1012E0000400FA000220EF00F00F20001007980021
:1012F000620047001000E00011003200600047006B
:101300000008EB0052AEAF001008E8000200E20057
:1013100005003200600047001000E00002003A00C3
:1013200010002000070037000E0190009E00900082
:10133000620047006188500082007800ECFF3700AF
:101340000020EF000080FA00000006000000FA0014
:1013500002000700140A040000000000841F780047
:10136000140007004F00780011003300F0FF2F0039
:10137000838F6C0006003B00040565000A00A7008F
:101380000800370009F0A600100020000800370010
:10139000820F5400838F5C0003003900100020008E
:1013A00001003E000000200009F0A7000000EA0054
:1013B000000006000084BE00060007000083BE0097
:1013C0000485BE000280BE0002000700844F750045
:1013D00000000600C70ADE00F107B200F50FB200F8
:1013E00008003200E1CF42000200320002E0A80013
:1013F00024000500810F7000010032000408050080
:1014000044000500810F700002003A00140005003E
:101410008502E9000000400081C04800FCFF3B005D
:1014200002E0A800240005000080FA000000060089
:101430000000FA0050AEA8000080FA00000006008C
:101440000200FA00100020000007980001082000A8
:10145000600047001008E1000A00360052AEAE00FE
:101460000400370001082000600047001088700069
:101470000300370011002000600047001088400082
:10148000F2FF3700600047001070A1000E009000CE
:101490000080FA00000006000000FA0050AEA9002B
:1014A00052AEA9000080FA00000006000400FA0015
:1014B0000420EF00620047000A8855000C03780002
:1014C000C160DD0060004700638810000202780000
:1014D00086027800618042000020E10065003D0046
:1014E0008D41780005815500840045000580450048
:1014F000849FBE008C9FBE008A9FBE00820678003B
:101500000106780080057800010578000380FB0063
:10151000801F7800A40007002F00B1004F05BE0017
:101520004F06BE004F02BE006020E10012003400F2
:101530008D417800058155008400550005804500E7
:10154000849FBE008C9FBE008A9FBE0082067800EA
:101550000106780080057800010578000380FB0013
:10156000801F7800900007002F00B1004F05BE00DB
:101570004F06BE004F02BE008D4178000481550029
:10158000858045006200470090805000048045003F
:10159000849FBE008C9FBE008A9FBE00820678009A
:1015A0000106780080057800010578000380FB00C3
:1015B000801F78007C0007002F00B1004F05BE009F
:1015C0004F06BE004F02BE006028E1001400340048
:1015D0008D417800048155008580550062004700E8
:1015E0009080500004804500849FBE008C9FBE0008
:1015F0008A9FBE0082067800010678008005780088
:10160000010578000380FB00801F7800660007005A
:101610002F00B1004F05BE004F06BE004F02BE00B6
:101620000E0090006000E10007003D004220DD0058
:1016300066014000E00047006000470011084100DB
:101640000503780007003700050052004200DD0066
:101650006A014000E00047006000470011084100B7
:101660006183520061004200000278008602780027
:1016700098FF37000080FA00000006000400FA001E
:101680008A1F78008B1F78008C1F78008D1F7800D0
:10169000000420000050E10004003C00511621002D
:1016A00000C2B300804878000300370051162100C3
:1016B00000C6B3008048780041162100E0C1B300A5
:1016C000804878008A1F7800E00120000100200097
:1016D000910907000C0020000D0024000005BE0049
:1016E0001EFE07004F057800508B8800618B880034
:1016F000501621001080FB0000005500CF80DE0056
:101700000081EB00840907000C0020000D0024007C
:101710000005BE0011FE07000007980011079800A1
:10172000308B8800418B8800508B8000618B80005B
:10173000829FBE000E0190009E019000FCFB0700FE
:101740004F01BE00508B8800618B88000005BE00F1
:1017500071FE0700000798001107980000002000A4
:1017600081242400829FBE000E0190009E01900003
:10177000EFFB07004F01BE000005BE00DCFC0700C8
:10178000508B8800618B8800BE0907000005780037
:10179000CF0678004F067800CF0578004F05780017
:1017A0000080FA00000006000000FA008EF99700A1
:1017B0006050E10001003D001420EF00F007200020
:1017C0000050E10001003400FA0720006060E100F1
:1017D00001003D001820EF00F00720000060E1004C
:1017E00001003400FC0720006058E10001003D00CA
:1017F0001620EF00F00320000058E1000100340043
:10180000FB0320006068E10001003D001A20EF00AA
:10181000F00320000068E10001003400FD03200017
:101820000A005600000178008B8056006000E1003D
:1018300003003D0060011100F4FF2F00010037009C
:10184000140020006008E10003003D00E082100069
:10185000F6FF2F00020037001600200081027800FA
:101860004110DD00800078004128DD008002780012
:10187000811F78008C1F78008A1F7800034678004B
:10188000400007004F0578004F067800CF00780031
:101890000508E1001A0034004188DE000081520092
:1018A0000C50E100150032006010E100040035002A
:1018B00006804500800578000101510000003700D6
:1018C000040045000005780005014100821F7800F2
:1018D000811F78008C1F78008A1F780003467800EB
:1018E00000457800270007004F0578004F06780074
:1018F000CF0078004F017800E9FF37001F00370064
:1019000041A8DE0000815000851F78008602780023
:10191000040378000102780083407800CF0178004A
:101920000D58E100150032006010E10004003500A0
:101930000600450000057800030151000000370053
:10194000058045008005780004014100821F780071
:10195000811F78008C1F78008A9FBE0001467800A6
:1019600080457800070007004F05BE004F0678004D
:10197000CF0078004F017800E9FF37000080FA00BF
:10198000000006000000FA008A1F78006054E100A1
:1019900009003900F0C7B3000054E10006003E0022
:1019A000605CE10004003900F0C3B300005CE100BA
:1019B00001003E00010037002F0037008A1F780029
:1019C0008A0307000B80FB004300DE00004578001F
:1019D0008E0507004F0578008A1F780091030700E5
:1019E0004F05780039000700410307003700070062
:1019F0003F03070000417800340007000B80FB0024
:101A00004300DE008A1F7800004578007F0507004C
:101A10004F057800830307000B80FB006700600020
:101A20008080FB00100020000100DD008040780075
:101A300000E0EE00070037008040610001407800C0
:101A40000B003700014071000900370001406900B8
:101A5000070037006064E100F7FF32006164E100D5
:101A6000F8FF32006264E100F8FF320002407800C3
:101A7000004578001D0507004F0578000080FA003A
:101A8000000006000000FA008EF997000B82FB00B0
:101A90000D80FB000020E1000A003E008C9FBE008C
:101AA0008A9FBE00834678008C4578000446780003
:101AB00001FD07004F05BE004F06BE000820EC00E8
:101AC000F3FF37000080FA0000000600A7002000A6
:101AD0000E20ED00FEFF3A000000000000000000B4
:101AE00000000600000000000000000000000000F0
:101AF0000000000000000000000006000000FA00E6
:101B00000A00780000017800E10140008B007800B5
:101B10006180450080057800114978001204E000DA
:101B20000200320003007800F6FF37000A00780058
:101B30000080FA00000006000000FA0014E0AE0089
:101B4000422EA90014E0AF00422EA80000000000C1
:101B500014C0AE00420EA90014C0AF00420EA8008F
:101B60000000000014A0AE00522EA90014A0AF0087
:101B7000522EA800000000001480AE00520EA900F2
:101B80001480AF00520EA800000000001460AE00E8
:101B900032EEA9001460AF0032EEA8000000000091
:101BA0001440AE0032CEA9001440AF0032CEA800DF
:101BB000000000001420AE0032AEA9001420AF00D7
:101BC00032AEA800000000001400AE00328EA90062
:101BD0001400AF00328EA800000000000080FA0060
:101BE000000006000000FA00B8FF0700346EA800ED
:101BF000B6FF0700346EA9000080FA00000006005E
:101C00000000FA0014002000D0FD07000080FA0058
:101C1000000006000E00FA008EFA97006EF09700A2
:101C200060F79F008A80FB000C80FB000080500062
:101C3000000178006000E10007003D00E0001100B5
:101C40000580FB004100DD000008E10001003D00CF
:101C5000D7003700050037000580FB004100DD009C
:101C60000010E10001003D00D10037008B80FB0037
:101C70000D80FB0000805000000178006000E10052
:101C800007003D00E00011000580FB004100DD0081
:101C90000008E10001003D00C500370005003700E5
:101CA0000580FB004100DD000010E10001003D0067
:101CB000BF0037008D80FB000580FB0000815000D5
:101CC0008B80FB000580FB00008040008D1F7800AA
:101CD0008A9FBE0082467800804578006A005700DF
:101CE0001080FB00801F780066FF07002F00B10006
:101CF0004F05BE00CF0678000020EF0020079800B7
:101D00008B80FB000580FB00008240008C80FB0084
:101D10000580FB00808150006600470003085200E8
:101D20008A80FB000580FB000081400068004700BE
:101D3000020852008D80FB000580FB00808050006F
:101D40006A004700028850006C004700038850007A
:101D50000580FB00100798001E009000C100DD0008
:101D600060004700638810001E009000E100400002
:101D7000640047001008E1008D0034008D80FB00F6
:101D80000580FB0080805000620047009081400089
:101D90008C80FB000580FB008080500064004700C1
:101DA000108140008A80FB000580FB00808040009D
:101DB0006400470010805000851F78008C9FBE0093
:101DC0008A9FBE00830678000206780083057800AB
:101DD000000578006A0057001080FB00801F780023
:101DE00071FE07002F00B1004F05BE004F06BE0078
:101DF000CF0278008B80FB000580FB0080804000D4
:101E000062004700908150008C80FB000580FB0041
:101E10008080500064004700108140008A80FB00F1
:101E20000580FB0080804000640047001080500067
:101E3000851F78008C9FBE008A9FBE0083067800B5
:101E40000206780083057800000578006A005700D4
:101E50001080FB00801F780053FE07002F00B100A8
:101E60004F05BE004F06BE00CF0278008D80FB00FC
:101E70000580FB0000825000640047009001420092
:101E800062004700900052006A0047001081500035
:101E900062004700900042006C0047001080500034
:101EA000851F78008C9FBE008A9FBE008306780045
:101EB0000206780083057800000578006A00570064
:101EC0001080FB00801F780037FE07002F00B10054
:101ED0004F05BE004F06BE00CF0278008B80FB008E
:101EE0000580FB0000824000640047009001520022
:101EF00062004700900042006600470010815000D9
:101F000062004700900052006800470010805000B7
:101F1000851F78008C9FBE008A9FBE0083067800D4
:101F20000206780083057800000578006A005700F3
:101F30001080FB00801F78001BFE07002F00B100FF
:101F40004F05BE004F06BE00CF0278000E00900085
:101F50006000E10007003D002E0090004200DD001F
:101F600066014000E00047006000470011084100A2
:101F70000B003700AE009000620047001080500058
:101F80004200DD006A014000E000470060004700B9
:101F9000110841009E0090006200470061885000D7
:101FA000AE00900064004700618840006EFF37007B
:101FB0000080FA00000006000000FA000820EF0090
:101FC0008A8155008C0278004160DD0063031000B7
:101FD000618042000020E10054003D008580450002
:101FE000040045008C1F78008A9FBE000D467800D3
:101FF000814578000045780062FE07004F05BE006D
:1020000085805500040045008A9FBE000D4678007B
:1020100081457800004578005AFE07004F05BE0054
:1020200085804500040055008A9FBE000D4678005B
:10203000814578000045780052FE07004F05BE003C
:1020400085805500040055008A9FBE000D4678002B
:1020500081457800004578004AFE07004F05BE0024
:102060008480450005804500030050008A9FBE0023
:102070000D467800814578000045780041FE070054
:102080004F05BE00848055000580450003005000C8
:102090008A9FBE000D467800814578000045780093
:1020A00038FE07004F05BE008480450005805500BE
:1020B000030050008A9FBE000D46780081457800DD
:1020C000004578002FFE07004F05BE0084805500B4
:1020D00005805500030050008A9FBE000D46780021
:1020E000814578000045780026FE07004F05BE00B8
:1020F0004F0678006030E10004003D004220DD0022
:10210000660040000003430006003700050052004F
:102110004200DD006A004000000043000A20ED009C
:10212000000378000820EC00A9FF37000080FA00C7
:10213000000006000200FA008A1F78008B1F78005A
:102140008C1F78008D1F7800700020000007980019
:102150008A1F78000A85FB0048FD07004F057800BC
:1021600000A0ED008A1F78001DC0B3002C002000E5
:10217000800578000A85FB00CCFC07004F0578003D
:102180000E0090000020ED008A1F78001DC0B300F3
:10219000004678008A4578000A0021009909070066
:1021A0004F0578000A80FB006F0040000045780072
:1021B0008A1F78000085FB0030FD07004F0578007E
:1021C0008A1F78001DC0B3002C0020008005780015
:1021D0000A85FB00B5FC07004F0578000A80FB006C
:1021E000670050008A1F78001DC0B3000E469000A3
:1021F000804578002A002100820907004F057800F9
:102200000A80FB006F004000004578008A1F7800BC
:102210000085FB0019FD07004F0578008A1F780034
:102220001DC0B3002C002000800578000A85FB004B
:102230009EFC07004F0578000E009000E100500062
:102240000A80FB00650050008A1F78001DC0B300A3
:1022500001467800804578006A042100690907007A
:102260004F0578000A80FB006F00400000457800B1
:102270008A1F78000085FB0000FD07004F057800ED
:102280008A1F78001DC0B3002C0020008005780054
:102290000A85FB0085FC07004F0578000A80FB00DB
:1022A00000A0ED008A1F78001DC0B3000E4690000C
:1022B00080457800BA122100520907004F057800C6
:1022C0000A80FB006F004000004578008A1F7800FC
:1022D0000085FB00E9FC07004F05780000A0ED0039
:1022E0008A1F78001DC0B3002C00200080057800F4
:1022F0000A85FB006DFC07004F0578000E0090007A
:10230000E10050000A80FB006A0050001DC0B300CD
:102310000146780080457800AA0C210039090700A1
:10232000CF0678004F067800CF0578004F0578007B
:102330000080FA00000006000000FA00F4FF2F0001
:1023400002FC07000080FA00000006000000FA000E
:1023500002000700BC12040000000000889FBE00BD
:102360008A9FBE008C1F78003000070037003300C2
:1023700003866C006450E100240032006420E10018
:10238000270032006150E100220032006120E100AC
:10239000210032008B854200EB07B1000134B80008
:1023A000003AB8000804420089844A00013AB800A3
:1023B0000030B8008880400009014A000400330062
:1023C0000000400081804800020149008B05E900BF
:1023D000C909DD00830170000100320013002000F4
:1023E000C814DE004814DD004709DE001200B20008
:1023F000C808DE00088470002400070001F0A10076
:102400000CF0A70003E0A800190037006120E100EC
:102410001B0032000881BE000280BE00F7FF3700BB
:102420006150E100FCFF3A00150037000084BE0057
:102430003C0007000083BE000485BE000280BE0091
:1024400038000700844F7500000006000280BE00BF
:102450006450E100050036006420E100020036000F
:102460000968A30001003A000880BE0002C0A8006D
:102470004F0678004F05BE004F04BE000000060066
:10248000F0FF2F00F1FF2700F9FF37008100200047
:10249000618055000B003D000B00200061FE2F0005
:1024A0000100E1001D0034008281710061016400BF
:1024B0008904D1000884D3000000E800FAFF3A0044
:1024C00071002000610064000300700002006000E1
:1024D0000900320061044400E0844C000988A50032
:1024E000050032008B05E8006808E10002003A00B0
:1024F0008904D1000884D300F20F20000258E100C3
:1025000005003D00C75DDD00F907B2008980750058
:1025100008008800000006000BF827001B00880058
:1025200000000500C70ADE00F107B200F50FB20097
:1025300008003200E1CF42000200320002E0A800B1
:1025400024000500810F700001003200040805001E
:1025500044000500810F700002003A0014000500DD
:102560008502E9000000400081C04800FCFF3B00FC
:1025700002E0A800240005000080FA000000060028
:102580000000FA000C20EF00150020000820EF00EA
:102590000620EF00C117210010C0B300804878006A
:1025A000C01721001004E000160032004CFB0700A9
:1025B0000000E20012003200528EAE00060037002A
:1025C000C01721001080FB000000730061816A00C9
:1025D000800278000200370005017800860278004A
:1025E000C01721001080FB00C100DD00C0172100D2
:1025F0000148780005037800820278000000370067
:10260000E7FF370036FB07000000E200050032005C
:102610000020EF00528EAF000020EC000002780096
:10262000000037002EFB07000000E200040032002B
:102630000020EF00528EAF000020EC0001003700B8
:102640000300780094FB07000428E10004003A002E
:102650006000E1000200320006007800010037004F
:102660000020EF00000D78000080FA000000060056
:102670000400FA000020EF00100798006CFB070030
:102680006FFB07000000E20002003A001E0090000D
:10269000150037000020EF00000798000108200017
:1026A000600047001008E1000A003600528EAF00BB
:1026B0000400370052AEAF000200370010002000C7
:1026C000090037008E0090006000470061884000DC
:1026D000F2FF3700620047001000E00001003A00FE
:1026E0006DFB07001E0090000080FA00000006004D
:1026F0000200FA00402EA800400EA800502EA800AC
:10270000500EA80030EEA80030CEA80030AEA800D1
:10271000308EA800F3FC0700F2FC0700342EA8005E
:10272000346EA900344EA800346EA800E7FC070000
:10273000600047001070A000422EAE001070A10093
:10274000600047001060A000420EAE001060A100C3
:10275000600047001050A000522EAE001050A100A3
:10276000600047001040A000520EAE001040A100D3
:10277000600047001030A00032EEAE001030A10023
:10278000600047001020A00032CEAE001020A10053
:10279000600047001010A00032AEAE001010A10083
:1027A000600047001000A000328EAE001000A100B3
:1027B000346EA900344EA900CAFC0700C9FC07000A
:1027C000402EA900400EA900502EA900500EA900CD
:1027D00030EEA90030CEA90030AEA900308EA9009D
:1027E0000E4090000080FA00000006000000FA0091
:1027F0008A80FB00F0072000008060000045780020
:1028000000C0AE0003003700446EA800444EA9008B
:1028100002003700446EA900444EA8000080FA0070
:10282000000006000000FA008A1F78008A80FB0082
:10283000F00720000080600000457800342EA900D9
:10284000344EA9008080FB00F00B20000080600067
:10285000004578008080FB000004200000807000AC
:102860000045780000457800B3FC0700DDFC070058
:102870004F0578000080FA00000006000000FA0012
:102880000A01780062004500104078000000AF00A7
:1028900002003700610041001074A100E200410015
:1028A000114078000080FB004100DE008048780085
:1028B0001299450012114E00E200410011407800CB
:1028C0000080FB004100DD0080487800610041008D
:1028D0001040780000E0AE000200370062004100C6
:1028E0001004A000610041001074A0000080FA00F4
:1028F000000006000200FA000420EF006514E10069
:10290000060031000280FB008080450000C2B30059
:10291000804878000460EC00F8FF37000280FB007C
:10292000808045000020EF0080487800E1415100A0
:102930000380FB000080450000079800A2002000F3
:10294000110009000285D8000003200080804000AB
:102950000E00900001487800A2002000110009003C
:102960000285D800000578006000E10001003A000F
:10297000020037000660ED00EDFF37000080FA002E
:10298000000006000000FA000220EF006050E100A5
:1029900002003A00010078004B00370020172100A8
:1029A0001010A60013003700800620000050E10040
:1029B00010003600E00720000050E1000D0031005B
:1029C000700720000050E1000A003200900620004D
:1029D0008000550080652800810040001020200004
:1029E00034A0B700114078008080FB00010078001F
:1029F00035003700610055000005780020172100E0
:102A00001050A60018003700504028008A004000EF
:102A10001020200034A0B700114078008080FB0017
:102A2000201721001020A600090037000004200014
:102A30000008E10008003600B00520000008E100B1
:102A40000800310000022000008040000100370033
:102A50000100780001003700010078008000780054
:102A60000000370017003700804828008A00400027
:102A70001020200034A0B700114078008080FB00B7
:102A8000201721001020A6000900370000062000B2
:102A90000008E10008003600B00720000008E1004F
:102AA00008003100000220000080500001003700C3
:102AB00001007800010037000100780080007800F4
:102AC00000003700010078000080FA0000000600D6
:102AD0008A1F78008B1F78008C1F78008D1F78006C
:102AE0001DC0B300EC0120002B0320000A022000CF
:102AF00031FD07001DC0B300EC0120002B032000B6
:102B00000A0620002CFD0700FDC3B300FCC7B3007C
:102B10003BC3B3001420EF000020EF00801F7800BB
:102B20000020EF00801F78003AFC07004F00B10042
:102B30002AC0B3007FFD07002AC4B3007DFD070053
:102B4000CF0678004F067800CF0578004F05780053
:102B5000000006008A1F78008B1F78008C1F780009
:102B60008D1F78008A1F78001DC0B3001820EF0069
:102B7000CBC3B3003A052100220707004F057800B8
:102B80006150E10010003A001A20EF001CC0B300B1
:102B90001620EF00DA0721001A0707001DC0B30056
:102BA0002CC0B3001620EF008A082100150707008B
:102BB0001DC0B3003CC0B3001620EF00CA062100C0
:102BC00010070700330037006250E10010003A00A0
:102BD0001DC0B3001CC0B3001620EF007A0A21000C
:102BE000080707001A20EF002CC0B3001620EF00E2
:102BF000FA082100030707001DC0B3003CC0B30062
:102C00001620EF006A092100FE06070021003700A8
:102C10006350E10010003A001DC0B3001CC0B300B7
:102C20001620EF001A062100F60607001DC0B300AB
:102C30002CC0B3001620EF002A0B2100F10607007C
:102C40001A20EF003CC0B3001620EF009A0B2100C1
:102C5000EC0607000F0037001DC0B3001CC0B30016
:102C60001620EF009A012100E60607001DC0B30000
:102C70002CC0B3001620EF004A032100E106070034
:102C80001DC0B3003CC0B3001620EF00AA11210004
:102C9000DC060700CF0678004F067800CF057800E5
:102CA0004F05780000000600210D21000020EF00F4
:102CB00080487800310D21000020EF008048780026
:102CC000411321000020EF0080487800000006003A
:102CD0000000FA004EB89700CA8B8800DB8B880092
:102CE000A08B8800701721000C4878006017210025
:102CF0000D487800D117210010C0B300804878003B
:102D00000080FA00000006008B1F78008C1F7800FE
:102D10008D1F780000C4B3000054E10004003E00A1
:102D20005116210000C2B30080487800030037002C
:102D30005116210000C6B300804878008A1F780031
:102D40000A85FB004DFA07004F0578008A1F7800BE
:102D5000800678000A86FB002B0320005016210015
:102D60001085FB0010002000801F78008EFA0700FD
:102D70002F00B1004F05780000C4B3000054E100FB
:102D800015003E00000D21001000E000020032009E
:102D900020002000808688008A1F78008A868000B4
:102DA00036FA0700800678008C8680002B0320000E
:102DB000501621001085FB000020EF00801F7800D6
:102DC00079FA07002F00B1004F0578000A80FB0058
:102DD0008086880014003700E00C21001000E0001D
:102DE0000200320020042000708688008A1F7800CC
:102DF0007A86800021FA0700800678007C868000B1
:102E00002B032000501621001085FB000020EF004E
:102E1000801F780064FA07002F00B1004F0578008A
:102E20000A80FB0070868800CF0678004F06780085
:102E3000CF057800000006000000FA008A1F780025
:102E4000D11721000020EF00804878000020EF001B
:102E5000F08B880021CEA900306EA900302EA90089
:102E6000304EA900406EA900404EA90025CEA90011
:102E7000402EA900400EA900502EA900500EA90016
:102E800030EEA90030CEA90030AEA900308EA900E6
:102E9000342EA900344EA900446EA900444EA80067
:102EA00025CEA8000FFB0700FAC3B30022FB0700E2
:102EB0004CFB07000ACCB3001FFB070049FB0700CF
:102EC000446EA800444EA900FAC3B3001AFB0700E1
:102ED00044FB07000ACCB30017FB070041FB0700C7
:102EE0004F0578000080FA00000006000000FA009C
:102EF000346EA900342EA800344EA9000EFB070042
:102F000038FB07000080FA00000006000400FA0009
:102F10008C1F78000A0798001B0798000620EF0016
:102F20006718E10036003E008A9FBE001420EF00C3
:102F30002EFE070003457800340007001420EF0040
:102F400038FE07004F05BE000820EF00F003200008
:102F50000020E1000E003E000E0090009E00900058
:102F6000A10188008A9FBE0010457800DFFF07009E
:102F7000600047001B0020000C00200000057800C6
:102F80003EFE07004F05BE000820EC00EFFF3700B3
:102F90008A9FBE000AC4B30014FE070003457800F0
:102FA0001A0007000AC4B3001EFE07004F05BE004A
:102FB00004042000F00720000020E1000E003E0085
:102FC0000E0090009E009000A10188008A9FBE0024
:102FD00010457800C5FF0700600047001B00200077
:102FE0000C0020000005780024FE07004F05BE00FD
:102FF0000820EC00EFFF37000620EC00C8FF370088
:103000004F0678000080FA00000006000000FA0079
:103010008A1F7800342EA900344EA9008A80FB0054
:10302000800B20000080700000457800C2FA070085
:10303000ECFA07004F0578000080FA000000060057
:103040002143A90001198000F0CF2F00008060000B
:1030500020A3B7002083A90000C4B30080407800FB
:103060000032200090C0680000CEB30080C0600035
:103070000032200090C06800003220000148780033
:103080002063A8002043A8002023A9001119800074
:10309000F0FF21000080600022A3B7002343A900B5
:1030A000001020008000780020322000908068000E
:1030B0000030200080806000203220009080680076
:1030C00011198800203220009040780030C8B300E9
:1030D00080C0600020322000014878002223A9002F
:1030E0002203A90025E3A9000060200080007800E9
:1030F000403220009080680000F021008080600055
:103100004032200090806800211988004032200061
:103110009040780000C0B30080C0600040322000C2
:10312000014878003303A900603220009040780005
:1031300090CFB30080C0600060322000014878006A
:103140002603A90028E3A90050C0B30080407800FE
:103150008032200090C06800FFC0600080322000F4
:1031600090C06800803220000148780001A8A900C2
:1031700021A8A80000C6B300804078006084200029
:1031800090C0680000C7B30080C060006084200069
:1031900090C06800608420000148780021E3A80006
:1031A000077122000E20ED00FEFF3A000000000033
:1031B00000000000000006002C08A8000C08A90070
:1031C00060C0B300804078000087200090C0680095
:1031D000E7C060000087200090C0680000872000E2
:1031E0000148780001ECA80061ECA900618CA800FE
:1031F000612CA800604CA800600CA80063ECA8003B
:1032000063CCA80063ACA900638CA9004006200031
:103210006AACB700400620006CACB70000FA200092
:1032200068ACB70080BB200066ACB70020C62000A9
:1032300090407800F0CCB30080C0600020C6200031
:10324000014878005001200064ACB70000C1B30011
:103250008040780040C6200090C0680080CFB30056
:1032600080C0600040C6200090C0680040C62000BA
:1032700001487800000006000600FA008A1F780066
:103280008B1F78000820EF000000200040479800C6
:103290000A0798001B0798000E0190009E019000FD
:1032A000F0FF2F00F1FF2F000010E1000198E10076
:1032B00005003A004B0D21000C0578000FFA0700BD
:1032C00030C0B3000A01370015C0B30060004700EA
:1032D000630040001040780000E0AE000C003700B2
:1032E00060004700630140009280FB00000820005E
:1032F00000806800004978000A60EC00D0C2B3008A
:10330000004E78006100460000067800000037009B
:103310000E0090009E0090006000E1006088E100D7
:1033200005003A008B0D21000C057800F3F9070029
:103330000020EF00EE0037000E0190009E0190008B
:103340000000200001F827000010E1000198E100D2
:1033500005003A004B0F21000C057800E7F9070043
:1033600005407800E200370004417800821F7800B1
:103370008C1F78008A9FBE000200200003F8230003
:103380000E0090009E0090001DFA07000000E00073
:103390000060EF0001003D000060EC004F05BE0042
:1033A0004F0678004F0178000040E2001100320023
:1033B000821F78008C1F78008A9FBE000E0090004C
:1033C0009E0090000200200003122400DFFB070093
:1033D0004F05BE004F0678004F01780000079800A7
:1033E00011079800CE4090006400470061C850006B
:1033F000DEFF370002427800841F78008C1F7800BF
:103400008A9FBE0002002000031224000E009000DC
:103410009E009000C8FB07000000E0000060EF0085
:10342000010035000060EC004F05BE004F0678003B
:103430004F0278000040E20011003200841F780043
:103440008C1F78008A9FBE000E0090009E009000A6
:10345000D2CC2C00C3DC2300BCFB07004F05BE0010
:103460004F0678004F027800000798001107980077
:10347000CE4090006400470061C84000DEFF370086
:10348000600147001200BE000000D0008180D20021
:103490000007980011079800600047006300400093
:1034A00090407800F0C7B30000C1500060004700B2
:1034B000E300400010C0B300804878008281FB0028
:1034C000600147001200BE008301E90003003500DF
:1034D0000000D0008180D200FBFF37000007980079
:1034E00011079800600047006300400001032000BE
:1034F0001080FB0000804000004E78006100460014
:10350000000678004E4090006104E100050035009F
:103510004E4090006604E10002003C000443780045
:1035200005003700E0C2B300004E7800610046009D
:103530000006780016C0B30065C0B300602CE1003F
:103540002F00320060004700E30040000020EF0041
:103550008048780060004700B001780020027800C1
:103560008301D0000482D2008301D0000482D20003
:103570006001470032804100A2004A000007980025
:1035800011079800600147001200BE000000D00043
:103590008180D20000079800110798006000470062
:1035A00063004000010320001080FB000080400009
:1035B000004E780061004600000678006034E100AB
:1035C0000D003A004E4090000060ED00404798002A
:1035D0006004E10007003A00E0C2B300004E78004A
:1035E000610046000006780010C0B3000043780078
:1035F00000003700000037000A60ED00CFFF370001
:10360000F0FF2F00000046009040780000C3B30098
:10361000000CE10003003A0061005600000678004B
:10362000F7FF3700F0FF2F000000460090407800C1
:10363000E0C2B300000CE10002003A006100560055
:10364000000678004E4090006004E1002500320042
:1036500050C6B300004E78006100460000067800B6
:103660004E4090006004E10007003D00D0C2B3006E
:10367000004E78006100460000067800CE409000C1
:103680006400470060C81000CE4190004E4090009A
:103690006904E1000A0036000380FB00A20020005C
:1036A000110009000200D80080007800000320000B
:1036B00001004000004E78006100460000067800DE
:1036C0000380FB00A2002000110009000200D800C6
:1036D0000003200001004000004E78006100460019
:1036E000000678000020EF00004E78000020EF0078
:1036F000CF0578004F0578000080FA000000060032
:103700001421EF00000320001EA1B70000EB2F00E2
:103710001AA1B7002368A8000368A90000000600EA
:103720002C28A8000C28A90000C6B300804078000F
:103730000087200090C0680000C7B30080C0600010
:103740000087200090C068000087200001487800B2
:1037500001ECA80081ECA900818CA800812CA800B4
:10376000804CA800800CA80083ECA80083CCA800A3
:1037700083ACA900838CA900400620008AACB70066
:10378000400620008CACB70000FA200088ACB700DF
:1037900080BB200086ACB70020C820009040780095
:1037A000F0CCB30080C0600020C820000148780041
:1037B0005001200084ACB70080C1B3008040780085
:1037C00040C8200090C0680080CFB30080C0600077
:1037D00040C8200090C0680040C820000148780020
:1037E000000006000200FA008A1F78006764E1000A
:1037F00001003600640037008A80FB00401721007A
:1038000090805000701721001080FB000008B80065
:10381000000378000B45780002FC07000C45780097
:10382000FAFD07000A20EF00701721001080FB004E
:103830000028E10039003100F0C7B300005CE1006E
:1038400001003600500037008A1F78000B457800D1
:10385000E6FB07000C457800ECFD07000B457800FF
:10386000F0FB07004F057800A1FB07000047980018
:103870009FFB0700004798008A1F78000B457800DF
:10388000DAFB07000C457800E0FD07000B457800E7
:10389000E4FB07004F057800860178004F9ADE00B0
:1038A0008217210032804100A2004A00A101880055
:1038B00010407800004178000C20EC0000E0EE00A1
:1038C00008003700004798000C00370002479800B6
:1038D0000A003700E0004700600047001148690017
:1038E00006003700606CE100F6FF3200616CE10019
:1038F000F6FF3200626CE100F6FF32008A1F7800AA
:103900000E45900079FD07004F05780061C0450025
:10391000804578000A20EC00C3FF37008A1F78003A
:103920000B457800B1FB07000C457800B7FD070098
:103930000B457800BBFB07004F057800F0CFB300C4
:103940000220EF000C003700004798008A1F780023
:103950000045780065FD07004F0578000A00370034
:10396000014798008A1F7800014578005FFD070035
:103970004F05780004003700606CE100F2FF320070
:10398000616CE100F6FF32004F0578000080FA001C
:10399000000006000800FA00100020002007980030
:1039A00010002000300798000020EF00100798005A
:1039B0000020EF00808B88002DFB07000000E20054
:1039C00002003A000020EF00A1003700600047002D
:1039D0008A1F780000057800E9FA07004F05780093
:1039E000010F2000600047001008E1000C003A00C1
:1039F0000020EF00300798001DFB07000000E200E8
:103A000001003A00FCFF3700600047008A1F780081
:103A100000057800DAFA07004F0578003700370014
:103A2000010E2000600047001008E1001B003A0072
:103A30000FFB07000000E20001003A00FCFF370026
:103A4000600047008A1F780000057800CCFA070064
:103A50004F057800010F2000600047001008E100CA
:103A60000B003A000020EF003007980000FB070031
:103A70000000E20001003A00FCFF37006000470050
:103A80008A1F780000057800BDFA07004F0578000E
:103A900010002000808B880018003700710720007C
:103AA000600047001008E1000E003A0010002000FE
:103AB00020079800660047001000E0000800320070
:103AC000201721001010A700030037002017210045
:103AD0001010A00002003700201721001010A100D4
:103AE00006003700110E2000600047001008E100BA
:103AF00002003A00000E2000100798000017210075
:103B00001000E0000B0032000E0090007200E10097
:103B100002003A00F00D200010079800C1072000B5
:103B2000600047001008E10002003A00F00D20009C
:103B3000100798000E0090007200E10005003200AE
:103B400091052000600047001008E10001003200EC
:103B50000A00370010002000200798006600470088
:103B60001000E00003003200201721001050A000D8
:103B700002003700201721001050A100201721005B
:103B80001010A70006003700310720006000470032
:103B90001008E10002003A000020EF002C0037007E
:103BA0001E0090006000E10007003A000020EF00D6
:103BB000200798008A1F78000E05900071FB07000F
:103BC0004F05780010079800110E20006200470092
:103BD0001008E1000D003A001000200020079800B6
:103BE000660047001000E0000800320020172100A6
:103BF0001020A70003003700201721001020A0008C
:103C000002003700201721001020A100810C2000A5
:103C1000620047001008E10006003100100020009B
:103C200020079800820C2000E20047006200470055
:103C3000110811002E409000004D78004E40900079
:103C4000804D78006E409000004E780010002000FB
:103C50000080FA00000006000A21EF0000022000A8
:103C600012A1B70020A127000EA1B7002108A800CB
:103C70000108A900000006000000FA008A1F780071
:103C80000820EF000A0078006050E10003003D00CA
:103C900014002000600015000000370000057800C7
:103CA00014FB070063002000040178006018E100A5
:103CB0000600360083804500618051000080450089
:103CC000904878000620ED00F8FF370000C2B300EE
:103CD000804D78000400E2000C0032000420EF0068
:103CE000028045009040780000C2B300000CE10063
:103CF00002003A000420EC00F9FF37006100510097
:103D000080804500D0C2B300804878004F0578001D
:103D10000080FA00000006000000FA000200070020
:103D20003E1F0400000000000400E20006003A000C
:103D30000005EB000200E2000F003E000000E20080
:103D4000270032000C003700A10088000200E200CA
:103D50000400350008003C000000E20020003200B2
:103D60000500370060001000E080180002003B00F2
:103D700001F02C001A0037000084BE006011B8006A
:103D80006B0920000982CF00020039000882CF00B1
:103D90000441B000694252000E00320008003B00AE
:103DA00082817100610164008904D1000884D3001C
:103DB0008B05E8000442E800F9FF3A0005003700EF
:103DC0000804440089844C008B05E9000442E900A2
:103DD000FBFF3A00030007000AF0A70003E0A80079
:103DE0000000060081002000618055000B003D00AE
:103DF0000B00200061FE2F000100E1001D003400D7
:103E000082817100610164008904D1000884D300BB
:103E10000000E800FAFF3A00710020006100640031
:103E200003007000020060000900320061044400D9
:103E3000E0844C000988A500050032008B05E800ED
:103E40006808E10002003A008904D1000884D30028
:103E5000F20F20000258E10005003D00C75DDD00C3
:103E6000F907B2008980750008008800000006008C
:103E70000BF827001B008800000005000080FA00F6
:103E8000000006000000FA0002000700B61F040050
:103E9000000000000081BE001F0007000470A700A2
:103EA00003F0A1006509B100160032000D003500D5
:103EB0006828E10006003500F0FF2F00F1FF270021
:103EC0000600E20013003B0001002800000005008E
:103ED00000004000818048008502E900FCFF3A00B4
:103EE00008003700F88F420002003C008000EB0021
:103EF000000005008100D1000080D3008502E800A9
:103F0000FCFF3A000600E20002003B0060001000E7
:103F1000E080180000000600C70ADE00F107B200CA
:103F2000F50FB20008003200E1CF4200020032007B
:103F300002E0A80024000500810F7000010032009B
:103F40000408050044000500810F700002003A00DB
:103F5000140005008502E9000000400081C048000F
:103F6000FCFF3B0002E0A800240005000080FA00EE
:103F700000000600C241A80060772000E0A1B70061
:103F8000E221EF00F0912000DCA1B700DE21EF007C
:103F90002748A8000748A9000040200080007800BA
:103FA000001C20009080680000C02100808060001C
:103FB000001C200090806800010E8800C581A800C8
:103FC000C541A800C401A800C1E1A800C3C1A80060
:103FD000000006000621EF000003200010A1B7003A
:103FE000708929000CA1B70020E8A80000E8A9000A
:103FF000000006008A1F78008C1F78008D1F780053
:104000008DFB07007DC0B3005CC0B3000A00280030
:10401000102020008005780000022000801F78001A
:104020002BFB07002F00B1001420EF00A9000700B0
:10403000CF0678004F0678004F0578000000060094
:104040004E2EEF004E8EBF003EAEB7003E8EBF003C
:104050002EAEB7002E8EBF001EAEB7001EAEA8005B
:104060001E0EA800F0FF2F0010AEB700602EEF006C
:10407000608EBF0040AEB700300EA800316EA800C1
:10408000314EA800312EA800310EA80000B0240047
:1040900080007800A06B20009080680000F027006E
:1040A00080806000A06B200090806800D13588007F
:1040B00000C4B30080407800A06B200090C068006E
:1040C000F0C7B30080C06000A06B200090C0680003
:1040D000A06B200001487800A0C4B30080407800A5
:1040E000E06B200090C06800F0C7B30080C06000A3
:1040F000E06B200090C06800E06B20000148780071
:1041000090C4B30080407800C06B200090C068006D
:10411000F0C7B30080C06000C06B200090C0680092
:10412000C06B2000014878000080240080007800E7
:10413000C06B20009080680000F027008080600045
:10414000C06B200090806800E13588000000060008
:104150008A1F7800BA5028001020200080057800BF
:104160006AFB070011E1A8004F0578000000060077
:104170008A1F78008C1F78008D1F78004DC0B30017
:104180003CC0B3002A3428001020200080057800AD
:1041900000022000801F7800CDFA07002F00B10038
:1041A0001420EF004B00070049FA07002000200010
:1041B000708B880001042000E01621001008E10047
:1041C000060034007A8B8000CFFA0700110020002F
:1041D000E016210010884000F6FF37000020EF00B5
:1041E000708688000020EF0080868800CF06780067
:1041F0004F0678004F057800000006008A1F7800FF
:10420000BA58280010202000800578003FFB0700E6
:1042100011E1A8004F0578000000060020042000EE
:1042200090407800F0C1B30080C0600020042000FE
:1042300001487800C1E8A900C3E8A8004460A900CB
:104240000020200080007800C08520009080680059
:104250000070200080806000C08520009080680091
:10426000E142880030C0B3008040780040842000E4
:1042700090C06800E7C060004084200090C06800E3
:10428000408420000148780000002300800078006E
:10429000208420009080680000002700808060005B
:1042A00020842000908068001142880000002300D4
:1042B00080007800C0842000908068000000270003
:1042C00080806000C0842000908068006142880087
:1042D000000006000000FA00446EA900444EA80049
:1042E0000420EF006710E1000D003E008A1F7800F7
:1042F0000245780045FB07004F0578000220EF00DB
:10430000F00320000008E10003003E00F7FA070078
:104310000220EC00FAFF37000420EC00F1FF370028
:10432000444EA900446EA8000420EF006710E1008D
:104330000D003E008A1F78000245780033FB07001D
:104340004F0578000220EF00F00320000008E10094
:1043500003003E00E5FA07000220EC00FAFF3700F8
:104360000420EC00F1FF37000080FA000000060096
:104370000000FA00508EA80050AEA8000020EF0008
:10438000908B88000080FA00000006000200FA000E
:104390008B1F78008C1F78008D1F78000000200094
:1043A0000007980040FA07008A1F78001420EF00E9
:1043B000E8F907004F057800200D21001040780033
:1043C0006704E100480032008A1F78004C13210086
:1043D0003B0D21002A0D21006EFD07004F057800DE
:1043E0000000E2003F003200401321001004E00012
:1043F0003C003200200D2100104078006204E100F2
:1044000005003200200D2100104078006104E10019
:104410000100320021003700200D210010407800FB
:104420006204E1000B003A000E0090000020EC0056
:10443000000798000A00E10002003400100020008C
:10444000000798008A1F78000E059000C1F9070048
:104450004F057800200D2100104078006104E10034
:104460000D003A000E0090000020ED0000079800BB
:104470006000E10001003C000A0798008A1F7800F4
:10448000EB1821000E059000FBFD07000E059000C3
:10449000B0F907004F057800120037008A1F780036
:1044A0001A20EF007CC0B3001620EF000A0F210095
:1044B000D40007008800200047122A000E20ED00DB
:1044C000FEFF3A001020ED00FCFF3A001DC0B300D3
:1044D0007CC0B3001620EF00AA0D2100C900070020
:1044E0004F057800B4FF3700EFF907000E00900089
:1044F000CF0678004F067800CF0578000080FA00DC
:10450000000006008A1F78008B1F78008C1F78003F
:104510008D1F78001420EF006EFF0700CEFD07000E
:104520007FFC070024FB0700C5FA07000020EF000E
:10453000608C880072FC07001DC0B3001CC0B30073
:104540001620EF00FA022100AE00070013E1A800D8
:1045500008012000872424000E20ED00FEFF3A0011
:104560001020ED00FCFF3A000000000000000000F9
:104570000000000000000000EB1821006A8C8000A1
:10458000DCF807001DC0B3003CC0B300ABC0B300F3
:10459000EA1821009B000700608C80008000EB007F
:1045A000DDFD070032AC2200E3B5230067F707000A
:1045B000208C8800318C880002002000A347240052
:1045C00062F707002FFE0700108C8800CF80DE0006
:1045D0000081EB00D0FD0700F226210033A8230064
:1045E0005AF70700208C8800318C8800EC182100D5
:1045F0000005BE0020FB07001DC0B3004CC0B30087
:10460000ABC0B300EA1821007E000700EB182100C0
:104610000A8C8000B7F807001DC0B3003CC0B3008F
:104620006BC4B300EA18210076000700608C80009C
:104630008000EB00B8FD070032AC2200E3B5230098
:1046400042F70700208C8800318C88000000200091
:10465000A1472400428C8000538C80003BF7070068
:1046600008FE0700108C8800CF80DE000081EB0080
:10467000A9FD0700F226210033A8230033F7070025
:10468000408C8800518C8800EC1821000005BE0089
:10469000F9FA07001DC0B3004CC0B3006BC4B300EF
:1046A000EA18210057000700A3FF370000000600AA
:1046B0000C00FA008A1F78008B1F78008C1F78008E
:1046C0008D1F78001420EF0002FF07000020EF008C
:1046D0000220EF00108D8800218D88001A20EF0045
:1046E0001820EF001620EF004A02210045000700C5
:1046F0001A20EF004CC0B3001620EF005A00210032
:10470000400007001BFE070032FE0700C881BF0003
:104710008000EB00308D8800418D8800601A2100F8
:10472000900178000001EB00C681BF008000EB0023
:104730000000410081804900308D8800418D880053
:104740000081EB0074FD0700F08C8800018D88006B
:1047500012BD2C0063012400FCF60700F08C8800D9
:10476000018D880060014700020678000005BE0048
:10477000C1FA0700600047001DC0B3007CC0B30051
:104780001BC0B300000578001E000700118D8000DB
:10479000228D8000601A21003008E1002090E100A5
:1047A00006003D001DC0B3002CC0B3001BC0B30009
:1047B000AA042100130007000B003700118D8000B0
:1047C000228D8000601A21003008E1002090E10075
:1047D000050034001DC0B3002CC0B3001BC0B300E3
:1047E000CA03210007000700308D8000418D800042
:1047F000108D8800218D8800C4FF37000080FA00EA
:10480000000006000000FA000420EF00D01721008D
:10481000104078006004E1000C003A00711721009C
:1048200050C0B300804878006117210070C0B30009
:104830008048780000002800C08B880010202000ED
:10484000D08B880000022000A08B88000200450069
:104850001004E0000F00320002004500821F7800C3
:104860008A9FBE0010457800DEFB07004F05BE00A2
:104870004F017800701721001080FB00E10040001C
:104880000B80FB0001004000804578000420EC0014
:10489000EEFF37000080FA00000006003400F80048
:1048A0003200F8003600F800801F78002000200059
:1048B0000C000900B01F78000108A900A001200029
:1048C0000C0009004F1078004F0078003600F90006
:1048D0003200F9003400F900004006003400F8000E
:1048E0003200F8003600F800801F78002000200019
:1048F0000C000900B01F78008A1F78008B1F780019
:104900008C1F78008D1F78001420EF0071FE0700C7
:104910001DC0B3001820EF001620EF007A1521000B
:10492000B8FF07001DC0B3004CC0B3001620EF0055
:104930005A132100B3FF070000E8A90011E1A90004
:10494000CF0678004F067800CF0578004F05780035
:10495000A00120000C0009004F1078004F007800E3
:104960003600F9003200F9003400F900004006007A
:104970003400F8003200F8003600F800801F78009C
:10498000200020000C000900B01F78008A1F78006A
:104990008B1F78008C1F78008D1F78001420EF008B
:1049A0004CFE07001DC0B3001820EF007BC3B3000E
:1049B000FA12210093FF07000368A9001FE1A90074
:1049C000CF0678004F067800CF0578004F057800B5
:1049D000A00120000C0009004F1078004F00780063
:1049E0003600F9003200F9003400F90000400600FA
:1049F0003400F8003200F8003600F800801F78001C
:104A0000200020000C000900B01F780001A8A900B8
:104A10000083BF00608C88000283BF00008C880088
:104A2000618C8000300020000009B800411F200088
:104A3000C018210001084100018C800030002000D6
:104A40000009B800401F200080004100018C880050
:104A5000608C800086ACB70031638800A001200024
:104A60000C0009004F1078004F0078003600F90064
:104A70003200F9003400F900004006003400F8006C
:104A80003200F8003600F800801F78002000200077
:104A90000C000900B01F78008A1F78008B1F780077
:104AA0008C1F78008D1F78001DC0B3001820EF0008
:104AB0001620EF006A10210052FF07000C28A90001
:104AC000336EAF000D0037001DC0B3007CC0B300D3
:104AD0001620EF009A1421004AFF070020C820008A
:104AE00090407800F0CCB30080C0600020C8200067
:104AF0000148780081ECA9001FE1A800CF067800EA
:104B00004F067800CF0578004F057800A0012000FF
:104B10000C0009004F1078004F0078003600F900B3
:104B20003200F9003400F90000400600AF1A2100FD
:104B3000F0FF270020A0B7001020200032A0B7000F
:104B4000400020004420B700B4260200000000000E
:104B50008A1F78008B1F78008C1F780038FD0700B3
:104B600024FD0700ADFD070001FE07001420EF0043
:104B7000D8FD07003A00200004FE0700108B8800D3
:104B80001A00370048F807005EFE070020003700D3
:104B9000200D2100104078006404E1001000320074
:104BA00041F80700C2FE070078022000675B220080
:104BB0000E20ED00FEFF3A001020ED00FCFF3A0051
:104BC0000000000000000000000000004C13210065
:104BD0003B0D21002A0D21006EFB0700ECFF370082
:104BE0000B00370062FD070009003700108B8000C2
:104BF0006100E100E3FF3200108B80006200E10001
:104C0000E3FF3200108B80006300E100F5FF32000B
:104C1000D8FF3700FFFF37003400F8003200F800FB
:104C20003600F800801F7800200020000C000900EA
:104C3000B01F7800C401AE000D003700C821EF009E
:104C4000A0842000C6A1B70007352C000E20ED007F
:104C5000FEFF3A000000000000000000010E80008E
:104C6000F03F2E0000806000C0A1B700C401A90081
:104C7000C5A1AE000200370060FD0700C5A1A90074
:104C8000C561AE000200370031FD0700C561A90013
:104C90000748A900A00120000C0009004F1078006F
:104CA0004F0078003600F9003200F9003400F900B6
:104CB000004006003400F8003200F8003600F8002A
:104CC000801F7800200020000C000900B01F780031
:104CD0008A1F78008B1F78008C1F78008D1F78004A
:104CE0001DC0B3001820EF008BC0B3000A112100D3
:104CF000C4FE07000C08A90061ECA900320EAF0049
:104D00000D0037001DC0B3007CC0B3001620EF00BB
:104D10008A0F2100BBFE070020C8200090407800C9
:104D2000F0CCB30080C0600020C8200001487800AB
:104D300081ECA9001FE1A800CF0678004F0678009B
:104D4000CF0578004F057800A00120000C00090075
:104D50004F1078004F0078003600F9003200F9005B
:104D60003400F9000040060001002100001E280068
:104D7000B0000900B018780000000600FFFFFFFF38
:104D8000FFFFFFFFFFFFFFFFFFFFFFFFFFFFFFFF33
:104D9000FFFFFFFFFFFFFFFFFFFFFFFFFFFFFFFF23
:104DA000FFFFFFFFFFFFFFFFFFFFFFFFFFFFFFFF13
:104DB000FFFFFFFFFFFFFFFFFFFFFFFFFFFFFFFF03
:020000040001F9
:10000000000000000000000000000000005F000091
:1000100000000000000700000007000000140000BE
:100020007F1400007F140000242A00007F2A0000B3
:10003000122300001308000064620000364900002B
:1000400055220000500000000503000000000000E1
:10005000001C0000224100000000000041220000BE
:100060001C000000082A00001C2A000008080000EC
:10007000083E0000080800000050000030000000AA
:100080000008000008080000080800000030000018
:1000900030000000002000001008000004020000F2
:1000A0003E510000494500003E000000427F000034
:1000B000400000004261000051490000462100005C
:1000C000414500004B31000018140000127F000071
:1000D0001027000045450000453900003C4A00005B
:1000E00049490000300100007109000005030000CB
:1000F0003649000049490000360600004949000021
:10010000291E00000036000036000000000000003C
:100110005636000000000000000800001422000015
:1001200041140000141400001414000041220000C7
:100130001408000000020000015100000906000040
:1001400032490000794100003E7E0000111100009C
:10015000117E00007F49000049490000363E000042
:1001600041410000412200007F4100004122000087
:100170001C7F000049490000494100007F09000040
:1001800009010000013E0000414100005132000021
:100190007F080000080800007F000000417F000089
:1001A0004100000020400000413F0000017F0000AE
:1001B00008140000224100007F4000004040000081
:1001C000407F000002040000027F00007F04000066
:1001D000081000007F3E000041410000413E000049
:1001E0007F09000009090000063E0000415100009F
:1001F000215E00007F09000019290000464600002A
:100200004949000049310000010100007F01000060
:10021000013F000040400000403F00001F20000060
:10022000402000001F7F000020180000207F0000F9
:100230006314000008140000630300000478000049
:100240000403000061510000494500004300000024
:10025000007F00004141000002040000081000007F
:1002600020410000417F0000000000000402000067
:100270000102000004400000404000004040000037
:10028000000100000204000000200000545400009F
:10029000547800007F4800004444000038380000D3
:1002A000444400004420000038440000444800005A
:1002B0007F3800005454000054180000087E0000ED
:1002C000090100000208000014540000543C000022
:1002D0007F0800000404000078000000447D000056
:1002E0004000000020400000443D000000000000ED
:1002F0007F10000028440000004100007F40000003
:10030000007C000004180000047800007C08000055
:100310000404000078380000444400004438000021
:100320007C140000141400000808000014140000DD
:10033000187C00007C08000004040000084800004D
:100340005454000054200000043F000044400000CA
:10035000203C000040400000207C00001C200000E9
:10036000402000001C3C000040300000403C0000E9
:100370004428000010280000440C000050500000E9
:10038000503C000044640000544C00004400000055
:100390000836000041000000000000007F0000005F
:1003A00000000000413600000800000008080000BE
:1003B0002A1C0000080800001C2A00000808000091
:1003C000300000002E3800000020000044690000CA
:1003D00073740000616E0000636900006128000012
:1003E000636D0000747300002E2900003A200000A5
:1003F00000310000292000004D6F0000746F0000E4
:10040000726500007300000020530000656E00005C
:1004100074690000646F00003A2000000050000082
:10042000574D000033000000322900002051000029
:100430004144000020000000697A0000717500004E
:10044000696500007264000061000000312E000048
:1004500037000000646500007265000063680000FA
:1004600061200000004C0000616200006F7200001B
:10047000617400006F720000696F0000203300009B
:1004800000310000292000004D6F0000746F000053
:100490007265000073000000332900002050000046
:1004A0006F740000656E0000636900006F6D0000EE
:1004B00065740000726F0000003100002920000008
:1004C0004D6F0000746F0000726500007300000043
:1004D0003229000020510000414400000032000099
:1004E0002920000051410000440000003329000091
:1004F000205000006F740000656E0000636900000A
:100500006F6D000065740000726F00000031000024
:10051000292000004D6F0000746F0000726500001C
:100520007300000032290000205100004144000007
:100530000033000029200000506F000074650000A7
:100540006E630000696F00006D650000747200004A
:100550006F000000332E0000340000000000000097
:1005600000000000000000004E6100004E0000008E
:10057000300000002020000020200000202000008B
:10058000202000002020000020200000202000006B
:10059000202000002020000020200000200000007B
:1005A0004552000052000000494E00004600000085
:1005B00020200000424C00004F5100005545000033
:1005C000414400004F200000200000006661000050
:1005D0006C6C000061500000574D000034000000BA
:1005E000666100006C6C000061500000574D000017
:1005F0003300000033290000205000006F74000019
:10060000656E0000636900006F6D00006574000096
:10061000726F0000003400002E3500000050000012
:10062000574D000034000000002000004469000025
:1006300073740000616E00006369000061280000AF
:10064000636D0000747300002E2900003A20000042
:1006500000200000204200004C4F000051550000D7
:1006600045410000444F0000202000000020000011
:10067000536500006E740000696400006F3A00006A
:100680002000000000000000000000005C000000EE
:100690000C0000000C7C0000287C00007C44000062
:1006A0007C240000104800002854000008000000CE
:1006B0000C00000038440000004400003800000036
:1006C00020100000081000003810000080400000DA
:1006D000001000001010000000400000002000008A
:1006E0001008000038440000380000007C000000C2
:1006F0006454000048440000542800001C1000000E
:100700007C4C0000542400003854000020040000F9
:10071000740C000028540000280800005438000021
:100720000050000000800000500000001028000071
:10073000442800002828000044280000100400007D
:1007400054080000384C00005C7800001478000069
:100750007C54000028380000444400007C44000021
:10076000387C0000544400007C1400000438000071
:10077000443400007C1000007C0000007C0000007D
:10078000204000003C7C0000106C00007C40000019
:10079000407C0000087C00007C0400007C7C0000A1
:1007A000447C00007C1400000838000044780000FD
:1007B0007C1400006848000054240000047C000001
:1007C000047C0000407C00003C4000003C7C0000B9
:1007D000207C00006C1000006C1C0000601C0000FD
:1007E000645400004C7C000044000000081000002D
:1007F000204400007C000000080400000880000085
:10080000808000000408000000D1000000CD00003E
:10081000CBC90000CAD4000000D20000D0CE000036
:10082000CCEB00007E00000000DE0000DD000000D8
:10083000DC51000021000000000000005A530000BD
:100840004157000040DB0000004300005844000016
:100850004524000023DB0000002000005646000075
:100860005452000025000000004E000042480000E5
:10087000475900005E000000000000004D4A0000E3
:10088000552600002A000000003C00004B490000F3
:100890004F29000028000000003E00003F4C0000EF
:1008A0003A5000005F00000000000000220000003D
:1008B0007B2B000000000000E1DD0000D57D000082
:1008C000007C0000000000000000000000000000AC
:1008D00000000000D800000000E2000000E6000078
:1008E000E300000000000000D9DA0000E935000054
:1008F000E7E80000EAE50000D32B0000D72D000058
:100900002AD60000E40000000000000000CF000034
:10091000D1000000CDCB0000C9CA0000D4D3000034
:10092000D2D00000CECC0000EB6000000000000040
:10093000DEDD000000DC000071310000000000007E
:10094000007A00007361000077320000DB000000D5
:10095000637800006465000034330000DB000000B1
:100960002076000066740000723500000000000070
:100970006E62000068670000793600000000000029
:10098000006D00006A7500003738000000000000AC
:100990002C6B0000696F000030390000000000007F
:1009A0002E2F00006C3B0000702D000000000000A6
:1009B00000270000005B00003D00000000E1000097
:1009C000DDD500005D0000005C00000000000000BC
:1009D000000000000000000000D80000000000003F
:1009E000E2000000E6E300000000000000D9000083
:1009F000DAE9000035E70000E8EA0000E5D300008E
:100A00002BD700002D2A0000D6E4000000000000D3
:100A100000000000CF000000000000000000000007
:100A20000000000000FF0000FFFF0000FFFF0000CB
:100A3000FFFF0000FFFF0000FFFF0000FFFF0000BE
:100A4000FFFF0000FF0000000000000000000000A9
:100A50000000000000000000000000000000000096
:100A60000000000000FF0000FFFF0000FFFF00008B
:100A7000FFFF0000FFFF0000FFFF0000FFFF00007E
:100A8000FFFF0000FF000000000000000000000069
:100A90000000000000000000020600000E1E000022
:100AA0003E7E0000FEFF0000FFFF0000FFFF000091
:100AB000FFFF0000FFFF0000FFFF0000FFFF00003E
:100AC000FFFF0000FFFE00007E3E00001E0E000043
:100AD000060200000000000000000000000000000E
:100AE0000000000000010000030700000F1F0000CD
:100AF0003F7F0000FFFF00007F3F00001F0F00004E
:100B000007030000010000000000000000000000DA
:100B100000000000000000000000000000000000D5
:100B200000000000000000000000000000C0000005
:100B3000F0F80000FCFC0000FCF00000C000000029
:100B400000000000000000000000000000000000A5
:100B50000000000000000000000000000000000095
:100B60000000000080E00000F8FE00007F1F000091
:100B700007F30000F8F80000F10700001F7F0000F5
:100B8000FEF80000E0C000000000000000000000CF
:100B9000000000000000000000800000C0F0000025
:100BA000FC7F00003F0F0000030100000000000078
:100BB00000CF0000DFDF0000CF00000000000000D9
:100BC000000300000F3F00007FFC0000F0E0000089
:100BD00080000000003800003E3F00003F3F000062
:100BE0003938000038380000383800003838000044
:100BF000383900003B3B000039380000383800002D
:100C00003838000038380000383900003F3F000015
:100C10003F3E00003800000000000000803F000060
:100C200018720000313F0000F0FD0000753E00002A
:100C300047580000633D0000589500001D3C00002F
:100C400082C40000AE3A0000A878000021390000FC
:100C5000EF93000080370000A0920000A73500004D
:100C60004656000015340000FFE60000DB2E0000B1
:100C7000C4FF00007F3F000080EF0000FFBE0000C7
:100C800090E10000A93E0000EC82000076BE00006A
:100C900082AD00002B3E00000E3C0000C3BD0000F2
:100CA00087D10000133D000041780000D3BB000055
:100CB0003100000034370000000000000030000068
:100CC0002E32000035360000380000000000000021
:100CD0002B3300002D2A000039000000FFFFFFFF2A
:0200000401F009
:1C0008000300000082000000A50000007F0000003F000000D7000000030000001A
:00000001FF
