:10000000242D04000000000000000000000000009B
:1000100000000000000000000000000000000000E0
:1000200000000000000000000000000000000000D0
:1000300000000000000000000000000000000000C0
:1000400000000000E62B0000AA2C000000000000C9
:10005000000000000000000000000000482B00002D
:100060000000000000000000000000000000000090
:100070000000000000000000000000000000000080
:100080000000000000000000000000000000000070
:10009000000000003C2E00000000000000000000F6
:1000A0000000000000000000000000000000000050
:1000B0000000000000000000000000000000000040
:1000C0000000000000000000000000000000000030
:1000D0000000000000000000000000000000000020
:1000E0000000000000000000000000000000000010
:1000F0000000000000000000000000000000000000
:1001000000000000000000000000000000000000EF
:10011000662E00000000000000000000000000004B
:1001200000000000000000000000000000000000CF
:1001300000000000000000000000000000000000BF
:1001400000000000000000000000000000000000AF
:10015000000000000000000000000000000000009F
:10016000000000000000000000000000000000008F
:10017000000000000000000000000000000000007F
:10018000000000000000000000000000000000006F
:10019000000000000000000000000000000000005F
:1001A0000000000000000000E02D0000CA2C00004C
:1001B000000000000000000000000000000000003F
:1001C000000000000000000000000000000000002F
:1001D000000000000000000000000000000000001F
:1001E000000000000000000000000000000000000F
:105A48004F242100F0FF270020A0B70010202000DD
:105A580032A0B700400020004420B700D82E020032
:105A6800000000008A1F78008B1F78008C1F7800C8
:105A78008D1F78007FFC07003AFC070076FB0700C3
:105A880090FE070088FE070070FE07001420EF0054
:105A9800AFFC0700B4FE07003A00200002FD070033
:105AA800A08F88003900370010002000108A880075
:105AB800CEFC070013E1A900007D200066ACB7000A
:105AC800007D200086ACB70021E3A9001420EF0078
:105AD8009FFC07003600370020002000108A88004D
:105AE8004FFD0700C1E1A9001420EF0098FC070052
:105AF8002F0037005DC0B3003CC0B3000ADE2900A8
:105B0800102020008005780000022000801F780007
:105B1800B8F807002F00B1001420EF008CFC070034
:105B2800CFF80700DBFA070013E1A80041FE0700E1
:105B3800B0022100104078006304E1000700320041
:105B480084F80700DBFA07004C0F21005B0C2100EA
:105B5800BA02210055F70700F5FF37007DC0B300F2
:105B68005CC0B3000AC0290010202000800578001E
:105B780000022000801F78009EF807002F00B10067
:105B88001420EF0072FC070009003700A08F800086
:105B98006100E100C4FF3200A08F80006200E100D4
:105BA800CDFF3200A08F80006300E100D1FF3200FA
:085BB800B9FF3700FFFF3700C1
:104C7C00A003200046A7B7004074200090407800A5
:104C8C00F0C3B30080C0600040742000014878007D
:104C9C00407420009040780000CEB30080C06000CB
:104CAC0040742000014878004827EF0010302000A5
:104CBC0042A7B7004287BF008000780000002700A1
:104CCC0080806000CC08DE006308E1000100320047
:104CDC00F8FF3700004C220058A7B70070002000E6
:104CEC005AA7B70059E7A80059C7AF000100370011
:084CFC00FDFF37000000060077
:104B6C004E2EEF004E8EBF003EAEB7003E8EBF0005
:104B7C002EAEB7002E8EBF001EAEB7001EAEA80024
:104B8C001E0EA800F0FF2F0010AEB700602EEF0035
:104B9C00608EBF0040AEB700300EA800316EA8008A
:104BAC00314EA800312EA800310EA80000B0240010
:104BBC0080007800A06B20009080680000F0270037
:104BCC0080806000A06B200090806800D135880048
:104BDC0000C4B30080407800A06B200090C0680037
:104BEC00F0C7B30080C06000A06B200090C06800CC
:104BFC00A06B200001487800A0C4B300804078006E
:104C0C00E06B200090C06800F0C7B30080C060006B
:104C1C00E06B200090C06800E06B20000148780039
:104C2C0090C4B30080407800C06B200090C0680036
:104C3C00F0C7B30080C06000C06B200090C068005B
:104C4C00C06B2000014878000080240080007800B0
:104C5C00C06B20009080680000F02700808060000E
:104C6C00C06B200090806800E135880000000600D1
:004C7C0038
:104860008A1F78008C1F78008D1F7800BCFB070022
:104870007DC0B3005CC0B3000AC029001020200036
:104880008005780000022000801F78005BFD070093
:104890002F00B1001420EF002F010700CF06780091
:0C48A0004F0678004F057800000006006D
:103760000000FA008A1F7800F12021000020EF00FD
:10377000804878000020EF008090880021CEA900CA
:10378000306EA900302EA900304EA900406EA9006D
:10379000404EA90025CEA900402EA900400EA90048
:1037A000502EA900500EA90030EEA90030CEA9007D
:1037B00030AEA900308EA900342EA900344EA900E5
:1037C000446EA900444EA80025CEA800B6F8070014
:1037D000FAC3B30013FC0700CBFC07000ACCB3000C
:1037E00010FC0700C8FC0700446EA800444EA90066
:1037F000FAC3B3000BFC0700C3FC07000ACCB300FC
:1038000008FC0700C0FC07004F0578000080FA00A4
:0438100000000600AE
:101AA800370020000E20ED00FEFF3A000000000085
:081AB800000000000000060020
:102824000000FA0014E0AE00422EA90014E0AF004C
:10283400422EA8000000000014C0AE00420EA90001
:1028440014C0AF00420EA8000000000014A0AE00A7
:10285400522EA90014A0AF00522EA80000000000C0
:102864001480AE00520EA9001480AF00520EA800CE
:10287400000000001460AE0032EEA9001460AF0046
:1028840032EEA800000000001440AE0032CEA900D1
:102894001440AF0032CEA800000000001420AE00A7
:1028A40032AEA9001420AF0032AEA8000000000030
:1028B4001400AE00328EA9001400AF00328EA800BE
:0C28C400000000000080FA000000060088
:102B08000000FA00E0FB0700346EA800DEFB0700B7
:0C2B1800346EA9000080FA0000000600E6
:101A9000E70120000E20ED00FEFF3A0000000000EC
:081AA000000000000000060038
:103DFC000000FA004EB897002A9088003B9088008B
:103E0C0010908800202121000C487800E02021002F
:103E1C000D487800F120210010C0B30080487800D4
:083E2C000080FA00000006000E
:104D58000000FA00446EA900444EA8000420EF00A9
:104D68006710E1000D003E008A1F780002457800B8
:104D78002EFC07004F0578000220EF00F00320000A
:104D88000008E10003003E0009FE07000220EC00D5
:104D9800FAFF37000420EC00F1FF3700444EA90069
:104DA800446EA8000420EF006710E1000D003E00EB
:104DB8008A1F7800024578001CFC07004F05780020
:104DC8000220EF00F00320000008E10003003E008D
:104DD800F7FD07000220EC00FAFF37000420EC0082
:0C4DE800F1FF37000080FA000000060018
:103E34000000FA008A1F7800342EA900344EA9002D
:103E44008A80FB00800B2000008070000045780011
:103E540073FA07002BFB07004F0578000080FA0077
:043E64000000060054
:1045B8000000FA00346EA900342EA800344EA90079
:1045C80096F807004EF907000080FA000000060080
:0045D800E3
:1054CC002004200090407800F0C1B30080C0600040
:1054DC002004200001487800C1E8A900C3E8A80016
:1054EC004460A9000020200080007800C0852000C6
:1054FC00908068000070200080806000C0852000D3
:10550C0090806800E142880030C0B3008040780091
:10551C004084200090C06800E7C0600040842000F8
:10552C0090C068004084200001487800114280003F
:10553C00000027000080700042A8B7000000230084
:10554C0080007800C0842000908068000000270054
:10555C0080806000C08420009080680061428800D8
:04556C000000060035
:1054B0000000FA00508EA80050AEA8000020EF00B7
:0C54C000409088000080FA000000060008
:105454008A1F78000A802900102020008005780027
:105464004A00070078012000D7362E000E20ED00F8
:10547400FEFF3A001020ED00FCFF3A000A4029002C
:1054840010202000800578004000070078012000EB
:10549400D7362E000E20ED00FEFF3A001020ED005E
:0C54A400FCFF3A004F05780000000600F5
:105590000400FA008C1F78000A0798001B07980087
:1055A0000620EF006718E10036003E008A9FBE002B
:1055B0001420EF00DBF90700034578001DFA07000F
:1055C0001420EF00C1F907004F05BE000820EF00CE
:1055D000F00320000020E1000E003E000E009000CD
:1055E0009E009000A10188008A9FBE0010457800AF
:1055F000F1FB0700600047001B0020000C002000AA
:1056000000057800DFF907004F05BE000820EC0018
:10561000EFFF37008A9FBE000AC4B300C1F907003C
:105620000345780003FA07000AC4B300A7F907008E
:105630004F05BE0004042000F00720000020E10018
:105640000E003E000E0090009E009000A101880018
:105650008A9FBE0010457800D7FB07006000470016
:105660001B0020000C00200000057800C5F9070091
:105670004F05BE000820EC00EFFF37000620EC00CD
:10568000C8FF37004F0678000080FA0000000600CF
:005690001A
:103D24000000FA008A80FB00F00720000080600099
:103D34000045780000C0AE0003003700446EA800C0
:103D4400444EA90002003700446EA900444EA80066
:083D54000080FA0000000600E7
:103CCC000000FA008A1F78008A80FB00F0072000B1
:103CDC000080600000457800342EA900344EA90005
:103CEC008080FB00F00B2000008060000045780015
:103CFC008080FB00000420000080700000457800EC
:103D0C0000457800C4FA07007CFB07004F057800DB
:083D1C000080FA00000006001F
:103D84000000FA000A017800620045001040780043
:103D94000000AF0002003700610041001074A10070
:103DA400E2004100114078000080FB004100DE0089
:103DB400804878001299450012114E00E20041003B
:103DC400114078000080FB004100DD00804878004D
:103DD400610041001040780000E0AE0002003700AE
:103DE400620041001004A000610041001074A000B2
:083DF4000080FA000000060047
:105570000621EF000002200010A1B70020A12700A3
:105580000CA1B70020E8A80000E8A9000000060070
:005590001B
:104EB0000200FA008B1F78008C1F78008D1F78008D
:104EC0000000200000079800A4FB07008A1F78005C
:104ED0001420EF0028FB07004F057800B0022100E6
:104EE000104078006704E100480032008A1F780013
:104EF0004C0F21005B0C2100BA0221006DFA070063
:104F00004F0578000000E2003F003200400F210012
:104F10001004E0003C003200B00221001040780094
:104F20006204E10005003200B00221001040780068
:104F30006104E1000100320021003700B0022100CD
:104F4000104078006204E1000B003A000E0090006F
:104F50000020EC00000798000A00E1000200340085
:104F600010002000000798008A1F78000E059000AE
:104F700001FB07004F057800B002210010407800C7
:104F80006104E1000D003A000E0090000020ED00E9
:104F9000000798006000E10001003C000A0798004B
:104FA0008A1F78003B2321000E05900019FA0700A4
:104FB0000E059000F0FA07004F0578001200370048
:104FC0008A1F78001A20EF007CC0B3001620EF0083
:104FD0000A0F2100F300070078012000D7362E00C9
:104FE0000E20ED00FEFF3A001020ED00FCFF3A001D
:104FF0001DC0B3007CC0B3001620EF003A0D2100A5
:10500000E80007004F057800B4FF370053FB0700A6
:105010000E009000CF0678004F067800CF0578008C
:085020000080FA000000060008
:103D5C00B10221000020EF0080487800510C2100B6
:103D6C000020EF0080487800410F21000020EF0078
:083D7C008048780000000600F9
:103B78008A1F78008B1F78008C1F78008D1F7800B3
:103B88008A1F78001DC0B3001820EF00CBC3B30014
:103B9800BA092100010607004F0578006150E100CD
:103BA80010003A001A20EF001CC0B3001620EF00E6
:103BB8000A092100F90507001DC0B3002CC0B30095
:103BC8001620EF009A0E2100F40507001DC0B3006F
:103BD8003CC0B3001620EF00EA062100EF050700FD
:103BE800330037006250E10010003A001DC0B300F6
:103BF8001CC0B3001620EF00AA0B2100E705070040
:103C08001A20EF002CC0B3001620EF003A0B210059
:103C1800E20507001DC0B3003CC0B3001620EF004A
:103C2800FA072100DD050700210037006350E10095
:103C380010003A001DC0B3001CC0B3001620EF00EE
:103C48008A0C2100D50507001DC0B3002CC0B300A5
:103C58001620EF007A002100D00507001A20EF0097
:103C68003CC0B3001620EF005A052100CB05070021
:103C78000F0037001DC0B3001CC0B3001620EF00B2
:103C8800AA042100C50507001DC0B3002CC0B3005D
:103C98001620EF00EA002100C00507001DC0B30090
:103CA8003CC0B3001620EF00AA012100BB050700A5
:103CB800CF0678004F067800CF0578004F057800CA
:043CC80000000600F2
:1053A4000000FA000420EF00F020210010407800F3
:1053B4006004E1000C003A002121210050C0B30038
:1053C40080487800E120210070C0B3008048780054
:1053D40000C0290020908800102020003090880010
:1053E4000002200010908800020045001004E00034
:1053F4000F00320002004500821F78008A9FBE0021
:105404001045780069F807004F05BE004F01780089
:10541400202121001080FB00E10040000B80FB00F4
:1054240001004000804578000420EC00EEFF3700C6
:085434000080FA0000000600F0
:1035B0000200FA008A1F78006764E100010036000B
:1035C000640037008A80FB0020202100908050009A
:1035D000202121001080FB000008B80000037800C3
:1035E0000B457800B90107000C457800110207006F
:1035F0000A20EF00202121001080FB000028E100BC
:1036000039003100F0C7B300005CE1000100360072
:10361000500037008A1F78000B457800C101070071
:103620000C457800030207000B457800A70107004E
:103630004F0578003CFC0700004798003AFC070063
:10364000004798008A1F78000B457800B5010700F5
:103650000C457800F70107000B4578009B01070037
:103660004F057800860178004F9ADE004220210045
:1036700032804100A2004A00A10188001040780079
:10368000004178000C20EC0000E0EE00080037005C
:10369000004798000C003700024798000A003700E6
:1036A000E00047006000470011486900060037004D
:1036B000606CE100F6FF3200616CE100F6FF320061
:1036C000626CE100F6FF32008A1F78000E45900020
:1036D000B90307004F05780061C0450080457800B8
:1036E0000A20EC00C3FF37008A1F78000B457800E2
:1036F0008C0107000C457800CE0107000B457800CF
:10370000720107004F057800F0CFB3000220EF00F0
:103710000C003700004798008A1F780000457800A9
:10372000A50307004F0578000A00370001479800FD
:103730008A1F7800014578009F0307004F05780035
:1037400004003700606CE100F2FF3200616CE100C0
:10375000F6FF32004F0578000080FA0000000600F6
:0037600069
:102728000200FA00402EA800400EA800502EA80073
:10273800500EA80030EEA80030CEA80030AEA80099
:10274800308EA800D6FC0700D5FC0700342EA80060
:10275800346EA900344EA800346EA800CAFC0700E5
:10276800600047001070A000422EAE001070A1005B
:10277800600047001060A000420EAE001060A1008B
:10278800600047001050A000522EAE001050A1006B
:10279800600047001040A000520EAE001040A1009B
:1027A800600047001030A00032EEAE001030A100EB
:1027B800600047001020A00032CEAE001020A1001B
:1027C800600047001010A00032AEAE001010A1004B
:1027D800600047001000A000328EAE001000A1007B
:1027E800346EA900344EA900ADFC0700ACFC07000C
:1027F800402EA900400EA900502EA900500EA90095
:1028080030EEA90030CEA90030AEA900308EA90064
:0C2818000E4090000080FA000000060056
:1038B4000800FA00100020002007980010002000E3
:1038C400300798000020EF00100798000020EF0058
:1038D40050908800DDFC07000000E20002003A007E
:1038E4000020EF00A1003700600047008A1F780025
:1038F4000005780099FC07004F057800010F2000AF
:10390400600047001008E1000C003A000020EF00BE
:1039140030079800CDFC07000000E20001003A00E7
:10392400FCFF3700600047008A1F7800000578001C
:103934008AFC07004F05780037003700010E20008D
:10394400600047001008E1001B003A00BFFC0700BC
:103954000000E20001003A00FCFF3700600047006D
:103964008A1F7800000578007CFC07004F0578006A
:10397400010F2000600047001008E1000B003A002E
:103984000020EF0030079800B0FC07000000E200C0
:1039940001003A00FCFF3700600047008A1F7800EE
:1039A400000578006DFC07004F057800100020002A
:1039B400509088001800370071072000600047000D
:1039C4001008E1000E003A001000200020079800C3
:1039D400660047001000E00008003200802021004B
:1039E4001010A70003003700802021001010A00051
:1039F40002003700802021001010A10006003700CB
:103A0400110E2000600047001008E10002003A0097
:103A1400000E200010079800A02021001000E000F4
:103A24000B0032000E0090007200E10002003A0028
:103A3400F00D200010079800C10720006000470027
:103A44001008E10002003A00F00D20001007980071
:103A54000E0090007200E100050032009105200084
:103A6400600047001008E100010032000A0037003E
:103A74001000200020079800660047001000E000B6
:103A840003003200802021001050A0000200370003
:103A9400802021001050A100802021001010A700D8
:103AA4000600370031072000600047001008E100DD
:103AB40002003A000020EF002C0037001E009000A6
:103AC4006000E10007003A000020EF0020079800A2
:103AD4008A1F78000E0590009CF807004F057800B7
:103AE40010079800110E2000620047001008E10042
:103AF4000D003A00100020002007980066004700DF
:103B04001000E00008003200802021001020A700EF
:103B140003003700802021001020A000020037009D
:103B2400802021001020A100810C200062004700A9
:103B34001008E10006003100100020002007980062
:103B4400820C2000E20047006200470011081100C7
:103B54002E409000004D78004E409000804D78003B
:103B64006E409000004E7800100020000080FA00A3
:043B74000000060047
:102C50000400FA000020EF001007980040FB070076
:102C600055FB07000000E20002003A001E00900041
:102C7000150037000020EF00000798000108200031
:102C8000600047001008E1000A003600528EAF00D5
:102C90000400370052AEAF000200370010002000E1
:102CA000090037008E0090006000470061884000F6
:102CB000F2FF3700620047001000E00001003A0018
:102CC0006EFB07001E0090000080FA000000060066
:002CD00004
:101960000000FA0050AEA8000080FA000000060057
:0019700077
:1019B8000200FA001000200000079800010820002B
:1019C800600047001008E1000A00360052AEAE0081
:1019D80004003700010820006000470010887000EC
:1019E8000300370011002000600047001088400005
:1019F800F2FF3700600047001070A1000E00900051
:081A08000080FA000000060056
:101A7C000000FA0050AEA90052AEA9000080FA0096
:041A8C000000060050
:102B60000000FA000C20EF00150020000820EF0004
:102B70000620EF007113210010C0B30080487800D8
:102B8000701321001004E00016003200A0FB0700C3
:102B90000000E20012003200528EAE000600370044
:102BA000701321001080FB000000730061816A0037
:102BB0008002780002003700050178008602780064
:102BC000701321001080FB00C100DD007013210094
:102BD0000148780005037800820278000000370081
:102BE000E7FF37008AFB07000000E2000500320023
:102BF0000020EF00528EAF000020EC0000027800B1
:102C00000000370082FB07000000E20004003200F1
:102C10000020EF00528EAF000020EC0001003700D2
:102C20000300780095FB07000428E10004003A0047
:102C30006000E10002003200060078000100370069
:102C40000020EF00000D78000080FA000000060070
:002C500084
:101A10000400FA000220EF00F00F200010079800E9
:101A2000620047001000E000110032006000470033
:101A30000008EB0052AEAF001008E8000200E20020
:101A400005003200600047001000E00002003A008C
:101A500010002000070037000E0190009E0090004B
:101A6000620047006188500082007800ECFF370078
:0C1A70000020EF000080FA0000000600DB
:101D50000000FA000220EF006050E10002003A00AB
:101D6000010078004B003700802021001010A600F1
:101D700013003700800620000050E10010003600FC
:101D8000E00720000050E1000D0031007007200046
:101D90000050E1000A00320090062000800055004B
:101DA000801E2A00810040001020200034A0B700CF
:101DB000114078008080FB0001007800350037007A
:101DC0006100550000057800802021001050A60019
:101DD00018003700C0072A008A00400010202000A9
:101DE00034A0B700114078008080FB0080202100E3
:101DF0001020A60009003700000420000008E100C0
:101E000008003600B00520000008E100080031009D
:101E1000000220000080400001003700010078002F
:101E200001003700010078008000780000003700D2
:101E30001700370090FF29008A0040001020200082
:101E400034A0B700114078008080FB008020210082
:101E50001020A60009003700000620000008E1005D
:101E600008003600B00720000008E100080031003B
:101E700000022000008050000100370001007800BF
:101E80000100370001007800800078000000370072
:0C1E9000010078000080FA00000006004D
:103814000000FA008A1F78000820EF000A007800F0
:103824006050E10003003D0014002000600015001A
:10383400000037000005780020F90700630020002D
:10384400040178006018E10006003600838045001A
:103854006180510000804500904878000620ED000A
:10386400F8FF370000C2B300804D78000400E20086
:103874000C0032000420EF000280450090407800E4
:1038840000C2B300000CE10002003A000420EC0086
:10389400F9FF37006100510080804500D0C2B300B9
:1038A400804878004F0578000080FA000000060088
:0038B40014
:101CC0000200FA000420EF006514E1000600310074
:101CD0000280FB008080450000C2B300804878008D
:101CE0000460EC00F8FF37000280FB0080804500B4
:101CF0000020EF0080487800E14151000380FB00A4
:101D00000080450000079800A20020001100090093
:101D10000285D80000032000808040000E00900063
:101D200001487800A2002000110009000285D800B7
:101D3000000578006000E10001003A000200370071
:101D40000660ED00EDFF37000080FA00000006009D
:001D500093
:104DF4008A1F78008B1F78008C1F78008D1F780025
:104E04001420EF00D3FF070023FE0700E1FD070095
:104E1400F0FD0700AFFD070012FC07000020EF00C3
:104E2400109288001DC0B3001820EF001620EF0078
:104E3400EA0A21005A0107001DC0B3001820EF0040
:104E44007BC3B3009A0A210055010700B002210078
:104E5400104078006304E1000F00320013E1A80061
:104E64003B2321001A92800094F30700BAFB070049
:104E74004C0F21005B0C2100BA0221008CFA0700C0
:104E8400B0022100104078006304E10001003A0000
:104E940001003700EDFF3700CF0678004F06780099
:0C4EA400CF0578004F05780000000600E4
:10469C000A21EF000002200012A1B70020A1270080
:1046AC000EA1B7002108A8000108A900000006000F
:0046BC00FE
:104598001421EF00000320001EA1B70000EB2F003C
:1045A8001AA1B7002368A8000368A9000000060044
:0045B80003
:1045D8002C28A8000C28A90000C6B3008040780049
:1045E8000087200090C0680000C7B30080C060004A
:1045F8000087200090C068000087200001487800EC
:1046080001ECA80081ECA900818CA800812CA800ED
:10461800804CA800800CA80083ECA80083CCA800DC
:1046280083ACA900838CA900400620008AACB7009F
:10463800400620008CACB70000FA200088ACB70018
:1046480080BB200086ACB70020C8200090407800CE
:10465800F0CCB30080C0600020C82000014878007A
:104668005001200084ACB70080C1B30080407800BE
:1046780040C8200090C0680080CFB30080C06000B0
:1046880040C8200090C0680040C820000148780059
:044698000000060018
:1044D8002C08A8000C08A90060C0B3008040780030
:1044E8000087200090C06800E7C0600000872000B7
:1044F80090C06800008720000148780001ECA800FF
:1045080061ECA900618CA800612CA800604CA8008F
:10451800600CA80063ECA80063CCA80063ACA900F9
:10452800638CA900400620006AACB7004006200052
:104538006CACB70000FA200068ACB70080BB200064
:1045480066ACB70020C6200090407800F0CCB300DD
:1045580080C0600020C6200001487800500120007B
:1045680064ACB70000C1B3008040780040C62000AA
:1045780090C0680080CFB30080C0600040C62000B3
:1045880090C0680040C6200001487800000006007E
:0045980023
:103E68002143A90001198000F0CF2F0000806000D5
:103E780020A3B7002083A90000C4B30080407800C5
:103E88000032200090C0680000CEB30080C06000FF
:103E98000032200090C068000032200001487800FD
:103EA8002063A8002043A8002023A900111980003E
:103EB800F0FF21000080600022A3B7002343A9007F
:103EC80000102000800078002032200090806800D8
:103ED8000030200080806000203220009080680040
:103EE80011198800203220009040780030C8B300B3
:103EF80080C0600020322000014878002223A900F9
:103F08002203A90025E3A9000060200080007800B2
:103F1800403220009080680000F02100808060001E
:103F2800403220009080680021198800403220002B
:103F38009040780000C0B30080C06000403220008C
:103F4800014878003303A9006032200090407800CF
:103F580090CFB30080C06000603220000148780034
:103F68002603A90028E3A90050C0B30080407800C8
:103F78008032200090C06800FFC0600080322000BE
:103F880090C06800803220000148780001A8A9008C
:103F980021A8A80000C6B3008040780060842000F3
:103FA80090C0680000C7B30080C060006084200033
:103FB80090C06800608420000148780021E3A800D0
:103FC800075327000E20ED00FEFF3A000000000016
:083FD8000000000000000600DB
:105028000C00FA008A1F78008B1F78008C1F78000C
:105038008D1F78001420EF0045FF07001A20EF00AD
:105048001820EF001620EF004A142100D3000700B3
:105058001A20EF004CC0B3001620EF007A10210090
:10506800CE0007001A20EF007CC0B3001620EF0026
:10507800DA0F2100C90007000020EF000220EF002E
:10508800D08F8800E18F88000020EF00808A880098
:105098000020EF00708A88000020EF00C089880097
:1050A800EFFC0700B0022100104078006304E10023
:1050B800B400320027FB070020002000108A880077
:1050C800C881BF008000EB00B08F8800C18F8800C6
:1050D800601F2100900178000001EB00C681BF002D
:1050E8008000EB000000410081804900B08F8800FB
:1050F800C18F88000081EB00AFF80700F08F8800AF
:105108000190880012BD2C006301240075F407008B
:10511800F08F880001908800A18420000200200000
:10512800601F21003008E1002090E10004003A00EF
:1051380000002400C1592400F08F880001908800E5
:105148006000470000067800FA8F80000B9080000E
:10515800A1FB07004C0F21005B0C2100BA022100C3
:10516800D2F90700B0022100104078006304E10082
:1051780001003A0083003700600047001DC0B300FB
:105188005CC0B3001BC0B3000005780083000700B3
:1051980011E1AE003B003700D18F8000E28F800024
:1051A800601F21003008E1002090E10009003D0067
:1051B8001DC0B3006CC0B3001BC0B3005A1221005D
:1051C800760007001100200000152100108840001B
:1051D8000E003700D18F8000E28F8000601F210011
:1051E8003008E1002090E100080034001DC0B30041
:1051F8006CC0B3001BC0B300BA11210067000700E0
:1052080011002000E014210010884000808A8000EE
:105218006800E10005003A00110020008013210019
:10522800108840000020EF00808A8800708A800083
:105238006800E10005003A001100200080132100F9
:10524800108810000020EF00708A88006000470076
:1052580080057800CA8980006CF907006000470063
:105268001DC0B3007CC0B300CBC3B30000057800F9
:105278004A000700B08F8000C18F8000D08F88005F
:10528800E18F8800D18F8000E28F8000601F2100AD
:105298003008E1002090E10009003D001DC0B30086
:1052A8002CC0B3001BC0B3002A1521003B00070027
:1052B8001100200000152100108840000E00370062
:1052C800D18F8000E28F8000601F21003008E1004C
:1052D8002090E100080034001DC0B3002CC0B300CA
:1052E8001BC0B300FA1A21002C000700110020008F
:1052F800E014210010884000808A80006800E100E6
:1053080005003A0011002000801321001088400099
:105318000020EF00808A8800708A80006800E10021
:1053280005003A00110020008013210010881000A9
:105338000020EF00708A8800600047008005780030
:10534800CA89800031F90700600047001DC0B3001A
:105358007CC0B300CBC3B300000578000F00070082
:10536800B08F8000C18F8000D08F8800E18F8800C7
:105378004C0F21005B0C2100BA0221004BF90700F9
:1053880048FF3700CF0678004F067800CF05780031
:0C5398004F0578000080FA0000000600BD
:10446800C241A80060772000E0A1B700E221EF0078
:10447800F0912000DCA1B700DE21EF002748A8005A
:104488000748A90000C0200080007800001C200018
:104498009080680000C0210080806000001C20001F
:1044A80090806800010E8800010E80000030200016
:1044B80000807000C0A1B700C581A800C541A80050
:1044C800C401A800C1E1A800C3C1A80000000600FB
:0044D800E4
:103FE0000600FA008A1F78008B1F78000820EF0077
:103FF00000002000404798000A0798001B0798001F
:104000000E0190009E019000F0FF2F00F1FF2F00A5
:104010000010E1000198E10005003A00AB13210017
:104020000C057800BFFA070030C0B3000A01370062
:1040300015C0B300600047006300400010407800E6
:1040400000E0AE000C003700600047006301400054
:104050009280FB0000082000008068000049780082
:104060000A60EC00D0C2B300004E78006100460048
:1040700000067800000037000E0090009E009000BF
:104080006000E1006088E10005003A005B13210058
:104090000C057800A3FA07000020EF00EE003700BF
:1040A0000E0190009E0190000000200001F8270002
:1040B0000010E1000198E10005003A00EB13210037
:1040C0000C05780097FA070005407800E2003700F9
:1040D00004417800821F78008C1F78008A9FBE0000
:1040E0000200200003F823000E0090009E009000C4
:1040F00088F907000000E0000060EF0001003D00CB
:104100000060EC004F05BE004F0678004F017800BC
:104110000040E20011003200821F78008C1F7800FE
:104120008A9FBE000E0090009E00900002002000BA
:10413000031224006DF807004F05BE004F067800FB
:104140004F0178000007980011079800CE409000BA
:104150006400470061C85000DEFF3700024278006B
:10416000841F78008C1F78008A9FBE000200200008
:10417000031224000E0090009E00900056F80700E5
:104180000000E0000060EF00010035000060EC007E
:104190004F05BE004F0678004F0278000040E20055
:1041A00011003200841F78008C1F78008A9FBE00A7
:1041B0000E0090009E009000D2CC2C00C3DC2300A7
:1041C0004AF807004F05BE004F0678004F027800FE
:1041D0000007980011079800CE4090006400470047
:1041E00061C84000DEFF3700600147001200BE00DA
:1041F0000000D0008180D2000007980011079800CD
:10420000600047006300400090407800F0C7B300B2
:1042100000C1500060004700E300400010C0B30040
:10422000804878008281FB00600147001200BE00D8
:104230008301E900030035000000D0008180D20036
:10424000FBFF370000079800110798006000470047
:1042500063004000010320001080FB00008040004C
:10426000004E780061004600000678004E40900045
:104270006104E100050035004E4090006604E10055
:1042800002003C000443780005003700E0C2B300A0
:10429000004E7800610046000006780016C0B300AA
:1042A00065C0B300602CE1002F00320060004700C1
:1042B000E30040000020EF008048780060004700E5
:1042C000B0017800200278008301D0000482D2007F
:1042D0008301D0000482D200600147003280410097
:1042E000A2004A00000798001107980060014700EB
:1042F0001200BE000000D0008180D20000079800AC
:10430000110798006000470063004000010320008F
:104310001080FB0000804000004E780061004600E5
:10432000000678006034E1000D003A004E40900035
:104330000060ED00404798006004E10007003A008B
:10434000E0C2B300004E780061004600000678002D
:1043500010C0B300004378000000370000003700B1
:104360000A60ED00CFFF3700F0FF2F00000046008D
:104370009040780000C3B300000CE10003003A0055
:104380006100560000067800F7FF3700F0FF2F00AD
:104390000000460090407800E0C2B300000CE1004D
:1043A00002003A0061005600000678004E4090007E
:1043B0006004E1002500320050C6B300004E7800D2
:1043C00061004600000678004E4090006004E10065
:1043D00007003D00D0C2B300004E780061004600E7
:1043E00000067800CE4090006400470060C81000CE
:1043F000CE4190004E4090006904E1000A00360072
:104400000380FB00A2002000110009000200D80078
:10441000800078000003200001004000004E78007A
:1044200061004600000678000380FB00A200200027
:10443000110009000200D800000320000100400024
:10444000004E780061004600000678000020EF0072
:10445000004E78000020EF00CF0578004F0578006F
:084460000080FA0000000600D4
:102B24000000FA000A00780000017800E10140008A
:102B34008B00780061804500800578001149780099
:102B44001204E0000200320003007800F6FF3700B0
:0C2B54000A0078000080FA000000060073
:102714000000FA00140020002CFB07000080FA00DF
:0427240000000600AB
:1013D0000000FA0002000700560A040000000000A6
:1013E000841F7800140007004F00780011003300BC
:1013F000F0FF2F00838F6C0006003B0004056500A2
:101400000A00A7000800370009F0A600100020001D
:1014100008003700820F5400838F5C0003003900FE
:101420001000200001003E000000200009F0A7008D
:101430000000EA00000006000084BE00060007006D
:101440000083BE000485BE000280BE0002000700CB
:10145000844F750000000600C70ADE00F107B200E5
:10146000F50FB20008003200E1CF42000200320066
:1014700002E0A80024000500810F70000100320086
:101480000408050044000500810F700002003A00C6
:10149000140005008502E9000000400081C04800FA
:1014A000FCFF3B0002E0A800240005000080FA00D9
:0414B0000000060032
:1022D8000000FA00F4FF2F003BFC07000080FA0022
:0422E80000000600EC
:1022EC000000FA00020007008C120400000000003D
:1022FC00889FBE008A9FBE008C1F780030000700AC
:10230C003700330003866C006450E1002400320077
:10231C006420E100270032006150E100220032000D
:10232C006120E100210032008B854200EB07B100F7
:10233C000134B800003AB8000804420089844A000D
:10234C00013AB8000030B8008880400009014A000A
:10235C000400330000004000818048000201490065
:10236C008B05E900C909DD00830170000100320012
:10237C0013002000C814DE004814DD004709DE00FD
:10238C001200B200C808DE000884700024000700A8
:10239C0001F0A1000CF0A70003E0A8001900370021
:1023AC006120E1001B0032000881BE000280BE00EB
:1023BC00F7FF37006150E100FCFF3A0015003700D1
:1023CC000084BE003C0007000083BE000485BE00F4
:1023DC000280BE0038000700844F75000000060024
:1023EC000280BE006450E100050036006420E1006C
:1023FC00020036000968A30001003A000880BE0004
:10240C0002C0A8004F0678004F05BE004F04BE0066
:10241C0000000600F0FF2F00F1FF2700F9FF370046
:10242C0081002000618055000B003D000B00200056
:10243C0061FE2F000100E1001D003400828171005B
:10244C00610164008904D1000884D3000000E80015
:10245C00FAFF3A0071002000610064000300700074
:10246C00020060000900320061044400E0844C006A
:10247C000988A500050032008B05E8006808E1001A
:10248C0002003A008904D1000884D300F20F200026
:10249C000258E10005003D00C75DDD00F907B20000
:1024AC008980750008008800000006000BF82700E2
:1024BC001B00880000000500C70ADE00F107B2000F
:1024CC00F50FB20008003200E1CF420002003200EA
:1024DC0002E0A80024000500810F7000010032000A
:1024EC000408050044000500810F700002003A004A
:1024FC00140005008502E9000000400081C048007E
:10250C00FCFF3B0002E0A800240005000080FA005C
:04251C0000000600B5
:1033C0000000FA0002000700921A0400000000004A
:1033D0000400E20006003A000005EB000200E200F3
:1033E0000F003E000000E200270032000C00370012
:1033F000A10088000200E2000400350008003C0043
:103400000000E200200032000500370060001000DC
:10341000E080180002003B0001F02C001A00370089
:103420000084BE006011B8006B0920000982CF0043
:10343000020039000882CF000441B0006942520006
:103440000E00320008003B008281710061016400BF
:103450008904D1000884D3008B05E8000442E80009
:10346000F9FF3A00050037000804440089844C0045
:103470008B05E9000442E900FBFF3A000300070066
:103480000AF0A70003E0A800000006008100200069
:10349000618055000B003D000B00200061FE2F00F5
:1034A0000100E1001D0034008281710061016400AF
:1034B0008904D1000884D3000000E800FAFF3A0034
:1034C00071002000610064000300700002006000D1
:1034D0000900320061044400E0844C000988A50022
:1034E000050032008B05E8006808E10002003A00A0
:1034F0008904D1000884D300F20F20000258E100B3
:1035000005003D00C75DDD00F907B2008980750048
:1035100008008800000006000BF827001B00880048
:0C352000000005000080FA00000006001A
:10543C003BF807000020EF00608188000020EF009F
:08544C006083880000000600E7
:10352C008A1F78008B1F78008C1F78008D1F780005
:10353C001DC0B300EC0120002B0320000A02200068
:10354C00F4FB07001DC0B300EC0120002B0320008E
:10355C000A062000EFFB0700FDC3B300FCC7B30055
:10356C003BC3B3001420EF000020EF00801F780055
:10357C000020EF00801F780045FA07004F00B100D3
:10358C002AC0B300CFFC07002AC0B300CDFD070052
:10359C00CF0678004F067800CF0578004F057800ED
:0435AC000000060015
:102520000000FA000820EF008A8155008C02780034
:102530004160DD0063031000618042000020E10083
:1025400054003D0085804500040045008C1F780044
:102550008A9FBE000D4678008145780000457800CE
:10256000D4FB07004F05BE008580550004004500E0
:102570008A9FBE000D4678008145780000457800AE
:10258000CCFB07004F05BE008580450004005500C8
:102590008A9FBE000D46780081457800004578008E
:1025A000C4FB07004F05BE008580550004005500A0
:1025B0008A9FBE000D46780081457800004578006E
:1025C000BCFB07004F05BE00848045000580450028
:1025D000030050008A9FBE000D46780081457800B8
:1025E00000457800B3FB07004F05BE00848055000E
:1025F00005804500030050008A9FBE000D4678000C
:102600008145780000457800AAFB07004F05BE0011
:102610008480450005805500030050008A9FBE005D
:102620000D4678008145780000457800A1FB070041
:102630004F05BE0084805500058055000300500002
:102640008A9FBE000D4678008145780000457800DD
:1026500098FB07004F05BE004F0678006030E10090
:1026600004003D004220DD006600400000034300FE
:1026700006003700050052004200DD006A004000FD
:10268000000043000A20ED00000378000820EC0061
:0C269000A9FF37000080FA0000000600DF
:1014B4000000FA008A1F78006054E1000900390036
:1014C400F0C7B3000054E10006003E00605CE10098
:1014D40004003900F0C3B300005CE10001003E00E9
:1014E400010037002F0037008A1F78000C0A07001C
:1014F4000B80FB004300DE00004578004C0A070027
:101504004F0578008A1F7800EF0907004F0578001F
:101514005E010700830407005C01070081040700E3
:1015240000417800590107000B80FB004300DE00F6
:101534008A1F7800004578003D0A07004F057800AF
:10154400E10907000B80FB00670060008080FB005E
:10155400100020000100DD008040780000E0EE0073
:101564000700370080406100014078000B0037001D
:10157400014071000900370001406900070037008D
:101584006064E100F7FF32006164E100F8FF3200BB
:101594006264E100F8FF3200024078000045780000
:1015A400040C07004F0578000080FA0000000600D4
:0015B40037
:101E9C000E00FA008EFA97006EF0970060F79F0024
:101EAC008A80FB000C80FB00008050000001780051
:101EBC006000E10007003D00E00011000580FB0020
:101ECC004100DD000008E10001003D00D7003700B3
:101EDC00050037000580FB004100DD000010E1002B
:101EEC0001003D00D10037008B80FB000D80FB0012
:101EFC0000805000000178006000E10007003D0008
:101F0C00E00011000580FB004100DD000008E1004D
:101F1C0001003D00C5003700050037000580FB00BF
:101F2C004100DD000010E10001003D00BF00370062
:101F3C008D80FB000580FB00008150008B80FB0036
:101F4C000580FB00008040008D1F78008A9FBE003A
:101F5C0082467800804578006A0057001080FB00AC
:101F6C00801F78007FFE07002F00B1004F05BE00D8
:101F7C00CF0678000020EF00200798008B80FB0034
:101F8C000580FB00008240008C80FB000580FB007C
:101F9C008081500066004700030852008A80FB00D5
:101FAC000580FB00008140006800470002085200D9
:101FBC008D80FB000580FB00808050006A0047008C
:101FCC00028850006C004700038850000580FB001D
:101FDC00100798001E009000C100DD006000470053
:101FEC00638810001E009000E10040006400470070
:101FFC001008E1008D0034008D80FB000580FB0093
:10200C008080500062004700908140008C80FB0073
:10201C000580FB0080805000640047001081400068
:10202C008A80FB000580FB00808040006400470034
:10203C0010805000851F78008C9FBE008A9FBE00C8
:10204C008306780002067800830578000005780086
:10205C006A0057001080FB00801F7800C6FD070047
:10206C002F00B1004F05BE004F06BE00CF02780016
:10207C008B80FB000580FB008080400062004700E5
:10208C00908150008C80FB000580FB00808050000C
:10209C0064004700108140008A80FB000580FB0033
:1020AC00808040006400470010805000851F78003D
:1020BC008C9FBE008A9FBE008306780002067800C3
:1020CC0083057800000578006A0057001080FB003B
:1020DC00801F7800A8FD07002F00B1004F05BE003F
:1020EC004F06BE00CF0278008D80FB000580FB0000
:1020FC0000825000640047009001420062004700DB
:10210C00900052006A0047001081500062004700A6
:10211C00900042006C00470010805000851F780032
:10212C008C9FBE008A9FBE00830678000206780052
:10213C0083057800000578006A0057001080FB00CA
:10214C00801F78008CFD07002F00B1004F05BE00EA
:10215C004F06BE00CF0278008B80FB000580FB0091
:10216C00008240006400470090015200620047006A
:10217C00900042006600470010815000620047004A
:10218C00900052006800470010805000851F7800B6
:10219C008C9FBE008A9FBE008306780002067800E2
:1021AC0083057800000578006A0057001080FB005A
:1021BC00801F780070FD07002F00B1004F05BE0096
:1021CC004F06BE00CF0278000E0090006000E100C8
:1021DC0007003D002E0090004200DD00660140002B
:1021EC00E000470060004700110841000B00370079
:1021FC00AE00900062004700108050004200DD00ED
:10220C006A014000E00047006000470011084100EF
:10221C009E0090006200470061885000AE00900064
:10222C0064004700618840006EFF37000080FA00B0
:04223C000000060098
:101970000000FA008EF997000B82FB000D80FB003F
:101980000020E1000A003E008C9FBE008A9FBE003E
:10199000834678008C4578000446780063FE070093
:1019A0004F05BE004F06BE000820EC00F3FF3700D5
:0819B0000080FA0000000600AF
:10132C000000FA006064E10004003900F0C3B3006F
:10133C000064E10001003E00010037001F0037008F
:10134C006054E100010031001420EF00F0C7B3003D
:10135C000054E10001003600FAC7B300605CE10004
:10136C00010031001620EF00F0C7B300005CE10073
:10137C0001003600FBC7B3000B54E100030036003C
:10138C000A80FB000B457800804578000B54E10087
:10139C000A003E008C1F78008A9FBE008C457800A6
:1013AC000D467800400007004F05BE004F06780040
:1013BC006140450000457800F4FF37000080FA00DA
:0413CC000000060017
:101784000000FA008EF997006050E10001003D006E
:101794001420EF00F00720000050E10001003400A5
:1017A400FA0720006060E10001003D001820EF000E
:1017B400F00720000060E10001003400FC07200075
:1017C4006058E10001003D001620EF00F003200006
:1017D4000058E10001003400FB0320006068E100D0
:1017E40001003D001A20EF00F00320000068E10032
:1017F40001003400FD0320000A00560000017800B7
:101804008B8056006000E10003003D006001110080
:10181400F4FF2F0001003700140020006008E100ED
:1018240003003D00E0821000F6FF2F0002003700A5
:1018340016002000810278004110DD00800078004D
:101844004128DD0080027800811F78008C1F780019
:101854008A1F78000346780015FF07004F057800BB
:101864004F067800CF0078000508E1001A00340024
:101874004188DE00008152000C50E1001500320066
:101884006010E10004003500068045008005780002
:1018940001015100000037000400450000057800F4
:1018A40005014100821F7800811F78008C1F780099
:1018B4008A1F78000346780000457800FCFE070084
:1018C4004F0578004F067800CF0078004F0178006C
:1018D400E9FF37001F00370041A8DE0000815000F7
:1018E400851F7800860278000403780001027800DE
:1018F40083407800CF0178000D58E10015003200D4
:101904006010E10004003500060045000005780081
:101914000301510000003700058045008005780070
:1019240004014100821F7800811F78008C1F780019
:101934008A9FBE000146780080457800DCFE0700DF
:101944004F05BE004F067800CF0078004F017800A5
:0C195400E9FF37000080FA0000000600E8
:1028D0000200FA008A1F78008B1F78008C1F780096
:1028E0008D1F780070002000000798008A1F780074
:1028F0001620EF000A85FB0071FC07004F057800E9
:102900008A1F78001DC0B3002C00200080057800CD
:102910000A85FB0027FB07004F0578000E0090009A
:102920000020ED008A1F78001DC0B300004678002B
:102930008A457800CA1C21009A0A07004F057800D2
:102940000A80FB006F004000004578008A1F780075
:102950001620EF000085FB0059FC07004F057800AA
:102960008A1F78001DC0B3002C002000800578006D
:102970000A85FB000FFB07004F0578000A80FB006B
:10298000670050008A1F78001DC0B3000E469000FB
:10299000804578007A1C2100820A07004F057800E4
:1029A0000A80FB006F004000004578008A1F780015
:1029B0001620EF000085FB0041FC07004F05780062
:1029C0008A1F78001DC0B3002C002000800578000D
:1029D0000A85FB00F7FA07004F0578000E0090000B
:1029E000E10050000A80FB00650050008A1F78005B
:1029F0001DC0B3000146780080457800FA1221001E
:102A0000680A07004F0578000A80FB006F0040004D
:102A1000004578008A1F78001620EF000085FB0033
:102A200027FC07004F0578008A1F78001DC0B300FF
:102A30002C002000800578000A85FB00DDFA0700E5
:102A40004F0578000A80FB006B0050008A1F780059
:102A50001DC0B3000E469000804578009A0F2100FB
:102A6000500A07004F0578000E009000E10050006A
:102A70000A80FB00640050008A1F78001DC0B3006C
:102A800001467800804578005A0F2100450A07006A
:102A90004F0578000A80FB006F0040000045780079
:102AA0008A1F78001620EF000085FB0004FC070059
:102AB0004F05780000A0ED008A1F78001DC0B3000C
:102AC0002C002000800578000A85FB00B9FA070079
:102AD0004F0578000A80FB006B0050001DC0B3005A
:102AE0000E469000804578001A1321002D0A070039
:102AF000CF0678004F067800CF0578004F057800A4
:082B00000080FA00000006004D
:1015B4000400FA000420EF00620047000A88550086
:1015C4000C037800C160DD006000470063881000F0
:1015D4000202780086027800618042000020E10067
:1015E40065003D008D41780005815500840045006B
:1015F40005804500849FBE008C9FBE008A9FBE006C
:1016040082067800010678008005780001057800DC
:101614000380FB00801F7800590007002F00B100F1
:101624004F05BE004F06BE004F02BE006020E10021
:10163400120034008D417800058155008400550066
:1016440005804500849FBE008C9FBE008A9FBE001B
:10165400820678000106780080057800010578008C
:101664000380FB00801F7800450007002F00B100B5
:101674004F05BE004F06BE004F02BE008D417800EC
:101684000481550085804500620047009080500029
:1016940004804500849FBE008C9FBE008A9FBE00CC
:1016A400820678000106780080057800010578003C
:1016B4000380FB00801F7800310007002F00B10079
:1016C4004F05BE004F06BE004F02BE006028E10079
:1016D400140034008D417800048155008580550044
:1016E400620047009080500004804500849FBE0043
:1016F4008C9FBE008A9FBE00820678000106780097
:1017040080057800010578000380FB00801F7800C5
:101714001B0007002F00B1004F05BE004F06BE009E
:101724004F02BE000E0090006000E10007003D0083
:101734004220DD0066014000E000470060004700F1
:101744001108410005037800070037000500520026
:101754004200DD006A014000E000470060004700ED
:1017640011084100618352006100420000027800C8
:101774008602780098FF37000080FA000000060017
:0017840065
:101AC0000400FA008A1F78008B1F78008C1F7800B2
:101AD0008D1F78006058E10039003A0000022000B4
:101AE000D0908800E0012000C09088008A1F780014
:101AF000E0012000010020000081EB00300607001B
:101B00000C0020000D0024000005BE0026FD07008B
:101B10004F057800A0908800B1908800E200450051
:101B20000002200000805000CF80DE000081EB002A
:101B3000230607000C0020000D0024000005BE0055
:101B400019FD07000007980011079800E090880031
:101B5000F1908800A0908000B1908000829FBE002C
:101B60000E0190009E01900055FC07004F01BE0041
:101B7000A0908800B19088000005BE0079FD0700A4
:101B8000000798001107980000002000812424001D
:101B9000829FBE000E0190009E01900048FC07004D
:101BA0004F01BE000005BE00D1FB0700A0908800D9
:101BB000B1908800C8FA0700000578003A003700A5
:101BC0006158E10038003A0000062000D0908800FB
:101BD000E0012000C09088008A1F7800E00120000A
:101BE000010020000081EB00F50507000C0020003B
:101BF0000D0024000005BE00EBFC07004F05780037
:101C0000A0908800B19088000002200000005500DC
:101C1000CF80DE000081EB00E90507000C0020000A
:101C20000D0024000005BE00DFFC0700000798003F
:101C300011079800E0908800F1908800A090800043
:101C4000B1908000829FBE000E0190009E01900026
:101C50001BFC07004F01BE00A0908800B1908800D7
:101C60000005BE003FFD070000079800110798001F
:101C70000000200081242400829FBE000E019000FD
:101C80009E0190000EFC07004F01BE000005BE0043
:101C900097FB0700A0908800B19088008EFA07009B
:101CA0000005780000003700CF0678004F06780066
:101CB000CF0578004F0578000080FA00000006008C
:001CC00024
:100FA8000600FA0000002000200798008C9FBE0071
:100FB8008A9FBE000C00BE000420EF000620EF0050
:100FC800D20507000000E0000060EF0001003A00D1
:100FD8000060EC004F05BE004F06BE000040E20076
:100FE800030032000000200001F8230059003700F8
:100FF8008C9FBE008A9FBE000A00BE000420EF003E
:101008000620EF00C10507000000E0000060EF00C7
:1010180001003A000060EC004F05BE004F06BE001C
:101028000040E200030032000020EF000220EF0041
:10103800480037008C9FBE008A9FBE000420EF0046
:101048000620EF000A00BE00B00507000000E0001F
:101058000060EF0001003D000060EC004F05BE009D
:101068004F06BE000040E200210032008C9FBE0007
:101078008A9FBE000C00BE0095FD0700000798007F
:10108800110798000081EB00CB0807004F05BE0050
:101098004F06BE008C9FBE008A9FBE000C01BE009A
:1010A8009A0507000000E0000060EF000100320030
:1010B8000060EC004F05BE004F06BE000040E20095
:1010C800030032000020EF000220EF00210037006B
:1010D8008E009000640047006188600000002000D6
:1010E8000100280000006D0081806D000005BE0031
:1010F8008C9FBE008A9FBE0072FF07004F05BE008E
:101108004F06BE000005BE008A9FBE000C01BE004F
:10111800740407004F05BE000005BE008A9FBE008C
:101128000005BE00E9FE07004F05BE000005BE0031
:10113800640047001000E0000500320000002000B5
:101148000100280000006D0081806D00010037005B
:0C1158000A00BE000080FA000000060043
:100ECC000200FA008C1F78008D1F78008A9FBE00EC
:100EDC000420EF000620EF000A00BE000A060700FF
:100EEC000000E0000060EF0001003C000060EC003E
:100EFC004F05BE000040E200030032000020EF006E
:100F0C000220EF0021003700600047000006780047
:100F1C0031FF07008A9FBE0002002000030024005E
:100F2C00EF0407000200200003F8230061FF070014
:100F3C004F05BE000005BE001300200060014700F5
:100F4C00128911008A9FBE008D0020004C1C2A00C3
:100F5C000005BE0036FF07004F05BE000005BE00B1
:100F6C008A9FBE000E009000CF80DE000081EB0057
:100F7C00100907008221270013F32300D80407006F
:100F8C004F05BE000A01BE001AFD0700CF0678000F
:0C0F9C004F0678000080FA0000000600FC
:100BE4000400FA000A0798001B0798009E00900072
:100BF40000F8270080806000C708DE00E0072000BE
:100C040000805000000E780001F0230062004700CD
:100C14009080680000F82700808060006200470030
:100C240090806800110798000E0090009E009000CC
:080C34000080FA000000060038
:100C3C000000FA004268DD00000146001020200090
:100C4C0034A0B7001200BE000001BE001A00E20082
:100C5C00150032008C9FBE008A9FBE000200BE00B1
:100C6C000A01BE009E0507004F05BE004F06BE00E0
:100C7C0061815600820678004269DD00020246005E
:100C8C0012202000A20188001401BE008C9FBE001F
:100C9C008A9FBE00D7FD07004F05BE004F06BE0061
:100CAC000001BE00E9FF37000200BE000080FA0020
:040CBC00000006002E
:100400000000FA000200070068030400000000007A
:10041000889FBE008A9FBE008C1F7800590007008D
:10042000600033006450E1004F0032006420E100BE
:100430005200320003826C0007003B000905D00027
:100440000306D000820F54000C065D000200390044
:100450000200320039008800C30088008582550000
:1004600004003D000003FD008103FD008502EA0059
:100470008B854200840F720002003B006000100078
:10048000E08018006011B8000005EB007A28E10058
:100490000A00390006008800C75DDD00F707B200DA
:1004A000878075002D003700828171002A00880046
:1004B000610560008180D1000080D3008502E900E1
:1004C000F9FF3B00060440008784480002003B001F
:1004D00060041400E0841C000988A30007003200B7
:1004E0008A81710082817100610164008904D100F8
:1004F0000884D3008B05E800170037000978A300B3
:1005000013003A001600E200130034008B05E900E6
:100510000804440089844C000A4474000978A3004C
:100520000D003A001600E200070034008B05E900D8
:100530000804440089844C0001003A000B002000AC
:100540000978A300F7FF32000001EB00020037003A
:10055000828171002A008800220007000CF0A700A9
:1005600003E0A800180037006420E10002003A0010
:10057000838F6C00180033000881BE000280BE002B
:10058000110037000084BE003C0007000083BE005D
:100590000485BE000280BE0038000700844F75004D
:1005A000000006000280BE006450E1000500360035
:1005B0006420E100020036000968A30001003A004F
:1005C0000880BE0002C0A8004F0678004F05BE009C
:1005D0004F04BE0000000600F0FF2F00F1FF2700CF
:1005E000F9FF370081002000618055000B003D00BD
:1005F0000B00200061FE2F000100E1001D0034000F
:1006000082817100610164008904D1000884D300F3
:100610000000E800FAFF3A00710020006100640069
:100620000300700002006000090032006104440011
:10063000E0844C000988A500050032008B05E80025
:100640006808E10002003A008904D1000884D30060
:10065000F20F20000258E10005003D00C75DDD00FB
:10066000F907B200898075000800880000000600C4
:100670000BF827001B00880000000500C70ADE00F9
:10068000F107B200F50FB20008003200E1CF4200DE
:100690000200320002E0A80024000500810F700073
:1006A000010032000408050044000500810F7000BD
:1006B00002003A00140005008502E9000000400035
:1006C00081C04800FCFF3B0002E0A80024000500B8
:0806D0000080FA0000000600A2
:100CC0000000FA0007E0AA00CDFD07000080FA004E
:040CD000000006001A
:100CD4000400FA008C1F78008D1F78008A9FBE00E4
:100CE4000A00BE000420EF000620EF00880607007B
:100CF4000000E0000060EF0001003A000060EC003A
:100D04004F05BE000040E200030032000000200056
:100D140001F82300680037008A9FBE00E24F2D00CF
:100D2400232B24000A00BE006A0507000000E0002F
:100D34000060EF00010034000060EC004F05BE00CD
:100D44000040E20003003200F0FF2F00F1F727001B
:100D5400590037008A9FBE0002C52A00E32A2C00EE
:100D64000A00BE006A0607000000E0000060EF0011
:100D740001003D000060EC004F05BE000040E200B1
:100D8400030032000020EF000220EF004A00370089
:100D94008A9FBE000420EF000620EF000A00BE0078
:100DA4005B0607000000E0000060EF0001003D006A
:100DB4000060EC004F05BE00204798000040E200B0
:100DC40005003200000020000100280000006D0032
:100DD40081806D000005BE008A9FBE000A00BE002F
:100DE400B2A32A0083FB23003F0507004F05BE0082
:100DF4000005BE008A9FBE000005BE003BFF070041
:100E040034FE070000079800CF80DE000081EB006D
:100E14006A0907004F05BE008A9FBE000001BE009C
:100E24000A00BE00A5FF07004F05BE000005BE0076
:100E34008A9FBE009D002000CC192A000005BE0038
:100E44007DFF07000E0690000005BE00F8FE0700B7
:100E54004F05BE000005BE00620047001004E0001C
:100E6400140032008A9FBE000A00BE00F2FF2F0069
:100E7400F3F72700260607000000E0000060EF00FB
:100E840001003A000060EC004F05BE000040E200A3
:100E9400030032000020EF000220EF0006003700BC
:100EA4000A01BE000000200001F8230045FE0700EF
:100EB400010037000A00BE00CF0678004F06780014
:080EC4000080FA0000000600A6
:100AF0000000FA00700120008A0078000B017800E5
:100B00000000E900030035000201D1008180D3001C
:100B1000FBFF3700F00F200080806000F00720000E
:100B200000805000800078006000E10010003D006F
:100B30000420EF000620EF000A00BE00F5060700C3
:100B40000000E0000060EF0001003D000060EC00EC
:100B50000040E200030032000000200001F82B00FA
:100B60001E0037000020EF000220EF001B003700BE
:100B70007808E100020036000A00BE0017003700C6
:100B80008A9FBE000A00BE00D3FE07000081EB0072
:100B90000B0A07004F05BE000002BE00849FBE0086
:100BA0000A01BE00CC0507000000E0000060EF0075
:100BB000010034000060EC004F02BE000040E20083
:100BC000050032000200200003F823000400BE00EC
:100BD0003B000700010037000400BE000080FA005F
:040BE000000006000B
:1006D8000000FA0002000700E00304000000000028
:1006E8000081BE001F0007000470A70003F0A100EE
:1006F8006509B100160032000D0035006828E100D8
:1007080006003500F0FF2F00F1FF27000600E20089
:1007180013003B0001002800000005000000400015
:10072800818048008502E900FCFF3A000800370094
:10073800F88F420002003C008000EB00000005003A
:100748008100D1000080D3008502E800FCFF3A0058
:100758000600E20002003B0060001000E080180084
:1007680000000600C70ADE00F107B200F50FB2006C
:1007780008003200E1CF42000200320002E0A80087
:1007880024000500810F70000100320004080500F4
:1007980044000500810F700002003A0014000500B3
:1007A8008502E9000000400081C04800FCFF3B00D2
:1007B80002E0A800240005000080FA0000000600FE
:0007C80031
:100A34000400FA000A0798001B0798009E00900023
:100A440000F82700008060004700DE000000460038
:100A5400000678006000E10003003D000020EF0084
:100A64000220EF001F003700F00F20000060E100BB
:100A7400100034000420EF000620EF000A00BE003E
:100A8400230707000000E0000060EF0001003D00C4
:100A94000060EC000040E20003003200F0FF2F0091
:100AA400F1F72F000F003700F0FF2F00F1F72700B8
:100AB4000C00370070C0B3000000FB008060DD0054
:100AC400620047009080680000F827008080600082
:100AD4006200470090806800110798000E009000A3
:0C0AE4009E0090000080FA000000060058
:1007C8000000FA00020007001605040000000000FF
:1007D800889FBE008A9FBE008C1F78003E000700DD
:1007E8004500330003866C006450E1002E0032009F
:1007F8006420E100330032006150E1002F00320034
:100808006120E1003100320085855500EB07B0001A
:1008180009002000080420000500370008044400EF
:1008280089844C000A0031000603430087834B008B
:100838000001530081815B00F8FF33000283BE0092
:100848001000A8000804440089844C00F6FF390011
:10085800C639DD0083017300010032001300200057
:100868008904D1000884D3000998A3000500320048
:100878000800A7000600A8008904D1000884D30056
:100888008B05E8008904D1000884D3000001EB003F
:100898000281D2002800070001F0A1000CF0A70097
:1008A80003E0A8001D0037006420E1001F003200AB
:1008B8000881BE000280BE00F7FF37006120E1001A
:1008C8001A0032006000B800F3FF37000000200073
:1008D80001F82700F0FF37000084BE003C00070045
:1008E8000083BE000485BE000280BE0038000700F9
:1008F800844F7500000006000280BE006450E100CD
:10090800050036006420E100020036000968A300F3
:1009180001003A000880BE0002C0A8004F06780017
:100928004F05BE004F04BE0000000600F0FF2F0078
:10093800F1FF2700F9FF3700810020006180550092
:100948000B003D000B00200061FE2F000100E100BC
:100958001D00340082817100610164008904D100A6
:100968000884D3000000E800FAFF3A007100200074
:10097800610064000300700002006000090032009A
:1009880061044400E0844C000988A5000500320099
:100998008B05E8006808E10002003A008904D100EC
:1009A8000884D300F20F20000258E10005003D0042
:1009B800C75DDD00F907B20089807500080088006E
:1009C800000006000BF827001B0088000000050047
:1009D800C70ADE00F107B200F50FB20008003200C6
:1009E800E1CF42000200320002E0A8002400050026
:1009F800810F700001003200040805004400050062
:100A0800810F700002003A00140005008502E90019
:100A18000000400081C04800FCFF3B0002E0A80045
:0C0A2800240005000080FA000000060019
:101164000C00FA008C1F78008A9FBE000420EF0058
:101174000620EF000A00BE00650507000000E0003D
:101184000060EF0001003C000060EC004F05BE0071
:101194000040E200030032000020EF000220EF00D4
:1011A4005E0037000A0798001B0798008A9FBE005C
:1011B4000200200003F823000A00BE0054050700C3
:1011C4000000E0000060EF0001003D000060EC0062
:1011D4004F05BE000040E200090032008A9FBE00B5
:1011E4000E0190009E0190000000200001F82300F1
:1011F40074FD07004F05BE00000798001107980012
:101204006A0047008A9FBE00000678000E05900021
:101214009E05900072FE07005E0190004191DE0081
:10122400020678000005BE0001FE07004F05BE005F
:1012340000079800110798008A9FBE000200200052
:1012440003F823000A00BE00310507000000E00097
:101254000060EF0001003D000060EC004F05BE009F
:101264000040E200090032008A9FBE000E01900097
:101274009E0190000000200001F8230051FD0700AA
:101284004F05BE0000079800110798004001200098
:10129400400798008A9FBE000E0190009E019000B6
:1012A4000A00BE0047FD07000E0190009E01900059
:1012B40052FC0700020020000300240041FD070047
:1012C40020079800310798000E0190009E019000BD
:1012D4000F0507000000E0000060EF0001003A0085
:1012E4000060EC004F05BE000040E2000100320047
:1012F400080037002E009000BE0090000007980000
:10130400110798004E0090000020ED00400798005F
:10131400E0FF3A000E0090009E0090004F06780017
:081324000080FA000000060041
:102CD0000200FA008A1F78008B1F78008C1F780092
:102CE0008D1F780070002000000798008A1F780070
:102CF0001620EF000A85FB0071FB07004F057800E6
:102D00000A81FB0001042000810041008A1F780035
:102D10001DC0B3002C00200080057800010578005C
:102D200024FA07004F0578000E0090006101500062
:102D30008A80FB0000042000008040008A1F780089
:102D40001DC0B30002467800804578005A0021007B
:102D5000940907004F0578000A80FB006F004000CF
:102D6000004578008A1F78001620EF000085FB00E0
:102D700053FB07004F0578000A81FB000104200087
:102D8000810041008A1F78001DC0B3002C00200084
:102D9000800578000105780006FA07004F057800E5
:102DA0008A80FB0000042000008040006700500083
:102DB0008A1F78001DC0B3000E4690008045780041
:102DC0000A002100770907004F0578000A80FB0000
:102DD0006F004000004578008A1F78001620EF0041
:102DE0000085FB0036FB07004F0578000A81FB00D9
:102DF00001042000810041008A1F78001DC0B3003B
:102E00002C0020008005780001057800E9F9070012
:102E10004F0578000E009000610150008A80FB0091
:102E20000004200000804000650050008A1F7800E8
:102E30001DC0B30002467800804578006A06210074
:102E4000580907004F0578000A80FB006F0040001A
:102E5000004578008A1F78001620EF000085FB00EF
:102E600017FB07004F0578000A81FB0001042000D2
:102E7000810041008A1F78001DC0B3002C00200093
:102E80008005780001057800CAF907004F05780031
:102E90008A80FB0000042000008040006B0050008E
:102EA0008A1F78001DC0B3000E4690008045780050
:102EB0002A0321003B0907004F0578000E0090000F
:102EC000610150008A80FB00000420000080400067
:102ED000640050008A1F78001DC0B30002467800CD
:102EE00080457800EA0221002E0907004F0578008E
:102EF0000A80FB006F004000004578008A1F7800C0
:102F00001620EF000085FB00EDFA07004F05780062
:102F1000620150008A80FB00000420000080400015
:102F20008A1F78001DC0B3002C00200082057800A5
:102F3000000578009FF907004F0578000A80FB0024
:102F4000EB00500000042000008040001DC0B300D2
:102F50000E469000804578008A062100110907007E
:102F6000CF0678004F067800CF0578004F0578002F
:082F70000080FA0000000600D9
:1046BC000600FA008A1F78008B1F78008C1F780088
:1046CC008D1F7800C0808000CF80DE000081EB0061
:1046DC0038FB070082162900D3D6230000F7070009
:1046EC00A0908800B1908800B0808000CF80DE0060
:1046FC000081EB002FFB070082162900D3D6230084
:10470C00F7F607001007980021079800E090880042
:10471C00F1908800A0908000B1908000EBEF070032
:10472C0000079800009188001E009000AE009000D9
:10473C00E6EF0700109188000E0090001620EF00A5
:10474C0000457800C9FA07001B0020001A91800070
:10475C00C6FA0700C0808000CF80DE000081EB002D
:10476C0014FB0700723E2E00A3B52300DCF60700F5
:10477C00A0908800B1908800B0808000CF80DE00CF
:10478C000081EB000BFB0700723E2E00A3B523004B
:10479C00D3F60700E0908800F1908800A09080008C
:1047AC00B190800002002000A3472400CCF6070043
:1047BC00C6EF070000918800CF80DE000081EB007F
:1047CC00FCFA0700F226210033A82300C4F60700E8
:1047DC00A0908800B1908800E0908000F19080005B
:1047EC0002002000A3472400BDF60700B7EF070026
:1047FC0000918800CF80DE000081EB00EDFA07000D
:10480C00F226210033A82300B5F60700E0908800BB
:10481C00F19088001A20EF001820EF00AA90800079
:10482C00BB908000D1F907001A20EF000CC4B30034
:10483C00EA908000FB908000CCF90700CF0678004E
:10484C004F067800CF0578004F0578000080FA00FD
:04485C000000060052
:103278008B1F78008C1F78008D1F78006058E10044
:1032880021003A0000022000D09088008A1F7800B0
:103298001620EF006A83800007FA0700800678008E
:1032A8006C8380002B0320000A02200020002000ED
:1032B800801F780031F907002F00B1004F05780012
:1032C8008A1F78001620EF000A85FB00FAF907002C
:1032D8004F0578008A1F7800800678000A86FB0070
:1032E8002B0320000A02200010002000801F780015
:1032F80022F907002F00B1004F0578000A80FB0073
:1033080060838800280037006158E10026003A00F1
:1033180000062000D09088008A1F78001B0020003B
:103328006A818000E4F9070002042000C10221003C
:103338009100410080067800010678002B032000E8
:103348000A06200020002000801F78000BF90700E3
:103358002F00B1004F0578008A1F78001B0020005D
:103368000A85FB00D4F907004F0578000A81FB00A5
:1033780001042000810041008A1F7800800678003F
:10338800010678002B0320000A0620001000200008
:10339800801F7800F9F807002F00B1004F0578006A
:1033A8000A80FB0060818800CF0678004F0678000D
:0833B800CF05780000000600BB
:102F78001800FA008A1F78008B1F78008C1F7800D1
:102F88008D1F78008C9FBE008A9FBE000A00BE007D
:102F9800D2CC2C00C3DC2300D2FC0700CCF5070000
:102FA80000079800A10020000088B900CF80DE004B
:102FB8000081EB00000107004F05BE008A9FBE009C
:102FC8000001BE000A00BE003BF70700C0F507007D
:102FD8004F05BE004F06BE00100798008A9FBE002E
:102FE8004B2221000045780093FC07000C80FB0071
:102FF80065004000200F98004A222100A5FD070027
:103008004F05BE00AE0890008C9FBE008A9FBE0090
:103018000D4678001DC0B300814578000005780092
:10302800DE0807004F05BE004F06BE000C80FB00FF
:103038006B0040008C9FBE008A9FBE000D46780042
:103048001DC0B300804578006A0C2100D308070032
:10305800A3002000600147001298B900CF80DE006D
:103068000081EB00D40007004F05BE000001BE0040
:103078000A00BE0010F70700200F9800310F9800D3
:103088001E009000CF80DE000081EB00CA00070020
:1030980060079800710798006E019000FE0190008B
:1030A8002E089000BE08900003F7070002002400D5
:1030B800C36124008BFC0700400798005107980063
:1030C80002002000A3472400BDF5070080F5070093
:1030D8004F06BE00200798004B22210000457800CB
:1030E80055FC07000C80FB0071004000200F980081
:1030F8004A22210067FD0700AE0890008C9FBE00A1
:103108000D4678001DC0B3008145780000057800A1
:10311800A2080700AE009000803E20000088B90099
:10312800CF80DE000081EB00A30007006007980055
:10313800710798004E009000DE0090006E0190002C
:10314800FE019000DCF6070002002000832C24001A
:103158009BF507005EF507004F06BE003007980094
:103168004B2221000045780033FC07000C80FB004F
:1031780077004000200F98004A22210045FD0700F3
:10318800AE0890008C9FBE000D4678001DC0B300AD
:10319800814578000005780080080700AE0090009F
:1031A800803E20000088B900CF80DE000081EB005F
:1031B8008100070060079800710798004E00900092
:1031C800DE0090006E019000FE019000BAF6070044
:1031D800200F9800310F9800430620006601470031
:1031E8001298B900CF80DE000081EB007200070062
:1031F80060079800710798006E019000FE0190002A
:103208002E089000BE089000ABF6070002002000D0
:10321800031224006AF507002DF507004F06BE00CB
:103228004B2221000045780003FC07000C80FB00BE
:103238007D004000200F98004A22210015FD07005C
:10324800AE0890000D4678001DC0B3008145780097
:103258000005780051080700CF0678004F0678006F
:10326800CF0578004F0578000080FA0000000600BE
:0032780056
:102240000200FA000420EF006314E10006003100F0
:102250000280FB008080450000C2B3008048780007
:102260000460EC00F8FF37000280FB00808045002E
:102270000020EF0080487800E14151000380FB001E
:1022800000804500000798000A80FB00A2002000A3
:10229000110009000280D800000320008080400067
:1022A0000E009000014878000A80FB00A200200088
:1022B000110009000280D800004578006004E100A8
:1022C00001003A00020037000660ED00EBFF370026
:0822D0000080FA000000060086
:10269C000400FA000620EF000A0798001A079800B9
:1026AC00000037000E0090009040780000C2B3008C
:1026BC00000CE10003003A000600E20001003A00C1
:1026CC0007003700130020008E0090001E009000C1
:1026DC00114878009E00900062004700618840001D
:1026EC000E0190008E009000600047006188400051
:1026FC00124078006004E100EAFF3A000A0078001A
:08270C000080FA000000060045
:105DB0000100210010172A002A000900B0587800BD
:105DC000C102210000F629004B000900B01878003C
:105DD000B0587800B102210030EA2900B0587800AC
:105DE000510C2100F00F2A0071000900B058780012
:105DF0008113210040EA29005D000900B0187800F5
:045E00000000060098
:105994003400F8003200F8003600F800801F780068
:1059A400200020000C000900B01F78008A1F780036
:1059B4008B1F78008C1F78008D1F78000C28A9009D
:1059C400336EAF00130037000A4028001020200077
:1059D40080057800EDFE07001DC0B3007CC0B30055
:1059E4001620EF009A1B21006DFE070020C820003E
:1059F40090407800F0CCB30080C0600020C8200044
:105A04000148780081ECA90011E1A8000020EF0012
:105A1400708E8800CF0678004F067800CF05780096
:105A24004F057800A00120000C0009004F107800F9
:105A34004F0078003600F9003200F9003400F90014
:045A44000040060018
:105BC0003400F8003200F8003600F800801F78003A
:105BD000200020000C000900B01F78008A1F780008
:105BE0008B1F78008C1F78008D1F78000C08A9008F
:105BF00061ECA900320EAF001300370020C820006E
:105C000090407800F0CCB30080C0600020C8200035
:105C10000148780081ECA9000A002800102020002B
:105C2000800578005AFE07001DC0B3006CC0B300A9
:105C30001620EF006A1E2100DAFD07000020EF00A9
:105C4000708E880011E1A800CF0678004F0678001A
:105C5000CF0578004F057800A00120000C00090056
:105C60004F1078004F0078003600F9003200F9003C
:085C70003400F90000400600B9
:105CCC003400F8003200F8003600F800801F78002D
:105CDC00200020000C000900B01F78008A1F7800FB
:105CEC008B1F78008C1F78008D1F7800C401AE00CC
:105CFC0017003700C821EF00A0842000C6A1B70010
:105D0C0000002400C1592400F08F88000190880005
:105D1C0038002000179F24000E20ED00FEFF3A00F3
:105D2C001020ED00FCFF3A00010E8000F03F2E0029
:105D3C0000806000C0A1B700C401A9001DC0B30061
:105D4C005CC0B3001BC0B3009A19210092FD070080
:105D5C00C5A1AE0002003700E7FB0700C5A1A900F2
:105D6C00C561AE0002003700CDFA0700C561A9007D
:105D7C000748A900CF0678004F067800CF057800B9
:105D8C004F057800A00120000C0009004F1078008E
:105D9C004F0078003600F9003200F9003400F900A9
:045DAC0000400600AD
:104D04008A1F78008B1F78008C1F78008D1F780015
:104D14000A80280010202000800578001B0207006C
:104D24001DC0B3007CC0B3001620EF00BA1D2100E3
:104D34009B0107000020EF00708E880011E1A8009D
:104D4400CF0678004F067800CF0578004F0578002D
:044D54000000060055
:1048AC008A1F78008B1F78008C1F78008D1F780072
:1048BC000A00290010202000800578003103070031
:1048CC001DC0B3007CC0B3001620EF000A1D2100F0
:1048DC00B10207000020EF00708E880011E1A800E3
:1048EC00CF0678004F067800CF0578004F0578008A
:0448FC0000000600B2
:105C78003400F8003200F8003600F800801F780081
:105C8800200020000C000900B01F78008A1F78004F
:105C98001420EF002EFC07000368A9001FE1A900EB
:105CA8004F057800A00120000C0009004F10780073
:105CB8004F0078003600F9003200F9003400F9008E
:045CC8000040060092
:105690003400F8003200F8003600F800801F78006F
:1056A000200020000C000900B01F78008A1F78003D
:1056B0008B1F78008C1F78008D1F780001A8A9002F
:1056C0000083BF00109288000283BF0060908800B2
:1056D000075327000E20ED00FEFF3A0000000000F7
:1056E000000000001A92800085FC070011E1AF0065
:1056F0002400370031638000007D20000008E100B5
:10570000050031001DC0B3007CC0B3001BC0B30056
:105710000A04210023FF070031638000007D200080
:105720000008E100050036001DC0B3007CC0B300D6
:105730001BC0B3006A0321001AFF07003164800018
:10574000007D20000008E100050031001DC0B3000D
:105750007CC0B3002BC3B300CA15210011FF0700A2
:1057600031648000007D20000008E1000500360063
:105770001DC0B3007CC0B3002BC3B3005A18210076
:1057800008FF07006A908000ABFC070010928000C1
:10579000C080880060908000B0808800CF067800CC
:1057A0004F067800CF0578004F057800A001200053
:1057B0000C0009004F1078004F0078003600F90007
:0C57C0003200F9003400F900004006003F
:10490000800C20000050E10003003E00401F20000A
:1049100086ACB70047003700800C20000050E10053
:1049200006003600E01520000050E10003003E00C4
:104930002035200086ACB7003E003700E01520008F
:104940000050E10006003600201C20000050E1006D
:1049500003003E00204E200086ACB7003500370033
:10496000201C20000050E10006003600001E200040
:104970000050E10003003E00A05A200086ACB700C2
:104980002C003700001E20000050E1000600360019
:10499000202120000050E10003003E00007D2000A7
:1049A00086ACB70023003700202120000050E10032
:1049B00006003600802520000050E10003003E0084
:1049C0002099200086ACB7001A003700802520000F
:1049D0000050E10006003600E02E20000050E1000B
:1049E00003003E0020B2200086ACB7001100370063
:1049F000E02E20000050E10006003600603B200061
:104A00000050E10003003E0020CB200086ACB70040
:104A100008003700603B20000050E1000500360030
:104A2000F03F20000050E10002003E0080ED200039
:084A300086ACB700000006008F
:104A3800800C20000050E10003003E00401F2000D1
:104A480066ACB70046003700800C20000050E1003B
:104A580006003600E01520000050E10003003E008B
:104A68002035200066ACB7003D003700E015200077
:104A78000050E10006003600201C20000050E10034
:104A880003003E00204E200066ACB700340037001B
:104A9800201C20000050E10006003600001E200007
:104AA8000050E10003003E00A05A200066ACB700A9
:104AB8002B003700001E20000050E10005003600E2
:104AC800202120000050E10002003E0001ECA90076
:104AD80023003700202120000050E10006003600A6
:104AE800802520000050E10003003E0020992000AE
:104AF80066ACB7001A003700802520000050E1009E
:104B080006003600E02E20000050E10003003E00C1
:104B180020B2200066ACB70011003700E02E20005C
